:020000040000FA
:060000003DEF9EF012002E
:020006001200E6
:0600080051EF71F012003F
:02000E000004EC
:04001000A300000049
:02001400FFFFEC
:02001600FEFEEC
:060018002BEF71F0120055
:02001E001D00C3
:10002000CE3D01006709000001000000CD3D010048
:100030006609000001000000CB3D01005A090000E4
:10004000020000005D3D0100000E00006E00000097
:100050005C3D01006509000001000000533D010006
:100060003309000009000000513D0100580900005B
:1000700002000000503D0100640900000100000082
:100080004E3D010056090000020000004B3D0100FA
:100090004F09000003000000383D0100B9080000CE
:1000A00013000000373D010063090000010000005B
:1000B000333D01004809000004000000323D01000A
:1000C0006209000001000000303D010054090000F9
:1000D00002000000283D0100F808000008000000B0
:1000E000273D01006109000001000000263D0100DC
:1000F0006009000001000000253D01005F090000CB
:1001000001000000223D01004C0900000300000036
:10011000DA3C01004B06000048000000D13C010021
:10012000570F000009000000013C01005E090000BB
:1001300001000000CF3C0100520900000200000055
:1001400016000000FE04000002000000638E0000A4
:100150005D09000001000000CB3C010044090000E3
:1001600004000000C13C0100290900000A00000051
:0C01700014000000FE000000020000006F
:04017C0002014551E6
:100180000901525D01E11200FE0E525D0CE01C0EF1
:10019000E66EE66A290EE66E020EE66E525197ECA6
:1001A00018F022EC19F045C252F9FE0E0201455D2D
:1001B00001E112001C0EE66EE66A455197EC18F05C
:1001C000290EE66E020EE66E22EF19F00901525179
:1001D000535D01E11200FE0E535D21E0270E020186
:1001E000C56FC66B0201010EC46F0201020EC26F21
:1001F000020EC36F09010CEC19F01B0E79EC1AF01A
:10020000EFCFC1F20CEC19F0EECFBFF2EFCFC0F29E
:100210000201270EBF5F000EC05B0DEC16F052C945
:1002200053F9270EFAEC18F029C2C2F22AC2C3F21F
:100230000201C25F000EC35B31EC1AF0020EBF6F09
:10024000020EC06F0DEF16F00C01C20E1D6F0F0EE7
:100250001E6F0201005101110FE183EC5CF01EC022
:1002600000F21FC001F2FF0E02010017070E011776
:10027000000E0027040E01233C0EE66EE66AE66AD5
:10028000820EE66E070EE66ED7EC81F0006E050E6C
:10029000E15E00500C01156B146B1451EDEC17F07E
:1002A00001E38ED014CC45F269DF1FEC17F058EC57
:1002B00017F0F62A000EF722F8220800F5CF1CFCF2
:1002C0001FEC17F058EC17F0020EF626000EF7227E
:1002D000F8220900F5CF16FC0A00F5CF17FC1FEC39
:1002E00017F0FEEC1AF0040EF626000EF722F822A4
:1002F0000900F5CF18FC0A00F5CF19FC0C011C51C0
:1003000028E11DCC1AFC1ECC1BFC270E036A162507
:10031000026E1751032234EC1AF002501825006EB9
:1003200003501921A1EC1AF000501D2701501E2383
:100330001DCC00F01ECC01F0026A036AD880FE0ECC
:1003400000541E0E0154000E0254000E035402E22B
:10035000EFD7FFD71CCC44F2270E0C011A2502015F
:10036000296F000E0C011B2102012A6F29510C017B
:10037000162502012B6F2A510C01172102012C6F47
:10038000010E2B27000E2C232B510C0118250201E6
:100390002D6F2C510C01192102012E6F0D0E3F6F94
:1003A000409714DF1FEC17F01CC003F0FEEC1AF0AE
:1003B0000800F5CF28F2A6EC0FF00C01142B6DD736
:1003C00012000C013B6B3B51EDEC17F001E390D0B8
:1003D0003BCC45F2D3DE0D0E02013F5D01E085D03E
:1003E000F5DE02014D51285D01E07FD0180E256F2A
:1003F000020E266F4A510CE14BC212F24CC213F2AC
:100400004087040E3F6F4BC242F24CC243F26AD0A7
:10041000000E005D040E015906E3880ED8800055D9
:10042000130E015503E2006B040E016F00C212F2BD
:1004300001C213F2002B000E01234BC210F24CC27A
:1004400011F27DEC1AF0020140894A51040A25E0BC
:10045000070A11E0020A02E0030A44E14DEC19F038
:10046000020E4A5D02E0000E01D0010E2495E8B0B4
:1004700024853F6B37D048514625026E49514721AC
:10048000A2EC18F04DEC19F0276B270E026F036BEE
:10049000046B056B020E3F6F25D046C2E9FF47C2D1
:1004A000EAFF56EC19F046C2E9FF47C2EAFF0450E2
:1004B000EE24026E0550EE20A2EC18F00A0EE66E55
:1004C000E66A46C2E6FF47C2E6FFB7EC19F08DECDC
:1004D00018F00201050E3F6FB7EC1AF0020EAD6F77
:1004E000D6EC0BF00C013B5112000C013B2B6BD7EF
:1004F000FE0C4EC245F242DE020141A902D04199F2
:10050000010C000C4FC245F239DE070E02013F5DBF
:1005100001E0000C010C50C245F2E4EC19F00201BC
:100520003F51080A38E0010A36E0050A34E0020AC1
:100530002FE0050A1FE00D0A0FE0010A0DE0070A8F
:1005400031E0020A2FE0010A2DE0060A2BE0040A3E
:1005500022E1D9EC6DF026D089EC18F0020114519B
:10056000151106E00E512F19F7E10F513019F4E182
:10057000080E0FD089EC18F002011451151106E095
:100580000E512F19F7E10F513019F4E10C0E01D083
:100590000D0E3F6F12000201AE6B0201140EAD6F23
:1005A000D6EC0BF0A6EF0FF051C245F2E7DD0201E9
:1005B000409751C250F28BEF02F052C245F239EC33
:1005C0001AF00A0EE66EE66AB7EC19F0530EE66E04
:1005D000020EE66E8DEC18F010C25DF211C25EF2F2
:1005E000530E006E020E98EF17F05FC245F239EC21
:1005F0001AF002010E512F1902E10F51301902E0D9
:1006000051EC17F0120060C245F2B8DD3FC245FC64
:10061000070E0C01455D06E00B0E455D03E0F36A35
:10062000F46A1200020131512F5D3251305916E344
:1006300029512B5D026E2C512A55036E0206000EC5
:10064000035A31512F5D046E30513255056E0450FE
:10065000025C006E0550035898EF17F02F51315D82
:10066000006E32513055016E0006000E015A00C076
:10067000F3FF01C0F4FF120061C245F27FDD61C2E9
:1006800060F2C1DFF3CF0FFCF4CF10FC0C01F3508C
:10069000F41001E1000C010E0F1904E1105102E108
:1006A0003DEC1AF002014151010B0CE1F0EC1AF0A3
:1006B0000C010F51005C1051015804E33DEC1AF09D
:1006C00002014181010E0201C56FC66B0201C46FB8
:1006D0000201620EC26F020EC36FCEEC1AF002016D
:1006E0002F2B000E30232B512F5D2C51305902E35C
:1006F0003AEC19F00C01010E0F1905E1105103E15C
:100700003DEC1AF0010C020140BB02D055EC17F091
:10071000010C0C01AF6BB06B63C245F22FDD63C2FD
:1007200060F271DFF3CFADFCF4CFAEFC0C01F350FF
:10073000F41005E141EC1AF0F36AF46A1200ADCC52
:10074000ABFCAECCACFCC6EC19F004E266C2ABFC70
:1007500067C2ACFC4151010B0CE1F0EC1AF00C014A
:10076000AD51005CAE51015804E341EC1AF00201B6
:10077000418102012F510C01AB25006E0201305165
:100780000C01AC21EBEC19F01EE32F512B5D0C0199
:10079000AF6F020130512C590C01B06FAFCCC5F2D4
:1007A000E8CFC6F219EC18F00C01AF510201642732
:1007B0000C01B051020165230C01AF51AB5FB05188
:1007C000AC5B3AEC19F0ABCCC5F2ACCCC6F219EC90
:1007D00018F00C01AB5102012F270C01AC510201A2
:1007E00030230C01C6EC19F003E341EC1AF004D0FD
:1007F00040BB02D055EC17F00C01AB51AF25006E99
:10080000AC51B02198EF17F00C012E6B2F6B68C222
:1008100045F2B4DC68C260F2F6DEF3CF2CFCF4CF14
:100820002DFC0C01F350F41005E145EC1AF0F36ACD
:10083000F46A120002014151010B0CE1F0EC1AF0D4
:100840000C012C51005C2D51015804E345EC1AF0C9
:10085000020141812CCC2AFC2DCC2BFC5DEC19F043
:1008600004E26CC22AFC6DC22BFC2F510C012A251C
:10087000006E020130510C012B21EBEC19F022E348
:100880002F512B5D0C012E6F020130512C590C01A0
:100890002F6F2ECCCDF2E8CFCEF25FEC18F02ECC3D
:1008A00000F02FCC01F0026A0050020169270150CC
:1008B0006A2302506B230C012E512A5F2F512B5BB0
:1008C0003AEC19F02ACCCDF22BCCCEF25FEC18F03A
:1008D0000C012A5102012F270C012B510201302358
:1008E0005DEC19F003E345EC1AF004D040BB02D0F4
:1008F00055EC17F00C012A512E25006E2B512F219B
:1009000098EF17F06FC2E6FF70C2E6FFBCEC82F012
:10091000E552E552F3CF66F2F4CF67F26FC264F2AC
:1009200070C265F26EC263F2F4DE02016F51F3240D
:10093000006E7051F42098EF17F072C2E6FF73C298
:10094000E6FF74C2E6FFCAEC82F0E552E552E552DA
:100950001FC06CF220C06DF272C269F273C26AF2FB
:1009600074C26BF271C268F24FDF056A0201725104
:10097000F324006E7351F420016E74510520026E51
:1009800000C01FF001C020F0216E120075C245F2B8
:10099000BEEC00F0020129512B5D0C01026F020137
:1009A0002A512C590C01036F010E025F000E035BEC
:1009B00075C260F228DEF3CF00FCF4CF01FC0C011D
:1009C000F350025D006E0351F45498EF17F076C2B5
:1009D00077F20CD825EC1BF0F350F41006E076C249
:1009E00045F2E4EC19F051EC17F0120077C245F231
:1009F000BEEC00F000EC19F006E33551335D006EFB
:100A00003451365513D035512D5D026E2E51365569
:100A1000036E34EC1AF02B51335D046E34512C55B7
:100A2000056E02500424006E0350052098EF17F065
:100A300078C277F2DBDFF3CF39FCF4CF3AFC0C015C
:100A4000F350F41001E1000C78C245F2BEEC00F066
:100A5000020179517A110FE0010EFAEC18F035C25B
:100A6000C2F236C2C3F20201C16F79C2BFF27AC2CA
:100A7000C0F20DEC16F00201352B000E3623355175
:100A80002D5D36512E5902E249EC1AF00C01010E8F
:100A9000391905E13A5103E102014185010C0201D6
:100AA00040BB02D0B7EC17F0010C0C01636B646B18
:100AB0007BC277F29BDFF3CF61FCF4CF62FC0C01C9
:100AC000F350F41003E1F36AF46A12007BC245F2BA
:100AD000BEEC00F002017E510C01615D02017F510C
:100AE0000C01625904E261CC7EF262CC7FF2020119
:100AF00035517E25006E36517F21B1EC19F029E287
:100B000035512D5D0C01636F020136512E590C01D8
:100B1000646F010E6327000E642302017C517D1176
:100B20000EE063CCC5F264CCC6F222EC18F00C01E6
:100B3000635102017C270C01645102017D230C01E9
:100B4000635102017E5F0C01645102017F5B49EC3D
:100B50001AF07C517D1106E07EC2C5F27FC2C6F25A
:100B600022EC18F002017E5135277F5136230C010B
:100B7000635102017E270C01645102017F237E51E3
:100B80000C01615D006E625102017F55016E0050E3
:100B90007E5D01507F5902E3418504D040BB02D005
:100BA000B7EC17F07EC2F3FF7FC2F4FF120080C2E1
:100BB00045F2BEEC00F002012B512D5D0C013B6FA4
:100BC00002012C512E590C013C6F80C277F20EDFCE
:100BD0000C01F3503B5D006E3C51F45498EF17F05C
:100BE00002018451851103E1F36AF46A120081C2A3
:100BF00045F2BEEC00F081C277F2F8DEF3CF02FCE2
:100C0000F4CF03FC020186518425006E87518521B3
:100C1000016E0C010050F35C0150F4580BE202012C
:100C200086510C01025D0201846F87510C0103594A
:100C30000201856F0201355186250C01006F02010A
:100C4000365187210C01016F005102012D5D0C010D
:100C5000015102012E5906E249EC17F00C01005F28
:100C60000150015B0C01005102012D5D0C01046F6C
:100C7000015102012E590C01056F010E0427000ECF
:100C80000523020184510C01045D020185510C0110
:100C9000055907E384C2C5F285C2C6F2A9EC18F073
:100CA00022D004CCC5F205CCC6F2A9EC18F00DECAC
:100CB00016F00C0104510201845D0201C56F0C01A4
:100CC00005510201855966EC19F041EC1BF0020157
:100CD00082510C0104250201BF6F020183510C01F6
:100CE00005210201C06F0DEC16F084C2F3FF85C22E
:100CF000F4FF120089C286F28AC287F2010E020155
:100D0000846F856B0201060E826F0C0E836F88C2A2
:100D100081F266DF0C010651120002018E518F1123
:100D200003E1F36AF46A12008BC245F2BEEC00F0F4
:100D30008BC277F25BDE02019051F35C0C013B6FDA
:100D400002019151F4580C013C6F6FEC19F001E273
:100D500005D10201925193110DE00C013B510201AA
:100D6000925D0C013C510201935904E292C23BFC9A
:100D700093C23CFC355190250C013F6F0201365166
:100D800091210C01406F3F5102012D5D0C0140513A
:100D900002012E5906E249EC17F00C013F5F0150A9
:100DA000405B3FCC39FC40CC3AFC0C013F51020186
:100DB0002D5D0C013D6F405102012E590C013E6F1B
:100DC000010E3D27000E3E2390C23FFC91C240FC25
:100DD0008EC241FC8FC242FC8CC243FC8DC244FCDB
:100DE00002018CC2E9FF8DC2EAFF8C2B8D23EFCF6D
:100DF00046FC0C01486B0201945109E0610E0C01A4
:100E0000465D05E346517A0802E3E00E46270C01F1
:100E1000200E476FE8503D5D000E3E5902E23DCC8A
:100E200047FC47513B5D000E3C5902E23BCC47FC7E
:100E30004751FAEC18F039CCC2F23ACCC3F231EC9B
:100E40001AF0490EBF6F0C0EC06F0DEC16F00C01BE
:100E5000475149EC19F0392701503A23475149ECE1
:100E600019F03D5F01503E5B3D513E1106E12BC242
:100E700039FC2CC23AFC3D693E69020194513EE0C6
:100E80000C01456B4751455D5FE2F4EC17F0EFCF85
:100E900000F0610E005C0BE3F4EC17F0EF507A0801
:100EA00006E3E00E006EF4EC17F00050EF26F4ECD1
:100EB00017F0EF50465D0EE1F2EC19F02CE0B5ECC6
:100EC00018F0610E465D18E346517A0815E3E00E0E
:100ED000462712D041CC8EF242CC8FF248510CE022
:100EE0006DEC18F0610E0C01465D05E346517A0881
:100EF00002E3E00E4627486B452BC4D70C01456B37
:100F00004751455D21E2F4EC17F0EF50465D10E1EA
:100F1000F2EC19F00AE10C0141513F5D026E4051C3
:100F20004255036E45512FEF18F0B5EC18F00AD07A
:100F300041CC8EF242CC8FF2485104E06DEC18F0B7
:100F40000C01486B452BDCD70C01475149EC19F0DB
:100F50003B5F01503C5B6FEC19F003E2F368F4680F
:100F60001200475149EC19F03F27015040234FD759
:100F7000020199519A1103E1F36AF46A120095C2D1
:100F800045F2BEEC00F095C277F230DD02019B51D4
:100F9000F35C0C01026F02019C51F4580C01036FC9
:100FA00078EC19F001E205D102019D519E110DE08E
:100FB0000C01025102019D5D0C01035102019E5979
:100FC00004E29DC202FC9EC203FC35519B250C012C
:100FD000066F020136519C210C01076F0651020178
:100FE0002D5D0C01075102012E5906E249EC17F064
:100FF0000C01065F0150075B06CC00FC07CC01FC2E
:101000000C01065102012D5D0C01046F0751020114
:101010002E590C01056F010E0427000E05239BC2FB
:1010200006FC9CC207FC99C208FC9AC209FC96C245
:101030000AFC97C20BFC98C20CFC020196C2F6FF98
:10104000962B97C2F7FFD6EC1AF0106B02019F5156
:1010500009E0610E0C010E5D05E30E517A0802E312
:10106000E00E0E270C01200E0F6FE850045D000EFD
:10107000055902E204CC0FFC0F51025D000E03592A
:1010800002E202CC0FFC0F51FAEC18F000CCC2F2D5
:1010900001CCC3F231EC1AF0110EBF6F0C0EC06F11
:1010A0000DEC16F00C010F5149EC19F0002701501E
:1010B00001230F5149EC19F0045F0150055B045105
:1010C000051106E12BC200FC2CC201FC0469056974
:1010D00002019F513EE00C010D6B0F510D5D5FE26F
:1010E000FBEC17F0EFCF00F0610E005C0BE3FBECC4
:1010F00017F0EF507A0806E3E00E006EFBEC17F0F5
:101100000050EF26FBEC17F0EF500E5D0EE1F9EC0E
:1011100019F02CE002EC18F0610E0E5D18E30E5190
:101120007A0815E3E00E0E2712D008CC99F209CC0C
:101130009AF210510CE0A2EC17F0610E0C010E5D5A
:1011400005E30E517A0802E3E00E0E27106B0D2B1B
:10115000C4D70C010D6B0F510D5D21E2FBEC17F0B4
:10116000EF500E5D10E1F9EC19F00AE10C010851A5
:10117000065D026E07510955036E0D512FEF18F0F1
:1011800002EC18F00AD008CC99F209CC9AF210516E
:1011900004E0A2EC17F00C01106B0D2BDCD70C0156
:1011A0000F5149EC19F0025F0150035B78EC19F024
:1011B00003E2F368F46812000F5149EC19F00627B6
:1011C000015007234FD7A6C294F2A4C292F2A5C23F
:1011D00093F2A2C290F2A3C291F2010E02018E6FAD
:1011E0008F6B0201A10E8C6F020E8D6FA0C28BF26D
:1011F0008DEF06F00C01006B0051EDEC17F001E3F0
:1012000009D200CC45F2BEEC00F00C01036B016B7F
:10121000026B02014151020B03E14151040B0EE04C
:1012200007EC48F000090AE00C01100E036F020100
:101230004151040B01E0010E0C01016F020140ABB2
:1012400011D0AFEC9CF002011E503B5D006E1F50B0
:101250003C59016EE83402E24EEC1AF003E30C0153
:10126000100E036F020140AD09D017EC19F002E235
:101270004EEC1AF003E30C01100E036F0B0E02018B
:101280003F5D0CE117EC19F002E24EEC1AF006E3B8
:101290000C01110E036F02010C0E3F6F040E3F5D37
:1012A00053E10C01046B056B030E045D000E055940
:1012B0004BE273EC1AF02AEC1BF046E073EC1AF0E8
:1012C00094EC18F014EC18F002014251001837E1C8
:1012D0004351011834E1E6EC00F00A0EE66EE66ACE
:1012E00073EC1AF081EC19F0B7EC19F089EC81F08D
:1012F000060EE15E73EC1AF053EC1AF0EECF10F22A
:10130000EDCF11F273EC1AF00C0E79EC1AF0EECF6F
:101310000AF2EECF0BF2EECF0CF2EFCF0DF202019C
:101320000A2B0B230C230D23CEEC17F00C01120E0D
:10133000036F0201060E3F6FCFEC16F005D00C01D3
:10134000042B000E0523B0D70C0103510AE0015114
:1013500002E0000E01D0010E0201AE6F03CCADF22F
:1013600025DA020140B92FD0070E3F5D01E04FD1D1
:10137000DAEC17F001E04BD102014051070B0608EF
:1013800016E14051080B01E0010E0C01036F00CC87
:1013900050F28BEC02F000CC50F28BEC02F00C011E
:1013A000035101E034D102010E0E3F6F30D1E6EC63
:1013B00000F00201020EAE6F0201100ECBEC1AF02B
:1013C00014EC17F024D1DAEC17F001E020D1E6ECB0
:1013D00000F002013F510C0A01E1CDD0060A01E103
:1013E000C4D0030A01E1D0D0010A01E1BAD00F0A4A
:1013F00001E1AED00C0A01E1ABD00D0A01E19DD0B4
:10140000030A01E187D0060A5AE0010A48E0030A0C
:1014100021E0010A01E0BDD0D4EC6DF0000901E14A
:10142000B8D00201010E3F6F24A50BD00601EF6F6B
:1014300018C2ECF619C2EDF61AC2EEF606EC6EF022
:10144000A8D00601EB6F18C2E9F619C2EAF6E6EC7D
:101450006DF09FD00601060EF06F0C0EF16F29ECB7
:101460006EF0000901E195D0D9EC6DF0000913E0B0
:1014700006CC18F207CC19F208CC1AF209CC1BF2F0
:101480000201020E3F6FCEEC17F0276B270E026FA2
:10149000036B046B50D014EC17F03F6B7AD0AFECB9
:1014A0009CF01EC03BF21FC03CF20801180E986F62
:1014B000020E996F8BEC80F00201030E29D0080117
:1014C0001C0E9C6F020E9D6F0801180E9A6F020E83
:1014D0009B6FB8EC80F0000915E1AFEC9CF00201C5
:1014E0003B511E5C006E3C511F58016E0050025D66
:1014F000015003594EE2060E275D02E200EC1AF09D
:10150000020E06D00C01020E036F016B0201050EE4
:101510003F6F3FD00C01020E036F010E016F040EEE
:101520000201275D36E3040E276F200E026FEF0ED7
:10153000036F090E046F056B2CD0020E275D03E2CA
:101540000C01120E1DD040B71FD00C01020E07D0A7
:10155000050E275D0DE3080E3F6F0C01110E036FA2
:1015600018D0050E275D10E209D0050E275D0CE2AC
:101570000C01100E05D0050E275D06E20C01110EC0
:10158000036F010E016F05D00C01140E036F010EE5
:10159000026F0C01035136E001512EE0020100EC14
:1015A0001AF031510E5D0C01046F020132510F59D6
:1015B0000C01056F0201BCEC19F007E23EEC17F0DC
:1015C00000500C0104270150052304CC00F005CC89
:1015D00001F0026A036A00500201D6EC18F00C0117
:1015E0000451020114270C0105510201152356EC88
:1015F0001AF00201AE6B03D00201010EAE6F03CCF4
:10160000ADF2D4D80C01025102E0A6EC0FF00C01AF
:10161000002BF2D5046B056B030E045D000E05591B
:101620002FE273EC1AF02AEC1BF001E1120073ECCC
:101630001AF05BEC1AF0DEEC18F002C0E6FF03C013
:10164000E6FFAFEC9CF0E552E7CF03F0E552E7CFC1
:1016500002F002501E5C006E03501F58016EDC0E3B
:10166000D8800054010E015406E2CFEC16F00C01B4
:101670000407000E055B0C01042B000E0523CCD7DC
:101680001200A7C2E9FFA8C2EAFFEECF14FCEECF1A
:1016900015FCEECF16FCEFCF17FCA9C2E9FFAAC2DA
:1016A000EAFFEECF18FCEECF19FCEECF1AFCEFCF1D
:1016B0001BFC0C011C6B060E1D6FABC21EFCACC2EA
:1016C0001FFCABC22AF7ACC22BF7EBEC5FF0F3CFF9
:1016D0001EFCF4CF1FFC0C0E0701326F336B0701A9
:1016E000140E306F0C0E316F06EC60F0F3CF20FC5F
:1016F000F4CF21FC0C01201F211FABC25DF7ACC24F
:101700005EF754EC4AF0F3CF22FCF4CF23FC0C013B
:10171000F350201948E12351211945E10E017C6B5A
:101720007D6B98EC93F0140E0701676F686B0701EF
:10173000000E656F0C0E666FC9EC4BF00201000ED7
:10174000B36F0C0EB46FC1DB0C010C51F5EC1AF049
:10175000040DF35007EC1AF000C024FC0050006E9A
:10176000016AE8500201AB5DAB6F0150AC59AC6F40
:10177000140EAB5F000EAC5BA7C2B1F2A8C2B2F20E
:101780000201000EAF6F0C0EB06F64DA00090BE0BF
:10179000ABC2B7F2ACC2B8F20201000EB56F0C0ECC
:1017A000B66F45EC10F00EEC48F0010CE6EC00F0E2
:1017B0000201ADA102D04187AD91409B409D409F69
:1017C00041934195419107EC48F00009FCE0060E79
:1017D0000201AD1504E00C016B6B6C6BB3D00E51C4
:1017E0002F1907E10F51301904E10C016B6B6C6B81
:1017F00091D02F510E5D30510F591FE20E512F5DC8
:101800000C016B6F02010F5130593FEC19F004E2EB
:1018100014C26BFC15C26CFC8AEC19F005E225C2FF
:101820006BFC26C26CFC41856BCCC5F26CCCC6F25D
:101830003AEC18F093EC19F06DD00E512B5D0C01C1
:10184000696F02010F512C590C016A6F6951020135
:101850002F25006E0C016A5102013021016E2951C1
:10186000005C0C016B6F02012A5101583FEC19F02A
:1018700004E214C26BFC15C26CFC8AEC19F005E2A0
:1018800025C26BFC26C26CFC41850C0169516B5D65
:101890006A516C5904E26BCC69FC6CCC6AFC69CC73
:1018A000C5F26ACCC6F23AEC18F00C0169516B5DD6
:1018B000696F6A516C596A6F69516A1122E069CC8B
:1018C000C5F26ACCC6F244C2C4F229C2C2F22AC22C
:1018D000C3F20201C16B02010E512B5D006E2C514F
:1018E0000F55016E026A036A070E00260A0E0122D6
:1018F000000E0222032200C0BFF201C0C0F20DECB4
:1019000016F093EC19F02B510E5D2C510F5902E398
:1019100004EC1BF0020141A715D014510C016B1906
:1019200004E1020115510C016C190CE00201255172
:101930000C016B1904E1020126510C016C1902E043
:101940000201AD810C016B516C1104E1030E020127
:10195000AD151CE00C016B510201145F0C016C51C0
:101960000201155B0C016B516C1102E00201AD87A5
:101970000201AEA107D0276BF20E026F9E0E036F1D
:10198000046B056B49EC18F0408929D0AEA319D03F
:10199000400EE96E020EEA6EEF50070BE82AE8509F
:1019A000070BF36EF46EF80EEF14F310EF6E0607EC
:1019B000000E075B085B095B010E0C016B6F6C6B23
:1019C0000ED040A90CD0AEB108D0275106E02707B1
:1019D000D890053304330333023349EC18F012C2B4
:1019E00047FC13C248FC10C249FC11C24AFC06C2A3
:1019F0004BFC07C24CFC08C24DFC09C24EFC0AC29B
:101A00004FFC0BC250FC0CC251FC0DC252FC0C012D
:101A10005391539353955397ADC254FC596B5A6BE2
:101A20006B51020106270C016C5102010723000EC5
:101A300008230923ADA315D0ADB905D00C014F6B18
:101A4000506B516B526B020124A306D00C014B0763
:101A50004C5B4D5B4E5B05D0062B07230823092307
:101A600024830201ADA10DD024A106D00C014B07A7
:101A70004C5B4D5B4E5B05D0062B072308230923E7
:101A8000248100EC19F00AE3C2EC18F00C010250BA
:101A9000005C556F03500158566F0DD03351355DC2
:101AA0000C01556F0201345136590C01566F010E6D
:101AB000555F000E565B37EC48F0F3CF45FCF4CF92
:101AC00046FC0C01400E455F000E465B800E46153D
:101AD00002E0456B466B5551455D5651465904E24F
:101AE00045CC55FC46CC56FC0201470EB36F0C0E9C
:101AF000B46FEBD9140E0C016B27000E6C235389C5
:101B0000539B538D539F0201ADA323D0040E0C01B0
:101B10006B27000E6C23020E5B6F040E5C6F020ECF
:101B20005D6F180E5E6F010E006E530EE96E0C0EA7
:101B3000EA6EEF50F5EC1AF000240F0BF36EF46E22
:101B4000F346F346F346F3460F0EEF14F310EF6E31
:101B5000F450BDC55FFCBEC560FCBFC561FCC0C51F
:101B600062FC18C263FC19C264FC1AC265FC1BC289
:101B700066FC0C01676B060E686F6BCC69FC6CCC65
:101B80006AFC6BCC2AF76CCC2BF7EBEC5FF0F3CF55
:101B900069FCF4CF6AFC0C0E0701326F336B07014E
:101BA0005F0E306F0C0E316F06EC60F0F3CF57FC18
:101BB000F4CF58FC0C01571F581F0701DF0E556F5B
:101BC000090E566FFAEC49F06BCC7AFE6CCC7BFEBA
:101BD0000E01060E796F0E01180E776F020E786FE8
:101BE00025EC93F0140E5EEC1AF0470E6A6F0C0EA3
:101BF0006B6F15EC4CF00201ADA309D0040E5EEC46
:101C00001AF05B0E6A6F0C0E6B6F15EC4CF007014F
:101C1000F30E576F090E586F0FEC4AF06BCC5DF75F
:101C20006CCC5EF754EC4AF0F3CF45FCF4CF46FCA5
:101C30000701030E556F0A0E566FFAEC49F0020EBB
:101C40005EEC1AF0450E6A6F0C0E6B6F15EC4CF0E3
:101C50007DEF49F045EC17F0EE50ED1001E1000C7E
:101C60000C01FE0E266FC1EC19F056EC19F0C1EC18
:101C700019F00450EE24026E0550EE20036E97EC2E
:101C80001AF00250EE24006E0350EE20016E45EC77
:101C900017F00050EE18276F0150EE18286F256BD3
:101CA0002551EDEC17F048E225CC45F2BEEC00F0F2
:101CB0000D0E02013F5D3DE0040E3F5D0BE1FBECCC
:101CC0001AF00050421935E10150431932E125CC98
:101CD00026FC2FD00C012751020142192AE10C01E8
:101CE00028510201431925E1E6EC00F0FBEC1AF063
:101CF0000201125100181DE1135101181AE197EC6D
:101D00001AF0DEEC18F01051021813E1115103180B
:101D100010E1C1EC19F0EE5018190BE1EE50191951
:101D200008E1EE501A1905E1EE501B1902E101E13C
:101D3000010C0C01252BB4D7FE0E265D21E026CC2C
:101D400045F239EC1AF0FE0E0C01265D19E027CCA5
:101D500042F228CC43F2CEEC19F0B7EC19F08DEC3E
:101D600018F097EC1AF0EECF10F2EDCF11F245EC2F
:101D700017F0EECF12F2EDCF13F263EC1AF0010C74
:101D800097EC1AF00D0E79EC1AF0EF50020B01E10E
:101D9000000C0701BA51BB1101E0000C0C01296BCA
:101DA0002A6B030E295D000E2A593BE26DEC1AF0F6
:101DB0002AEC1BF036E06DEC1AF094EC18F014EC01
:101DC00018F045EC17F0DEEC18F00250001824E192
:101DD0000350011821E16DEC1AF053EC1AF014ECE9
:101DE00018F097EC1AF0DEEC18F00250001814E12D
:101DF0000350011811E1C1EC19F045EC1BF0EE5055
:101E00000001001808E1EE50011805E1EE5002183B
:101E100002E1EE50031848E00C01292B000E2A23A2
:101E2000C0D7256B2551EDEC17F04EE225CC45F2DD
:101E3000BEEC00F0020140A744D0E6EC00F0FBEC61
:101E40001AF00050020112193CE10150131939E156
:101E5000CEEC19F06DEC1AF081EC19F022EC19F0CF
:101E600097EC1AF014EC18F06DEC1AF053EC1AF031
:101E700000C0EEFF01C0EDFF97EC1AF0040E79EC04
:101E80001AF045EC1BF00C0E79EC1AF000C0EEFFD6
:101E90000AEC1BF0FBEC1AF06DEC1AF094EC18F065
:101EA00000C0EEFF01C0EDFFAFEC9CF01FC001F0E1
:101EB0006DEC1AF05BEC1AF01EC0EEFF01C0EDFFF6
:101EC000000C0C01252BAED7000C9CEC1AF035EC65
:101ED00017F0F3CFEEFF01C0EDFF9CEC1AF0020EFD
:101EE00079EC1AF035EC17F0020EF3CFEBFF030E8E
:101EF00029EC19F0040E83EC17F0040E59EC18F0DD
:101F0000080E83EC17F0080E59EC18F00E0E79EC61
:101F10001AF035EC17F00E0EF3CFEBFF0F0E29EC95
:101F200019F094EC18F035EC17F0100EF3CFEBFF2E
:101F3000110E29EC19F05BEC1AF035EC17F0120ECB
:101F4000F3CFEBFF130E01C0EBFF1200E6EC00F045
:101F500012C242F213C243F23AEC19F029C231F232
:101F60002AC232F22BC233F22CC234F249EC1AF0FC
:101F700002014051080B02E0040E01D00D0E3F6F2C
:101F80004091409340954099409B409D409F419196
:101F90004193419541974189249124932497249911
:101FA00063EC1AF047EC5CF0F3CF06F2F4CF07F2E3
:101FB00047EC5CF0F3CF08F2F4CF09F2020122699A
:101FC0002369010E146F156B12000C0E0E017C6F4D
:101FD0007D6B98EC93F0B6EC4BF00C01416FF00E7A
:101FE0004115E840E8403F0B07EC1AF000C041FC07
:101FF000005046E0070E9CEC19F00C0141514107DE
:1020000000093EE068EC1AF0E8503AE04205F5E0DD
:10201000020E425D26E1030E415D32E3436B446BE9
:1020200068EC1AF0040E425D08E1B6EC4BF00C01CE
:10203000446FB6EC4BF00C01436F180E435D020E7B
:1020400044591EE3B40ED8804355050E445504E2AE
:10205000B40EF36E050E17D043CCF3FF44CCF4FF5F
:102060001200020E415D0CE368EC1AF0E850415D8D
:1020700007E342519CEC19F00C014251415FBDD77E
:10208000180EF36E020EF46E1200BCEC1AF00D0E78
:1020900079EC1AF0EFCF33FCBCEC1AF0080E79ECB7
:1020A0001AF0EECF34FCEECF35FCEECF36FCEFCF9E
:1020B00037FCBCEC1AF0040E79EC1AF0EECF38FCC9
:1020C000EECF39FCEECF3AFCEFCF3BFC0201409162
:1020D0004093409540B902D014EC17F03F51050AE7
:1020E0001FE0010A08E0B7C23CFCB8C23DFC0C018D
:1020F00033A14AD046D00C0133B510D033A906D055
:10210000E3EC18F0040ECBEC1AF008D033A306D0A1
:102110007CEC18F00EEC1AF0CFEF18F0A6EF0FF0F1
:102120000C0133B5120033A910D006EC19F00201EE
:10213000061908E1EE50071905E1EE50081902E111
:10214000EE50091902E066EF17F00C0133A333EFEC
:1021500015F07CEC18F0A4EC19F0EECF14F2EDCFF2
:1021600015F20EEC1AF00C0133A909D051EC17F05E
:102170000201070E3F6F14EC17F040991200CFEFE9
:1021800018F03C2B000E3D2333A303D03C2B000E54
:102190003D2300EC19F00AE3C2EC18F00C010250E8
:1021A000005C316F03500158326F0DD03351355DF3
:1021B0000C01316F0201345136590C01326F010E9E
:1021C000315F000E325B0A0EE96E020EEA6EEE50CF
:1021D000385D2B6FEE5039592C6FEE503A592D6FF8
:1021E000EE503B592E6F2BCC2FFC2CCC30FC3E6B91
:1021F0003C513D115FE03151321169E0800E2E15E6
:1022000003E186EC18F03BE33CCC00F03DCC01F060
:10221000026A036A2B0EE96E0C0EEA6EEE5000267F
:10222000EE500122EE500222EE5003220334000E43
:10223000031809E6D880000E0054000E0154000E69
:102240000254000E03541DE23C51315D046E3251C4
:102250003D55056E066A076A05AE02D00668076836
:1022600007502E19E8AE02D02E3508D02B51045C51
:102270002C5105582D5106582E51075802E3010ED6
:102280003E6F11EC1BF02E510318E8AE02D0033460
:1022900002D0DFEC1AF01BE22F513C25046E3051C6
:1022A0003D21056EE83413E204500008000E055489
:1022B0000EE20BD02B512C112D112E1106E0800EA9
:1022C0002E1505E186EC18F002E2010E3E6F3E513C
:1022D00004E133B5C8D351EF17F0060E331502E011
:1022E000A6EF0FF033A9120002013F510C0A01E1E1
:1022F000B6D10B0A1CE00F0A1AE0010A18E0020A24
:1023000016E0010A14E00C0A01E0B9D106EC19F05C
:10231000061908E1EE50071905E1EE50081902E12F
:10232000EE50091902E066EF17F0070E3F6F0E51ED
:102330002F5D0C01296F02010F5130590C012A6FDA
:10234000800E2A1508E002013EEC17F000500C0147
:10235000292701502A2329CC00F02ACC01F0026A57
:10236000036A2EEC1BF0EE500024256FEE50012086
:10237000266FEE500220276FEE500320286F06ECE8
:1023800019F0255D006EEE502659016EEE5027596A
:10239000026EEE502859036E0001800E031402E015
:1023A000D6EF19F00201A8EC19F001AE02D00268D4
:1023B00003682EEC1BF00050EE5C0C01256F015001
:1023C000EE58266F0250EE58276F0350EE58286FD4
:1023D0000201BCEC19F00BE233EC1BF000500C01D5
:1023E000255F0150265B0250275B0350285B250EBA
:1023F000E96E0C0EEA6EEE500C01345D256FEE5066
:102400003559266FEE503659276FEE503759286FE1
:10241000E834000E281909E6D880000E2555000E74
:102420002655000E2755000E28556CE2020133ECAC
:102430001BF00C012551005C265101582751025810
:10244000285103585FE3020124972499419131C236
:1024500029FC32C22AFC0C012551020131270C0152
:102460002651020132230C01295102010E5D0C019B
:102470002A5102010F5909E3BCEC19F02FE20E5169
:10248000315D006E32510F551BD03EEC17F00E51EE
:1024900000240C01296F02010F5101200C012A6F49
:1024A000020131510C01295D020132510C012A59FE
:1024B00015E229510201315D006E32510C012A559D
:1024C000016E0001005002010627000101500201C7
:1024D0000723000E0823092356EC1AF002012B51A2
:1024E000315D2C51325906E33EEC17F00050315F5C
:1024F0000150325B2B510E5D2C510F5928E304EC37
:102500001BF025D002010E51311902E10F51321991
:102510001EE024A71BD024A918D0A8EC19F001AE06
:1025200002D0026803680050D6EC18F0BCEC19F039
:1025300009E233EC1BF001AE02D0026803680050E0
:10254000D6EC18F056EC1AF04185248924872F51D7
:1025500031191CE13051321919E141B704D014ECA2
:1025600017F0409913D09DEC17F010E1EE5035199B
:102570000DE1EE5036190AE1EE50371907E106E198
:1025800002012451010B02E04099419706EC19F039
:102590000201065D006EEE500759016EEE500859BB
:1025A000026EEE500959036EA4EC19F00C010050B4
:1025B000EE5C3F6F0150EE58406F0201145115114F
:1025C00006E10C013F51401102E0020141833FCC82
:1025D00014F240CC15F2080E02013F5D20E19DECA3
:1025E00017F04DE1EE5035194AE1EE50361947E14A
:1025F000EE50371944E143E102012451010B3FE061
:102600007DEC1AF0BA0E020137271A0E3823030E9A
:102610003923000E3A234089090E3F6F30D0090E4E
:102620003F5D0AE10C0133B12AD0E3EC18F0140E3F
:10263000CBEC1AF0A6EF0FF00A0E3F5D20E19DEC07
:1026400017F00CE1EE50351909E1EE50361906E1AC
:10265000EE50371903E101E006D278DC12009DEC60
:1026600017F00CE1EE50351909E1EE50361906E18C
:10267000EE50371903E101E0F6D168DC12000C01DD
:1026800033BB12000B0E02013F5D01E112000A0E86
:102690003F5D01E112000C0E3F5D01E11200B751F8
:1026A000B81101E166D10C01303504E22F51000868
:1026B000000E305501E2A2D00CEC18F0006E016A59
:1026C0002F51F35C0E017C6F0C01305101580E014B
:1026D0007D6F98EC93F00C012F510201B7270C018C
:1026E00030510201B823B7510C01315D0201B851DC
:1026F0000C01325904E231CCB7F232CCB8F202010B
:10270000B7510A27B8510B23000E0C230D23335168
:10271000B725006E3451B821B1EC19F024E23351E1
:102720002D5D0C01296F020134512E590C012A6FC5
:10273000010E2927000E2A2318EC1BF033C2BFF22A
:1027400034C2C0F288EC1AF02DEC19F0006EB851CA
:102750000C012A55016E02012B510024336F2C51BC
:102760000120346F0CD0B1EC1AF033C2BFF234C286
:10277000C0F253DA0201B7513327B8513423221D76
:1027800001E1231D01E1F5D0B751225FB851235B70
:10279000165122250C01296F0201175123210C012A
:1027A0002A6F800E2A1502E0020125D0020123358E
:1027B00004E222510008000E235501E2DAD00C0198
:1027C000295102010A270C012A5102010B23000E94
:1027D0000C230D230C012951020133270C012A512E
:1027E0000201342333512D5D34512E5904E251DB63
:1027F000335F0150345B22692369BBD0303501E37C
:10280000B8D02F510008000E305501E3B2D00201BC
:10281000B7510C012F25006E0201B8510C01302177
:10282000016E0050315D0150325909E22F51315D86
:102830000201B76F0C01305132590201B86FECDB65
:102840000E017C6F7D6B98EC93F037EC1BF0026E01
:102850003CEC1BF0036E02500201B725006E0350E2
:10286000B821B1EC19F031E233512D5D006E2E51DB
:102870003455A1EC1AF00C012F51005C296F305136
:1028800001582A6F800E2A1508E118EC1BF0E8ECBD
:1028900018F0C06F88EC1AF01DD0B1EC1AF037ECCC
:1028A0001BF0006E3CEC1BF0016E02012B512D5D04
:1028B000026E2E512C55036E34EC1AF002010250B8
:1028C000005CBF6F0350015804D0B1EC1AF0E8EC83
:1028D00018F0C06FA2D90201221D0BE1231D09E1EE
:1028E0002FCC22F230CC23F2B7C216F2B8C217F2C4
:1028F00040D022510C012F5D020123510C013059AF
:102900001EE238DB06E30C01EEEC18F0235105580B
:1029100005E2B7C216F2B8C217F20CD033EC19F0C8
:102920000C012F51005C0201166F0C01305101584F
:102930000201176F2FCC22F230CC23F21AD01ADB0F
:1029400018E233EC19F00C012F51005C30510158A2
:1029500010E3EEEC18F0026E23510558036E165189
:10296000025C006E17510358016E0050162701508B
:1029700017230C013C513D1119E0070E02013F5D88
:1029800004E033C235F234C236F240AF04D089DA03
:10299000E6EC00F00BD0408F40BD08D0408D15EC28
:1029A0001AF00F0E02013D27000E3E230C0133A149
:1029B0005AD00AC200F00BC201F00CC202F00DC2E4
:1029C00003F0002A000E0122022203223CCC04F074
:1029D0003DCC05F0066A076A380EE96E0C0EEA6E09
:1029E000EE500426EE500522EE500622EE5007224D
:1029F0000050041838E10150051835E1025006185E
:102A000032E1035007182FE12EE11EEC1BF03F517D
:102A1000090A24E0010A12E00F0A06E0010A22E195
:102A20000C0E3F6F89EF18F00B0E3F6F15EC1AF08C
:102A30001F0E02013D27000E3E2314D07EDA0AE16C
:102A4000EE50351907E1EE50361904E1EE50371912
:102A500001E104E002010A0E3F6F04D0D6EC19F048
:102A6000A6EF0FF01EDA1200B9C245F2BEEC00F07C
:102A70000201BA51BB1103E1010EBA6FBB6B2951C0
:102A80002D5D0C01006F02012A512E590C01016FBE
:102A9000010E005F000E015B02011CEC1AF00C013C
:102AA0000050005D0150015901E2000CE6EC00F01D
:102AB000030E0201BE1502E1030EBE13BCC204FCEC
:102AC000BDC205FC1CEC1AF000500C01005F015067
:102AD000015B0201BEA313D0BEA10CD000CC00F05C
:102AE00001CC01F0D8900132003200500C010427D3
:102AF000015004D00C0100510427015105230201AB
:102B000029510C010425006F02012A510C010521F5
:102B1000016F010E0027000E012333C202FC34C2F4
:102B200003FC0201221D01E1231D13E09CDB005088
:102B30000C01022701500323025102012D5D0C01FB
:102B4000035102012E5905E2A4D90C01025F015084
:102B5000035B0C0102510201355D0C0103510201BE
:102B600036590CE20C0100510201355D0C01015196
:102B70000201365918E2BEA50ED0000CDCEC19F0AB
:102B80000AE2005102012B5D0C01015102012C5996
:102B90000AE2BEB5000C00CC35F201CC36F200CC16
:102BA00033F201CC34F20201DCEC19F025E2040E20
:102BB0000201BE1521E02B510C01025D0201C56F1F
:102BC00002012C510C01035981DB44C2C1F200CC3B
:102BD000BFF201CCC0F221D813DB0EE20C01005190
:102BE00002012B5D006E2C510C010155016E00504D
:102BF0000201335F0150345B00CC2BF201CC2CF28C
:102C000063EC1AF029C231F22AC232F233DB070E2A
:102C100002013F5D01E145D9010C0201C4512AE0E6
:102C2000010A01E01200C15111E0010A01E01200A5
:102C3000C5C2E6FFC6C2E6FFC2C2E6FFC3C2E6FFE8
:102C4000BFC2E6FFC0C2E6FF8DEF18F0BF1D01E175
:102C5000C01D06E0BFC255F7C0C256F7FAEC49F0F6
:102C6000C5C26CF7C6C26DF7C2C26AF7C3C26BF7C2
:102C700015EF4CF0C15117E0010A01E01200C21D2E
:102C800001E1C31D06E0C2C257F7C3C258F70FECFB
:102C90004AF0C5C267F7C6C268F7BFC265F7C0C2CF
:102CA00066F7C9EF4BF0C5C263F7C6C264F7C2C28C
:102CB00061F7C3C262F7BFC25FF7C0C260F7E2EC60
:102CC0004AF0B0EC4BF00009FCE012000201C951DF
:102CD0000EE0010A01E01200CDC2E6FFCEC2E6FF1F
:102CE000B2DBC7C2E6FFC8C2E6FF2AEF1AF0C71D73
:102CF00001E1C81D06E0C7C255F7C8C256F7FAEC95
:102D000049F0100E0C01286F296B0201CD51CE1134
:102D100037E00C0128510201CD5D0C01295102015F
:102D2000CE5904E2CDC228FCCEC229FC28CCE6FF55
:102D300029CCE6FF88DB180EE66E0C0EE66E8ADB09
:102D400028CC6CF729CC6DF70701180E6A6F0C0EB2
:102D50006B6F15EC4CF028CC00F029CC01F0026A26
:102D600000500201CA270150CB230250CC230C0192
:102D700028510201CD5F0C0129510201CE5BC5D75C
:102D80001200140EEA02F3CFEAFFE902F3CFE9FFE3
:102D9000F450EA26820EE926070EEA22120004CC3D
:102DA000C5F205CCC6F20201020ED880C557000E4E
:102DB000C657140EC603F3CFC6F2C503F3CFC5F250
:102DC000F450C6270201010EC46F0C010425020154
:102DD000C26F000E0C0105210201C36F140EC30364
:102DE000F3CFC3F2C203F3CFC2F2F450C327820E73
:102DF000C227070EC32341EC1BF0140E206E216A7C
:102E000004CC25F005CC26F023EC9CF01EC0BFF2CC
:102E10001FC0C0F2820E0201BF27070EC023FDDED5
:102E20000701BA6BBB6B120068DB740E0201372717
:102E3000350E3823060E3923000E3A231200980E61
:102E4000006E3B0E016E010E026E14CC03F0046A9C
:102E5000056A060E246E256A266A14CC1FF004C08B
:102E600020F005C021F041EF9CF0EECF2AF7EDCF26
:102E70002BF7EBEC5FF0E9DB9CEF1AF029512B5DAF
:102E8000006E2C512A55016E120051DB020E79EFB3
:102E90001AF02B512D5D006E2E512C5552DB005037
:102EA000120065DB100ECBEF1AF06BDB060E4FD372
:102EB00000501C24F36E01501D20F46E02501E20A1
:102EC000F86EF4CFF7FFF3CFF6FF120006C238FC1E
:102ED00007C239FC08C23AFC09C23BFCDDDB47DB18
:102EE000040E59DB38CC06F239CC07F23ACC08F2A2
:102EF0003BCC09F212000201C46B0201C269C36932
:102F000044C2C1F21200F5DAEECF2CF7EECF2DF766
:102F1000EECF2EF7EFCF2FF7F0EC5FF01EC000F0F2
:102F20001FC001F020C002F021C003F09CEF1AF096
:102F3000016E00C0F3FFF46E120090DBEE500C0146
:102F4000341912000ACC96F20BCC97F20CCC98F202
:102F500002010ACCF6FF962B0BCCF7FF000E97234D
:102F60000CCCF8FF98230800F5CF0EFC120009DB0B
:102F70001F0EEDD22F510201B725006E0C0130510A
:102F80000201B821016E22511625026E235117212C
:102F9000036E0050025C0150035812001A511825AC
:102FA000026E1B511921036E02501025006E035052
:102FB00011210ED3A5EC9CF0020137511E5C006E6E
:102FC00038511F58016E39512058026E3A5121581C
:102FD000036E0001800E03141200006E016A090ED8
:102FE000005C000E015812004551EA6A490FE96E73
:102FF0000C0EEA2212000D51EA6A110FE96E0C0E56
:10300000EA22120096C2F6FF962B97C2F7FF000E37
:10301000CDDA010E106F1200AFDA0C0E6ADAEF5043
:10302000E4DA040DF3501200EECF00F0EFCF01F020
:1030300012000201010EC46F64C2C2F265C2C3F283
:10304000CEEF1AF044C2C4F235C2C2F236C2C3F2A5
:1030500018DB7CC2BFF27DC2C0F20DEF16F000019A
:103060000224006E000E03206CDA00C0F3FF01C0E2
:10307000F4FF120044C2C4F20EC2C2F20FC2C3F285
:103080000201C16B0201070EBF6F0A0EC06F0DEF88
:1030900016F0A5EC9CF01E5002010225376F1F5060
:1030A0000321386F20500421396F215005213A6FD8
:1030B00012001FDA1EC0EEFFADDA9CEF1AF069C2F3
:1030C000CAF26AC2CBF26BC2CCF244C2C9F22FC2BE
:1030D000C7F230C2C8F266EF16F043CC8CF244CC93
:1030E0008DF2020143CCE9FF44CCEAFF8C2B000EA9
:1030F0008D23EFCF46FC120038CC0AF239CC0BF20C
:103100003ACC0CF23BCC0DF21EEF1BF08ADADFEF6B
:103110001AF02DDA110ECBEF1AF089EC81F0006E67
:10312000060EE15E00501200100E79EF1AF01C0D31
:103130008CDA000E0026010E012200C0E6FF01C05D
:10314000E6FF1200036E02504B25006E03504C2127
:103150003FD244C2C4F200CCC2F201CCC3F291DA35
:1031600082C2BFF283C2C0F212008CC2E9FF8DC2DC
:10317000EAFF8C2B000E8D23EFCF46FC0C01010ED5
:10318000486F12002B512D5D006E2E512C55016E93
:103190003551335D026E34513655036E1200E7D956
:1031A000120EF9D90201060E3F6F1200065F0150A0
:1031B000075B0250085B0350095B1200EECF02F080
:1031C000EFCF03F0120068DA0201AE6B02011200C9
:1031D0004EDA0201BF6F50DA020112002F510201D4
:1031E000B725046E0C0130510201B821056E225141
:1031F000045C12000201C56FC66B44C2C4F2120027
:1032000002013551335D365134591200340EE96EE6
:103210000C0EEA6EEE50120053511C0DF3CFE9FF75
:10322000F4CFEAFF000EE926010EEA221200AFEC0D
:103230009CF002011E503D5D006E1F503E59016E14
:10324000E834120089EC81F0026E060EE15E025055
:10325000120001C0EBFF9CEF1AF0DFDC0C012951DA
:103260000201B75D120022511625006E235117216D
:10327000016E120029C22FF22AC230F212000C0194
:103280006C6F6B510201145D0C016C5102011559F8
:103290001200006E016A0050120046C218F247C2C6
:1032A00019F248C21AF249C21BF21200020E21D9C9
:1032B000EECF04F0EFCF05F012000C012C5102010B
:1032C0006C5D0C012D5102016D5912000201C66F97
:1032D00044C2C4F22BC2C2F22CC2C3F212000201D9
:1032E0008E510C013B5D02018F510C013C591200C3
:1032F000020199510C01025D02019A510C0103591E
:103300001200E9CF00F0EACF01F0E9CFE6FFEACF03
:10331000E6FF12000C016B510201255D0C016C519E
:103320000201265912000C016B5102010E270C01FB
:103330006C5102010F2312000701676F686B0701D0
:10334000656B666BC9EF4BF017D90E0E79EF1AF06B
:1033500031510E5D006E0F513255016E026A036AE3
:103360001200016E00502D5D01502E591200180EF2
:10337000E66E020EE66E120031510E5D32510F59AB
:103380001200B1C2E9FFB2C2EAFF1200AD51020160
:10339000665D0C01AE510201675912000A0EE66E1D
:1033A000E66AB1C2E6FFB2C2E6FF12000201AE6BEE
:1033B0000201100ECBEF1AF035510C01025D020133
:1033C00036510C0103591200BEEC00F033C235F245
:1033D00034C236F21200016E02012B51005C2C51F6
:1033E0000158120002018E07000E8F5B8E518F1163
:1033F000120002019907000E9A5B99519A1112006E
:10340000272BD89002370337043705371200006E98
:10341000016A140E005E000E015A1200E5EC0FF076
:10342000F3CF25F2F4CF26F21200AFEC9CF01EC0D1
:103430003DF21FC03EF21200BA51BC25006EBB51D6
:10344000BD21016E1200CAC2E6FFCBC2E6FFCCC2AC
:10345000E6FF1200B4EC81F0006E070EE15E005052
:1034600012000FD902011200010E0226000E0322E3
:103470001200BEEC00F0E6EF00F061C25FF2F5EF83
:1034800002F063C25FF2F5EF02F068C25FF2F5EF9F
:1034900002F02BC235F22CC236F2120000500008A6
:1034A000000E015412000A0E79EF1AF031C20EF22A
:1034B00032C20FF21200120E79EF1AF007016C6F90
:1034C0006D6B0701120029C20EF22AC20FF2120020
:1034D000B6EC4BF00C01426F120029CCE9FF2ACC6C
:1034E000EAFFC1EF16F004CCE9FF05CCEAFFC1EF1B
:1034F00016F0E926000EEA221200A5EC9CF01EC090
:1035000037F21FC038F220C039F221C03AF212005F
:10351000A4DE0201C56F0C012A510201B859020153
:10352000C66FE9DC2BC2BFF22CC2C0F21200AFC2E0
:10353000E9FFB0C2EAFF1200B3C2E9FFB4C2EAFF7A
:103540001200016E010E0026000E0122120000265C
:10355000000E01220222032200C03BF201C03CF215
:103560001200B7C2C5F2B8C2C6F27BEF17F0020173
:10357000010EAE6F02011200B5C2E9FFB6C2EAFF4A
:103580001200408BAFEC9CF01EC000F01FC001F099
:10359000026A036A1200AD6FD6EF0BF044C2C1F2AB
:1035A0002FC2BFF230C2C0F20DEF16F0972398C2BF
:1035B000F8FF98230800F5CF0EFC0C011200005014
:1035C0002B5D01502C5902502D5903502E591200D9
:1035D000016E00501219426F01501319436F12000F
:1035E0004DDCD890013200321200F00BE842E84284
:1035F000E842E842120049DC14EF18F01DC004F064
:103600001EC005F058EF17F039DC00500E5F015076
:103610000F5B120001C0EEFF02C0EEFF03C0EEFF21
:10362000120031CC00F032CC01F0026A036A1200C1
:1036300029CCC5F22ACCC6F27BEF17F002010A2B87
:10364000000E0B230C230D231200F3CF00F0F4CF58
:1036500001F0120069DDEE50ED101200060EE96E69
:10366000020EEA6E12000ADC026A036A120002010C
:1036700033510C012F251200020134510C0130216D
:1036800012000201010EC16F1200EECF00F0EECF6A
:1036900001F094DD6DEF1AF034CC06F235CC07F270
:0A36A00036CC08F237CC09F2120014
:0636AA00490E080123197E
:1036B00005E1245103E1255101E1265101E1E4D264
:1036C000480E231905E1245103E1255101E126515A
:1036D00001E1D8D2470E231905E1245103E1255118
:1036E00001E1265101E1C8D2460E231905E124511A
:1036F00003E1255101E1265101E1BCD2450E231918
:1037000005E1245103E1255101E1265101E1AFD248
:10371000440E231905E1245103E1255101E126510D
:1037200001E19FD2430E231905E1245103E1255104
:1037300001E1265101E193D2420E231905E1245102
:1037400003E1255101E1265101E186D2330E23190F
:1037500005E1245103E1255101E1265101E173D234
:10376000310E231905E1245103E1255101E12651D0
:1037700001E163D2300E231905E1245103E1255103
:1037800001E1265101E157D22F0E231905E1245101
:1037900003E1255101E1265101E14AD22E0E231900
:1037A00005E1245103E1255101E1265101E13ED219
:1037B0002D0E231905E1245103E1255101E1265184
:1037C00001E132D22C0E231905E1245103E12551E8
:1037D00001E1265101E126D22B0E231905E12451E6
:1037E00003E1255101E1265101E11AD22A0E2319E4
:1037F00005E1245103E1255101E1265101E10ED2F9
:10380000290E231905E1245103E1255101E1265137
:1038100001E102D2280E231905E1245103E12551CB
:1038200001E1265101E1F6D1270E231905E12451CA
:1038300003E1255101E1265101E1EAD1260E2319C8
:1038400005E1245103E1255101E1265101E1DED1D9
:10385000250E231905E1245103E1255101E12651EB
:1038600001E1D2D1240E231905E1245103E12551B0
:1038700001E1265101E1C6D1230E231905E12451AE
:1038800003E1255101E1265101E1BAD1220E2319AC
:1038900005E1245103E1255101E1265101E1AED1B9
:1038A000210E231905E1245103E1255101E126519F
:1038B00001E1A2D1200E231905E1245103E1255194
:1038C00001E1265101E196D11F0E231905E1245192
:1038D00003E1255101E1265101E18AD11E0E231990
:1038E00005E1245103E1255101E1265101E17ED199
:1038F0001D0E231905E1245103E1255101E1265153
:1039000001E172D11C0E231905E1245103E1255177
:1039100001E1265101E166D11B0E231905E1245175
:1039200003E1255101E1265101E156D11A0E231977
:1039300005E1245103E1255101E1265101E14AD17C
:10394000190E231905E1245103E1255101E1265106
:1039500001E13ED1180E231905E1245103E125515F
:1039600001E1265101E131D1170E231905E124515E
:1039700003E1255101E1265101E122D1160E23195F
:1039800005E1245103E1255101E1265101E116D160
:10399000150E231905E1245103E1255101E12651BA
:1039A00001E103D1140E231905E1245103E125514E
:1039B00001E1265101E1F4D0130E231905E1245150
:1039C00003E1255101E1265101E1E5D0120E231951
:1039D00005E1245103E1255101E1265101E1D7D050
:1039E000110E231905E1245103E1255101E126516E
:1039F00001E1C8D0100E231905E1245103E125513E
:103A000001E1265101E1BAD00F0E231905E124513D
:103A100003E1255101E1265101E1ABD00E0E23193E
:103A200005E1245103E1255101E1265101E19DD039
:103A30000D0E231905E1245103E1255101E1265121
:103A400001E191D00C0E231905E1245103E1255128
:103A500001E1265101E183D00B0E231905E1245128
:103A600003E1255101E1265101E177D00A0E231926
:103A700005E1245103E1255101E126516CE0090ED5
:103A8000231905E1245103E1255101E1265161E0AB
:103A9000080E231905E1245103E1255101E12651C6
:103AA00056E0070E231905E1245103E1255101E1F8
:103AB00026514BE0060E231905E1245103E125515F
:103AC00001E1265140E0050E231905E1245103E1EF
:103AD000255101E1265135E0040E231905E1245159
:103AE00003E1255101E126512AE0030E231905E1E6
:103AF000245103E1255101E126511FE0020E231953
:103B000005E1245103E1255101E126510FE0010EA9
:103B1000231901E0BBD0245101E0B8D0255101E0C8
:103B2000B5D0265101E0B2D062EF33F00801E30EC8
:103B3000416F890E426F000E8CD077EF33F058EF53
:103B40001EF07FEF31F0070E0BD0060E09D0050EE8
:103B500007D0040E05D0030E03D0020E01D0010ED3
:103B60000401E96F2FD0BAEF32F0010E0401ED6FBE
:103B700002D00401ED6BEE6B040E1BD0010E0401AC
:103B8000ED6F02D00401ED6BEE6B030E12D0010E4F
:103B90000401ED6F02D00401ED6BEE6B020E09D053
:103BA000010E0401ED6FEE6B04D00401ED6BEE6BC2
:103BB000010E0401EB6FEC6B43EF32F0AFEF31F02D
:103BC0000401E96BEA6BF0EF31F00401E76B07D019
:103BD000010E03D0020E01D0030E0401E76FE86B63
:103BE000B7EF31F0A3EF32F08DEF33F073EF34F035
:103BF00052EF34F05AEF34F04EEF34F04FEF34F030
:103C000050EF34F07DEF34F028EF34F0E6EF33F08E
:103C1000EBEF33F0F6EF33F000EF34F00AEF34F06F
:103C200014EF34F01EEF34F047EF34F049EF34F086
:103C30000401F76B05D0010E01D0020E0401F76FED
:103C4000F86B51EF34F00801D80E416F890E426FC6
:103C5000000E436FCFEF27F00401F36B05D0010E88
:103C600001D0020E0401F36FF46B45EF34F0040150
:103C7000F56B05D0010E01D0020E0401F56FF66B55
:103C800046EF34F06DEF34F070EF34F0040E0201C3
:103C90006C6F6D6B0201D30E696F890E6A6F000E37
:103CA0006B6FF2EC29F0EE52EFCF68F204EF04F004
:103CB00002017E0E626F09EF2BF00401836B020E8E
:103CC000835D30E253EC28F0EF6A0201080E4D6F7D
:103CD000500E02014B6F4C6B02014A6B0201466BA6
:103CE000476B486B496BE1EC01F0E66EF2EC29F0B2
:103CF000EE52E552E750EF6E146915698351BAEC44
:103D000028F0B4EC29F0F3CF00FCF4CF01FC0FEC69
:103D100029F000CC55F701CC56F7FAEC49F0040134
:103D2000832BCDD7836B12000C01866B020E865D50
:103D300036E2C4EC28F0EE52EF50FE082DE0C4EC61
:103D400028F0EE52EFCF4EF279EC02F0000914E0C9
:103D500086CC27F825D8F2EC29F0EF6AFF0E145D27
:103D600002E042EC29F0FF0E155D02E049EC29F07B
:103D70000201040E87EC2AF00C01C4EC28F0EF508D
:103D800007E1C4EC28F0B5EC28F0D7EC28F004E00B
:103D900086CC27F805D83ED80C01862BC7D7120051
:103DA000040183510801275D01E1120004018351E0
:103DB000BAEC28F0B4EC29F0F3CF00FCF4CF01FC0E
:103DC0000FEC29F000CC55F701CC56F7FAEC49F08E
:103DD00008012751BAEC28F000C057F701C058F786
:103DE0000FEC4AF0F3CF00FCF4CF01FC7F0E07018B
:103DF000676F686B0701000E656F040E666FC9EC94
:103E00004BF000CC57F701CC58F70FEC4AF027C81D
:103E100083F412000C01010E736FF2EC29F0EF50E5
:103E20000B0A02E175EF23F0010A02E152EF23F0E1
:103E3000030A02E13BEF23F0010A01E1B9D30F0AC3
:103E400001E11FD3010A01E102D3030A01E17AD2A1
:103E5000010A01E16ED2070A01E147D2010A01E13C
:103E6000A4D1030A27E0010A02E082EF23F0AFECBD
:103E70002AF0F3CF6DFCF4CF6EFCF350F41002E1A6
:103E800082EF23F004011A0E106F040E116F53EC31
:103E900028F0010EEF6E1769166B7BEC28F00C69A9
:103EA0000D690E690F69CFEC29F07E6B0201050EDA
:103EB00087EC2AF078EC28F00A0EDAEC2AF001EC14
:103EC0002AF00001F31C14E1011C12E1F2EC29F0CC
:103ED0000BEC2AF004E112EC2AF00C01736BA2EC5B
:103EE00028F002E6E9EC28F002E382EF23F042D268
:103EF0007BEC28F001EC2BF00C01050ED880F3547C
:103F0000000EF45403E2050E6D6F6E6B010E55EC5E
:103F100029F01A0E7C6F040E7D6F84EC2AF0030EDC
:103F2000E66EE66A010EE66E830EE66E000E56EC55
:103F30002AF003E10401186B12D0040EE66EE66A63
:103F4000FC0EE66E820EE66E000E56EC2AF004E1E0
:103F50000401010E186F03D00401070ECAD101EC51
:103F60002BF00201A66BF3CFA4F2F4CFA5F202016D
:103F7000A26BA36B02013F0EA16FF2EC29F05FEC84
:103F800029F00C01F3506D5DF4506E5904E36FCCD1
:103F90006DFC70CC6EFC590ED8806D55000E6E55C0
:103FA00001E2ECD0F6EC2AF06DEC2AF01A0EF324C4
:103FB000E96E040EF420EA6E89EC29F01A0EE66E22
:103FC000040EE66E3FEC2AF06DEC2AF00B0EE66E66
:103FD000E66AF10EE66E820EE66E000EE66E1B0ECF
:103FE000E66E040EDBEC28F00CE162EC29F01851CF
:103FF00002E1080E01D0090E186F53EC28F0020EF2
:104000002ED207EC29F002E06CEC29F0FF0E04013F
:10401000145D31E107EC29F00EE00C016FCCE9FFF3
:1040200070CCEAFF6F2B000E70231A0EE926040EE7
:10403000EA222F0EEF6EBAEC29F01A0E0C016F2552
:10404000006E040E7021016E00C0E6FFE66EA3EC68
:1040500082F0026E050EE15E0250BAEC29F0CAEC65
:1040600082F0E552E552E5521F500C016F272050B7
:1040700070236CEC29F01A0E0C016F25746F040E7E
:104080007021756F010E745F000E755B1A0E741946
:1040900002E1040E751909E074CCE9FF75CCEAFF62
:1040A000EF502E0802E07407EFD7742B000E752333
:1040B0000401196B0B0EE76E1919E8AE02D0E73454
:1040C00002D0E750195D23E2650E006E3A0E016ED4
:1040D000010E026E19C403F0046A056A03AE02D031
:1040E0000468056823EC2AF0F5CF27F70900F5CF1F
:1040F00028F70800F5CF29F774CC25F775CC26F7FB
:10410000ACEC5FF0000903E00401192BD3D762EC9B
:1041100029F0FF0E145D18E014C4F2F098EC59F089
:10412000F350020B11E014C4FDF092EC5AF0F3CFFF
:10413000D4F0F4CFD5F0010E0001D427000ED52322
:10414000EAEC56F00401156F01EC2BF0F350F4107B
:104150001CE00401010E166F0201710E796F0C0E46
:104160007A6FF2EC29F09FEC29F00C016D07000E3C
:104170006E5B620E6D5D000E6E5903E30401050E69
:10418000B8D0F6EC2AF0F3EC28F005EC2BF0010E99
:10419000F32402017E6F000EF4207F6F0201F2EC27
:1041A0002AF0F2EC29F0020EEF6E05EC2BF00C0178
:1041B000F31C13E16E1D11E1F2EC29F00BEC2AF077
:1041C00004E112EC2AF00C01736BA2EC28F002E679
:1041D000E9EC28F001E396D2CDD07BEC28F00C017D
:1041E000010E6D190BE16E5109E1020ED4EC29F0BC
:1041F000F2EC2AF0F2EC29F0030E31D10201A66BA9
:104200006DCCA4F26ECCA5F20201A26BA36B0201ED
:104210003A0EA16FF2EC29F05FEC29F0020E0C01CE
:104220006F27000E7023736B100ED8806F55000E31
:10423000705502E2010E54D06FCC7EF270CC7FF24A
:104240000201760E7C6F0C0E7D6F84EC2AF047EC39
:104250002AF0760EE9260C0EEA22EF6A0C016F5165
:104260006D5F70516E5B726B7251006E016A030E6E
:10427000005C000E01582EE2D70E006E3A0E016E61
:10428000010E026E72CC03F0046A056AAAEC29F0F2
:1042900072CC1FF058EC28F0F5CFE6FF0900F5CFFF
:1042A000E6FF0800F5CFE6FF760EE66E0C0EE66E32
:1042B0006CEC82F0066E050EE15E0650000907E127
:1042C00072CC28F8E8DA0C01010E736F03D00C01F0
:1042D000722BCAD7735102E005EC2BF0010E0C01D2
:1042E00055EC29F0F2EC2AF060D7800E175D03E25E
:1042F000030E186FB1D010C4E9FF11C4EAFF89ECB6
:1043000029F0F3CF10F4F4CF11F4080E0401185D76
:1043100001E1A2D053EC28F0040EEF6E165104E137
:1043200053EC28F0050EEF6E0C01736B0401166B55
:10433000E9D14EEC2BF0020801E1E4D1F2EC29F0D6
:10434000050EEF6EAFEC2AF0DEEC2AF0F35004011C
:104350000C1914E101500D1911E102500E190EE172
:1043600003500F190BE10AE1A2EC28F002E6E9EC98
:1043700028F004E2B5EC2AF00B0E71D0180515E018
:10438000090EE76E1819E8AE02D0E73402D0E75004
:10439000185D59E30B0EE76E1819E8AE02D0183518
:1043A00003D0E750D88018554EE3090EE76E181970
:1043B000E8AE02D0E73402D0E750185D13E30B0EED
:1043C000E76E1819E8AE02D0183503D0E750D88050
:1043D000185508E3F0EC26F00C01716FE85006E187
:1043E00004013AD0EEEC2BF00C01716F020E715DFE
:1043F0000CE1B2EC2AF0D9EC29F00401010E0C5FBB
:10440000000E0D5B0E6B0F6B7DD171051CE1B2ECE4
:104410002AF0D9EC29F004010E6B0F6B7BEC28F02D
:104420002DEC29F00C5DEE500D59EE500E59EE506A
:104430000F5906E253EC28F00BEC2AF001E062D1B0
:104440000401060E08D0F2EC29F0060EEF6EFF0E06
:10445000145D07E1040E186F53EC28F0070EEF6EA1
:10446000A4D0CFEC29F0FF0E155D05E104690569C4
:104470000669076902D076EC29F0F2EC29F0070E04
:10448000EF6E0201020E87EC2AF0AD0E006E3A0EBE
:10449000016E010E026E18C403F0046A056A03AED1
:1044A00002D004680568A3EC2AF00C0E0401185D24
:1044B0000DE1BDEC2AF0D40E726F820E736F000E08
:1044C000EEEC2AF0BDEC2AF072EC2AF0040118514F
:1044D00006E0180504E053EC28F00B0E04D10B0E97
:1044E000195D1BE00201C50E726F820E736F000E24
:1044F000EEEC2AF0890E006E3A0E016E010E026E8D
:1045000019C403F0046A056A03AE02D004680568A2
:10451000A3EC2AF0020172EC2AF014C4F2F098EC39
:1045200059F0F350010B08E00201AC0E726F820EDD
:10453000736F000EEEEC2AF002019C0E726F820E79
:10454000736F000EEEEC2AF0040118050CE0E86829
:10455000041908E1E868051905E1E868061902E1AF
:10456000E868071907E00201930E726F820E736FFD
:10457000000E0DD002018A0E726F820E736F000E54
:10458000EBEC2AF0860E726F820E736F000EEBEC6E
:104590002AF072EC2AF00401165104E053EC28F0E2
:1045A000080E02D00CEC2BF0EF6E0C01736BAAD04E
:1045B0001A0E126F040E136F16515AE00201790E93
:1045C000726F820E736F000EEEEC2AF01AEC29F077
:1045D00022E0200E0C01715D03E102012B0E14D0CC
:1045E000300E715D0FE37151390803E2410E715DC8
:1045F00009E371515A0803E2610E715D03E37151E1
:104600007A0804E292EC2AF0626F02D071CC62F276
:1046100009EC2BF0DBD702013D0E626F09EC2BF0A9
:104620001AEC29F01FE0200E0C01715D03E102017C
:104630002B0EF3D7300E715D0FE37151390803E291
:10464000410E715D09E371515A0803E2610E715D1B
:1046500003E371517A0803E292EC2AF0DED771CCC1
:1046600062F2DCD7020172EC2AF004011607A4D72B
:104670000CEC2BF0EF6E0C01736B4AD8000909E0CB
:1046800042EC29F053EC28F00B0EEF6E0C01010EFA
:10469000736FE2EC2AF0D7EC28F034E10C01010E44
:1046A000736F30D00C01010E736FE2EC2AF001EC55
:1046B0002AF0100EF35C000EF45824E308C423F82B
:1046C00009C424F80AC425F80BC426F855EC1BF0DD
:1046D00004010C510D110E110F1114E10C01736B3B
:1046E000F2EC29F0090EEF6E0DD0FF0E145D02E022
:1046F00042EC29F0FF0E155D02E049EC29F0B5EC23
:104700002AF0EF6A0C01735102E10AEF1FF0120068
:10471000E2EC2AF0F3CF02FCF4CF03FCF3CF04F079
:10472000F4CF05F0066A076A2DEC29F00401045D58
:10473000086EEE500559096EEE5006590A6EEE509D
:1047400007590B6E0850F35C0950F4580A5006588C
:104750000B50075807E202CC00F003CC01F0026ACC
:10476000036A0DD02DEC29F0045D006EEE50055962
:10477000016EEE500659026EEE500759036E00C0EE
:1047800000FC01C001FC0C010050040100270C01D9
:10479000015004010123000E022303230C01000E2B
:1047A000D8800055000E015530E2400E005D000E2D
:1047B000015905E200CCDDF001CCDEF004D00001AF
:1047C000400EDD6FDE6B0001050EDB6F0C0EDC6F43
:1047D00014C4DAF09AEC57F0F3CF02FCF4CF03FCE8
:1047E0000C01F350F41001E1010C02CC66F203CC91
:1047F00067F20201050E646F0C0ECCEC2AF00C017E
:104800000251005F0351015BC9D72DEC29F004016F
:10481000041940E1EE5005193DE1EE5006193AE168
:10482000EE50071937E136E153EC28F00A0EEF6E2F
:104830000C6B0D6B0E6B0F6B0001D86BD96B14C436
:10484000D7F036EC57F00001040ED86F0C0ED96F7C
:1048500014C4D7F036EC57F0000906E0C8EC29F094
:104860007E0E0C01045DEFE1C8EC29F00001080E9A
:10487000E06F040EE16F15C4DFF0EEEC57F076EC5C
:1048800029F0000907E1040104690569066907695F
:1048900049EC29F0000C0801285102E1D2EF24F084
:1048A000280502E159EF24F0020E285D01E1C9D884
:1048B0001200040117BF1200060ED4EC29F0F2EC2E
:1048C0002AF079EC2AF002EC29F0F3CF31FC030E48
:1048D0000C013127FC0E3117326B240E315D000EB6
:1048E000325903E3240E316F326B330E5B6F0C0EC3
:1048F0005C6F000ED8803155000E325526E2040E52
:1049000002017E6F7F6B5BCC7CF25CCC7DF284EC31
:104910002AF0030E0701136F146B5BCC11F75CCC0C
:1049200012F7040E07010F6F106B5BCC0DF75CCC18
:104930000EF715EC5EF0040E0C01315F000E325BD9
:10494000030E5B27000E5C23D4D7DEEC29F0EF6A60
:10495000316B326B330E5B6F0C0E5C6F280E315D6A
:10496000000E32590BE2DEEC29F0EF503A0806E077
:10497000312B000E32235B2B5C23F0D7DEEC29F0C9
:104980005B2B000E5C23EF6A5BCC88F45CCC89F473
:104990000401330E866F0C0E876F2AEC2BF0040196
:1049A000176F120079EC2AF05CEC2AF010C400F0CA
:1049B00011C401F07E0ED8800056040E0156020E7E
:1049C000005E000E015A0C010050F35C0150F458D7
:1049D00002E312EF2AF00C013351341131E088DB8D
:1049E0003B0EDAEC2AF0F3CF31FCF4CF32FC0C01B1
:1049F0003351F35C3451F45805E231CC7EF232CCC1
:104A00007FF204D033CC7EF234CC7FF210C47CF23F
:104A100011C47DF284EC2AF0E6DB0C013351315DE8
:104A20003451325908E2E5EC2AF062DB200EDAEC70
:104A30002AF0BDDBF8E079EC2AF05CEC2AF0CBD769
:104A4000120079EC2AF0DEDBF3CF31FCF4CF32FC3C
:104A50000C010A0EF35C000EF45805E30401020E8B
:104A6000186FCFEF29F031CC7EF232CC7FF2020109
:104A7000330E7C6F0C0E7D6F84EC2AF0F3CF31FC8B
:104A8000F4CF32FC330E0C01F324E96E0C0EF4204B
:104A9000EA6EEF6A330EE66E0C0EE66E9CEC83F067
:104AA000E552E5521EC000F41FC001F420C002F41C
:104AB00021C003F4120029C8E6FF2AC8E6FF3FEC34
:104AC0002AF0F3CF3DFCF4CF3EFC29C83BFC2AC8BA
:104AD0003CFC29C839FC2AC83AFC0C013D513E1166
:104AE00042E0A4EC29F0000E3A23EFCF3FFC3D0753
:104AF0003E5B3D0E3F5D03E0260E3F5D03E14FDB75
:104B0000EF6AEBD72B0E3F5D03E149DB200E25D08A
:104B1000250E3F5D24E1020E3D5D000E3E5903E28D
:104B20003D6B3E6BDAD7A4EC29F0000E3A23EFCFB1
:104B300041FCA4EC29F03A23EFCF40FC3D073E5B5B
:104B40003D073E5B40CC21F741CC22F774EC5FF08F
:104B5000E66E0C0124DBE552E750EF6EBED71FDB9B
:104B60003FCCEFFFBAD71BDBEF6A3BCCE9FF3CCC75
:104B7000EAFFEF6A3BCCF3FF3CCCF4FF12002BC8FA
:104B8000E9FF2CC8EAFFEF5020E0E3EC29F02DC844
:104B9000E6FF2EC8E6FF4CEC82F0E552E552E55206
:104BA000E55200090DE12DC8E6FF2EC8E6FF3FECF7
:104BB0002AF008012B51F324006E2C51F42058D315
:104BC00028EC2AF028EC2AF0DAD7F36AF46A12000B
:104BD0002FC8E9FF30C8EAFFEF5027E037DB1FC0DE
:104BE00000F020C001F021C002F0002A000E0122D6
:104BF000022200C0E6FF01C0E6FF62EC2AF0E8DB1B
:104C00006AEC81F0036E070EE15E0350000908E1D3
:104C10001DDB08012F511F24006E3051202028D3A6
:104C20002FEC2AF02FEC2AF0D3D7F36AF46A1200A3
:104C300036C83FF837C840F834C83DF835C83EF8A4
:104C400008013D0E3C6F46D80C016C6F08013451D1
:104C500035110BE034C8E9FF35C8EAFFEF5005E035
:104C600034C829F835C82AF826DF0C016C51120027
:104C700046DB260E3C6F2ED80C016C6F020E6C5D6D
:104C800017E1B2EC2AF0DEEC2AF004010051F3182F
:104C90000FE1015101180CE10251021809E1035121
:104CA000031806E105E12BDB3C6B14D80C016C6F9B
:104CB0000801385139110BE038C8E9FF39C8EAFF5B
:104CC000EF5005E038C829F839C82AF8F4DE0C019D
:104CD0006C51120008013C5106E0C8DB3CC8A1F24F
:104CE00081DB94DB02D0B2EC2AF0F3CF6AFCF4CF84
:104CF0006BFC0C01F31C03E16B1D01E1020C0801CC
:104D0000020E3F5D000E405906E23D513E1103E0A8
:104D1000C5EC2AF038D03D513E1104E1C5EC2AF033
:104D20000C0143D0FEDA0C016A51005C6B51015852
:104D30002EE23FC87EF240C87FF20201020E7E5F83
:104D4000000E7F5BD3EC2AF03FC804F040C805F0AA
:104D5000020E045E000E055A04500C016A5D020149
:104D60007E6F05500C016B5902017F6F0201F2EC5E
:104D70002AF03BDBD6DA08013D510024E96E3E51B2
:104D80000120EA6EEF6A0C01010E696F0FD025DB7E
:104D9000D3EC2AF008013D510C016A25E96E0801A7
:104DA0003E510C016B21EA6EEF6A696B08013C51C0
:104DB00014E0E5EC2AF0006E016A026A036A00AEB4
:104DC00003D001680268036800500401005F0150CD
:104DD000015B0250025B0350035B0C01695112003E
:104DE000040118510A0A01E185D0010A66E0020AAD
:104DF00001E0D4D0CBD9040E53DA740E966F820E34
:104E0000976F000E986FEEDAFDD9A9DA0C01F31C4A
:104E100001E1421D44E041CC7EF242CC7FF202012E
:104E20007C6B7D6BDFDA55DB9ADBEBDA0A0EF35C29
:104E3000000EF45805E20C01412B000E4223010C38
:104E40000A0EB2DA310E7C6F0C0E7D6FCBDA41DBCD
:104E50000A0EE66EE66A690EE66E820EE66E000ED9
:104E6000E66E310EE66E0C0EA6D915E104010A0EAF
:104E7000186F91EC58F00401146F060E0001EB6FEF
:104E8000EC6B0001350EE96F0C0EEA6F14C4E8F00C
:104E9000D5EC58F0020C04010B0E186F020C62DB0B
:104EA000F3CF7EF2F4CF7FF20201040E7E5F000E9C
:104EB0007F5B020197DB99DA010C51DBF6D8F3D85E
:104EC000EE52EFCF76F2E7EC04F0640E0401005DE1
:104ED000000E0159000E0259000E03595BE3D88001
:104EE000000E0055000E0155000E0255800E0355B0
:104EF00055E250D034DB33DA61DBF3500401005D5E
:104F0000F4500159025002590350035904E200C4FD
:104F100041FC01C442FC0C01000ED8804155000E3A
:104F200042552CE2100E415D000E425905E241CC83
:104F30007EF242CC7FF204D00201100E7E6F7F6BB6
:104F40000201310E7C6F0C0E7D6FDEDAF3CF43FC75
:104F5000F4CF44FCAAD80C01F350415FF450425BFB
:104F6000F3CFEBF0F4CFECF00001310EE96F0C0E53
:104F7000EA6F14C4E8F0D5EC58F0CDD70401005125
:104F80000111021103110AE10001010EED6F1BEC8A
:104F900059F0040188D8070EEF6E000C010C0401D3
:104FA0000C510D110E110F1114E141C8D1F042C87E
:104FB000D2F043C8D3F038EC56F00C01446FFF0E2A
:104FC000445D01E1120044CCFDF092EC5AF0F1D9BD
:104FD0001AD00CC4D4F00DC4D5F0EAEC56F00C0194
:104FE000446FFF0E445D01E112000001020EE76F05
:104FF0000EC4E3F00FC4E4F00001E56BE66B44CCB3
:10500000E2F002EC58F0DEDAF3CF00FCF4CF01FC62
:105010000C01000ED8800055000E015538E2400EFC
:10502000005D000E015905E200CCDDF001CCDEF0A0
:1050300004D00001400EDD6FDE6B0001040EDB6F5B
:105040000C0EDC6F44CCDAF09AEC57F0F3CF02FC94
:10505000F4CF03FC0C01F350F4100AE144CCD6F079
:105060002BEC57F004010C6B0D6B0E6B0F6B1200E9
:1050700002CC66F203CC67F20201040E646F0C0EE0
:105080008BDA0C010251005F0351015BC1D744CCA4
:10509000FCF061EC5AF01EC00EF41FC00FF444CCBB
:1050A000D6F02BEF57F08351C4D1ABD9F5EF29F0EF
:1050B00004C020F005C021F041EC9CF01CC003F0BE
:1050C0001DC004F01EC005F000501C24F36E0150FA
:1050D0001D20F46E02501E20F86EF4CFF7FFF3CFC0
:1050E000F6FF09001200EE52EFCF7BF255EF05F00C
:1050F000BDD902011200A5EC9CF01EC008F41FC02F
:1051000009F420C00AF421C00BF48A0E0401082718
:10511000F00E09231B0E0A23000E0B231200EE5281
:10512000EFCF71F29DEF04F071D9F3CF6DFCF4CFA6
:105130006EFC1200A4D965D9010E0026000E0122D2
:1051400000501200A5EC9CF0040108511E5C006E9A
:1051500009511F58016E0A512058026E0B512158F7
:10516000036EE834000E03181200EE52EFCF77F210
:10517000F6EF04F07F0D22DAFE0E00261E0E01224D
:10518000000E022203221200865153D102019F6BAE
:1051900002019D6B9E6B02019B6B9C6B12003BCCD2
:1051A000E9FF3CCCEAFF3B2B000E3C23120029D93F
:1051B000F350F4101200E66E6AEC81F0006E070EF8
:1051C000E15E005000091200EE52EFCF61F23CEFB9
:1051D00003F0D880000E0054000E0154000E02545B
:1051E000000E03541200F35004011027F450112351
:1051F00010C4E9FF11C4EAFF102B000E1123260E84
:10520000EF6E1200EE52EFCF95F2B8EF07F03FD9F4
:105210001A0EE926040EEA22EF502F0812007F0E24
:1052200007016C6F6D6B0701000E6A6F040E6B6FE8
:1052300015EF4CF0040112C4E9FF13C4EAFF122B6E
:10524000000E1323EFCF71FCEF5012003BD9CAECD4
:1052500082F0E552E552E5521200000EE96E040EAE
:10526000EA6EEE501200EE52EFCF60F203EF03F061
:10527000016E010E0026000E012200C0F3FF01C0E6
:10528000F4FF120014C4D6F02BEC57F0040114699B
:10529000120015C4D6F02BEC57F00401156912006A
:1052A0000201996F9A6B020112006D2502017E6F57
:1052B000000E0C016E2102017F6F02011200A6D8C0
:1052C0006DEF2AF004011B0E846F040E856F11EC44
:1052D0002BF00401176F120000011B0ECF6F040E9C
:1052E000D06F85EC55F00401146F12000001040E1C
:1052F000E06F040EE16F15C4DFF0EEEF57F03AC82F
:105300003FF83BC840F838C83DF839C83EF80801B6
:105310001200EF6A08011A0E296F040E2A6F5BEF64
:1053200025F03FC800F040C801F0020E005E000EFC
:10533000015A1200EE52EFCFB9F234EF15F0EE52EF
:10534000EFCF78F218EF05F039CCE9FF3ACCEAFF5D
:10535000392B1200030E246E256A266A1200F3CF41
:1053600041FCF4CF42FC120000C055F701C056F7D3
:10537000FAEF49F0E70EE66E820EE66E000EE66E7C
:105380001200EE52EFCF6EF282EC04F00201120036
:105390000401002B000E0123022303231200006BE3
:1053A000016B026B036B120002017E6F7F6B0201C7
:1053B0001200F3CF0CF4F4CF0DF412005BCCE9FF34
:1053C0005CCCEAFF12002BC8E6FF2CC8E6FF1200F7
:1053D0002FC8E6FF30C8E6FF12006ACC7EF26BCC25
:1053E0007FF21200040153EF28F0026A036AF350BF
:1053F0000401005FF450015B0250025B0350035B49
:105400001200F3CF00F0F4CF01F01200EE52EFCF14
:10541000A0F2E3EF08F0EE52EFCF80F2D7EC05F008
:10542000D7EF28F00401050E186F3DDE070EEF6E72
:105430001200E96EEA6AD890E936EA367F0EE9266C
:10544000040EEA22120086DF03C01FF058EF28F096
:10545000BADF70DE08012B2701502C231200B8DFC1
:1054600069DE08012F270150302312000201A66BCC
:105470000201A46BA56B0201A26BA36B1200BCEC32
:1054800082F0E552E55212002EDE55EF28F06FCC87
:10549000E9FF70CCEAFFE906000EEA5A120094DE3A
:1054A00071CC24F79FEC5FF002011200E66E1A0E39
:1054B000E66E040EDBEF28F0A5DEF3CF33FCF4CF6D
:1054C00034FC120031C8E6FF32C8E6FF33C8E6FFFD
:1054D000120009DE44DF55EF28F0F3CF6FFCF4CF64
:1054E00070FC1200620E726F3A0E736F010EEEEFD7
:1054F0002AF04CDE020ED4DE620E966F3A0E976FE3
:10550000010E986FF2EF29F06DDF73EF28F0BE6F98
:105510000201BC6BBD6B010E0201BA6FBB6B62DF97
:105520009AEF29F00201250E626F73D871CC23F730
:1055300091EC5FF00201626F55DF4FEF2AF0A16F2F
:1055400051DF94EF28F07FDFF5CF72F20900F5CF3D
:1055500073F20800F5CF74F245DF8FEF28F0A3DD7A
:10556000B5EF28F03FDFB5EF28F09DDDEE52EFCF2D
:1055700050F28BEC02F0F2EF29F002011A0E6F6F7D
:10558000040E706F2FDFC1EF29F027DF02017C6B63
:105590007D6B28DF44EF2AF0656F24DFEE52EFCFFA
:1055A00063F289EF03F03DC87CF23EC87DF21ADF5A
:1055B00044EF2AF0A16F16DF06EF2AF022DF026A1D
:1055C000036A12000FDF33EF29F00201796B7A6B67
:1055D00009DF9FEF29F002D802011200746F02DF89
:1055E0008FEF28F07C6B7D6B84EF2AF06DCC7EF220
:1055F0006ECC7FF202011A0E7C6F040E7D6F84EF79
:105600002AF076DD200E9FEF2AF072DD0A0E9FEF62
:105610002AF0E8DEE4EF28F0020164DFE3DE090EA1
:02562000120076
:0E562200070EE66EE66A060EE66E820EE66E75
:10563000000EE6EC35F001E1000C040EE66EE66AC1
:10564000010EE66E820EE66E000EE6EC35F001E12C
:10565000000C800CFB0EE66E810EE66E000EE66E10
:1056600086C4E6FF87C4E6FF6CEC82F0DEEC35F022
:10567000000913E1F10EE66E810EE66E000EE66E95
:1056800088C4E6FF89C4E6FF6CEC82F0016E050E6B
:10569000E15E0150000901E1800C000C140E0001D4
:1056A000FA6FFB6B0001020EF86F0C0EEFEC34F09A
:1056B000B4EC35F04EE10801E20E316F810E326F2D
:1056C000000EAFEC35F00AE006EC35F002E0000E1B
:1056D00001D0010EE8B09188E8A091980801DD0E94
:1056E000316F810E326F000EAFEC35F00AE006EC40
:1056F00035F002E0000E01D0010EE8B09186E8A07E
:1057000091960801D80E316F810E326F000EAFEC0A
:1057100035F00AE006EC35F002E0000E01D0010E93
:10572000E8B09184E8A091940801D30E316F810E06
:10573000326F000EAFEC35F050E006EC35F002E0D1
:10574000000E01D0010EE8B09182E8B046D09192EF
:10575000000C0B0EE66EE66AC70EE66E810EE66E74
:10576000000EE66EB4EC35F004E10401010E166F94
:10577000000C080EE66EE66ABE0EE66E810EE66E60
:10578000000EE66EB4EC35F028E10801BA0E316F78
:10579000810E326F000EA0EC34F0F3CFE9FFF4CFAE
:1057A000EAFFEF50370A18E0010A14E0030A10E09C
:1057B000010A0CE0070A08E0010A04E0030A0DE10F
:1057C0009172000C9174000C9176000C9178000C91
:1057D000917A000C917C000C917E000C140E00015B
:1057E000FA6FFB6B0001AB0EF86F0C0EEFEC34F0B0
:1057F000BAEC35F002E128EF2CF00A0EE66EE66A0C
:10580000AF0EE66E810EE66E000EE66EBAEC35F077
:1058100002E141EF2EF0120EE66EE66A9C0EE66E95
:10582000810EE66E000EE66EBAEC35F002E197EFFF
:105830002CF08C0EE66E810EE66E000EE66EAB0E60
:10584000E66E0C0E94EC34F002E10AEF2FF0000C3F
:1058500004017E51010A0BE0010A68E1640E21ECAB
:1058600035F0020801E1010C0401010E7E6F880E83
:10587000E66E810EE66E000E81EC35F006E10C015D
:105880001A0E006F040E016F03D00C01006B016B48
:10589000640E08013A6F3B6B00CC38F801CC39F844
:1058A00038EC26F0020801E1010C0C010051011155
:1058B00003E104017E6B020C74EC35F0BCEC82F069
:1058C000E552E5529BEC35F0200E1DEC35F019E267
:1058D000200EE66EE66AE66E000EE66E080EE66ED6
:1058E000D7EC81F0DEEC35F074EC35F0000EE66EAE
:1058F000080EE66E82EC82F0E552E552E552E55282
:105900000AD0200EE66EE66A74EC35F0000EE66E04
:10591000080E0DEC35F0F2EC90F07D0EE66E810E87
:10592000E66E000EBFEC34F079EF35F0020CC0ECFF
:1059300035F0F3CF04F0F4CF05F0F3CFE6FFF4CF6A
:10594000E6FF87EC34F0EFCF80F2D7EC05F0E552BC
:10595000E7CF05F0E552E7CF04F00450F324006EE2
:105960000550F420016E026A036A04010051005CD4
:1059700001510158025102580351035801E275D1F7
:10598000C0EC35F09BEC35F0026A036A040100516B
:10599000F35C0151F458025102580351035801E2DB
:1059A000010C330E0301F56FF66B0301000EF36F6C
:1059B0000C0EF46F0301060EEF6FF06BF16BF26BE0
:1059C00048EC8FF00C012C9D62EC35F001E11FD109
:1059D000060E21EC35F0000901E047D15C0E08010C
:1059E0003A6F3B6B0801200E386F040E396F38ECAC
:1059F00026F0000901E039D17A0EE66E810EE66EDE
:105A0000000E81EC35F011E10701000E066F0C0E5F
:105A1000B1EC34F001E129D100CC14FC01CC15FC2F
:105A200002CC16FC03CC17FCCFD7770EE66E810EA6
:105A3000E66E000E81EC35F008E10701080E066FF6
:105A40000C0EB1EC34F0C0E110D1730EE66E810E95
:105A5000E66E000E81EC35F011E10701040E066FD1
:105A60000C0EB1EC34F001E100D104CC18FC05CCF3
:105A700019FC06CC1AFC07CC1BFCA6D76E0EE66EF2
:105A8000810EE66E000E81EC35F008E107010C0E88
:105A9000066F0C0EB1EC34F097E1E7D0690EE66EBC
:105AA000810EE66E000E81EC35F009E10701100E63
