:020000040000FA
:0600000064EF9AF012000B
:020006001200E6
:06000800E2EF72F01200AD
:02000E000004EC
:04001000A300000049
:02001400FFFFEC
:02001600FEFEEC
:06001800BCEF72F01200C3
:02001E001D00C3
:1000200007360100E4090000010000000636010067
:10003000E30900000100000004360100D9090000B6
:100040000200000096350100000500006E0000006F
:1000500095350100E2090000010000008C35010027
:10006000AA090000090000008A350100D709000034
:100070000200000089350100E109000001000000D4
:1000800087350100D5090000020000008435010019
:10009000D20900000300000071350100370900009B
:1000A0001300000070350100E009000001000000AD
:1000B0006C350100CB090000040000006B35010025
:1000C000DF09000001000000693501003E0F00005B
:1000D0000200000061350100B309000008000000C3
:1000E00060350100DE090000010000005F350100FD
:1000F000DD090000010000005E350100DC090000A0
:10010000010000005B350100CF0900000300000082
:100110001335010000070000480000000A35010007
:10012000A10900000900000009350100DB090000F9
:100130000100000007350100FE0800000200000079
:1001400016000000FE050000020000005B34010004
:10015000FF0700000100000003350100C70900008F
:1001600004000000F9340100970900000A000000B3
:0C01700014000000FE000000020000006F
:04017C0002014551E6
:100180000801FE5D01E11200FE0EFE5D0CE01C0E9A
:10019000E66EE66A290EE66E020EE66EFE5197ECFA
:1001A00018F022EC19F045C2FEF8FE0E0201455D82
:1001B00001E112001C0EE66EE66A455197EC18F05C
:1001C000290EE66E020EE66E22EF19F00801FE51CE
:1001D000FF5D01E11200FE0EFF5D21E0270E02012E
:1001E000C56FC66B0201010EC46F0201020EC26F21
:1001F000020EC36F08010CEC19F01B0E79EC1AF01B
:10020000EFCFC1F20CEC19F0EECFBFF2EFCFC0F29E
:100210000201270EBF5F000EC05B0DEC16F0FEC89A
:10022000FFF8270EFAEC18F029C2C2F22AC2C3F274
:100230000201C25F000EC35B31EC1AF0020EBF6F09
:10024000020EC06F0DEF16F00D01C20E1D6F0F0EE6
:100250001E6F0201005101110FE10CEC5BF01EC09A
:1002600000F21FC001F2FF0E02010017070E011776
:10027000000E0027040E01233C0EE66EE66AE66AD5
:10028000430EE66E080EE66EDCEC88F0006E050E9E
:10029000E15E00500D01156B146B1451EDEC17F07D
:1002A00001E38ED014CD45F269DF1FEC17F058EC56
:1002B00017F0F62A000EF722F8220800F5CF1CFDF1
:1002C0001FEC17F058EC17F0020EF626000EF7227E
:1002D000F8220900F5CF16FD0A00F5CF17FD1FEC37
:1002E00017F0FEEC1AF0040EF626000EF722F822A4
:1002F0000900F5CF18FD0A00F5CF19FD0D011C51BD
:1003000028E11DCD1AFD1ECD1BFD270E036A162503
:10031000026E1751032234EC1AF002501825006EB9
:1003200003501921A1EC1AF000501D2701501E2383
:100330001DCD00F01ECD01F0026A036AD880FE0ECA
:1003400000541E0E0154000E0254000E035402E22B
:10035000EFD7FFD71CCD44F2270E0D011A2502015D
:10036000296F000E0D011B2102012A6F29510D0179
:10037000162502012B6F2A510D01172102012C6F46
:10038000010E2B27000E2C232B510D0118250201E5
:100390002D6F2C510D01192102012E6F0D0E3F6F93
:1003A000409714DF1FEC17F01CC003F0FEEC1AF0AE
:1003B0000800F5CF28F2A6EC0FF00D01142B6DD735
:1003C00012000D013B6B3B51EDEC17F001E390D0B7
:1003D0003BCD45F2D3DE0D0E02013F5D01E085D03D
:1003E000F5DE02014D51285D01E07FD0180E256F2A
:1003F000020E266F4A510CE14BC212F24CC213F2AC
:100400004087040E3F6F4BC242F24CC243F26AD0A7
:10041000000E005D040E015906E3880ED8800055D9
:10042000130E015503E2006B040E016F00C212F2BD
:1004300001C213F2002B000E01234BC210F24CC27A
:1004400011F27DEC1AF0020140894A51040A25E0BC
:10045000070A11E0020A02E0030A44E14DEC19F038
:10046000020E4A5D02E0000E01D0010E2495E8B0B4
:1004700024853F6B37D048514625026E49514721AC
:10048000A2EC18F04DEC19F0276B2D0E026F036BE8
:10049000046B056B020E3F6F25D046C2E9FF47C2D1
:1004A000EAFF56EC19F046C2E9FF47C2EAFF0450E2
:1004B000EE24026E0550EE20A2EC18F00A0EE66E55
:1004C000E66A46C2E6FF47C2E6FFB7EC19F08DECDC
:1004D00018F00201050E3F6FB7EC1AF0020EAD6F77
:1004E000D6EC0BF00D013B5112000D013B2B6BD7ED
:1004F000FE0C4EC245F242DE020141A902D04199F2
:10050000010C000C4FC245F239DE070E02013F5DBF
:1005100001E0000C010C50C245F2E4EC19F00201BC
:100520003F51080A38E0010A36E0050A34E0020AC1
:100530002FE0050A1FE00D0A0FE0010A0DE0070A8F
:1005400031E0020A2FE0010A2DE0060A2BE0040A3E
:1005500022E162EC6CF026D089EC18F00201145113
:10056000151106E00E512F19F7E10F513019F4E182
:10057000080E0FD089EC18F002011451151106E095
:100580000E512F19F7E10F513019F4E10C0E01D083
:100590000D0E3F6F12000201AE6B0201140EAD6F23
:1005A000D6EC0BF0A6EF0FF051C245F2E7DD0201E9
:1005B000409751C250F28BEF02F052C245F239EC33
:1005C0001AF00A0EE66EE66AB7EC19F0530EE66E04
:1005D000020EE66E8DEC18F010C25DF211C25EF2F2
:1005E000530E006E020E98EF17F05FC245F239EC21
:1005F0001AF002010E512F1902E10F51301902E0D9
:1006000051EC17F0120060C245F2B8DD3FC245FD63
:10061000070E0D01455D06E00B0E455D03E0F36A34
:10062000F46A1200020131512F5D3251305916E344
:1006300029512B5D026E2C512A55036E0206000EC5
:10064000035A31512F5D046E30513255056E0450FE
:10065000025C006E0550035898EF17F02F51315D82
:10066000006E32513055016E0006000E015A00C076
:10067000F3FF01C0F4FF120061C245F27FDD61C2E9
:1006800060F2C1DFF3CF0FFDF4CF10FD0D01F35089
:10069000F41001E1000C010E0F1904E1105102E108
:1006A0003DEC1AF002014151010B0CE1F0EC1AF0A3
:1006B0000D010F51005C1051015804E33DEC1AF09C
:1006C00002014181010E0201C56FC66B0201C46FB8
:1006D0000201620EC26F020EC36FCEEC1AF002016D
:1006E0002F2B000E30232B512F5D2C51305902E35C
:1006F0003AEC19F00D01010E0F1905E1105103E15B
:100700003DEC1AF0010C020140BB02D055EC17F091
:10071000010C0D01AF6BB06B63C245F22FDD63C2FC
:1007200060F271DFF3CFADFDF4CFAEFD0D01F350FC
:10073000F41005E141EC1AF0F36AF46A1200ADCD51
:10074000ABFDAECDACFDC6EC19F004E266C2ABFD6C
:1007500067C2ACFD4151010B0CE1F0EC1AF00D0148
:10076000AD51005CAE51015804E341EC1AF00201B6
:10077000418102012F510D01AB25006E0201305164
:100780000D01AC21EBEC19F01EE32F512B5D0D0197
:10079000AF6F020130512C590D01B06FAFCDC5F2D2
:1007A000E8CFC6F219EC18F00D01AF510201642731
:1007B0000D01B051020165230D01AF51AB5FB05186
:1007C000AC5B3AEC19F0ABCDC5F2ACCDC6F219EC8E
:1007D00018F00D01AB5102012F270D01AC510201A0
:1007E00030230D01C6EC19F003E341EC1AF004D0FC
:1007F00040BB02D055EC17F00D01AB51AF25006E98
:10080000AC51B02198EF17F00D012E6B2F6B68C221
:1008100045F2B4DC68C260F2F6DEF3CF2CFDF4CF13
:100820002DFD0D01F350F41005E145EC1AF0F36ACB
:10083000F46A120002014151010B0CE1F0EC1AF0D4
:100840000D012C51005C2D51015804E345EC1AF0C8
:10085000020141812CCD2AFD2DCD2BFD5DEC19F03F
:1008600004E26CC22AFD6DC22BFD2F510D012A2519
:10087000006E020130510D012B21EBEC19F022E347
:100880002F512B5D0D012E6F020130512C590D019E
:100890002F6F2ECDCDF2E8CFCEF25FEC18F02ECD3B
:1008A00000F02FCD01F0026A0050020169270150CB
:1008B0006A2302506B230D012E512A5F2F512B5BAF
:1008C0003AEC19F02ACDCDF22BCDCEF25FEC18F038
:1008D0000D012A5102012F270D012B510201302356
:1008E0005DEC19F003E345EC1AF004D040BB02D0F4
:1008F00055EC17F00D012A512E25006E2B512F219A
:1009000098EF17F06FC2E6FF70C2E6FF84EC89F043
:10091000E552E552F3CF66F2F4CF67F26FC264F2AC
:1009200070C265F26EC263F2F4DE02016F51F3240D
:10093000006E7051F42098EF17F072C2E6FF73C298
:10094000E6FF74C2E6FF92EC89F0E552E552E5520B
:100950001FC06CF220C06DF272C269F273C26AF2FB
:1009600074C26BF271C268F24FDF056A0201725104
:10097000F324006E7351F420016E74510520026E51
:1009800000C01FF001C020F0216E120075C245F2B8
:10099000BEEC00F0020129512B5D0D01026F020136
:1009A0002A512C590D01036F010E025F000E035BEB
:1009B00075C260F228DEF3CF00FDF4CF01FD0D011A
:1009C000F350025D006E0351F45498EF17F076C2B5
:1009D00077F20CD825EC1BF0F350F41006E076C249
:1009E00045F2E4EC19F051EC17F0120077C245F231
:1009F000BEEC00F000EC19F006E33551335D006EFB
:100A00003451365513D035512D5D026E2E51365569
:100A1000036E34EC1AF02B51335D046E34512C55B7
:100A2000056E02500424006E0350052098EF17F065
:100A300078C277F2DBDFF3CF39FDF4CF3AFD0D0159
:100A4000F350F41001E1000C78C245F2BEEC00F066
:100A5000020179517A110FE0010EFAEC18F035C25B
:100A6000C2F236C2C3F20201C16F79C2BFF27AC2CA
:100A7000C0F20DEC16F00201352B000E3623355175
:100A80002D5D36512E5902E249EC1AF00D01010E8E
:100A9000391905E13A5103E102014185010C0201D6
:100AA00040BB02D0B7EC17F0010C0D01636B646B17
:100AB0007BC277F29BDFF3CF61FDF4CF62FD0D01C6
:100AC000F350F41003E1F36AF46A12007BC245F2BA
:100AD000BEEC00F002017E510D01615D02017F510B
:100AE0000D01625904E261CD7EF262CD7FF2020116
:100AF00035517E25006E36517F21B1EC19F029E287
:100B000035512D5D0D01636F020136512E590D01D6
:100B1000646F010E6327000E642302017C517D1176
:100B20000EE063CDC5F264CDC6F222EC18F00D01E3
:100B3000635102017C270D01645102017D230D01E7
:100B4000635102017E5F0D01645102017F5B49EC3C
:100B50001AF07C517D1106E07EC2C5F27FC2C6F25A
:100B600022EC18F002017E5135277F5136230D010A
:100B7000635102017E270D01645102017F237E51E2
:100B80000D01615D006E625102017F55016E0050E2
:100B90007E5D01507F5902E3418504D040BB02D005
:100BA000B7EC17F07EC2F3FF7FC2F4FF120080C2E1
:100BB00045F2BEEC00F002012B512D5D0D013B6FA3
:100BC00002012C512E590D013C6F80C277F20EDFCD
:100BD0000D01F3503B5D006E3C51F45498EF17F05B
:100BE00002018451851103E1F36AF46A120081C2A3
:100BF00045F2BEEC00F081C277F2F8DEF3CF02FDE1
:100C0000F4CF03FD020186518425006E87518521B2
:100C1000016E0D010050F35C0150F4580BE202012B
:100C200086510D01025D0201846F87510D01035948
:100C30000201856F0201355186250D01006F020109
:100C4000365187210D01016F005102012D5D0D010B
:100C5000015102012E5906E249EC17F00D01005F27
:100C60000150015B0D01005102012D5D0D01046F6A
:100C7000015102012E590D01056F010E0427000ECE
:100C80000523020184510D01045D020185510D010E
:100C9000055907E384C2C5F285C2C6F2A9EC18F073
:100CA00022D004CDC5F205CDC6F2A9EC18F00DECAA
:100CB00016F00D0104510201845D0201C56F0D01A2
:100CC00005510201855966EC19F041EC1BF0020157
:100CD00082510D0104250201BF6F020183510D01F4
:100CE00005210201C06F0DEC16F084C2F3FF85C22E
:100CF000F4FF120089C286F28AC287F2010E020155
:100D0000846F856B0201060E826F0D0E836F88C2A1
:100D100081F266DF0D010651120002018E518F1122
:100D200003E1F36AF46A12008BC245F2BEEC00F0F4
:100D30008BC277F25BDE02019051F35C0D013B6FD9
:100D400002019151F4580D013C6F6FEC19F001E272
:100D500005D10201925193110DE00D013B510201A9
:100D6000925D0D013C510201935904E292C23BFD98
:100D700093C23CFD355190250D013F6F0201365164
:100D800091210D01406F3F5102012D5D0D01405138
:100D900002012E5906E249EC17F00D013F5F0150A8
:100DA000405B3FCD39FD40CD3AFD0D013F51020181
:100DB0002D5D0D013D6F405102012E590D013E6F19
:100DC000010E3D27000E3E2390C23FFD91C240FD23
:100DD0008EC241FD8FC242FD8CC243FD8DC244FDD7
:100DE00002018CC2E9FF8DC2EAFF8C2B8D23EFCF6D
:100DF00046FD0D01486B0201945109E0610E0D01A1
:100E0000465D05E346517A0802E3E00E46270D01F0
:100E1000200E476FE8503D5D000E3E5902E23DCD89
:100E200047FD47513B5D000E3C5902E23BCD47FD7B
:100E30004751FAEC18F039CDC2F23ACDC3F231EC99
:100E40001AF0490EBF6F0D0EC06F0DEC16F00D01BC
:100E5000475149EC19F0392701503A23475149ECE1
:100E600019F03D5F01503E5B3D513E1106E12BC242
:100E700039FD2CC23AFD3D693E69020194513EE0C4
:100E80000D01456B4751455D5FE2F4EC17F0EFCF84
:100E900000F0610E005C0BE3F4EC17F0EF507A0801
:100EA00006E3E00E006EF4EC17F00050EF26F4ECD1
:100EB00017F0EF50465D0EE1F2EC19F02CE0B5ECC6
:100EC00018F0610E465D18E346517A0815E3E00E0E
:100ED000462712D041CD8EF242CD8FF248510CE020
:100EE0006DEC18F0610E0D01465D05E346517A0880
:100EF00002E3E00E4627486B452BC4D70D01456B36
:100F00004751455D21E2F4EC17F0EF50465D10E1EA
:100F1000F2EC19F00AE10D0141513F5D026E4051C2
:100F20004255036E45512FEF18F0B5EC18F00AD07A
:100F300041CD8EF242CD8FF2485104E06DEC18F0B5
:100F40000D01486B452BDCD70D01475149EC19F0D9
:100F50003B5F01503C5B6FEC19F003E2F368F4680F
:100F60001200475149EC19F03F27015040234FD759
:100F7000020199519A1103E1F36AF46A120095C2D1
:100F800045F2BEEC00F095C277F230DD02019B51D4
:100F9000F35C0D01026F02019C51F4580D01036FC7
:100FA00078EC19F001E205D102019D519E110DE08E
:100FB0000D01025102019D5D0D01035102019E5977
:100FC00004E29DC202FD9EC203FD35519B250D0129
:100FD000066F020136519C210D01076F0651020177
:100FE0002D5D0D01075102012E5906E249EC17F063
:100FF0000D01065F0150075B06CD00FD07CD01FD29
:101000000D01065102012D5D0D01046F0751020112
:101010002E590D01056F010E0427000E05239BC2FA
:1010200006FD9CC207FD99C208FD9AC209FD96C241
:101030000AFD97C20BFD98C20CFD020196C2F6FF95
:10104000962B97C2F7FFD6EC1AF0106B02019F5156
:1010500009E0610E0D010E5D05E30E517A0802E311
:10106000E00E0E270D01200E0F6FE850045D000EFC
:10107000055902E204CD0FFD0F51025D000E035928
:1010800002E202CD0FFD0F51FAEC18F000CDC2F2D2
:1010900001CDC3F231EC1AF0110EBF6F0D0EC06F0F
:1010A0000DEC16F00D010F5149EC19F0002701501D
:1010B00001230F5149EC19F0045F0150055B045105
:1010C000051106E12BC200FD2CC201FD0469056972
:1010D00002019F513EE00D010D6B0F510D5D5FE26E
:1010E000FBEC17F0EFCF00F0610E005C0BE3FBECC4
:1010F00017F0EF507A0806E3E00E006EFBEC17F0F5
:101100000050EF26FBEC17F0EF500E5D0EE1F9EC0E
:1011100019F02CE002EC18F0610E0E5D18E30E5190
:101120007A0815E3E00E0E2712D008CD99F209CD0A
:101130009AF210510CE0A2EC17F0610E0D010E5D59
:1011400005E30E517A0802E3E00E0E27106B0D2B1B
:10115000C4D70D010D6B0F510D5D21E2FBEC17F0B3
:10116000EF500E5D10E1F9EC19F00AE10D010851A4
:10117000065D026E07510955036E0D512FEF18F0F1
:1011800002EC18F00AD008CD99F209CD9AF210516C
:1011900004E0A2EC17F00D01106B0D2BDCD70D0154
:1011A0000F5149EC19F0025F0150035B78EC19F024
:1011B00003E2F368F46812000F5149EC19F00627B6
:1011C000015007234FD7A6C294F2A4C292F2A5C23F
:1011D00093F2A2C290F2A3C291F2010E02018E6FAD
:1011E0008F6B0201A10E8C6F020E8D6FA0C28BF26D
:1011F0008DEF06F00D01006B0051EDEC17F001E3EF
:1012000009D200CD45F2BEEC00F00D01036B016B7D
:10121000026B02014151020B03E14151040B0EE04C
:1012200090EC46F000090AE00D01100E036F020178
:101230004151040B01E0010E0D01016F020140ABB1
:1012400011D0DCEC98F002011E503B5D006E1F5087
:101250003C59016EE83402E24EEC1AF003E30D0152
:10126000100E036F020140AD09D017EC19F002E235
:101270004EEC1AF003E30D01100E036F0B0E02018A
:101280003F5D0CE117EC19F002E24EEC1AF006E3B8
:101290000D01110E036F02010C0E3F6F040E3F5D36
:1012A00053E10D01046B056B030E045D000E05593F
:1012B0004BE273EC1AF02AEC1BF046E073EC1AF0E8
:1012C00094EC18F014EC18F002014251001837E1C8
:1012D0004351011834E1E6EC00F00A0EE66EE66ACE
:1012E00073EC1AF081EC19F0B7EC19F08EEC88F081
:1012F000060EE15E73EC1AF053EC1AF0EECF10F22A
:10130000EDCF11F273EC1AF00C0E79EC1AF0EECF6F
:101310000AF2EECF0BF2EECF0CF2EFCF0DF202019C
:101320000A2B0B230C230D23CEEC17F00D01120E0C
:10133000036F0201060E3F6FCFEC16F005D00D01D2
:10134000042B000E0523B0D70D0103510AE0015113
:1013500002E0000E01D0010E0201AE6F03CDADF22E
:1013600025DA020140B92FD0070E3F5D01E04FD1D1
:10137000DAEC17F001E04BD102014051070B0608EF
:1013800016E14051080B01E0010E0D01036F00CD85
:1013900050F28BEC02F000CD50F28BEC02F00D011C
:1013A000035101E034D102010E0E3F6F30D1E6EC63
:1013B00000F00201020EAE6F0201100ECBEC1AF02B
:1013C00014EC17F024D1DAEC17F001E020D1E6ECB0
:1013D00000F002013F510C0A01E1CDD0060A01E103
:1013E000C4D0030A01E1D0D0010A01E1BAD00F0A4A
:1013F00001E1AED00C0A01E1ABD00D0A01E19DD0B4
:10140000030A01E187D0060A5AE0010A48E0030A0C
:1014100021E0010A01E0BDD05DEC6CF0000901E1C2
:10142000B8D00201010E3F6F24A50BD00501EE6F6D
:1014300018C2EBF519C2ECF51AC2EDF58FEC6CF0A1
:10144000A8D00501EA6F18C2E8F519C2E9F56FECFA
:101450006CF09FD00501060EEF6F0D0EF06FB2EC31
:101460006CF0000901E195D062EC6CF0000913E02A
:1014700006CD18F207CD19F208CD1AF209CD1BF2EC
:101480000201020E3F6FCEEC17F0276B2D0E026F9C
:10149000036B046B50D014EC17F03F6B7AD0DCEC8C
:1014A00098F01EC03BF21FC03CF20901180E166FE7
:1014B000020E176FABEC7EF00201030E29D009017A
:1014C0001C0E1A6F020E1B6F0901180E186F020E08
:1014D000196FD8EC7EF0000915E1DCEC98F0020100
:1014E0003B511E5C006E3C511F58016E0050025D66
:1014F000015003594EE2060E275D02E200EC1AF09D
:10150000020E06D00D01020E036F016B0201050EE3
:101510003F6F3FD00D01020E036F010E016F040EED
:101520000201275D36E3040E276FB00E026F710EC5
:10153000036F0B0E046F056B2CD0020E275D03E2C8
:101540000D01120E1DD040B71FD00D01020E07D0A5
:10155000050E275D0DE3080E3F6F0D01110E036FA1
:1015600018D0050E275D10E209D0050E275D0CE2AC
:101570000D01100E05D0050E275D06E20D01110EBE
:10158000036F010E016F05D00D01140E036F010EE4
:10159000026F0D01035136E001512EE0020100EC13
:1015A0001AF031510E5D0D01046F020132510F59D5
:1015B0000D01056F0201BCEC19F007E23EEC17F0DB
:1015C00000500D0104270150052304CD00F005CD86
:1015D00001F0026A036A00500201D6EC18F00D0116
:1015E0000451020114270D0105510201152356EC87
:1015F0001AF00201AE6B03D00201010EAE6F03CDF3
:10160000ADF2D4D80D01025102E0A6EC0FF00D01AD
:10161000002BF2D5046B056B030E045D000E05591B
:101620002FE273EC1AF02AEC1BF001E1120073ECCC
:101630001AF05BEC1AF0DEEC18F002C0E6FF03C013
:10164000E6FFDCEC98F0E552E7CF03F0E552E7CF98
:1016500002F002501E5C006E03501F58016E250EF2
:10166000D8800054020E015406E2CFEC16F00D01B2
:101670000407000E055B0D01042B000E0523CCD7DB
:101680001200A7C2E9FFA8C2EAFFEECF14FDEECF19
:1016900015FDEECF16FDEFCF17FDA9C2E9FFAAC2D7
:1016A000EAFFEECF18FDEECF19FDEECF1AFDEFCF1A
:1016B0001BFD0D011C6B060E1D6FABC21EFDACC2E7
:1016C0001FFDABC2B8F7ACC2B9F774EC5EF0F3CF54
:1016D0001EFDF4CF1FFD0C0E0701C06FC16B07018B
:1016E000140EBE6F0D0EBF6F8FEC5EF0F3CF20FDBA
:1016F000F4CF21FD0D01201F211FABC219FFACC289
:101700001AFFDDEC48F0F3CF22FDF4CF23FD0D01ED
:10171000F350201948E12351211945E10901586B83
:10172000596B44EC90F0140E0F01236F246B0F01E2
:10173000000E216F0D0E226F52EC4AF00201000ED6
:10174000B36F0D0EB46FC1DB0D010C51F5EC1AF047
:10175000040DF35007EC1AF000C024FD0050006E99
:10176000016AE8500201AB5DAB6F0150AC59AC6F40
:10177000140EAB5F000EAC5BA7C2B1F2A8C2B2F20E
:101780000201000EAF6F0D0EB06F64DA00090BE0BE
:10179000ABC2B7F2ACC2B8F20201000EB56F0D0ECB
:1017A000B66F45EC10F097EC46F0010CE6EC00F05B
:1017B0000201ADA102D04187AD91409B409D409F69
:1017C00041934195419190EC46F00009FCE0060EF2
:1017D0000201AD1504E00D016B6B6C6BB3D00E51C3
:1017E0002F1907E10F51301904E10D016B6B6C6B80
:1017F00091D02F510E5D30510F591FE20E512F5DC8
:101800000D016B6F02010F5130593FEC19F004E2EA
:1018100014C26BFD15C26CFD8AEC19F005E225C2FD
:101820006BFD26C26CFD41856BCDC5F26CCDC6F259
:101830003AEC18F093EC19F06DD00E512B5D0D01C0
:10184000696F02010F512C590D016A6F6951020134
:101850002F25006E0D016A5102013021016E2951C0
:10186000005C0D016B6F02012A5101583FEC19F029
:1018700004E214C26BFD15C26CFD8AEC19F005E29E
:1018800025C26BFD26C26CFD41850D0169516B5D62
:101890006A516C5904E26BCD69FD6CCD6AFD69CD6E
:1018A000C5F26ACDC6F23AEC18F00D0169516B5DD4
:1018B000696F6A516C596A6F69516A1122E069CD8A
:1018C000C5F26ACDC6F244C2C4F229C2C2F22AC22B
:1018D000C3F20201C16B02010E512B5D006E2C514F
:1018E0000F55016E026A036A070E00260A0E0122D6
:1018F000000E0222032200C0BFF201C0C0F20DECB4
:1019000016F093EC19F02B510E5D2C510F5902E398
:1019100004EC1BF0020141A715D014510D016B1905
:1019200004E1020115510D016C190CE00201255171
:101930000D016B1904E1020126510D016C1902E041
:101940000201AD810D016B516C1104E1030E020126
:10195000AD151CE00D016B510201145F0D016C51BE
:101960000201155B0D016B516C1102E00201AD87A4
:101970000201AEA107D0276B1B0E026FB70E036FDB
:10198000046B056B49EC18F0408929D0AEA319D03F
:10199000400EE96E020EEA6EEF50070BE82AE8509F
:1019A000070BF36EF46EF80EEF14F310EF6E0607EC
:1019B000000E075B085B095B010E0D016B6F6C6B22
:1019C0000ED040A90CD0AEB108D0275106E02707B1
:1019D000D890053304330333023349EC18F012C2B4
:1019E00047FD13C248FD10C249FD11C24AFD06C29F
:1019F0004BFD07C24CFD08C24DFD09C24EFD0AC297
:101A00004FFD0BC250FD0CC251FD0DC252FD0D0128
:101A10005391539353955397ADC254FD596B5A6BE1
:101A20006B51020106270D016C5102010723000EC4
:101A300008230923ADA315D0ADB905D00D014F6B17
:101A4000506B516B526B020124A306D00D014B0762
:101A50004C5B4D5B4E5B05D0062B07230823092307
:101A600024830201ADA10DD024A106D00D014B07A6
:101A70004C5B4D5B4E5B05D0062B072308230923E7
:101A8000248100EC19F00AE3C2EC18F00D010250B9
:101A9000005C556F03500158566F0DD03351355DC2
:101AA0000D01556F0201345136590D01566F010E6B
:101AB000555F000E565BC0EC46F0F3CF45FDF4CF0A
:101AC00046FD0D01400E455F000E465B800E46153B
:101AD00002E0456B466B5551455D5651465904E24F
:101AE00045CD55FD46CD56FD0201470EB36F0D0E97
:101AF000B46FEBD9140E0D016B27000E6C235389C4
:101B0000539B538D539F0201ADA323D0040E0D01AF
:101B10006B27000E6C23020E5B6F040E5C6F020ECF
:101B20005D6F180E5E6F010E006E530EE96E0D0EA6
:101B3000EA6EEF50F5EC1AF000240F0BF36EF46E22
:101B4000F346F346F346F3460F0EEF14F310EF6E31
:101B5000F45000C85FFD01C860FD02C861FD03C804
:101B600062FD18C263FD19C264FD1AC265FD1BC285
:101B700066FD0D01676B060E686F6BCD69FD6CCD60
:101B80006AFD6BCDB8F76CCDB9F774EC5EF0F3CFAE
:101B900069FDF4CF6AFD0C0E0701C06FC16B070130
:101BA0005F0EBE6F0D0EBF6F8FEC5EF0F3CF57FD73
:101BB000F4CF58FD0D01571F581F0F01DF0E116F95
:101BC000090E126F83EC48F06BCD56F96CCD57F9C6
:101BD0000901060E556F0901180E536F020E546F5E
:101BE000D1EC8FF0140E5EEC1AF0470E266F0D0E3E
:101BF000276F9EEC4AF00201ADA309D0040E5EEC03
:101C00001AF05B0E266F0D0E276F9EEC4AF00F0147
:101C1000F30E136F090E146F98EC48F06BCD19FF9B
:101C20006CCD1AFFDDEC48F0F3CF45FDF4CF46FD57
:101C30000F01030E116F0A0E126F83EC48F0020EB3
:101C40005EEC1AF0450E266F0D0E276F9EEC4AF0E3
:101C500006EF48F045EC17F0EE50ED1001E1000CF6
:101C60000D01FE0E266FC1EC19F056EC19F0C1EC17
:101C700019F00450EE24026E0550EE20036E97EC2E
:101C80001AF00250EE24006E0350EE20016E45EC77
:101C900017F00050EE18276F0150EE18286F256BD3
:101CA0002551EDEC17F048E225CD45F2BEEC00F0F1
:101CB0000D0E02013F5D3DE0040E3F5D0BE1FBECCC
:101CC0001AF00050421935E10150431932E125CD97
:101CD00026FD2FD00D012751020142192AE10D01E5
:101CE00028510201431925E1E6EC00F0FBEC1AF063
:101CF0000201125100181DE1135101181AE197EC6D
:101D00001AF0DEEC18F01051021813E1115103180B
:101D100010E1C1EC19F0EE5018190BE1EE50191951
:101D200008E1EE501A1905E1EE501B1902E101E13C
:101D3000010C0D01252BB4D7FE0E265D21E026CD2A
:101D400045F239EC1AF0FE0E0D01265D19E027CDA3
:101D500042F228CD43F2CEEC19F0B7EC19F08DEC3D
:101D600018F097EC1AF0EECF10F2EDCF11F245EC2F
:101D700017F0EECF12F2EDCF13F263EC1AF0010C74
:101D800097EC1AF00D0E79EC1AF0EF50020B01E10E
:101D9000000C08017B517C1101E0000C0D01296B46
:101DA0002A6B030E295D000E2A593BE26DEC1AF0F6
:101DB0002AEC1BF036E06DEC1AF094EC18F014EC01
:101DC00018F045EC17F0DEEC18F00250001824E192
:101DD0000350011821E16DEC1AF053EC1AF014ECE9
:101DE00018F097EC1AF0DEEC18F00250001814E12D
:101DF0000350011811E1C1EC19F045EC1BF0EE5055
:101E00000001001808E1EE50011805E1EE5002183B
:101E100002E1EE50031848E00D01292B000E2A23A1
:101E2000C0D7256B2551EDEC17F04EE225CD45F2DC
:101E3000BEEC00F0020140A744D0E6EC00F0FBEC61
:101E40001AF00050020112193CE10150131939E156
:101E5000CEEC19F06DEC1AF081EC19F022EC19F0CF
:101E600097EC1AF014EC18F06DEC1AF053EC1AF031
:101E700000C0EEFF01C0EDFF97EC1AF0040E79EC04
:101E80001AF045EC1BF00C0E79EC1AF000C0EEFFD6
:101E90000AEC1BF0FBEC1AF06DEC1AF094EC18F065
:101EA00000C0EEFF01C0EDFFDCEC98F01FC001F0B8
:101EB0006DEC1AF05BEC1AF01EC0EEFF01C0EDFFF6
:101EC000000C0D01252BAED7000C9CEC1AF035EC64
:101ED00017F0F3CFEEFF01C0EDFF9CEC1AF0020EFD
:101EE00079EC1AF035EC17F0020EF3CFEBFF030E8E
:101EF00029EC19F0040E83EC17F0040E59EC18F0DD
:101F0000080E83EC17F0080E59EC18F00E0E79EC61
:101F10001AF035EC17F00E0EF3CFEBFF0F0E29EC95
:101F200019F094EC18F035EC17F0100EF3CFEBFF2E
:101F3000110E29EC19F05BEC1AF035EC17F0120ECB
:101F4000F3CFEBFF130E01C0EBFF1200E6EC00F045
:101F500012C242F213C243F23AEC19F029C231F232
:101F60002AC232F22BC233F22CC234F249EC1AF0FC
:101F700002014051080B02E0040E01D00D0E3F6F2C
:101F80004091409340954099409B409D409F419196
:101F90004193419541974189249124932497249911
:101FA00063EC1AF0D0EC5AF0F3CF06F2F4CF07F25C
:101FB000D0EC5AF0F3CF08F2F4CF09F20201226913
:101FC0002369010E146F156B12000C0E0901586F76
:101FD000596B44EC90F03FEC4AF00D01416FF00E6C
:101FE0004115E840E8403F0B07EC1AF000C041FD06
:101FF000005046E0070E9CEC19F00D0141514107DD
:1020000000093EE068EC1AF0E8503AE04205F5E0DD
:10201000020E425D26E1030E415D32E3436B446BE9
:1020200068EC1AF0040E425D08E13FEC4AF00D0145
:10203000446F3FEC4AF00D01436F180E435D020EF2
:1020400044591EE3B40ED8804355050E445504E2AE
:10205000B40EF36E050E17D043CDF3FF44CDF4FF5D
:102060001200020E415D0CE368EC1AF0E850415D8D
:1020700007E342519CEC19F00D014251415FBDD77D
:10208000180EF36E020EF46E1200BCEC1AF00D0E78
:1020900079EC1AF0EFCF33FDBCEC1AF0080E79ECB6
:1020A0001AF0EECF34FDEECF35FDEECF36FDEFCF9B
:1020B00037FDBCEC1AF0040E79EC1AF0EECF38FDC7
:1020C000EECF39FDEECF3AFDEFCF3BFD020140915F
:1020D0004093409540B902D014EC17F03F51050AE7
:1020E0001FE0010A08E0B7C23CFDB8C23DFD0D018A
:1020F00033A14AD046D00D0133B510D033A906D054
:10210000E3EC18F0040ECBEC1AF008D033A306D0A1
:102110007CEC18F00EEC1AF0CFEF18F0A6EF0FF0F1
:102120000D0133B5120033A910D006EC19F00201ED
:10213000061908E1EE50071905E1EE50081902E111
:10214000EE50091902E066EF17F00D0133A333EFEB
:1021500015F07CEC18F0A4EC19F0EECF14F2EDCFF2
:1021600015F20EEC1AF00D0133A909D051EC17F05D
:102170000201070E3F6F14EC17F040991200CFEFE9
:1021800018F03C2B000E3D2333A303D03C2B000E54
:102190003D2300EC19F00AE3C2EC18F00D010250E7
:1021A000005C316F03500158326F0DD03351355DF3
:1021B0000D01316F0201345136590D01326F010E9C
:1021C000315F000E325B0A0EE96E020EEA6EEE50CF
:1021D000385D2B6FEE5039592C6FEE503A592D6FF8
:1021E000EE503B592E6F2BCD2FFD2CCD30FD3E6B8D
:1021F0003C513D115FE03151321169E0800E2E15E6
:1022000003E186EC18F03BE33CCD00F03DCD01F05E
:10221000026A036A2B0EE96E0D0EEA6EEE5000267E
:10222000EE500122EE500222EE5003220334000E43
:10223000031809E6D880000E0054000E0154000E69
:102240000254000E03541DE23C51315D046E3251C4
:102250003D55056E066A076A05AE02D00668076836
:1022600007502E19E8AE02D02E3508D02B51045C51
:102270002C5105582D5106582E51075802E3010ED6
:102280003E6F11EC1BF02E510318E8AE02D0033460
:1022900002D0DFEC1AF01BE22F513C25046E3051C6
:1022A0003D21056EE83413E204500008000E055489
:1022B0000EE20BD02B512C112D112E1106E0800EA9
:1022C0002E1505E186EC18F002E2010E3E6F3E513C
:1022D00004E133B5C8D351EF17F0060E331502E011
:1022E000A6EF0FF033A9120002013F510C0A01E1E1
:1022F000B6D10B0A1CE00F0A1AE0010A18E0020A24
:1023000016E0010A14E00C0A01E0B9D106EC19F05C
:10231000061908E1EE50071905E1EE50081902E12F
:10232000EE50091902E066EF17F0070E3F6F0E51ED
:102330002F5D0D01296F02010F5130590D012A6FD8
:10234000800E2A1508E002013EEC17F000500D0146
:10235000292701502A2329CD00F02ACD01F0026A55
:10236000036A2EEC1BF0EE500024256FEE50012086
:10237000266FEE500220276FEE500320286F06ECE8
:1023800019F0255D006EEE502659016EEE5027596A
:10239000026EEE502859036E0001800E031402E015
:1023A000D6EF19F00201A8EC19F001AE02D00268D4
:1023B00003682EEC1BF00050EE5C0D01256F015000
:1023C000EE58266F0250EE58276F0350EE58286FD4
:1023D0000201BCEC19F00BE233EC1BF000500D01D4
:1023E000255F0150265B0250275B0350285B250EBA
:1023F000E96E0D0EEA6EEE500D01345D256FEE5064
:102400003559266FEE503659276FEE503759286FE1
:10241000E834000E281909E6D880000E2555000E74
:102420002655000E2755000E28556CE2020133ECAC
:102430001BF00D012551005C26510158275102580F
:10244000285103585FE3020124972499419131C236
:1024500029FD32C22AFD0D012551020131270D014E
:102460002651020132230D01295102010E5D0D0199
:102470002A5102010F5909E3BCEC19F02FE20E5169
:10248000315D006E32510F551BD03EEC17F00E51EE
:1024900000240D01296F02010F5101200D012A6F47
:1024A000020131510D01295D020132510D012A59FC
:1024B00015E229510201315D006E32510D012A559C
:1024C000016E0001005002010627000101500201C7
:1024D0000723000E0823092356EC1AF002012B51A2
:1024E000315D2C51325906E33EEC17F00050315F5C
:1024F0000150325B2B510E5D2C510F5928E304EC37
:102500001BF025D002010E51311902E10F51321991
:102510001EE024A71BD024A918D0A8EC19F001AE06
:1025200002D0026803680050D6EC18F0BCEC19F039
:1025300009E233EC1BF001AE02D0026803680050E0
:10254000D6EC18F056EC1AF04185248924872F51D7
:1025500031191CE13051321919E141B704D014ECA2
:1025600017F0409913D09DEC17F010E1EE5035199B
:102570000DE1EE5036190AE1EE50371907E106E198
:1025800002012451010B02E04099419706EC19F039
:102590000201065D006EEE500759016EEE500859BB
:1025A000026EEE500959036EA4EC19F00D010050B3
:1025B000EE5C3F6F0150EE58406F0201145115114F
:1025C00006E10D013F51401102E0020141833FCD80
:1025D00014F240CD15F2080E02013F5D20E19DECA2
:1025E00017F04DE1EE5035194AE1EE50361947E14A
:1025F000EE50371944E143E102012451010B3FE061
:102600007DEC1AF0870E02013727930E3823030E54
:102610003923000E3A234089090E3F6F30D0090E4E
:102620003F5D0AE10D0133B12AD0E3EC18F0140E3E
:10263000CBEC1AF0A6EF0FF00A0E3F5D20E19DEC07
:1026400017F00CE1EE50351909E1EE50361906E1AC
:10265000EE50371903E101E006D278DC12009DEC60
:1026600017F00CE1EE50351909E1EE50361906E18C
:10267000EE50371903E101E0F6D168DC12000D01DC
:1026800033BB12000B0E02013F5D01E112000A0E86
:102690003F5D01E112000C0E3F5D01E11200B751F8
:1026A000B81101E166D10D01303504E22F51000867
:1026B000000E305501E2A2D00CEC18F0006E016A59
:1026C0002F51F35C0901586F0D0130510158090178
:1026D000596F44EC90F00D012F510201B7270D0105
:1026E00030510201B823B7510D01315D0201B851DB
:1026F0000D01325904E231CDB7F232CDB8F2020108
:10270000B7510A27B8510B23000E0C230D23335168
:10271000B725006E3451B821B1EC19F024E23351E1
:102720002D5D0D01296F020134512E590D012A6FC3
:10273000010E2927000E2A2318EC1BF033C2BFF22A
:1027400034C2C0F288EC1AF02DEC19F0006EB851CA
:102750000D012A55016E02012B510024336F2C51BB
:102760000120346F0CD0B1EC1AF033C2BFF234C286
:10277000C0F253DA0201B7513327B8513423221D76
:1027800001E1231D01E1F5D0B751225FB851235B70
:10279000165122250D01296F0201175123210D0128
:1027A0002A6F800E2A1502E0020125D0020123358E
:1027B00004E222510008000E235501E2DAD00D0197
:1027C000295102010A270D012A5102010B23000E93
:1027D0000C230D230D012951020133270D012A512C
:1027E0000201342333512D5D34512E5904E251DB63
:1027F000335F0150345B22692369BBD0303501E37C
:10280000B8D02F510008000E305501E3B2D00201BC
:10281000B7510D012F25006E0201B8510D01302175
:10282000016E0050315D0150325909E22F51315D86
:102830000201B76F0D01305132590201B86FECDB64
:102840000901586F596B44EC90F037EC1BF0026EA5
:102850003CEC1BF0036E02500201B725006E0350E2
:10286000B821B1EC19F031E233512D5D006E2E51DB
:102870003455A1EC1AF00D012F51005C296F305135
:1028800001582A6F800E2A1508E118EC1BF0E8ECBD
:1028900018F0C06F88EC1AF01DD0B1EC1AF037ECCC
:1028A0001BF0006E3CEC1BF0016E02012B512D5D04
:1028B000026E2E512C55036E34EC1AF002010250B8
:1028C000005CBF6F0350015804D0B1EC1AF0E8EC83
:1028D00018F0C06FA2D90201221D0BE1231D09E1EE
:1028E0002FCD22F230CD23F2B7C216F2B8C217F2C2
:1028F00040D022510D012F5D020123510D013059AD
:102900001EE238DB06E30D01EEEC18F0235105580A
:1029100005E2B7C216F2B8C217F20CD033EC19F0C8
:102920000D012F51005C0201166F0D01305101584D
:102930000201176F2FCD22F230CD23F21AD01ADB0D
:1029400018E233EC19F00D012F51005C30510158A1
:1029500010E3EEEC18F0026E23510558036E165189
:10296000025C006E17510358016E0050162701508B
:1029700017230D013C513D1119E0070E02013F5D87
:1029800004E033C235F234C236F240AF04D089DA03
:10299000E6EC00F00BD0408F40BD08D0408D15EC28
:1029A0001AF0120E02013D27000E3E230D0133A145
:1029B0005AD00AC200F00BC201F00CC202F00DC2E4
:1029C00003F0002A000E0122022203223CCD04F073
:1029D0003DCD05F0066A076A380EE96E0D0EEA6E07
:1029E000EE500426EE500522EE500622EE5007224D
:1029F0000050041838E10150051835E1025006185E
:102A000032E1035007182FE12EE11EEC1BF03F517D
:102A1000090A24E0010A12E00F0A06E0010A22E195
:102A20000C0E3F6F89EF18F00B0E3F6F15EC1AF08C
:102A3000240E02013D27000E3E2314D07EDA0AE167
:102A4000EE50351907E1EE50361904E1EE50371912
:102A500001E104E002010A0E3F6F04D0D6EC19F048
:102A6000A6EF0FF01EDA1200B9C245F2BEEC00F07C
:102A70000201BA51BB1103E1010EBA6FBB6B2951C0
:102A80002D5D0D01006F02012A512E590D01016FBC
:102A9000010E005F000E015B02011CEC1AF00D013B
:102AA0000050005D0150015901E2000CE6EC00F01D
:102AB000030E0201BE1502E1030EBE13BCC204FDEB
:102AC000BDC205FD1CEC1AF000500D01005F015065
:102AD000015B0201BEA313D0BEA10CD000CD00F05B
:102AE00001CD01F0D8900132003200500D010427D1
:102AF000015004D00D0100510427015105230201AA
:102B000029510D010425006F02012A510D010521F3
:102B1000016F010E0027000E012333C202FD34C2F3
:102B200003FD0201221D01E1231D13E09CDB005087
:102B30000D01022701500323025102012D5D0D01F9
:102B4000035102012E5905E2A4D90D01025F015083
:102B5000035B0D0102510201355D0D0103510201BC
:102B600036590CE20D0100510201355D0D01015194
:102B70000201365918E2BEA50ED0000CDCEC19F0AB
:102B80000AE2005102012B5D0D01015102012C5995
:102B90000AE2BEB5000C00CD35F201CD36F200CD13
:102BA00033F201CD34F20201DCEC19F025E2040E1F
:102BB0000201BE1521E02B510D01025D0201C56F1E
:102BC00002012C510D01035981DB44C2C1F200CD39
:102BD000BFF201CDC0F221D813DB0EE20D0100518E
:102BE00002012B5D006E2C510D010155016E00504C
:102BF0000201335F0150345B00CD2BF201CD2CF28A
:102C000063EC1AF029C231F22AC232F233DB070E2A
:102C100002013F5D01E145D9010C0201C4512AE0E6
:102C2000010A01E01200C15111E0010A01E01200A5
:102C3000C5C2E6FFC6C2E6FFC2C2E6FFC3C2E6FFE8
:102C4000BFC2E6FFC0C2E6FF8DEF18F0BF1D01E175
:102C5000C01D06E0BFC211FFC0C212FF83EC48F0E6
:102C6000C5C228FFC6C229FFC2C226FFC3C227FFB2
:102C70009EEF4AF0C15117E0010A01E01200C21DA7
:102C800001E1C31D06E0C2C213FFC3C214FF98ECEA
:102C900048F0C5C223FFC6C224FFBFC221FFC0C285
:102CA00022FF52EF4AF0C5C21FFFC6C220FFC2C2B8
:102CB0001DFFC3C21EFFBFC21BFFC0C21CFF6BECC7
:102CC00049F039EC4AF00009FCE012000201C95158
:102CD0000EE0010A01E01200CDC2E6FFCEC2E6FF1F
:102CE000B2DBC7C2E6FFC8C2E6FF2AEF1AF0C71D73
:102CF00001E1C81D06E0C7C211FFC8C212FF83EC84
:102D000048F0100E0D01286F296B0201CD51CE1134
:102D100037E00D0128510201CD5D0D01295102015D
:102D2000CE5904E2CDC228FDCEC229FD28CDE6FF52
:102D300029CDE6FF88DB180EE66E0D0EE66E8ADB07
:102D400028CD28FF29CD29FF0F01180E266F0D0E63
:102D5000276F9EEC4AF028CD00F029CD01F0026AE1
:102D600000500201CA270150CB230250CC230D0191
:102D700028510201CD5F0D0129510201CE5BC5D75B
:102D80001200140EEA02F3CFEAFFE902F3CFE9FFE3
:102D9000F450EA26430EE926080EEA22120004CD7A
:102DA000C5F205CDC6F20201020ED880C557000E4D
:102DB000C657140EC603F3CFC6F2C503F3CFC5F250
:102DC000F450C6270201010EC46F0D010425020153
:102DD000C26F000E0D0105210201C36F140EC30363
:102DE000F3CFC3F2C203F3CFC2F2F450C327430EB2
:102DF000C227080EC32341EC1BF0140E206E216A7B
:102E000004CD25F005CD26F050EC98F01EC0BFF2A1
:102E10001FC0C0F2430E0201BF27080EC023FDDE13
:102E200008017B6B7C6B120068DB0E0E02013727FA
:102E3000270E3823070E3923000E3A231200F20E14
:102E4000006E330E016E010E026E14CD03F0046AA3
:102E5000056A060E246E256A266A14CD1FF004C08A
:102E600020F005C021F06EEF98F0EECFB8F7EDCF6F
:102E7000B9F774EC5EF0E9DB9CEF1AF029512B5D99
:102E8000006E2C512A55016E120051DB020E79EFB3
:102E90001AF02B512D5D006E2E512C5552DB005037
:102EA000120065DB100ECBEF1AF06BDB070E4FD371
:102EB00000501C24F36E01501D20F46E02501E20A1
:102EC000F86EF4CFF7FFF3CFF6FF120006C238FD1D
:102ED00007C239FD08C23AFD09C23BFDDDDB47DB15
:102EE000040E59DB38CD06F239CD07F23ACD08F29F
:102EF0003BCD09F212000201C46B0201C269C36931
:102F000044C2C1F21200F5DAEECFBAF7EECFBBF74A
:102F1000EECFBCF7EFCFBDF779EC5EF01EC000F04E
:102F20001FC001F020C002F021C003F09CEF1AF096
:102F3000016E00C0F3FFF46E120090DBEE500D0145
:102F4000341912000ACD96F20BCD97F20CCD98F2FF
:102F500002010ACDF6FF962B0BCDF7FF000E97234B
:102F60000CCDF8FF98230800F5CF0EFD120009DB09
:102F7000240EEDD22F510201B725006E0D01305104
:102F80000201B821016E22511625026E235117212C
:102F9000036E0050025C0150035812001A511825AC
:102FA000026E1B511921036E02501025006E035052
:102FB00011210ED3D2EC98F0020137511E5C006E45
:102FC00038511F58016E39512058026E3A5121581C
:102FD000036E0001800E03141200006E016A090ED8
:102FE000005C000E015812004551EA6A490FE96E73
:102FF0000D0EEA2212000D51EA6A110FE96E0D0E54
:10300000EA22120096C2F6FF962B97C2F7FF000E37
:10301000CDDA010E106F1200AFDA0C0E6ADAEF5043
:10302000E4DA040DF3501200EECF00F0EFCF01F020
:1030300012000201010EC46F64C2C2F265C2C3F283
:10304000CEEF1AF044C2C4F235C2C2F236C2C3F2A5
:1030500018DB7CC2BFF27DC2C0F20DEF16F000019A
:103060000224006E000E03206CDA00C0F3FF01C0E2
:10307000F4FF120044C2C4F20EC2C2F20FC2C3F285
:103080000201C16B0201070EBF6F0A0EC06F0DEF88
:1030900016F0D2EC98F01E5002010225376F1F5037
:1030A0000321386F20500421396F215005213A6FD8
:1030B00012001FDA1EC0EEFFADDA9CEF1AF069C2F3
:1030C000CAF26AC2CBF26BC2CCF244C2C9F22FC2BE
:1030D000C7F230C2C8F266EF16F043CD8CF244CD91
:1030E0008DF2020143CDE9FF44CDEAFF8C2B000EA7
:1030F0008D23EFCF46FD120038CD0AF239CD0BF209
:103100003ACD0CF23BCD0DF21EEF1BF08ADADFEF69
:103110001AF02DDA110ECBEF1AF08EEC88F0006E5B
:10312000060EE15E00501200100E79EF1AF01C0D31
:103130008CDA000E0026010E012200C0E6FF01C05D
:10314000E6FF1200036E02504B25006E03504C2127
:103150003FD244C2C4F200CDC2F201CDC3F291DA33
:1031600082C2BFF283C2C0F212008CC2E9FF8DC2DC
:10317000EAFF8C2B000E8D23EFCF46FD0D01010ED3
:10318000486F12002B512D5D006E2E512C55016E93
:103190003551335D026E34513655036E1200E7D956
:1031A000120EF9D90201060E3F6F1200065F0150A0
:1031B000075B0250085B0350095B1200EECF02F080
:1031C000EFCF03F0120068DA0201AE6B02011200C9
:1031D0004EDA0201BF6F50DA020112002F510201D4
:1031E000B725046E0D0130510201B821056E225140
:1031F000045C12000201C56FC66B44C2C4F2120027
:1032000002013551335D365134591200340EE96EE6
:103210000D0EEA6EEE501200FF511C0DF3CFE9FFC8
:10322000F4CFEAFF000EE926010EEA221200DCECE0
:1032300098F002011E503D5D006E1F503E59016E18
:10324000E83412008EEC88F0026E060EE15E025049
:10325000120001C0EBFF9CEF1AF0DFDC0D012951D9
:103260000201B75D120022511625006E235117216D
:10327000016E120029C22FF22AC230F212000D0193
:103280006C6F6B510201145D0D016C5102011559F7
:103290001200006E016A0050120046C218F247C2C6
:1032A00019F248C21AF249C21BF21200020E21D9C9
:1032B000EECF04F0EFCF05F012000D012C5102010A
:1032C0006C5D0D012D5102016D5912000201C66F96
:1032D00044C2C4F22BC2C2F22CC2C3F212000201D9
:1032E0008E510D013B5D02018F510D013C591200C1
:1032F000020199510D01025D02019A510D0103591C
:103300001200E9CF00F0EACF01F0E9CFE6FFEACF03
:10331000E6FF12000D016B510201255D0D016C519C
:103320000201265912000D016B5102010E270D01F9
:103330006C5102010F2312000F01236F246B0F0148
:10334000216B226B52EF4AF017D90E0E79EF1AF06B
:1033500031510E5D006E0F513255016E026A036AE3
:103360001200016E00502D5D01502E591200180EF2
:10337000E66E020EE66E120031510E5D32510F59AB
:103380001200B1C2E9FFB2C2EAFF1200AD51020160
:10339000665D0D01AE510201675912000A0EE66E1C
:1033A000E66AB1C2E6FFB2C2E6FF12000201AE6BEE
:1033B0000201100ECBEF1AF035510D01025D020132
:1033C00036510D0103591200BEEC00F033C235F244
:1033D00034C236F21200016E02012B51005C2C51F6
:1033E0000158120002018E07000E8F5B8E518F1163
:1033F000120002019907000E9A5B99519A1112006E
:10340000272BD89002370337043705371200006E98
:10341000016A140E005E000E015A1200E5EC0FF076
:10342000F3CF25F2F4CF26F21200DCEC98F01EC0A8
:103430003DF21FC03EF21200BA51BC25006EBB51D6
:10344000BD21016E1200CAC2E6FFCBC2E6FFCCC2AC
:10345000E6FF1200B9EC88F0006E070EE15E005046
:1034600012000FD902011200010E0226000E0322E3
:103470001200BEEC00F0E6EF00F061C25FF2F5EF83
:1034800002F063C25FF2F5EF02F068C25FF2F5EF9F
:1034900002F02BC235F22CC236F2120000500008A6
:1034A000000E015412000A0E79EF1AF031C20EF22A
:1034B00032C20FF21200120E79EF1AF00F01286FCC
:1034C000296B0F01120029C20EF22AC20FF212005C
:1034D0003FEC4AF00D01426F120029CDE9FF2ACDE1
:1034E000EAFFC1EF16F004CDE9FF05CDEAFFC1EF19
:1034F00016F0E926000EEA221200D2EC98F01EC067
:1035000037F21FC038F220C039F221C03AF212005F
:10351000A4DE0201C56F0D012A510201B859020152
:10352000C66FE9DC2BC2BFF22CC2C0F21200AFC2E0
:10353000E9FFB0C2EAFF1200B3C2E9FFB4C2EAFF7A
:103540001200016E010E0026000E0122120000265C
:10355000000E01220222032200C03BF201C03CF215
:103560001200B7C2C5F2B8C2C6F27BEF17F0020173
:10357000010EAE6F02011200B5C2E9FFB6C2EAFF4A
:103580001200408BDCEC98F01EC000F01FC001F070
:10359000026A036A1200AD6FD6EF0BF044C2C1F2AB
:1035A0002FC2BFF230C2C0F20DEF16F0972398C2BF
:1035B000F8FF98230800F5CF0EFD0D011200005012
:1035C0002B5D01502C5902502D5903502E591200D9
:1035D000016E00501219426F01501319436F12000F
:1035E0004DDCD890013200321200F00BE842E84284
:1035F000E842E842120049DC14EF18F01DC004F064
:103600001EC005F058EF17F039DC00500E5F015076
:103610000F5B120001C0EEFF02C0EEFF03C0EEFF21
:10362000120031CD00F032CD01F0026A036A1200BF
:1036300029CDC5F22ACDC6F27BEF17F002010A2B85
:10364000000E0B230C230D231200F3CF00F0F4CF58
:1036500001F0120069DDEE50ED101200060EE96E69
:10366000020EEA6E12000ADC026A036A120002010C
:1036700033510D012F251200020134510D0130216B
:1036800012000201010EC16F1200EECF00F0EECF6A
:1036900001F094DD6DEF1AF034CD06F235CD07F26E
:0A36A00036CD08F237CD09F2120012
:0636AA00490E0201CF19D8
:1036B00005E1D05103E1D15101E1D25101E1E4D260
:1036C000480ECF1905E1D05103E1D15101E1D251AA
:1036D00001E1D8D2470ECF1905E1D05103E1D15114
:1036E00001E1D25101E1C8D2460ECF1905E1D05116
:1036F00003E1D15101E1D25101E1BCD2450ECF1914
:1037000005E1D05103E1D15101E1D25101E1AFD244
:10371000440ECF1905E1D05103E1D15101E1D2515D
:1037200001E19FD2430ECF1905E1D05103E1D15100
:1037300001E1D25101E193D2420ECF1905E1D051FE
:1037400003E1D15101E1D25101E186D2330ECF190B
:1037500005E1D05103E1D15101E1D25101E173D230
:10376000310ECF1905E1D05103E1D15101E1D25120
:1037700001E163D2300ECF1905E1D05103E1D151FF
:1037800001E1D25101E157D22F0ECF1905E1D051FD
:1037900003E1D15101E1D25101E14AD22E0ECF19FC
:1037A00005E1D05103E1D15101E1D25101E13ED215
:1037B0002D0ECF1905E1D05103E1D15101E1D251D4
:1037C00001E132D22C0ECF1905E1D05103E1D151E4
:1037D00001E1D25101E126D22B0ECF1905E1D051E2
:1037E00003E1D15101E1D25101E11AD22A0ECF19E0
:1037F00005E1D05103E1D15101E1D25101E10ED2F5
:10380000290ECF1905E1D05103E1D15101E1D25187
:1038100001E102D2280ECF1905E1D05103E1D151C7
:1038200001E1D25101E1F6D1270ECF1905E1D051C6
:1038300003E1D15101E1D25101E1EAD1260ECF19C4
:1038400005E1D05103E1D15101E1D25101E1DED1D5
:10385000250ECF1905E1D05103E1D15101E1D2513B
:1038600001E1D2D1240ECF1905E1D05103E1D151AC
:1038700001E1D25101E1C6D1230ECF1905E1D051AA
:1038800003E1D15101E1D25101E1BAD1220ECF19A8
:1038900005E1D05103E1D15101E1D25101E1AED1B5
:1038A000210ECF1905E1D05103E1D15101E1D251EF
:1038B00001E1A2D1200ECF1905E1D05103E1D15190
:1038C00001E1D25101E196D11F0ECF1905E1D0518E
:1038D00003E1D15101E1D25101E18AD11E0ECF198C
:1038E00005E1D05103E1D15101E1D25101E17ED195
:1038F0001D0ECF1905E1D05103E1D15101E1D251A3
:1039000001E172D11C0ECF1905E1D05103E1D15173
:1039100001E1D25101E166D11B0ECF1905E1D05171
:1039200003E1D15101E1D25101E156D11A0ECF1973
:1039300005E1D05103E1D15101E1D25101E14AD178
:10394000190ECF1905E1D05103E1D15101E1D25156
:1039500001E13ED1180ECF1905E1D05103E1D1515B
:1039600001E1D25101E131D1170ECF1905E1D0515A
:1039700003E1D15101E1D25101E122D1160ECF195B
:1039800005E1D05103E1D15101E1D25101E116D15C
:10399000150ECF1905E1D05103E1D15101E1D2510A
:1039A00001E103D1140ECF1905E1D05103E1D1514A
:1039B00001E1D25101E1F4D0130ECF1905E1D0514C
:1039C00003E1D15101E1D25101E1E5D0120ECF194D
:1039D00005E1D05103E1D15101E1D25101E1D7D04C
:1039E000110ECF1905E1D05103E1D15101E1D251BE
:1039F00001E1C8D0100ECF1905E1D05103E1D1513A
:103A000001E1D25101E1BAD00F0ECF1905E1D05139
:103A100003E1D15101E1D25101E1ABD00E0ECF193A
:103A200005E1D05103E1D15101E1D25101E19DD035
:103A30000D0ECF1905E1D05103E1D15101E1D25171
:103A400001E191D00C0ECF1905E1D05103E1D15124
:103A500001E1D25101E183D00B0ECF1905E1D05124
:103A600003E1D15101E1D25101E177D00A0ECF1922
:103A700005E1D05103E1D15101E1D2516CE0090ED1
:103A8000CF1905E1D05103E1D15101E1D25161E0FB
:103A9000080ECF1905E1D05103E1D15101E1D25116
:103AA00056E0070ECF1905E1D05103E1D15101E1F4
:103AB000D2514BE0060ECF1905E1D05103E1D151AF
:103AC00001E1D25140E0050ECF1905E1D05103E1EB
:103AD000D15101E1D25135E0040ECF1905E1D051A9
:103AE00003E1D15101E1D2512AE0030ECF1905E1E2
:103AF000D05103E1D15101E1D2511FE0020ECF19A3
:103B000005E1D05103E1D15101E1D2510FE0010EA5
:103B1000CF1901E0BBD0D05101E0B8D0D15101E0C4
:103B2000B5D0D25101E0B2D04AEF32F00201530ECB
:103B3000ED6F870EEE6F000E8CD05FEF32F058EF16
:103B40001EF004EF31F0070E0BD0060E09D0050E63
:103B500007D0040E05D0030E03D0020E01D0010ED3
:103B60000401E96F2FD039EF32F0010E0401ED6F3F
:103B700002D00401ED6BEE6B040E1BD0010E0401AC
:103B8000ED6F02D00401ED6BEE6B030E12D0010E4F
:103B90000401ED6F02D00401ED6BEE6B020E09D053
:103BA000010E0401ED6FEE6B04D00401ED6BEE6BC2
:103BB000010E0401EB6FEC6BC2EF31F033EF31F02B
:103BC0000401E96BEA6B6FEF31F00401E76B07D09A
:103BD000010E03D0020E01D0030E0401E76FE86B63
:103BE0003BEF31F022EF32F075EF32F05BEF33F064
:103BF0003AEF33F042EF33F036EF33F037EF33F094
:103C000038EF33F065EF33F010EF33F0CEEF32F0F2
:103C1000D3EF32F0DEEF32F0E8EF32F0F2EF32F0D5
:103C2000FCEF32F006EF33F02FEF33F031EF33F0EB
:103C30000401F76B05D0010E01D0020E0401F76FED
:103C4000F86B39EF33F00201480EED6F870EEE6F1F
:103C5000000EEF6FCFEF27F00401F36B05D0010EDC
:103C600001D0020E0401F36FF46B2DEF33F0040169
:103C7000F56B05D0010E01D0020E0401F56FF66B55
:103C80002EEF33F055EF33F058EF33F0040E02010E
:103C90006C6F6D6B0201430E696F870E6A6F000EC9
:103CA0006B6FF2EC29F0EE52EFCF68F204EF04F004
:103CB00002017E0E626F09EF2BF00401836B020E8E
:103CC000835D30E253EC28F0EF6A0201080E4D6F7D
:103CD000500E02014B6F4C6B02014A6B0201466BA6
:103CE000476B486B496BE1EC01F0E66EF2EC29F0B2
:103CF000EE52E552E750EF6E146915698351BAEC44
:103D000028F0B4EC29F0F3CF00FDF4CF01FD0FEC67
:103D100029F000CD11FF01CD12FF83EC48F0040122
:103D2000832BCDD7836B12000D01866B020E865D4F
:103D300036E2C4EC28F0EE52EF50FE082DE0C4EC61
:103D400028F0EE52EFCF4EF279EC02F0000914E0C9
:103D500086CDD3F225D8F2EC29F0EF6AFF0E145D80
:103D600002E042EC29F0FF0E155D02E049EC29F07B
:103D70000201040E87EC2AF00D01C4EC28F0EF508C
:103D800007E1C4EC28F0B5EC28F0D7EC28F004E00B
:103D900086CDD3F205D83ED80D01862BC7D71200A9
:103DA000040183510201D35D01E11200040183513A
:103DB000BAEC28F0B4EC29F0F3CF00FDF4CF01FD0C
:103DC0000FEC29F000CD11FF01CD12FF83EC48F07C
:103DD0000201D351BAEC28F000C013FF01C014FF58
:103DE00098EC48F0F3CF00FDF4CF01FD7F0E0F01FA
:103DF000236F246B0F01000E216F040E226F52EC13
:103E00004AF000CD13FF01CD14FF98EC48F0D3C267
:103E100083F412000D01010E736FF2EC29F0EF50E4
:103E20000B0A02E175EF23F0010A02E152EF23F0E1
:103E3000030A02E13BEF23F0010A01E1B9D30F0AC3
:103E400001E11FD3010A01E102D3030A01E17AD2A1
:103E5000010A01E16ED2070A01E147D2010A01E13C
:103E6000A4D1030A27E0010A02E082EF23F0AFECBD
:103E70002AF0F3CF6DFDF4CF6EFDF350F41002E1A4
:103E800082EF23F004011A0E106F040E116F53EC31
:103E900028F0010EEF6E1769166B7BEC28F00C69A9
:103EA0000D690E690F69CFEC29F07E6B0201050EDA
:103EB00087EC2AF078EC28F00A0EDAEC2AF001EC14
:103EC0002AF00001F31C14E1011C12E1F2EC29F0CC
:103ED0000BEC2AF004E112EC2AF00D01736BA2EC5A
:103EE00028F002E6E9EC28F002E382EF23F042D268
:103EF0007BEC28F001EC2BF00D01050ED880F3547B
:103F0000000EF45403E2050E6D6F6E6B010E55EC5E
:103F100029F01A0E7C6F040E7D6F84EC2AF0030EDC
:103F2000E66EE66A710EE66E800EE66E000E56ECE8
:103F30002AF003E10401186B12D0040EE66EE66A63
:103F40006C0EE66E800EE66E000E56EC2AF004E172
:103F50000401010E186F03D00401070ECAD101EC51
:103F60002BF00201A66BF3CFA4F2F4CFA5F202016D
:103F7000A26BA36B02013F0EA16FF2EC29F05FEC84
:103F800029F00D01F3506D5DF4506E5904E36FCDCF
:103F90006DFD70CD6EFD590ED8806D55000E6E55BD
:103FA00001E2ECD0F6EC2AF06DEC2AF01A0EF324C4
:103FB000E96E040EF420EA6E89EC29F01A0EE66E22
:103FC000040EE66E3FEC2AF06DEC2AF00B0EE66E66
:103FD000E66A610EE66E800EE66E000EE66E1B0E61
:103FE000E66E040EDBEC28F00CE162EC29F01851CF
:103FF00002E1080E01D0090E186F53EC28F0020EF2
:104000002ED207EC29F002E06CEC29F0FF0E04013F
:10401000145D31E107EC29F00EE00D016FCDE9FFF1
:1040200070CDEAFF6F2B000E70231A0EE926040EE6
:10403000EA222F0EEF6EBAEC29F01A0E0D016F2551
:10404000006E040E7021016E00C0E6FFE66E6BECA0
:1040500089F0026E050EE15E0250BAEC29F092EC96
:1040600089F0E552E552E5521F500D016F272050AF
:1040700070236CEC29F01A0E0D016F25746F040E7D
:104080007021756F010E745F000E755B1A0E741946
:1040900002E1040E751909E074CDE9FF75CDEAFF60
:1040A000EF502E0802E07407EFD7742B000E752333
:1040B0000401196B0B0EE76E1919E8AE02D0E73454
:1040C00002D0E750195D23E2BF0E006E320E016E82
:1040D000010E026E19C403F0046A056A03AE02D031
:1040E0000468056823EC2AF0F5CFB5F70900F5CF91
:1040F000B6F70800F5CFB7F774CDB3F775CDB4F7C1
:1041000035EC5EF0000903E00401192BD3D762EC13
:1041100029F0FF0E145D18E014C4F2F021EC58F001
:10412000F350020B11E014C4FDF01BEC59F0F3CF77
:10413000D4F0F4CFD5F0010E0001D427000ED52322
:1041400073EC55F00401156F01EC2BF0F350F410F3
:104150001CE00401010E166F0201710E796F0D0E45
:104160007A6FF2EC29F09FEC29F00D016D07000E3B
:104170006E5B620E6D5D000E6E5903E30401050E69
:10418000B8D0F6EC2AF0F3EC28F005EC2BF0010E99
:10419000F32402017E6F000EF4207F6F0201F2EC27
:1041A0002AF0F2EC29F0020EEF6E05EC2BF00D0177
:1041B000F31C13E16E1D11E1F2EC29F00BEC2AF077
:1041C00004E112EC2AF00D01736BA2EC28F002E678
:1041D000E9EC28F001E396D2CDD07BEC28F00D017C
:1041E000010E6D190BE16E5109E1020ED4EC29F0BC
:1041F000F2EC2AF0F2EC29F0030E31D10201A66BA9
:104200006DCDA4F26ECDA5F20201A26BA36B0201EB
:104210003A0EA16FF2EC29F05FEC29F0020E0D01CD
:104220006F27000E7023736B100ED8806F55000E31
:10423000705502E2010E54D06FCD7EF270CD7FF248
:104240000201760E7C6F0D0E7D6F84EC2AF047EC38
:104250002AF0760EE9260D0EEA22EF6A0D016F5163
:104260006D5F70516E5B726B7251006E016A030E6E
:10427000005C000E01582EE2310E006E330E016E0E
:10428000010E026E72CD03F0046A056AAAEC29F0F1
:1042900072CD1FF058EC28F0F5CFE6FF0900F5CFFE
:1042A000E6FF0800F5CFE6FF760EE66E0D0EE66E31
:1042B00055EC89F0066E050EE15E0650000907E137
:1042C00072CDD4F2E8DA0D01010E736F03D00D0147
:1042D000722BCAD7735102E005EC2BF0010E0D01D1
:1042E00055EC29F0F2EC2AF060D7800E175D03E25E
:1042F000030E186FB1D010C4E9FF11C4EAFF89ECB6
:1043000029F0F3CF10F4F4CF11F4080E0401185D76
:1043100001E1A2D053EC28F0040EEF6E165104E137
:1043200053EC28F0050EEF6E0D01736B0401166B54
:10433000E9D14BEC2BF0020801E1E4D1F2EC29F0D9
:10434000050EEF6EAFEC2AF0DEEC2AF0F35004011C
:104350000C1914E101500D1911E102500E190EE172
:1043600003500F190BE10AE1A2EC28F002E6E9EC98
:1043700028F004E2B5EC2AF00B0E71D0180515E018
:10438000090EE76E1819E8AE02D0E73402D0E75004
:10439000185D59E30B0EE76E1819E8AE02D0183518
:1043A00003D0E750D88018554EE3090EE76E181970
:1043B000E8AE02D0E73402D0E750185D13E30B0EED
:1043C000E76E1819E8AE02D0183503D0E750D88050
:1043D000185508E3F0EC26F00D01716FE85006E186
:1043E00004013AD0F4EC2BF00D01716F020E715DF7
:1043F0000CE1B2EC2AF0D9EC29F00401010E0C5FBB
:10440000000E0D5B0E6B0F6B7DD171051CE1B2ECE4
:104410002AF0D9EC29F004010E6B0F6B7BEC28F02D
:104420002DEC29F00C5DEE500D59EE500E59EE506A
:104430000F5906E253EC28F00BEC2AF001E062D1B0
:104440000401060E08D0F2EC29F0060EEF6EFF0E06
:10445000145D07E1040E186F53EC28F0070EEF6EA1
:10446000A4D0CFEC29F0FF0E155D05E104690569C4
:104470000669076902D076EC29F0F2EC29F0070E04
:10448000EF6E0201020E87EC2AF0070E006E330E6B
:10449000016E010E026E18C403F0046A056A03AED1
:1044A00002D004680568A3EC2AF00C0E0401185D24
:1044B0000DE1BDEC2AF0440E726F800E736F000E9A
:1044C000EEEC2AF0BDEC2AF072EC2AF0040118514F
:1044D00006E0180504E053EC28F00B0E04D10B0E97
:1044E000195D1BE00201350E726F800E736F000EB6
:1044F000EEEC2AF0E30E006E320E016E010E026E3B
:1045000019C403F0046A056A03AE02D004680568A2
:10451000A3EC2AF0020172EC2AF014C4F2F021ECB0
:1045200058F0F350010B08E002011C0E726F800E70
:10453000736F000EEEEC2AF002010C0E726F800E0B
:10454000736F000EEEEC2AF0040118050CE0E86829
:10455000041908E1E868051905E1E868061902E1AF
:10456000E868071907E00201030E726F800E736F8F
:10457000000E0DD00201FA0E726F7F0E736F000EE7
:10458000EBEC2AF0F60E726F7F0E736F000EEBEC01
:104590002AF072EC2AF00401165104E053EC28F0E2
:1045A000080E02D00CEC2BF0EF6E0D01736BAAD04D
:1045B0001A0E126F040E136F16515AE00201E90E23
:1045C000726F7F0E736F000EEEEC2AF01AEC29F07A
:1045D00022E0200E0D01715D03E102012B0E14D0CB
:1045E000300E715D0FE37151390803E2410E715DC8
:1045F00009E371515A0803E2610E715D03E37151E1
:104600007A0804E292EC2AF0626F02D071CD62F275
:1046100009EC2BF0DBD702013D0E626F09EC2BF0A9
:104620001AEC29F01FE0200E0D01715D03E102017B
:104630002B0EF3D7300E715D0FE37151390803E291
:10464000410E715D09E371515A0803E2610E715D1B
:1046500003E371517A0803E292EC2AF0DED771CDC0
:1046600062F2DCD7020172EC2AF004011607A4D72B
:104670000CEC2BF0EF6E0D01736B4AD8000909E0CA
:1046800042EC29F053EC28F00B0EEF6E0D01010EF9
:10469000736FE2EC2AF0D7EC28F034E10D01010E43
:1046A000736F30D00D01010E736FE2EC2AF001EC54
:1046B0002AF0100EF35C000EF45824E308C4CFF285
:1046C00009C4D0F20AC4D1F20BC4D2F255EC1BF0EB
:1046D00004010C510D110E110F1114E10D01736B3A
:1046E000F2EC29F0090EEF6E0DD0FF0E145D02E022
:1046F00042EC29F0FF0E155D02E049EC29F0B5EC23
:104700002AF0EF6A0D01735102E10AEF1FF0120067
:10471000E2EC2AF0F3CF02FDF4CF03FDF3CF04F077
:10472000F4CF05F0066A076A2DEC29F00401045D58
:10473000086EEE500559096EEE5006590A6EEE509D
:1047400007590B6E0850F35C0950F4580A5006588C
:104750000B50075807E202CD00F003CD01F0026ACA
:10476000036A0DD02DEC29F0045D006EEE50055962
:10477000016EEE500659026EEE500759036E00C0EE
:1047800000FD01C001FD0D010050040100270D01D5
:10479000015004010123000E022303230D01000E2A
:1047A000D8800055000E015530E2400E005D000E2D
:1047B000015905E200CDDDF001CDDEF004D00001AD
:1047C000400EDD6FDE6B0001050EDB6F0D0EDC6F42
:1047D00014C4DAF023EC56F0F3CF02FDF4CF03FD5E
:1047E0000D01F350F41001E1010C02CD66F203CD8E
:1047F00067F20201050E646F0D0ECCEC2AF00D017C
:104800000251005F0351015BC9D72DEC29F004016F
:10481000041940E1EE5005193DE1EE5006193AE168
:10482000EE50071937E136E153EC28F00A0EEF6E2F
:104830000C6B0D6B0E6B0F6B0001D86BD96B14C436
:10484000D7F0BFEC55F00001040ED86F0D0ED96FF4
:1048500014C4D7F0BFEC55F0000906E0C8EC29F00D
:104860007E0E0D01045DEFE1C8EC29F00001080E99
:10487000E06F040EE16F15C4DFF077EC56F076ECD4
:1048800029F0000907E1040104690569066907695F
:1048900049EC29F0000C0201D45102E1D2EF24F0DE
:1048A000D40502E159EF24F0020ED45D01E1C9D82C
:1048B0001200040117BF1200060ED4EC29F0F2EC2E
:1048C0002AF079EC2AF002EC29F0F3CF31FD030E47
:1048D0000D013127FC0E3117326B240E315D000EB5
:1048E000325903E3240E316F326B330E5B6F0D0EC2
:1048F0005C6F000ED8803155000E325526E2040E52
:1049000002017E6F7F6B5BCD7CF25CCD7DF284EC2F
:104910002AF0030E0701A16FA26B5BCD9FF75CCD60
:10492000A0F7040E07019D6F9E6B5BCD9BF75CCDDE
:104930009CF79EEC5CF0040E0D01315F000E325BC3
:10494000030E5B27000E5C23D4D7DEEC29F0EF6A60
:10495000316B326B330E5B6F0D0E5C6F280E315D69
:10496000000E32590BE2DEEC29F0EF503A0806E077
:10497000312B000E32235B2B5C23F0D7DEEC29F0C9
:104980005B2B000E5C23EF6A5BCD88F45CCD89F471
:104990000401330E866F0D0E876F2AEC2BF0040195
:1049A000176F120079EC2AF05CEC2AF010C400F0CA
:1049B00011C401F07E0ED8800056040E0156020E7E
:1049C000005E000E015A0D010050F35C0150F458D6
:1049D00002E312EF2AF00D013351341131E088DB8C
:1049E0003B0EDAEC2AF0F3CF31FDF4CF32FD0D01AE
:1049F0003351F35C3451F45805E231CD7EF232CDBF
:104A00007FF204D033CD7EF234CD7FF210C47CF23D
:104A100011C47DF284EC2AF0E6DB0D013351315DE7
:104A20003451325908E2E5EC2AF062DB200EDAEC70
:104A30002AF0BDDBF8E079EC2AF05CEC2AF0CBD769
:104A4000120079EC2AF0DEDBF3CF31FDF4CF32FD3A
:104A50000D010A0EF35C000EF45805E30401020E8A
:104A6000186FCFEF29F031CD7EF232CD7FF2020107
:104A7000330E7C6F0D0E7D6F84EC2AF0F3CF31FD89
:104A8000F4CF32FD330E0D01F324E96E0D0EF42048
:104A9000EA6EEF6A330EE66E0D0EE66ED6EC7FF030
:104AA000E552E5521EC000F41FC001F420C002F41C
:104AB00021C003F41200D5C2E6FFD6C2E6FF3FECE8
:104AC0002AF0F3CF3DFDF4CF3EFDD5C23BFDD6C26B
:104AD0003CFDD5C239FDD6C23AFD0D013D513E1116
:104AE00042E0A4EC29F0000E3A23EFCF3FFD3D0752
:104AF0003E5B3D0E3F5D03E0260E3F5D03E14FDB75
:104B0000EF6AEBD72B0E3F5D03E149DB200E25D08A
:104B1000250E3F5D24E1020E3D5D000E3E5903E28D
:104B20003D6B3E6BDAD7A4EC29F0000E3A23EFCFB1
:104B300041FDA4EC29F03A23EFCF40FD3D073E5B59
:104B40003D073E5B40CDAFF741CDB0F7FDEC5DF0EA
:104B5000E66E0D0124DBE552E750EF6EBED71FDB9A
:104B60003FCDEFFFBAD71BDBEF6A3BCDE9FF3CCD72
:104B7000EAFFEF6A3BCDF3FF3CCDF4FF1200D7C252
:104B8000E9FFD8C2EAFFEF5020E0E3EC29F0D9C2F8
:104B9000E6FFDAC2E6FF35EC89F0E552E552E55270
:104BA000E55200090DE1D9C2E6FFDAC2E6FF3FECAB
:104BB0002AF00201D751F324006ED851F42058D3C3
:104BC00028EC2AF028EC2AF0DAD7F36AF46A12000B
:104BD000DBC2E9FFDCC2EAFFEF5027E037DB1FC092
:104BE00000F020C001F021C002F0002A000E0122D6
:104BF000022200C0E6FF01C0E6FF62EC2AF0E8DB1B
:104C00006FEC88F0036E070EE15E0350000908E1C7
:104C10001DDB0201DB511F24006EDC51202028D354
:104C20002FEC2AF02FEC2AF0D3D7F36AF46A1200A3
:104C3000E2C2EBF2E3C2ECF2E0C2E9F2E1C2EAF274
:104C400002013D0EE86F46D80D016C6F0201E05184
:104C5000E1110BE0E0C2E9FFE1C2EAFFEF5005E03D
:104C6000E0C2D5F2E1C2D6F226DF0D016C5112008E
:104C700046DB260EE86F2ED80D016C6F020E6C5DC0
:104C800017E1B2EC2AF0DEEC2AF004010051F3182F
:104C90000FE1015101180CE10251021809E1035121
:104CA000031806E105E12BDBE86B14D80D016C6FEE
:104CB0000201E451E5110BE0E4C2E9FFE5C2EAFFBD
:104CC000EF5005E0E4C2D5F2E5C2D6F2F4DE0D0104
:104CD0006C5112000201E85106E0C8DBE8C2A1F203
:104CE00081DB94DB02D0B2EC2AF0F3CF6AFDF4CF83
:104CF0006BFD0D01F31C03E16B1D01E1020C0201D0
:104D0000020EEB5D000EEC5906E2E951EA1103E0F8
:104D1000C5EC2AF038D0E951EA1104E1C5EC2AF0DB
:104D20000D0143D0FEDA0D016A51005C6B51015850
:104D30002EE2EBC27EF2ECC27FF20201020E7E5F37
:104D4000000E7F5BD3EC2AF0EBC204F0ECC205F05E
:104D5000020E045E000E055A04500D016A5D020148
:104D60007E6F05500D016B5902017F6F0201F2EC5D
:104D70002AF03BDBD6DA0201E9510024E96EEA5160
:104D80000120EA6EEF6A0D01010E696F0FD025DB7D
:104D9000D3EC2AF00201E9510D016A25E96E020106
:104DA000EA510D016B21EA6EEF6A696B0201E8516D
:104DB00014E0E5EC2AF0006E016A026A036A00AEB4
:104DC00003D001680268036800500401005F0150CD
:104DD000015B0250025B0350035B0D01695112003D
:104DE000040118510A0A01E185D0010A66E0020AAD
:104DF00001E0D4D0CBD9040E53DAE40E966F7F0EC7
:104E0000976F000E986FEEDAFDD9A9DA0D01F31C49
:104E100001E1421D44E041CD7EF242CD7FF202012C
:104E20007C6B7D6BDFDA55DB9ADBEBDA0A0EF35C29
:104E3000000EF45805E20D01412B000E4223010C37
:104E40000A0EB2DA310E7C6F0D0E7D6FCBDA41DBCC
:104E50000A0EE66EE66AD90EE66E7F0EE66E000E6C
:104E6000E66E310EE66E0D0EA6D915E104010A0EAE
:104E7000186F1AEC57F00401146F060E0001EB6F67
:104E8000EC6B0001350EE96F0D0EEA6F14C4E8F00B
:104E90005EEC57F0020C04010B0E186F020C62DB83
:104EA000F3CF7EF2F4CF7FF20201040E7E5F000E9C
:104EB0007F5B020197DB99DA010C51DBF6D8F3D85E
:104EC000EE52EFCF76F2E7EC04F0640E0401005DE1
:104ED000000E0159000E0259000E03595BE3D88001
:104EE000000E0055000E0155000E0255800E0355B0
:104EF00055E250D034DB33DA61DBF3500401005D5E
:104F0000F4500159025002590350035904E200C4FD
:104F100041FD01C442FD0D01000ED8804155000E37
:104F200042552CE2100E415D000E425905E241CD82
:104F30007EF242CD7FF204D00201100E7E6F7F6BB5
:104F40000201310E7C6F0D0E7D6FDEDAF3CF43FD73
:104F5000F4CF44FDAAD80D01F350415FF450425BF9
:104F6000F3CFEBF0F4CFECF00001310EE96F0D0E52
:104F7000EA6F14C4E8F05EEC57F0CDD7040100519D
:104F80000111021103110AE10001010EED6FA4EC01
:104F900057F0040188D8070EEF6E000C010C0401D5
:104FA0000C510D110E110F1114E1EDC2D1F0EEC232
:104FB000D2F0EFC2D3F0C1EC54F00D01446FFF0EFC
:104FC000445D01E1120044CDFDF01BEC59F0F1D934
:104FD0001AD00CC4D4F00DC4D5F073EC55F00D010B
:104FE000446FFF0E445D01E112000001020EE76F05
:104FF0000EC4E3F00FC4E4F00001E56BE66B44CDB2
:10500000E2F08BEC56F0DEDAF3CF00FDF4CF01FDD9
:105010000D01000ED8800055000E015538E2400EFB
:10502000005D000E015905E200CDDDF001CDDEF09E
:1050300004D00001400EDD6FDE6B0001040EDB6F5B
:105040000D0EDC6F44CDDAF023EC56F0F3CF02FD09
:10505000F4CF03FD0D01F350F4100AE144CDD6F076
:10506000B4EC55F004010C6B0D6B0E6B0F6B120062
:1050700002CD66F203CD67F20201040E646F0D0EDD
:105080008BDA0D010251005F0351015BC1D744CDA2
:10509000FCF0EAEC58F01EC00EF41FC00FF444CD33
:1050A000D6F0B4EF55F08351C4D1ABD9F5EF29F068
:1050B00004C020F005C021F06EEC98F01CC003F095
:1050C0001DC004F01EC005F000501C24F36E0150FA
:1050D0001D20F46E02501E20F86EF4CFF7FFF3CFC0
:1050E000F6FF09001200EE52EFCF7BF255EF05F00C
:1050F000BDD902011200D2EC98F01EC008F41FC006
:1051000009F420C00AF421C00BF4BF0E04010827E3
:105110002F0E0923200E0A23000E0B231200EE523D
:10512000EFCF71F29DEF04F071D9F3CF6DFDF4CFA5
:105130006EFD1200A4D965D9010E0026000E0122D1
:1051400000501200D2EC98F0040108511E5C006E71
:1051500009511F58016E0A512058026E0B512158F7
:10516000036EE834000E03181200EE52EFCF77F210
:10517000F6EF04F07F0D22DAFE0E00261E0E01224D
:10518000000E022203221200865153D102019F6BAE
:1051900002019D6B9E6B02019B6B9C6B12003BCDD1
:1051A000E9FF3CCDEAFF3B2B000E3C23120029D93E
:1051B000F350F4101200E66E6FEC88F0006E070EEC
:1051C000E15E005000091200EE52EFCF61F23CEFB9
:1051D00003F0D880000E0054000E0154000E02545B
:1051E000000E03541200F35004011027F450112351
:1051F00010C4E9FF11C4EAFF102B000E1123260E84
:10520000EF6E1200EE52EFCF95F2B8EF07F03FD9F4
:105210001A0EE926040EEA22EF502F0812007F0E24
:105220000F01286F296B0F01000E266F040E276FE8
:105230009EEF4AF0040112C4E9FF13C4EAFF122BE7
:10524000000E1323EFCF71FDEF5012003BD992EC0B
:1052500089F0E552E552E5521200000EE96E040EA7
:10526000EA6EEE501200EE52EFCF60F203EF03F061
:10527000016E010E0026000E012200C0F3FF01C0E6
:10528000F4FF120014C4D6F0B4EC55F00401146914
:10529000120015C4D6F0B4EC55F0040115691200E3
:1052A0000201996F9A6B020112006D2502017E6F57
:1052B000000E0D016E2102017F6F02011200A6D8BF
:1052C0006DEF2AF004011B0E846F040E856F11EC44
:1052D0002BF00401176F120000011B0ECF6F040E9C
:1052E000D06F0EEC54F00401146F12000001040E94
:1052F000E06F040EE16F15C4DFF077EF56F0E6C201
:10530000EBF2E7C2ECF2E4C2E9F2E5C2EAF2020132
:105310001200EF6A02011A0ED56F040ED66F5BEF12
:1053200025F0EBC200F0ECC201F0020E005E000EB0
:10533000015A1200EE52EFCFB9F234EF15F0EE52EF
:10534000EFCF78F218EF05F039CDE9FF3ACDEAFF5B
:10535000392B1200030E246E256A266A1200F3CF41
:1053600041FDF4CF42FD120000C011FF01C012FF49
:1053700083EF48F0570EE66E800EE66E000EE66E86
:105380001200EE52EFCF6EF282EC04F00201120036
:105390000401002B000E0123022303231200006BE3
:1053A000016B026B036B120002017E6F7F6B0201C7
:1053B0001200F3CF0CF4F4CF0DF412005BCDE9FF33
:1053C0005CCDEAFF1200D7C2E6FFD8C2E6FF1200AA
:1053D000DBC2E6FFDCC2E6FF12006ACD7EF26BCDD7
:1053E0007FF21200040153EF28F0026A036AF350BF
:1053F0000401005FF450015B0250025B0350035B49
:105400001200F3CF00F0F4CF01F01200EE52EFCF14
:10541000A0F2E3EF08F0EE52EFCF80F2D7EC05F008
:10542000D7EF28F00401050E186F3DDE070EEF6E72
:105430001200E96EEA6AD890E936EA367F0EE9266C
:10544000040EEA22120086DF03C01FF058EF28F096
:10545000BADF70DE0201D7270150D8231200B8DF6F
:1054600069DE0201DB270150DC2312000201A66B7A
:105470000201A46BA56B0201A26BA36B120084EC6A
:1054800089F0E552E55212002EDE55EF28F06FCD7F
:10549000E9FF70CDEAFFE906000EEA5A120094DE39
:1054A00071CDB2F728EC5EF002011200E66E1A0E22
:1054B000E66E040EDBEF28F0A5DEF3CF33FDF4CF6C
:1054C00034FD1200DDC2E6FFDEC2E6FFDFC2E6FF0A
:1054D000120009DE44DF55EF28F0F3CF6FFDF4CF63
:1054E00070FD1200BC0E726F320E736F010EEEEF84
:1054F0002AF04CDE020ED4DEBC0E966F320E976F91
:10550000010E986FF2EF29F06DDF73EF28F0BE6F98
:105510000201BC6BBD6B010E0201BA6FBB6B62DF97
:105520009AEF29F00201250E626F73D871CDB1F7A1
:105530001AEC5EF00201626F55DF4FEF2AF0A16FA7
:1055400051DF94EF28F07FDFF5CF72F20900F5CF3D
:1055500073F20800F5CF74F245DF8FEF28F0A3DD7A
:10556000B5EF28F03FDFB5EF28F09DDDEE52EFCF2D
:1055700050F28BEC02F0F2EF29F002011A0E6F6F7D
:10558000040E706F2FDFC1EF29F027DF02017C6B63
:105590007D6B28DF44EF2AF0656F24DFEE52EFCFFA
:1055A00063F289EF03F0E9C27CF2EAC27DF21ADF0E
:1055B00044EF2AF0A16F16DF06EF2AF022DF026A1D
:1055C000036A12000FDF33EF29F00201796B7A6B67
:1055D00009DF9FEF29F002D802011200746F02DF89
:1055E0008FEF28F07C6B7D6B84EF2AF06DCD7EF21F
:1055F0006ECD7FF202011A0E7C6F040E7D6F84EF78
:105600002AF076DD200E9FEF2AF072DD0A0E9FEF62
:105610002AF0E8DEE4EF28F0020164DFE3DE090EA1
:02562000120076
:0E562200070EE66EE66A760EE66E7F0EE66E08
:10563000000E91EC34F001E1000C040EE66EE66A17
:10564000710EE66E7F0EE66E000E91EC34F001E115
:10565000000C800C6B0EE66E7F0EE66E000EE66EA2
:1056600086C4E6FF87C4E6FF98EC34F013E1610ED0
:10567000E66E7F0EE66E000EE66E88C4E6FF89C415
:10568000E6FF55EC89F0016E050EE15E0150000960
:1056900001E1800C000C140E0001FA6FFB6B00019D
:1056A000020EF86F0D0EF96F14C4F7F0C0EC58F04D
:1056B000090EE66EE66A570EE66E7F0EE66E000E87
:1056C00052EC34F04EE10201520EDD6F7F0EDE6FC0
:1056D000000E6DEC34F00AE0D9EC33F002E0000E7D
:1056E00001D0010EE8B08C88E8A08C9802014D0E24
:1056F000DD6F7F0EDE6F000E6DEC34F00AE0D9EC4A
:1057000033F002E0000E01D0010EE8B08C86E8A074
:105710008C960201480EDD6F7F0EDE6F000E6DEC81
:1057200034F00AE0D9EC33F002E0000E01D0010EB3
:10573000E8B08C84E8A08C940201430EDD6F7F0EEC
:10574000DE6F000E6DEC34F04EE0D9EC33F002E089
:10575000000E01D0010EE8B08C82E8B044D08C92EB
:10576000000C0B0EE66EE66A370EE66E7F0EE66EF6
:10577000000E52EC34F004E10401010E166F000C2F
:10578000080EE66EE66A2E0EE66E7F0EE66E000EE0
:1057900052EC34F028E102012A0EDD6F7F0EDE6F3D
:1057A000000E83EC33F0F3CFE9FFF4CFEAFFEF50C4
:1057B000370A18E0010A14E0030A10E0010A0CE0BD
:1057C000070A08E0010A04E0030A0DE18C72000CEC
:1057D0008C74000C8C76000C8C78000C8C7A000C8D
:1057E0008C7C000C8C7E000C140E0001FA6FFB6B9D
:1057F0000001AB0EF86F0D0EF96F14C4F7F0C0EC9A
:1058000058F00A0EE66EE66A1F0EE66E7F0EE66E32
:10581000000EA0EC34F002E1DEEF2DF0120EE66E89
:10582000E66A0C0EE66E7F0EE66E000EA0EC34F01B
:1058300002E12AEF2CF0FC0EE66E7E0EE66E000E04
:10584000E66EAB0EE66E0D0E7CEC33F002E1A7EFD8
:105850002EF0000C72EC34F0F3CF04F0F4CF05F02E
:10586000F3CFE6FFF4CFE6FF6FEC33F0EFCF80F23B
:10587000D7EC05F0E552E7CF05F0E552E7CF04F0AD
:105880000450F324006E0550F420016E026A036A8E
:1058900004010051005C01510158025102580351AA
:1058A000035801E27DD172EC34F059EC34F0026A15
:1058B000036A04010051F35C0151F458025102588B
:1058C0000351035801E2010C330E0301F56FF66B2F
:1058D0000301000EF36F0D0EF46F0301060EEF6F60
:1058E000F06BF16BF26B2BEC8DF00D012C9D1AEC33
:1058F00034F001E127D1060E0201E26FE36B0201F1
:105900001A0EE06F040EE16F18EC26F0000901E0BA
:1059100047D15C0E0201E66FE76B0201200EE46FD7
:10592000040EE56F38EC26F0000901E039D1F90EDC
:10593000E66E7E0EE66E000E38EC34F011E10701E3
:10594000000E946F0D0E98EC33F001E129D100CDDB
:1059500014FD01CD15FD02CD16FD03CD17FDC7D7F2
:10596000F60EE66E7E0EE66E000E38EC34F008E1C0
:105970000701080E946F0D0E98EC33F0B8E110D1CA
:10598000F20EE66E7E0EE66E000E38EC34F011E19B
:105990000701040E946F0D0E98EC33F001E100D175
:1059A00004CD18FD05CD19FD06CD1AFD07CD1BFD53
:1059B0009ED7ED0EE66E7E0EE66E000E38EC34F0ED
:1059C00008E107010C0E946F0D0E98EC33F08FE197
:1059D000E7D0E80EE66E7E0EE66E000E38EC34F090
:1059E00009E10701100E946F0D0E98EC33F001E001
:1059F0007ED7D6D0E40EE66E7E0EE66E000E38EC54
:105A000034F073E10D01200E336F040E346F386BE8
:105A10000C0E385D44E2ACEC34F025E0C8EC33F019
:105A2000EFCF00F0300E005C04E3ACEC34F039084A
:105A30001AE2C8EC33F0EFCF01F0410E015C04E351
:105A4000ACEC34F046080FE2C8EC33F0EFCF02F0D4
:105A5000610E025C04E3ACEC34F0660804E2332B24
:105A6000000E3423D8D7ACEC34F00AE10C0E385DCC
:105A700016E23851ACEC33F0300EEF6E382BF6D71F
:105A8000C8EC33F0332B000E3423EF50E66E385160
:105A9000ACEC33F0E552E750EF6E382BB9D70D017F
:105AA000386B060E385D01E322D73851E824ACECA0
