:020000040000FA
:06000000B9EF9EF01200B2
:020006001200E6
:06000800D2EF71F01200BE
:02000E000004EC
:04001000A300000049
:02001400FFFFEC
:02001600FEFEEC
:06001800ACEF71F01200D4
:02001E001E00C2
:10002000C83E01008A09000001000000C73E01002F
:100030008909000001000000C53E010080090000A0
:1000400002000000573E0100000E00006E0000009C
:10005000563E010088090000010000004D3E0100ED
:100060004B090000090000004B3E01007E09000022
:10007000020000004A3E0100870900000100000064
:10008000483E01007C09000002000000453E0100DE
:100090007109000003000000433E01007A090000DE
:1000A00002000000303E0100DC08000013000000E8
:1000B0002F3E010086090000010000002B3E0100D8
:1000C0006D090000040000002A3E010085090000BF
:1000D00001000000283E0100780900000200000035
:1000E000203E010054090000080000001F3E0100EE
:1000F00084090000010000001E3E01008309000089
:10010000010000001D3E0100820900000100000006
:100110001A3E0100FD05000003000000D23D010071
:100120009E06000048000000C93D01004209000091
:1001300009000000F93C01005F0F00000100000011
:10014000C73D010076090000020000001600000013
:100150007409000002000000618E0000FF0700002B
:1001600001000000C33D0100690900000400000017
:10017000B93D0100380900000A0000001400000029
:08018000FE0000000200000077
:08018800020145510901765DF9
:1001900001E11200FE0E765D0CE01C0EE66EE66AD2
:1001A000290EE66E020EE66E765194EC18F01FEC06
:1001B00019F045C276F9FE0E0201455D01E112001B
:1001C0001C0EE66EE66A455194EC18F0290EE66EB8
:1001D000020EE66E1FEF19F009017651775D01E11D
:1001E0001200FE0E775D21E0270E0201C56FC66B7F
:1001F0000201010EC46F0201020EC26F020EC36F34
:10020000090109EC19F01B0E76EC1AF0EFCFC1F2E0
:1002100009EC19F0EECFBFF2EFCFC0F20201270ECA
:10022000BF5F000EC05B0BEC16F076C977F9270EA6
:10023000F7EC18F029C2C2F22AC2C3F20201C25F6F
:10024000000EC35B2EEC1AF0020EBF6F020EC06FE1
:100250000BEF16F00C01EE0E1D6F050E1E6F020166
:10026000005101110FE110EC5DF01EC000F21FC043
:1002700001F2FF0E02010017070E0117000E002702
:10028000040E01233C0EE66EE66AE66AC10EE66ED7
:10029000050EE66E54EC82F0006E050EE15E005035
:1002A0000C01156B146B1451EBEC17F001E38ED0BD
:1002B00014CC45F269DF1DEC17F056EC17F0F62A66
:1002C000000EF722F8220800F5CF1CFC1DEC17F0F9
:1002D00056EC17F0020EF626000EF722F82209005F
:1002E000F5CF16FC0A00F5CF17FC1DEC17F0F8EC63
:1002F0001AF0040EF626000EF722F8220900F5CFB8
:1003000018FC0A00F5CF19FC0C011C5128E11DCC8A
:100310001AFC1ECC1BFC270E036A1625026E175111
:10032000032231EC1AF002501825006E03501921F7
:100330009EEC1AF000501D2701501E231DCC00F02A
:100340001ECC01F0026A036AD880EE0E0054450EFE
:100350000154000E0254000E035402E2EFD7FFD7FF
:100360001CCC44F2270E0C011A250201296F000E45
:100370000C011B2102012A6F29510C0116250201D3
:100380002B6F2A510C01172102012C6F010E2B2714
:10039000000E2C232B510C01182502012D6F2C511E
:1003A0000C01192102012E6F0D0E3F6F409714DFD3
:1003B0001DEC17F01CC003F0F8EC1AF00800F5CFA4
:1003C00028F2A6EC0FF00C01142B6DD712000C01D3
:1003D0003B6B3B51EBEC17F001E390D03BCC45F28B
:1003E000D3DE0D0E02013F5D01E085D0F5DE020196
:1003F0004D51285D01E07FD0180E256F020E266F4B
:100400004A510CE14BC212F24CC213F24087040E67
:100410003F6F4BC242F24CC243F26AD0000E005D05
:10042000040E015906E3880ED8800055130E0155BD
:1004300003E2006B040E016F00C212F201C213F25C
:10044000002B000E01234BC210F24CC211F27AECC9
:100450001AF0020140894A51040A25E0070A11E016
:10046000020A02E0030A44E14AEC19F0020E4A5D76
:1004700002E0000E01D0010E2495E8B024853F6B08
:1004800037D048514625026E495147219FEC18F05C
:100490004AEC19F0276B270E026F036B046B056B98
:1004A000020E3F6F25D046C2E9FF47C2EAFF53EC78
:1004B00019F046C2E9FF47C2EAFF0450EE24026E7B
:1004C0000550EE209FEC18F00A0EE66EE66A46C272
:1004D000E6FF47C2E6FFB4EC19F08AEC18F002011F
:1004E000050E3F6FB1EC1AF0020EAD6FDCEC0BF0B5
:1004F0000C013B5112000C013B2B6BD7FE0C4EC282
:1005000045F242DE020141A902D04199010C000CE2
:100510004FC245F239DE070E02013F5D01E0000CDB
:10052000010C50C245F2E1EC19F002013F51080AFA
:1005300038E0010A36E0050A34E0020A2FE0050A35
:100540001FE00D0A0FE0010A0DE0070A31E0020A80
:100550002FE0010A2DE0060A2BE0040A22E15AEC02
:100560006EF026D086EC18F002011451151106E049
:100570000E512F19F7E10F513019F4E1080E0FD089
:1005800086EC18F002011451151106E00E512F19D6
:10059000F7E10F513019F4E10C0E01D00D0E3F6F51
:1005A00012000201AE6B0201140EAD6FDCEC0BF019
:1005B000A6EF0FF051C245F2E7DD0201409751C2AC
:1005C00050F291EF02F052C245F236EC1AF00A0EE8
:1005D000E66EE66AB4EC19F0530EE66E020EE66EB5
:1005E0008AEC18F010C25DF211C25EF2530E006E7A
:1005F000020E96EF17F05FC245F236EC1AF00201D8
:100600000E512F1902E10F51301902E04FEC17F093
:10061000120060C245F2B8DD3FC245FC070E0C0176
:10062000455D06E00B0E455D03E0F36AF46A1200D7
:10063000020131512F5D3251305916E329512B5DA2
:10064000026E2C512A55036E0206000E035A3151D8
:100650002F5D046E30513255056E0450025C006E01
:100660000550035896EF17F02F51315D006E32514F
:100670003055016E0006000E015A00C0F3FF01C0A4
:10068000F4FF120061C245F27FDD61C260F2C1DF9A
:10069000F3CF0FFCF4CF10FC0C01F350F41001E188
:1006A000000C010E0F1904E1105102E13AEC1AF0AE
:1006B00002014151010B0CE1EAEC1AF00C010F515F
:1006C000005C1051015804E33AEC1AF00201418138
:1006D000010E0201C56FC66B0201C46F0201620EFA
:1006E000C26F020EC36FC8EC1AF002012F2B000E6E
:1006F00030232B512F5D2C51305902E337EC19F088
:100700000C01010E0F1905E1105103E13AEC1AF04A
:10071000010C020140BB02D053EC17F0010C0C019C
:10072000A56BA66B63C245F22FDD63C260F271DF79
:10073000F3CFA3FCF4CFA4FC0C01F350F41005E1BB
:100740003EEC1AF0F36AF46A1200A3CCA1FCA4CC2C
:10075000A2FCC3EC19F004E266C2A1FC67C2A2FCD1
:100760004151010B0CE1EAEC1AF00C01A351005CC1
:10077000A451015804E33EEC1AF002014181020148
:100780002F510C01A125006E020130510C01A22154
:10079000E8EC19F01EE32F512B5D0C01A56F02014F
:1007A00030512C590C01A66FA5CCC5F2E8CFC6F28A
:1007B00017EC18F00C01A551020164270C01A65199
:1007C000020165230C01A551A15FA651A25B37EC84
:1007D00019F0A1CCC5F2A2CCC6F217EC18F00C01AE
:1007E000A15102012F270C01A251020130230C015B
:1007F000C3EC19F003E33EEC1AF004D040BB02D086
:1008000053EC17F00C01A151A525006EA251A621B1
:1008100096EF17F00C012E6B2F6B68C245F2B4DC1B
:1008200068C260F2F6DEF3CF2CFCF4CF2DFC0C0195
:10083000F350F41005E142EC1AF0F36AF46A120086
:1008400002014151010B0CE1EAEC1AF00C012C51B0
:10085000005C2D51015804E342EC1AF00201418181
:100860002CCC2AFC2DCC2BFC5AEC19F004E26CC2E7
:100870002AFC6DC22BFC2F510C012A25006E0201AF
:1008800030510C012B21E8EC19F022E32F512B5DA4
:100890000C012E6F020130512C590C012F6F2ECC00
:1008A000CDF2E8CFCEF24EEC18F02ECC00F02FCCEB
:1008B00001F0026A00500201692701506A230250C8
:1008C0006B230C012E512A5F2F512B5B37EC19F053
:1008D0002ACCCDF22BCCCEF24EEC18F00C012A51E2
:1008E00002012F270C012B51020130235AEC19F081
:1008F00003E342EC1AF004D040BB02D053EC17F0F3
:100900000C012A512E25006E2B512F2196EF17F046
:100910006FC2E6FF70C2E6FF39EC83F0E552E552A4
:10092000F3CF66F2F4CF67F26FC264F270C265F281
:100930006EC263F2F4DE02016F51F324006E705157
:10094000F42096EF17F072C2E6FF73C2E6FF74C29E
:10095000E6FF47EC83F0E552E552E5521FC06CF22A
:1009600020C06DF272C269F273C26AF274C26BF295
:1009700071C268F24FDF056A02017251F324006E02
:100980007351F420016E74510520026E00C01FF0F7
:1009900001C020F0216E120075C245F2C4EC00F0D7
:1009A000020129512B5D0C01026F02012A512C59C1
:1009B0000C01036F010E025F000E035B75C260F253
:1009C00028DEF3CF00FCF4CF01FC0C01F350025DF4
:1009D000006E0351F45496EF17F076C277F20CD8FC
:1009E0001FEC1BF0F350F41006E076C245F2E1EC88
:1009F00019F04FEC17F0120077C245F2C4EC00F08A
:100A0000FDEC18F006E33551335D006E3451365578
:100A100013D035512D5D026E2E513655036E31ECDB
:100A20001AF02B51335D046E34512C55056E025073
:100A30000424006E0350052096EF17F078C277F279
:100A4000DBDFF3CF39FCF4CF3AFC0C01F350F410A8
:100A500001E1000C78C245F2C4EC00F002017951CA
:100A60007A110FE0010EF7EC18F035C2C2F236C26F
:100A7000C3F20201C16F79C2BFF27AC2C0F20BECBD
:100A800016F00201352B000E362335512D5D3651FF
:100A90002E5902E246EC1AF00C01010E391905E15B
:100AA0003A5103E102014185010C020140BB02D031
:100AB000B5EC17F0010C0C01636B646B7BC277F231
:100AC0009BDFF3CF61FCF4CF62FC0C01F350F41018
:100AD00003E1F36AF46A12007BC245F2C4EC00F051
:100AE00002017E510C01615D02017F510C016259CE
:100AF00004E261CC7EF262CC7FF2020135517E25A8
:100B0000006E36517F21AEEC19F029E235512D5D92
:100B10000C01636F020136512E590C01646F010EF6
:100B20006327000E642302017C517D110EE063CC2B
:100B3000C5F264CCC6F220EC18F00C01635102013E
:100B40007C270C01645102017D230C0163510201D9
:100B50007E5F0C01645102017F5B46EC1AF07C5110
:100B60007D1106E07EC2C5F27FC2C6F220EC18F00D
:100B700002017E5135277F5136230C01635102015A
:100B80007E270C01645102017F237E510C01615DBF
:100B9000006E625102017F55016E00507E5D015072
:100BA0007F5902E3418504D040BB02D0B5EC17F079
:100BB0007EC2F3FF7FC2F4FF120080C245F2C4EC94
:100BC00000F002012B512D5D0C013B6F02012C51F5
:100BD0002E590C013C6F80C277F20EDF0C01F350EE
:100BE0003B5D006E3C51F45496EF17F002018451C6
:100BF000851103E1F36AF46A120081C245F2C4EC84
:100C000000F081C277F2F8DEF3CF02FCF4CF03FCF0
:100C1000020186518425006E87518521016E0C01E9
:100C20000050F35C0150F4580BE2020186510C01B4
:100C3000025D0201846F87510C0103590201856F27
:100C40000201355186250C01006F020136518721C2
:100C50000C01016F005102012D5D0C0101510201D7
:100C60002E5906E247EC17F00C01005F0150015BC2
:100C70000C01005102012D5D0C01046F01510201B4
:100C80002E590C01056F010E0427000E05230201E9
:100C900084510C01045D020185510C01055907E3E3
:100CA00084C2C5F285C2C6F2A6EC18F022D004CCEC
:100CB000C5F205CCC6F2A6EC18F00BEC16F00C0150
:100CC00004510201845D0201C56F0C01055102014E
:100CD000855963EC19F03BEC1BF0020182510C01C9
:100CE00004250201BF6F020183510C01052102019D
:100CF000C06F0BEC16F084C2F3FF85C2F4FF120044
:100D000089C286F28AC287F2010E0201846F856B66
:100D10000201060E826F0C0E836F88C281F266DFBD
:100D20000C010651120002018E518F1103E1F36A8A
:100D3000F46A12008BC245F2C4EC00F08BC277F269
:100D40005BDE02019051F35C0C013B6F020191519B
:100D5000F4580C013C6F6CEC19F001E205D1020172
:100D6000925193110DE00C013B510201925D0C0177
:100D70003C510201935904E292C23BFC93C23CFCF9
:100D8000355190250C013F6F0201365191210C0124
:100D9000406F3F5102012D5D0C01405102012E595F
:100DA00006E247EC17F00C013F5F0150405B3FCC7F
:100DB00039FC40CC3AFC0C013F5102012D5D0C0185
:100DC0003D6F405102012E590C013E6F010E3D272F
:100DD000000E3E2390C23FFC91C240FC8EC241FCFB
:100DE0008FC242FC8CC243FC8DC244FC02018CC207
:100DF000E9FF8DC2EAFF8C2B8D23EFCF46FC0C015F
:100E0000486B0201945109E0610E0C01465D05E357
:100E100046517A0802E3E00E46270C01200E476F88
:100E2000E8503D5D000E3E5902E23DCC47FC475183
:100E30003B5D000E3C5902E23BCC47FC4751F7ECCE
:100E400018F039CCC2F23ACCC3F22EEC1AF0490EAB
:100E5000BF6F0C0EC06F0BEC16F00C01475146EC47
:100E600019F0392701503A23475146EC19F03D5FFC
:100E700001503E5B3D513E1106E12BC239FC2CC2B4
:100E80003AFC3D693E69020194513EE00C01456B1C
:100E90004751455D5FE2F2EC17F0EFCF00F0610ED5
:100EA000005C0BE3F2EC17F0EF507A0806E3E00E7B
:100EB000006EF2EC17F00050EF26F2EC17F0EF5056
:100EC000465D0EE1EFEC19F02CE0B2EC18F0610E8B
:100ED000465D18E346517A0815E3E00E462712D026
:100EE00041CC8EF242CC8FF248510CE05CEC18F011
:100EF000610E0C01465D05E346517A0802E3E00EFF
:100F00004627486B452BC4D70C01456B4751455DBF
:100F100021E2F2EC17F0EF50465D10E1EFEC19F032
:100F20000AE10C0141513F5D026E40514255036E92
:100F300045512DEF18F0B2EC18F00AD041CC8EF2EA
:100F400042CC8FF2485104E05CEC18F00C01486B85
:100F5000452BDCD70C01475146EC19F03B5F0150A3
:100F60003C5B6CEC19F003E2F368F4681200475143
:100F700046EC19F03F27015040234FD70201995109
:100F80009A1103E1F36AF46A120095C245F2C4ECC7
:100F900000F095C277F230DD02019B51F35C0C0149
:100FA000026F02019C51F4580C01036F75EC19F0AB
:100FB00001E205D102019D519E110DE00C0102518B
:100FC00002019D5D0C01035102019E5904E29DC284
:100FD00002FC9EC203FC35519B250C01066F0201E9
:100FE00036519C210C01076F065102012D5D0C0149
:100FF000075102012E5906E247EC17F00C01065F7B
:101000000150075B06CC00FC07CC01FC0C0106512B
:1010100002012D5D0C01046F075102012E590C01D4
:10102000056F010E0427000E05239BC206FC9CC21F
:1010300007FC99C208FC9AC209FC96C20AFC97C236
:101040000BFC98C20CFC020196C2F6FF962B97C2CD
:10105000F7FFD0EC1AF0106B02019F5109E0610E0E
:101060000C010E5D05E30E517A0802E3E00E0E2737
:101070000C01200E0F6FE850045D000E055902E2CE
:1010800004CC0FFC0F51025D000E035902E202CCAA
:101090000FFC0F51F7EC18F000CCC2F201CCC3F2F8
:1010A0002EEC1AF0110EBF6F0C0EC06F0BEC16F089
:1010B0000C010F5146EC19F00027015001230F518C
:1010C00046EC19F0045F0150055B0451051106E17F
:1010D0002BC200FC2CC201FC0469056902019F516E
:1010E0003EE00C010D6B0F510D5D5FE2F9EC17F066
:1010F000EFCF00F0610E005C0BE3F9EC17F0EF505E
:101100007A0806E3E00E006EF9EC17F00050EF26C7
:10111000F9EC17F0EF500E5D0EE1F6EC19F02CE053
:1011200000EC18F0610E0E5D18E30E517A0815E31D
:10113000E00E0E2712D008CC99F209CC9AF2105189
:101140000CE0A0EC17F0610E0C010E5D05E30E51F2
:101150007A0802E3E00E0E27106B0D2BC4D70C01AA
:101160000D6B0F510D5D21E2F9EC17F0EF500E5DA4
:1011700010E1F6EC19F00AE10C010851065D026E6F
:1011800007510955036E0D512DEF18F000EC18F0C2
:101190000AD008CC99F209CC9AF2105104E0A0ECE4
:1011A00017F00C01106B0D2BDCD70C010F5146EC26
:1011B00019F0025F0150035B75EC19F003E2F3686C
:1011C000F46812000F5146EC19F00627015007236E
:1011D0004FD7A6C294F2A4C292F2A5C293F2A2C2C1
:1011E00090F2A3C291F2010E02018E6F8F6B020189
:1011F000A10E8C6F020E8D6FA0C28BF293EF06F0E2
:101200000C01006B0051EBEC17F001E309D200CCAC
:1012100045F2C4EC00F00C01036B016B026B0201A0
:101220004151020B03E14151040B0EE0D3EC47F0B6
:1012300000090AE00C01100E036F02014151040B7A
:1012400001E0010E0C01016F020140AB11D02BEC4B
:101250009DF002011E503B5D006E1F503C59016E17
:10126000E83402E24BEC1AF003E30C01100E036FBA
:10127000020140AD09D014EC19F002E24BEC1AF077
:1012800003E30C01100E036F0B0E02013F5D0CE136
:1012900014EC19F002E24BEC1AF006E30C01110E0B
:1012A000036F02010C0E3F6F040E3F5D53E10C0112
:1012B000046B056B030E045D000E05594BE270ECE8
:1012C0001AF024EC1BF046E070EC1AF091EC18F0E8
:1012D00012EC18F002014251001837E14351011895
:1012E00034E1ECEC00F00A0EE66EE66A70EC1AF0FF
:1012F0007EEC19F0B4EC19F006EC82F0060EE15E1B
:1013000070EC1AF050EC1AF0EECF10F2EDCF11F2B3
:1013100070EC1AF00C0E76EC1AF0EECF0AF2EECF6B
:101320000BF2EECF0CF2EFCF0DF202010A2B0B23E2
:101330000C230D23CCEC17F00C01120E036F0201ED
:10134000060E3F6FCDEC16F005D00C01042B000EFD
:101350000523B0D70C0103510AE0015102E0000E51
:1013600001D0010E0201AE6F03CCADF225DA02010D
:1013700040B92FD0070E3F5D01E04FD1D8EC17F0F8
:1013800001E04BD102014051070B060816E1405124
:10139000080B01E0010E0C01036F00CC50F291EC40
:1013A00002F000CC50F291EC02F00C01035101E08C
:1013B00034D102010E0E3F6F30D1ECEC00F002018F
:1013C000020EAE6F0201100EC5EC1AF012EC17F00F
:1013D00024D1D8EC17F001E020D1ECEC00F00201B0
:1013E0003F510C0A01E1CDD0060A01E1C4D0030A45
:1013F00001E1D0D0010A01E1BAD00F0A01E1AED07B
:101400000C0A01E1ABD00D0A01E19DD0030A01E114
:1014100087D0060A5AE0010A48E0030A21E0010ADF
:1014200001E0BDD055EC6EF0000901E1B8D0020139
:10143000010E3F6F24A50BD00701E36F18C2E0F740
:1014400019C2E1F71AC2E2F787EC6EF0A8D00701E3
:10145000DF6F18C2DDF719C2DEF767EC6EF09FD0C0
:101460000701060EE46F0C0EE56FAAEC6EF00009A2
:1014700001E195D05AEC6EF0000913E006CC18F2A9
:1014800007CC19F208CC1AF209CC1BF20201020EA9
:101490003F6FCCEC17F0276B270E026F036B046BCA
:1014A00050D012EC17F03F6B7AD02BEC9DF01EC0A1
:1014B0003BF21FC03CF20801180ED46F020ED56F2C
:1014C00008EC81F00201030E29D008011C0ED86F30
:1014D000020ED96F0801180ED66F020ED76F35ECC9
:1014E00081F0000915E12BEC9DF002013B511E5CDF
:1014F000006E3C511F58016E0050025D01500359AF
:101500004EE2060E275D02E2FDEC19F0020E06D057
:101510000C01020E036F016B0201050E3F6F3FD0FD
:101520000C01020E036F010E016F040E0201275D14
:1015300036E3040E276F200E026FEF0E036F090EC5
:10154000046F056B2CD0020E275D03E20C01120E16
:101550001DD040B71FD00C01020E07D0050E275D2D
:101560000DE3080E3F6F0C01110E036F18D0050E2E
:10157000275D10E209D0050E275D0CE20C01100E6C
:1015800005D0050E275D06E20C01110E036F010E5A
:10159000016F05D00C01140E036F010E026F0C01D8
:1015A000035136E001512EE00201FDEC19F03151FA
:1015B0000E5D0C01046F020132510F590C01056FD1
:1015C0000201B9EC19F007E23CEC17F000500C01F5
:1015D00004270150052304CC00F005CC01F0026A79
:1015E000036A00500201D3EC18F00C01045102010F
:1015F00014270C0105510201152353EC1AF00201C6
:10160000AE6B03D00201010EAE6F03CCADF2D4D8A5
:101610000C01025102E0A6EC0FF00C01002BF2D5F8
:10162000046B056B030E045D000E05592FE270EC90
:101630001AF024EC1BF001E1120070EC1AF058ECE7
:101640001AF0DBEC18F002C0E6FF03C0E6FF2BEC5B
:101650009DF0E552E7CF03F0E552E7CF02F00250EC
:101660001E5C006E03501F58016EDC0ED8800054C3
:10167000010E015406E2CDEC16F00C010407000E39
:10168000055B0C01042B000E0523CCD71200A7C26A
:10169000E9FFA8C2EAFFEECF14FCEECF15FCEECFB7
:1016A00016FCEFCF17FCA9C2E9FFAAC2EAFFEECFF2
:1016B00018FCEECF19FCEECF1AFCEFCF1BFC0C018F
:1016C0001C6B060E1D6FABC21EFCACC21FFCABC276
:1016D00070F7ACC271F778EC60F0F3CF1EFCF4CF7A
:1016E0001FFC0C0E0701786F796B0701140E766FE3
:1016F0000C0E776F93EC60F0F3CF20FCF4CF21FC5D
:101700000C01201F211FABC219FFACC21AFF29EC2C
:101710004AF0F3CF22FCF4CF23FC0C01F350201944
:1017200048E12351211945E10E017C6B7D6B14ECDE
:1017300094F0140E0F01236F246B0F01000E216F24
:101740000C0E226FC9EC4AF00201000EB36F0C0EB2
:10175000B46FBBDB0C010C51EFEC1AF0040DF3502D
:1017600004EC1AF000C024FC0050006E016AE8503E
:101770000201AB5DAB6F0150AC59AC6F140EAB5FA7
:10178000000EAC5BA7C2B1F2A8C2B2F20201000E19
:10179000AF6F0C0EB06F5EDA00090BE0ABC2B7F2B0
:1017A000ACC2B8F20201000EB56F0C0EB66F45EC7C
:1017B00010F0DAEC47F0010CECEC00F00201ADA106
:1017C00002D04187AD91409B409D409F4193419500
:1017D0004191D3EC47F00009FCE0060E0201AD1583
:1017E00004E00C016B6B6C6BB0D00E512F1907E14C
:1017F0000F51301904E10C016B6B6C6B8ED02F51C3
:101800000E5D30510F591FE20E512F5D0C016B6FB1
:1018100002010F5130593CEC19F004E214C26BFC88
:1018200015C26CFC87EC19F005E225C26BFC26C2E0
:101830006CFC41856BCCC5F26CCCC6F26BEC18F03D
:1018400090EC19F06AD00E512B5D0C01696F02010A
:101850000F512C590C016A6F695102012F25006E3E
:101860000C016A5102013021016E2951005C0C010A
:101870006B6F02012A5101583CEC19F004E214C2CA
:101880006BFC15C26CFC87EC19F005E225C26BFC01
:1018900026C26CFC41850C0169516B5D6A516C5923
:1018A00004E26BCC69FC6CCC6AFC69CCC5F26ACCF6
:1018B000C6F26BEC18F00C0169516B5D696F6A51EF
:1018C0006C596A6F69516A111FE069CCC5F26ACC24
:1018D000C6F244C2C4F229C2C2F22AC2C3F2020151
:1018E000C16B02010E512B5D006E2C510F55016E24
:1018F000026A036A360E00264FEC1BF000C0BFF2EE
:1019000001C0C0F20BEC16F090EC19F02B510E5DFB
:101910002C510F5902E3FEEC1AF0020141A715D039
:1019200014510C016B1904E1020115510C016C19E1
:101930000CE0020125510C016B1904E10201265152
:101940000C016C1902E00201AD810C016B516C11AC
:1019500004E1030E0201AD151CE00C016B51020104
:10196000145F0C016C510201155B0C016B516C1181
:1019700002E00201AD870201AEA107D0276BF20E93
:10198000026F9E0E036F046B056B38EC18F04089F4
:1019900029D0AEA319D0400EE96E020EEA6EEF50C8
:1019A000070BE82AE850070BF36EF46EF80EEF14FD
:1019B000F310EF6E0607000E075B085B095B010E74
:1019C0000C016B6F6C6B0ED040A90CD0AEB108D07F
:1019D000275106E02707D890053304330333023339
:1019E00038EC18F012C247FC13C248FC10C249FC84
:1019F00011C24AFC06C24BFC07C24CFC08C24DFC9B
:101A000009C24EFC0AC24FFC0BC250FC0CC251FC76
:101A10000DC252FC0C015391539353955397ADC291
:101A200054FC596B5A6B6B51020106270C016C5127
:101A300002010723000E08230923ADA315D0ADB979
:101A400005D00C014F6B506B516B526B020124A3FC
:101A500006D00C014B074C5B4D5B4E5B05D0062B53
:101A600007230823092324830201ADA10DD024A15B
:101A700006D00C014B074C5B4D5B4E5B05D0062B33
:101A80000723082309232481FDEC18F00AE3BFECA7
:101A900018F00C010250005C556F03500158566F4E
:101AA0000DD03351355D0C01556F0201345136595B
:101AB0000C01566F010E555F000E565B09EC48F0A5
:101AC000F3CF45FCF4CF46FC0C01400E455F000E01
:101AD000465B800E461502E0456B466B5551455DF1
:101AE0005651465904E245CC55FC46CC56FC020101
:101AF000470EB36F0C0EB46FE8D9140E0C016B27B0
:101B0000000E6C235389539B538D539F0201ADA349
:101B100023D0040E0C016B27000E6C23020E5B6FAA
:101B2000040E5C6F020E5D6F180E5E6F010E006E8C
:101B3000530EE96E0C0EEA6EEF50EFEC1AF0002433
:101B40000F0BF36EF46EF346F346F346F3460F0EB7
:101B5000EF14F310EF6EF4508AC75FFC8BC760FC84
:101B60008CC761FC8DC762FC18C263FC19C264FC9F
:101B70001AC265FC1BC266FC0C01676B060E686F1F
:101B80006BCC69FC6CCC6AFC6BCC70F76CCC71F7DD
:101B900078EC60F0F3CF69FCF4CF6AFC0C0E07011F
:101BA000786F796B07015F0E766F0C0E776F93EC91
:101BB00060F0F3CF57FCF4CF58FC0C01571F581FAF
:101BC0000E0E0F01116F126BD0EC49F06BCC7AFE48
:101BD0006CCC7BFE0E01060E796F0E01180E776F2E
:101BE000020E786FA1EC93F0140E5BEC1AF0470E26
:101BF000266F0C0E276F01EC4BF00201ADA309D04C
:101C0000040E5BEC1AF05B0E266F0C0E276F01ECD6
:101C10004BF0220E0F01136F146BE3EC49F06BCC09
:101C200019FF6CCC1AFF29EC4AF0F3CF45FCF4CF36
:101C300046FC320E0F01116F126BD0EC49F0020E10
:101C40005BEC1AF0450E266F0C0E276F01EC4BF083
:101C500086EF49F043EC17F0EE50ED1001E1000C77
:101C60000C01FE0E266FBEEC19F053EC19F0BEEC21
:101C700019F00450EE24026E0550EE20036E94EC31
:101C80001AF00250EE24006E0350EE20016E43EC79
:101C900017F00050EE18276F0150EE18286F256BD3
:101CA0002551EBEC17F048E225CC45F2C4EC00F0EE
:101CB0000D0E02013F5D3DE0040E3F5D0BE1F5ECD2
:101CC0001AF00050421935E10150431932E125CC98
:101CD00026FC2FD00C012751020142192AE10C01E8
:101CE00028510201431925E1ECEC00F0F5EC1AF063
:101CF0000201125100181DE1135101181AE194EC70
:101D00001AF0DBEC18F01051021813E1115103180E
:101D100010E1BEEC19F0EE5018190BE1EE50191954
:101D200008E1EE501A1905E1EE501B1902E101E13C
:101D3000010C0C01252BB4D7FE0E265D21E026CC2C
:101D400045F236EC1AF0FE0E0C01265D19E027CCA8
:101D500042F228CC43F2CBEC19F0B4EC19F08AEC47
:101D600018F094EC1AF0EECF10F2EDCF11F243EC34
:101D700017F0EECF12F2EDCF13F260EC1AF0010C77
:101D800094EC1AF00D0E76EC1AF0EF50020B01E114
:101D9000000C0501F951FA1101E0000C0C01296B4E
:101DA0002A6B030E295D000E2A593BE26AEC1AF0F9
:101DB00024EC1BF036E06AEC1AF091EC18F012EC0F
:101DC00018F043EC17F0DBEC18F00250001824E197
:101DD0000350011821E16AEC1AF050EC1AF012ECF1
:101DE00018F094EC1AF0DBEC18F00250001814E133
:101DF0000350011811E1BEEC19F03FEC1BF0EE505E
:101E00000001001808E1EE50011805E1EE5002183B
:101E100002E1EE50031848E00C01292B000E2A23A2
:101E2000C0D7256B2551EBEC17F04EE225CC45F2DF
:101E3000C4EC00F0020140A744D0ECEC00F0F5EC5B
:101E40001AF00050020112193CE10150131939E156
:101E5000CBEC19F06AEC1AF07EEC19F01FEC19F0DB
:101E600094EC1AF012EC18F06AEC1AF050EC1AF03C
:101E700000C0EEFF01C0EDFF94EC1AF0040E76EC0A
:101E80001AF03FEC1BF00C0E76EC1AF000C0EEFFDF
:101E900004EC1BF0F5EC1AF06AEC1AF091EC18F077
:101EA00000C0EEFF01C0EDFF2BEC9DF01FC001F064
:101EB0006AEC1AF058EC1AF01EC0EEFF01C0EDFFFC
:101EC000000C0C01252BAED7000C99EC1AF033EC6A
:101ED00017F0F3CFEEFF01C0EDFF99EC1AF0020E00
:101EE00076EC1AF033EC17F0020EF3CFEBFF030E93
:101EF00026EC19F0040E81EC17F0040E48EC18F0F3
:101F0000080E81EC17F0080E48EC18F00E0E76EC77
:101F10001AF033EC17F00E0EF3CFEBFF0F0E26EC9A
:101F200019F091EC18F033EC17F0100EF3CFEBFF33
:101F3000110E26EC19F058EC1AF033EC17F0120ED3
:101F4000F3CFEBFF130E01C0EBFF1200ECEC00F03F
:101F500012C242F213C243F237EC19F029C231F235
:101F60002AC232F22BC233F22CC234F246EC1AF0FF
:101F700002014051080B02E0040E01D00D0E3F6F2C
:101F80004091409340954099409B409D409F419196
:101F90004193419541974189249124932497249911
:101FA00060EC1AF0D4EC5CF0F3CF06F2F4CF07F259
:101FB000D4EC5CF0F3CF08F2F4CF09F2020122690D
:101FC0002369010E146F156B12000C0E0E017C6F4D
:101FD0007D6B14EC94F0B9EC4AF00C01416FF00EFB
:101FE0004115E840E8403F0B04EC1AF000C041FC0A
:101FF000005046E0070E99EC19F00C0141514107E1
:1020000000093EE065EC1AF0E8503AE04205F5E0E0
:10201000020E425D26E1030E415D32E3436B446BE9
:1020200065EC1AF0040E425D08E1B9EC4AF00C01CF
:10203000446FB9EC4AF00C01436F180E435D020E79
:1020400044591EE3B40ED8804355050E445504E2AE
:10205000B40EF36E050E17D043CCF3FF44CCF4FF5F
:102060001200020E415D0CE365EC1AF0E850415D90
:1020700007E3425199EC19F00C014251415FBDD781
:10208000180EF36E020EF46E1200B6EC1AF00D0E7E
:1020900076EC1AF0EFCF33FCB6EC1AF0080E76ECC3
:1020A0001AF0EECF34FCEECF35FCEECF36FCEFCF9E
:1020B00037FCB6EC1AF0040E76EC1AF0EECF38FCD2
:1020C000EECF39FCEECF3AFCEFCF3BFC0201409162
:1020D0004093409540B902D012EC17F03F51050AE9
:1020E0001FE0010A08E0B7C23CFCB8C23DFC0C018D
:1020F00033A14AD046D00C0133B510D033A906D055
:10210000E0EC18F0040EC5EC1AF008D033A306D0AA
:1021100079EC18F00BEC1AF0CCEF18F0A6EF0FF0FA
:102120000C0133B5120033A910D003EC19F00201F1
:10213000061908E1EE50071905E1EE50081902E111
:10214000EE50091902E064EF17F00C0133A331EFF0
:1021500015F079EC18F0A1EC19F0EECF14F2EDCFF8
:1021600015F20BEC1AF00C0133A909D04FEC17F063
:102170000201070E3F6F12EC17F040991200CCEFEE
:1021800018F03C2B000E3D2333A303D03C2B000E54
:102190003D23FDEC18F00AE3BFEC18F00C010250EF
:1021A000005C316F03500158326F0DD03351355DF3
:1021B0000C01316F0201345136590C01326F010E9E
:1021C000315F000E325B0A0EE96E020EEA6EEE50CF
:1021D000385D2B6FEE5039592C6FEE503A592D6FF8
:1021E000EE503B592E6F2BCC2FFC2CCC30FC3E6B91
:1021F0003C513D115FE03151321169E0800E2E15E6
:1022000003E183EC18F03BE33CCC00F03DCC01F063
:10221000026A036A2B0EE96E0C0EEA6EEE5000267F
:10222000EE500122EE500222EE5003220334000E43
:10223000031809E6D880000E0054000E0154000E69
:102240000254000E03541DE23C51315D046E3251C4
:102250003D55056E066A076A05AE02D00668076836
:1022600007502E19E8AE02D02E3508D02B51045C51
:102270002C5105582D5106582E51075802E3010ED6
:102280003E6F0BEC1BF02E510318E8AE02D0033466
:1022900002D0D9EC1AF01BE22F513C25046E3051CC
:1022A0003D21056EE83413E204500008000E055489
:1022B0000EE20BD02B512C112D112E1106E0800EA9
:1022C0002E1505E183EC18F002E2010E3E6F3E513F
:1022D00004E133B5C6D34FEF17F0060E331502E015
:1022E000A6EF0FF033A9120002013F510C0A01E1E1
:1022F000B6D10B0A1CE00F0A1AE0010A18E0020A24
:1023000016E0010A14E00C0A01E0B9D103EC19F05F
:10231000061908E1EE50071905E1EE50081902E12F
:10232000EE50091902E064EF17F0070E3F6F0E51EF
:102330002F5D0C01296F02010F5130590C012A6FDA
:10234000800E2A1508E002013CEC17F000500C0149
:10235000292701502A2329CC00F02ACC01F0026A57
:10236000036A28EC1BF0EE500024256FEE5001208C
:10237000266FEE500220276FEE500320286F03ECEB
:1023800019F0255D006EEE502659016EEE5027596A
:10239000026EEE502859036E0001800E031402E015
:1023A000D3EF19F00201A5EC19F001AE02D00268DA
:1023B000036828EC1BF00050EE5C0C01256F015007
:1023C000EE58266F0250EE58276F0350EE58286FD4
:1023D0000201B9EC19F00BE22DEC1BF000500C01DE
:1023E000255F0150265B0250275B0350285B250EBA
:1023F000E96E0C0EEA6EEE500C01345D256FEE5066
:102400003559266FEE503659276FEE503759286FE1
:10241000E834000E281909E6D880000E2555000E74
:102420002655000E2755000E28556CE202012DECB2
:102430001BF00C012551005C265101582751025810
:10244000285103585FE3020124972499419131C236
:1024500029FC32C22AFC0C012551020131270C0152
:102460002651020132230C01295102010E5D0C019B
:102470002A5102010F5909E3B9EC19F02FE20E516C
:10248000315D006E32510F551BD03CEC17F00E51F0
:1024900000240C01296F02010F5101200C012A6F49
:1024A000020131510C01295D020132510C012A59FE
:1024B00015E229510201315D006E32510C012A559D
:1024C000016E0001005002010627000101500201C7
:1024D0000723000E0823092353EC1AF002012B51A5
:1024E000315D2C51325906E33CEC17F00050315F5E
:1024F0000150325B2B510E5D2C510F5928E3FEEC3D
:102500001AF025D002010E51311902E10F51321992
:102510001EE024A71BD024A918D0A5EC19F001AE09
:1025200002D0026803680050D3EC18F0B9EC19F03F
:1025300009E22DEC1BF001AE02D0026803680050E6
:10254000D3EC18F053EC1AF04185248924872F51DD
:1025500031191CE13051321919E141B704D012ECA4
:1025600017F0409913D09BEC17F010E1EE5035199D
:102570000DE1EE5036190AE1EE50371907E106E198
:1025800002012451010B02E04099419703EC19F03C
:102590000201065D006EEE500759016EEE500859BB
:1025A000026EEE500959036EA1EC19F00C010050B7
:1025B000EE5C3F6F0150EE58406F0201145115114F
:1025C00006E10C013F51401102E0020141833FCC82
:1025D00014F240CC15F2080E02013F5D20E19BECA5
:1025E00017F04DE1EE5035194AE1EE50361947E14A
:1025F000EE50371944E143E102012451010B3FE061
:102600007AEC1AF0BA0E020137271A0E3823030E9D
:102610003923000E3A234089090E3F6F30D0090E4E
:102620003F5D0AE10C0133B12AD0E0EC18F0140E42
:10263000C5EC1AF0A6EF0FF00A0E3F5D20E19BEC0F
:1026400017F00CE1EE50351909E1EE50361906E1AC
:10265000EE50371903E101E004D278DC12009BEC64
:1026600017F00CE1EE50351909E1EE50361906E18C
:10267000EE50371903E101E0F4D168DC12000C01DF
:1026800033BB12000B0E02013F5D01E112000A0E86
:102690003F5D01E112000C0E3F5D01E11200B751F8
:1026A000B81101E166D10C01303504E22F51000868
:1026B000000E305501E2A2D00AEC18F0006E016A5B
:1026C0002F51F35C0E017C6F0C01305101580E014B
:1026D0007D6F14EC94F00C012F510201B7270C010F
:1026E00030510201B823B7510C01315D0201B851DC
:1026F0000C01325904E231CCB7F232CCB8F202010B
:10270000B7510A27B8510B23000E0C230D23335168
:10271000B725006E3451B821AEEC19F024E23351E4
:102720002D5D0C01296F020134512E590C012A6FC5
:10273000010E2927000E2A2312EC1BF033C2BFF230
:1027400034C2C0F285EC1AF02AEC19F0006EB851D0
:102750000C012A55016E02012B510024336F2C51BC
:102760000120346F0CD0ABEC1AF033C2BFF234C28C
:10277000C0F251DA0201B7513327B8513423221D78
:1027800001E1231D01E1F5D0B751225FB851235B70
:10279000165122250C01296F0201175123210C012A
:1027A0002A6F800E2A1502E0020125D0020123358E
:1027B00004E222510008000E235501E2DAD00C0198
:1027C000295102010A270C012A5102010B23000E94
:1027D0000C230D230C012951020133270C012A512E
:1027E0000201342333512D5D34512E5904E24FDB65
:1027F000335F0150345B22692369BBD0303501E37C
:10280000B8D02F510008000E305501E3B2D00201BC
:10281000B7510C012F25006E0201B8510C01302177
:10282000016E0050315D0150325909E22F51315D86
:102830000201B76F0C01305132590201B86FEADB67
:102840000E017C6F7D6B14EC94F031EC1BF0026E8A
:1028500036EC1BF0036E02500201B725006E0350E8
:10286000B821AEEC19F031E233512D5D006E2E51DE
:1028700034559EEC1AF00C012F51005C296F305139
:1028800001582A6F800E2A1508E112EC1BF0E5ECC6
:1028900018F0C06F85EC1AF01DD0ABEC1AF031ECDB
:1028A0001BF0006E36EC1BF0016E02012B512D5D0A
:1028B000026E2E512C55036E31EC1AF002010250BB
:1028C000005CBF6F0350015804D0ABEC1AF0E5EC8C
:1028D00018F0C06FA0D90201221D0BE1231D09E1F0
:1028E0002FCC22F230CC23F2B7C216F2B8C217F2C4
:1028F00040D022510C012F5D020123510C013059AF
:102900001EE236DB06E30C01EBEC18F02351055810
:1029100005E2B7C216F2B8C217F20CD030EC19F0CB
:102920000C012F51005C0201166F0C01305101584F
:102930000201176F2FCC22F230CC23F21AD018DB11
:1029400018E230EC19F00C012F51005C30510158A5
:1029500010E3EBEC18F0026E23510558036E16518C
:10296000025C006E17510358016E0050162701508B
:1029700017230C013C513D1119E0070E02013F5D88
:1029800004E033C235F234C236F240AF04D087DA05
:10299000ECEC00F00BD0408F40BD08D0408D12EC25
:1029A0001AF00F0E02013D27000E3E230C0133A149
:1029B00058D00AC200F00BC201F00CC202F00DC2E6
:1029C00003F0002A4FEC1BF03CCC04F03DCC05F0AA
:1029D000066A076A380EE96E0C0EEA6EEE5004269F
:1029E000EE500522EE500622EE5007220050041849
:1029F00038E10150051835E10250061832E1035064
:102A000007182FE12EE118EC1BF03F51090A24E0D2
:102A1000010A12E00F0A06E0010A22E10C0E3F6FE4
:102A200086EF18F00B0E3F6F12EC1AF01F0E02012A
:102A30003D27000E3E2314D07EDA0AE1EE50351910
:102A400007E1EE50361904E1EE50371901E104E0D8
:102A500002010A0E3F6F04D0D3EC19F0A6EF0FF07D
:102A60001EDA1200B9C245F2C4EC00F00201BA51FC
:102A7000BB1103E1010EBA6FBB6B29512D5D0C0137
:102A8000006F02012A512E590C01016F010E005FE7
:102A9000000E015B020119EC1AF00C010050005D00
:102AA0000150015901E2000CECEC00F0030E0201B0
:102AB000BE1502E1030EBE13BCC204FCBDC205FC80
:102AC00019EC1AF000500C01005F0150015B02018B
:102AD000BEA313D0BEA10CD000CC00F001CC01F0FD
:102AE000D8900132003200500C010427015004D06C
:102AF0000C010051042701510523020129510C0149
:102B00000425006F02012A510C010521016F010EFD
:102B10000027000E012333C202FC34C203FC020171
:102B2000221D01E1231D13E09BDB00500C01022755
:102B300001500323025102012D5D0C0103510201DA
:102B40002E5905E2A4D90C01025F0150035B0C0170
:102B500002510201355D0C010351020136590CE2AC
:102B60000C0100510201355D0C0101510201365981
:102B700018E2BEA50ED0000CD9EC19F00AE2005103
:102B800002012B5D0C01015102012C590AE2BEB574
:102B9000000C00CC35F201CC36F200CC33F201CC83
:102BA00034F20201D9EC19F025E2040E0201BE153F
:102BB00021E02B510C01025D0201C56F02012C5175
:102BC0000C01035980DB44C2C1F200CCBFF201CC3E
:102BD000C0F221D812DB0EE20C01005102012B5D84
:102BE000006E2C510C010155016E00500201335F43
:102BF0000150345B00CC2BF201CC2CF260EC1AF0CB
:102C000029C231F22AC232F232DB070E02013F5DE5
:102C100001E145D9010C0201C4512AE0010A01E099
:102C20001200C15111E0010A01E01200C5C2E6FF25
:102C3000C6C2E6FFC2C2E6FFC3C2E6FFBFC2E6FFEE
:102C4000C0C2E6FF8AEF18F0BF1D01E1C01D06E01B
:102C5000BFC211FFC0C212FFD0EC49F0C5C228FFAD
:102C6000C6C229FFC2C226FFC3C227FF01EF4BF035
:102C7000C15117E0010A01E01200C21D01E1C31DAC
:102C800006E0C2C213FFC3C214FFE3EC49F0C5C2A1
:102C900023FFC6C224FFBFC221FFC0C222FFC9EF6B
:102CA0004AF0C5C21FFFC6C220FFC2C21DFFC3C279
:102CB0001EFFBFC21BFFC0C21CFF4CEC4AF0A6ECBB
:102CC0004AF00009FCE012000201C9510EE0010ABD
:102CD00001E01200CDC2E6FFCEC2E6FFB1DBC7C203
:102CE000E6FFC8C2E6FF27EF1AF0C71D01E1C81DC5
:102CF00006E0C7C211FFC8C212FFD0EC49F0100EA7
:102D00000C01286F296B0201CD51CE1137E00C0167
:102D100028510201CD5D0C0129510201CE5904E276
:102D2000CDC228FCCEC229FC28CCE6FF29CCE6FF88
:102D300087DB180EE66E0C0EE66E89DB28CC28FFCA
:102D400029CC29FF0F01180E266F0C0E276F01ECFE
:102D50004BF028CC00F029CC01F0026A00500201AF
:102D6000CA270150CB230250CC230C012851020169
:102D7000CD5F0C0129510201CE5BC5D71200140EA4
:102D8000EA02F3CFEAFFE902F3CFE9FFF450EA26C3
:102D9000C10EE926050EEA22120004CCC5F205CCCC
:102DA000C6F20201020ED880C557000EC657140E97
:102DB000C603F3CFC6F2C503F3CFC5F2F450C6275E
:102DC0000201010EC46F0C0104250201C26F000E46
:102DD0000C0105210201C36F140EC303F3CFC3F22C
:102DE000C203F3CFC2F2F450C327C10EC227050EAF
:102DF000C3233BEC1BF0140E206E216A04CC25F09B
:102E000005CC26F09FEC9CF01EC0BFF21FC0C0F2A4
:102E1000C10E0201BF27050EC023FDDE0501F96BBF
:102E2000FA6B120067DB740E02013727350E382368
:102E3000060E3923000E3A231200900E006E3C0E4F
:102E4000016E010E026E14CC03F0046A056A060ED0
:102E5000246E256A266A14CC1FF004C020F005C039
:102E600021F0BDEF9CF0EECF70F7EDCF71F778EC6D
:102E700060F0E5DB99EF1AF029512B5D006E2C51C3
:102E80002A55016E120050DB020E76EF1AF02B511C
:102E90002D5D006E2E512C5551DB0050120061DB70
:102EA000100EC5EF1AF067DB060E4ED300501C243F
:102EB000F36E01501D20F46E02501E20F86EF4CF08
:102EC000F7FFF3CFF6FF120006C238FC07C239FC49
:102ED00008C23AFC09C23BFCD9DB43DB040E55DBDC
:102EE00038CC06F239CC07F23ACC08F23BCC09F2E6
:102EF00012000201C46B0201C269C36944C2C1F27B
:102F00001200F4DAEECF72F7EECF73F7EECF74F76C
:102F1000EFCF75F77DEC60F01EC000F01FC001F030
:102F200020C002F021C003F099EF1AF0016E00C03A
:102F3000F3FFF46E12008CDBEE500C01341912001A
:102F40000ACC96F20BCC97F20CCC98F202010ACC88
:102F5000F6FF962B0BCCF7FF000E97230CCCF8FF57
:102F600098230800F5CF0EFC120005DB1F0EECD2F3
:102F70002F510201B725006E0C0130510201B8211A
:102F8000016E22511625026E23511721036E005047
:102F9000025C0150035812001A511825026E1B5191
:102FA0001921036E02501025006E035011210AD31F
:102FB00021EC9DF0020137511E5C006E38511F5804
:102FC000016E39512058026E3A512158036E0001AA
:102FD000800E03141200006E016A090E005C000EE0
:102FE000015812004551EA6A490FE96E0C0EEA22B7
:102FF00012000D51EA6A110FE96E0C0EEA2212005E
:1030000096C2F6FF962B97C2F7FF000EC9DA010EA3
:10301000106F1200ABDA0C0E69DAEF50E0DA040D33
:10302000F3501200EECF00F0EFCF01F012000201DA
:10303000010EC46F64C2C2F265C2C3F2C8EF1AF0D7
:1030400044C2C4F235C2C2F236C2C3F214DB7CC23F
:10305000BFF27DC2C0F20BEF16F000010224006E39
:10306000000E03206BDA00C0F3FF01C0F4FF120072
:1030700021EC9DF01E5002010225376F1F500321E5
:10308000386F20500421396F215005213A6F12000A
:103090002DDA1EC0EEFFB8DA99EF1AF069C2CAF253
:1030A0006AC2CBF26BC2CCF244C2C9F22FC2C7F2E1
:1030B00030C2C8F264EF16F043CC8CF244CC8DF2EF
:1030C000020143CCE9FF44CCEAFF8C2B000E8D2398
:1030D000EFCF46FC120044C2C4F20EC2C2F20FC2CD
:1030E000C3F20201C16B360E0201BF6FC06B0BEF62
:1030F00016F038CC0AF239CC0BF23ACC0CF23BCCBD
:103100000DF218EF1BF087DAD9EF1AF02ADA110E58
:10311000C5EF1AF006EC82F0006E060EE15E00507C
:103120001200100E76EF1AF01C0D89DA000E002640
:10313000010E012200C0E6FF01C0E6FF1200036E8F
:1031400002504B25006E03504C213CD244C2C4F2C5
:1031500000CCC2F201CCC3F28EDA82C2BFF283C2CB
:10316000C0F212008CC2E9FF8DC2EAFF8C2B000E68
:103170008D23EFCF46FC0C01010E486F12002B513E
:103180002D5D006E2E512C55016E3551335D026E52
:1031900034513655036E1200E4D9120EF6D90201ED
:1031A000060E3F6F1200065F0150075B0250085B7E
:1031B0000350095B1200EECF02F0EFCF03F01200D4
:1031C00065DA0201AE6B020112004BDA0201BF6F39
:1031D0004DDA020112002F510201B725046E0C01D5
:1031E00030510201B821056E2251045C1200020127
:1031F000C56FC66B44C2C4F2120002013551335D83
:10320000365134591200340EE96E0C0EEA6EEE504F
:10321000120077511C0DF3CFE9FFF4CFEAFF000E47
:10322000E926010EEA2212002BEC9DF002011E504D
:103230003D5D006E1F503E59016EE834120006ECF1
:1032400082F0026E060EE15E0250120001C0EBFF3A
:1032500099EF1AF0E0DC0C0129510201B75D120070
:1032600022511625006E23511721016E120029C22A
:103270002FF22AC230F212000C016C6F6B51020166
:10328000145D0C016C51020115591200006E016AA7
:103290000050120046C218F247C219F248C21AF290
:1032A00049C21BF21200020E21D9EECF04F0EFCF7B
:1032B00005F012000C012C5102016C5D0C012D5126
:1032C00002016D5912000201C66F44C2C4F22BC242
:1032D000C2F22CC2C3F2120002018E510C013B5DFE
:1032E00002018F510C013C591200020199510C014D
:1032F000025D02019A510C0103591200E9CF00F05E
:10330000EACF01F0E9CFE6FFEACFE6FF12000C01B9
:103310006B510201255D0C016C510201265912000E
:103320000C016B5102010E270C016C5102010F239D
:1033300012000F01236F246B0F01216B226BC9EF69
:103340004AF014D90E0E76EF1AF031510E5D006E70
:103350000F513255016E026A036A1200016E00506D
:103360002D5D01502E591200180EE66E020EE66E0B
:10337000120031510E5D32510F591200B1C2E9FFF6
:10338000B2C2EAFF1200A3510201665D0C01A45112
:103390000201675912000A0EE66EE66AB1C2E6FF44
:1033A000B2C2E6FF12000201AE6B0201100EC5EFC1
:1033B0001AF035510C01025D020136510C0103591E
:1033C0001200C4EC00F033C235F234C236F21200FF
:1033D000016E02012B51005C2C51015812000201B8
:1033E0008E07000E8F5B8E518F111200020199071C
:1033F000000E9A5B99519A111200272BD890023730
:103400000337043705371200006E016A140E005EA0
:10341000000E015A1200E5EC0FF0F3CF25F2F4CFC5
:1034200026F212002BEC9DF01EC03DF21FC03EF2B2
:103430001200BA51BC25006EBB51BD21016E1200B5
:10344000CAC2E6FFCBC2E6FFCCC2E6FF120031ECF7
:1034500082F0006E070EE15E005012000CD90201EE
:103460001200010E0226000E03221200C4EC00F02E
:10347000ECEF00F061C25FF2FBEF02F063C25FF2BB
:10348000FBEF02F068C25FF2FBEF02F02BC235F2F5
:103490002CC236F2120000500008000E0154120037
:1034A0000A0E76EF1AF031C20EF232C20FF212009B
:1034B000120E76EF1AF00F01286F296B0F01120020
:1034C00029C20EF22AC20FF21200B9EC4AF00C0126
:1034D000426F120029CCE9FF2ACCEAFFBFEF16F0B9
:1034E00004CCE9FF05CCEAFFBFEF16F0E926000E99
:1034F000EA22120021EC9DF01EC037F21FC038F204
:1035000020C039F221C03AF21200A4DE0201C56FD8
:103510000C012A510201B8590201C66FEADC2BC224
:10352000BFF22CC2C0F21200AFC2E9FFB0C2EAFF84
:103530001200B3C2E9FFB4C2EAFF1200016E010E2D
:103540000026000E012212000026A9D800C03BF27E
:1035500001C03CF21200B7C2C5F2B8C2C6F279EFA0
:1035600017F00201010EAE6F02011200B5C2E9FFB1
:10357000B6C2EAFF1200408B2BEC9DF01EC000F09B
:103580001FC001F0026A036A1200AD6FDCEF0BF09E
:1035900044C2C1F22FC2BFF230C2C0F20BEF16F02C
:1035A000972398C2F8FF98230800F5CF0EFC0C0172
:1035B000120000502B5D01502C5902502D59035020
:1035C0002E591200016E00501219426F015013194A
:1035D000436F120051DCD890013200321200F00B20
:1035E000E842E842E842E84212004DDC12EF18F0EF
:1035F0001DC004F01EC005F056EF17F03DDC005072
:103600000E5F01500F5B120001C0EEFF02C0EEFF23
:1036100003C0EEFF120031CC00F032CC01F0026AA0
:10362000036A120029CCC5F22ACCC6F279EF17F052
:1036300002010A2B000E0B230C230D231200F3CFE3
:1036400000F0F4CF01F012006CDDEE50ED1012002E
:10365000060EE96E020EEA6E12000EDC026A036AC2
:103660001200020133510C012F25120002013451C6
:103670000C01302112000201010EC16F1200EECFC9
:1036800000F0EECF01F097DD6AEF1AF034CC06F2CD
:1036900035CC07F236CC08F237CC09F21200000E16
:0836A0000122022203221200A4
:0836A800490E08015F1905E15C
:1036B000605103E1615101E1625101E1E4D2480E40
:1036C0005F1905E1605103E1615101E1625101E1DE
:1036D000D8D2470E5F1905E1605103E1615101E164
:1036E000625101E1C8D2460E5F1905E1605103E164
:1036F000615101E1625101E1BCD2450E5F1905E162
:10370000605103E1615101E1625101E1AFD2440E28
:103710005F1905E1605103E1615101E1625101E18D
:103720009FD2430E5F1905E1605103E1615101E150
:10373000625101E193D2420E5F1905E1605103E14C
:10374000615101E1625101E186D2330E5F1905E159
:10375000605103E1615101E1625101E173D2310E27
:103760005F1905E1605103E1615101E1625101E13D
:1037700063D2300E5F1905E1605103E1615101E14F
:10378000625101E157D22F0E5F1905E1605103E14B
:10379000615101E1625101E14AD22E0E5F1905E14A
:1037A000605103E1615101E1625101E13ED22D0E10
:1037B0005F1905E1605103E1615101E1625101E1ED
:1037C00032D22C0E5F1905E1605103E1615101E134
:1037D000625101E126D22B0E5F1905E1605103E130
:1037E000615101E1625101E11AD22A0E5F1905E12E
:1037F000605103E1615101E1625101E10ED2290EF4
:103800005F1905E1605103E1615101E1625101E19C
:1038100002D2280E5F1905E1605103E1615101E117
:10382000625101E1F6D1270E5F1905E1605103E114
:10383000615101E1625101E1EAD1260E5F1905E112
:10384000605103E1615101E1625101E1DED1250ED8
:103850005F1905E1605103E1615101E1625101E14C
:10386000D2D1240E5F1905E1605103E1615101E1FC
:10387000625101E1C6D1230E5F1905E1605103E1F8
:10388000615101E1625101E1BAD1220E5F1905E1F6
:10389000605103E1615101E1625101E1AED1210EBC
:1038A0005F1905E1605103E1615101E1625101E1FC
:1038B000A2D1200E5F1905E1605103E1615101E1E0
:1038C000625101E196D11F0E5F1905E1605103E1DC
:1038D000615101E1625101E18AD11E0E5F1905E1DA
:1038E000605103E1615101E1625101E17ED11D0EA0
:1038F0005F1905E1605103E1615101E1625101E1AC
:1039000072D11C0E5F1905E1605103E1615101E1C3
:10391000625101E166D11B0E5F1905E1605103E1BF
:10392000615101E1625101E156D11A0E5F1905E1C1
:10393000605103E1615101E1625101E14AD1190E87
:103940005F1905E1605103E1615101E1625101E15B
:103950003ED1180E5F1905E1605103E1615101E1AB
:10396000625101E131D1170E5F1905E1605103E1A8
:10397000615101E1625101E122D1160E5F1905E1A9
:10398000605103E1615101E1625101E116D1150E6F
:103990005F1905E1605103E1615101E1625101E10B
:1039A00003D1140E5F1905E1605103E1615101E19A
:1039B000625101E1F4D0130E5F1905E1605103E19A
:1039C000615101E1625101E1E5D0120E5F1905E19B
:1039D000605103E1615101E1625101E1D7D0110E63
:1039E0005F1905E1605103E1615101E1625101E1BB
:1039F000C8D0100E5F1905E1605103E1615101E18A
:103A0000625101E1BAD00F0E5F1905E1605103E187
:103A1000615101E1625101E1ABD00E0E5F1905E188
:103A2000605103E1615101E1625101E19DD00D0E50
:103A30005F1905E1605103E1615101E1625101E16A
:103A400091D00C0E5F1905E1605103E1615101E174
:103A5000625101E183D00B0E5F1905E1605103E172
:103A6000615101E1625101E177D00A0E5F1905E170
:103A7000605103E1615101E162516CE0090E5F198F
:103A800005E1605103E1615101E1625161E0080E1D
:103A90005F1905E1605103E1615101E1625156E0B6
:103AA000070E5F1905E1605103E1615101E16251C7
:103AB0004BE0060E5F1905E1605103E1615101E140
:103AC000625140E0050E5F1905E1605103E161516B
:103AD00001E1625135E0040E5F1905E1605103E137
:103AE000615101E162512AE0030E5F1905E1605165
:103AF00003E1615101E162511FE0020E5F1905E12E
:103B0000605103E1615101E162510FE0010E5F1963
:103B100001E0BBD0605101E0B8D0615101E0B5D007
:103B2000625101E0B2D061EF33F00801E10E7D6F28
:103B3000890E7E6F000E8CD076EF33F057EF1EF0BB
:103B40007EEF31F0070E0BD0060E09D0050E07D020
:103B5000040E05D0030E03D0020E01D0010E0401A5
:103B6000E96F2FD0B9EF32F0010E0401ED6F02D0F2
:103B70000401ED6BEE6B040E1BD0010E0401ED6F22
:103B800002D00401ED6BEE6B030E12D0010E0401A6
:103B9000ED6F02D00401ED6BEE6B020E09D0010E49
:103BA0000401ED6FEE6B04D00401ED6BEE6B010EC2
:103BB0000401EB6FEC6B42EF32F0AEEF31F0040139
:103BC000E96BEA6BEFEF31F00401E76B07D0010E10
:103BD00003D0020E01D0030E0401E76FE86BB6EFCD
:103BE00031F0A2EF32F08CEF33F072EF34F051EF9E
:103BF00034F059EF34F04DEF34F04EEF34F04FEF36
:103C000034F07CEF34F027EF34F0E5EF33F0EAEFF7
:103C100033F0F5EF33F0FFEF33F009EF34F013EF4B
:103C200034F01DEF34F046EF34F048EF34F0040187
:103C3000F76B05D0010E01D0020E0401F76FF86B8F
:103C400050EF34F00801D60E7D6F890E7E6F000EA6
:103C50007F6FCEEF27F00401F36B05D0010E01D08A
:103C6000020E0401F36FF46B44EF34F00401F56BC2
:103C700005D0010E01D0020E0401F56FF66B45EF81
:103C800034F06CEF34F06FEF34F0040E02016C6F1F
:103C90006D6B0201D10E696F890E6A6F000E6B6F3A
:103CA000F1EC29F0EE52EFCF68F20AEF04F00201D6
:103CB0007E0E626F08EF2BF00401836B020E835DB2
:103CC00030E252EC28F0EF6A0201080E4D6F500E00
:103CD00002014B6F4C6B02014A6B0201466B476B52
:103CE000486B496BE7EC01F0E66EF1EC29F0EE521F
:103CF000E552E750EF6E146915698351B9EC28F06D
:103D0000B3EC29F0F3CF00FCF4CF01FC0EEC29F06A
:103D100000CC11FF01CC12FFD0EC49F00401832B41
:103D2000CDD7836B12000C01866B020E865D36E2E6
:103D3000C3EC28F0EE52EF50FE082DE0C3EC28F063
:103D4000EE52EFCF4EF27FEC02F0000914E086CC89
:103D500063F825D8F1EC29F0EF6AFF0E145D02E05C
:103D600041EC29F0FF0E155D02E048EC29F002015C
:103D7000040E86EC2AF00C01C3EC28F0EF5007E1AA
:103D8000C3EC28F0B4EC28F0D6EC28F004E086CCA4
:103D900063F805D83ED80C01862BC7D71200040162
:103DA00083510801635D01E1120004018351B9EC04
:103DB00028F0B3EC29F0F3CF00FCF4CF01FC0EECBB
:103DC00029F000CC11FF01CC12FFD0EC49F0080122
:103DD0006351B9EC28F000C013FF01C014FFE3ECFD
:103DE00049F0F3CF00FCF4CF01FC7F0E0F01236FED
:103DF000246B0F01000E216F040E226FC9EC4AF0F4
:103E000000CC13FF01CC14FFE3EC49F063C883F44A
:103E100012000C01010E736FF1EC29F0EF500B0A48
:103E200002E174EF23F0010A02E151EF23F0030AEB
:103E300002E13AEF23F0010A01E1B9D30F0A01E1EF
:103E40001FD3010A01E102D3030A01E17AD2010A78
:103E500001E16ED2070A01E147D2010A01E1A4D1D2
:103E6000030A27E0010A02E081EF23F0AEEC2AF01A
:103E7000F3CF6DFCF4CF6EFCF350F41002E181EF50
:103E800023F004011A0E106F040E116F52EC28F08B
:103E9000010EEF6E1769166B7AEC28F00C690D694C
:103EA0000E690F69CEEC29F07E6B0201050E86ECDF
:103EB0002AF077EC28F00A0ED9EC2AF000EC2AF070
:103EC0000001F31C14E1011C12E1F1EC29F00AECF1
:103ED0002AF004E111EC2AF00C01736BA1EC28F03C
:103EE00002E6E8EC28F002E381EF23F042D27AEC1C
:103EF00028F000EC2BF00C01050ED880F354000ED6
:103F0000F45403E2050E6D6F6E6B010E54EC29F054
:103F10001A0E7C6F040E7D6F83EC2AF0030EE66EA2
:103F2000E66AFF0EE66E820EE66E000E55EC2AF093
:103F300003E10401186B12D0040EE66EE66AFA0E75
:103F4000E66E820EE66E000E55EC2AF004E10401E6
:103F5000010E186F03D00401070ECAD100EC2BF03C
:103F60000201A66BF3CFA4F2F4CFA5F20201A26B7B
:103F7000A36B02013F0EA16FF1EC29F05EEC29F07A
:103F80000C01F3506D5DF4506E5904E36FCC6DFC81
:103F900070CC6EFC590ED8806D55000E6E5501E246
:103FA000ECD0F5EC2AF06CEC2AF01A0EF324E96E52
:103FB000040EF420EA6E88EC29F01A0EE66E040E68
:103FC000E66E3EEC2AF06CEC2AF00B0EE66EE66A2A
:103FD000EF0EE66E820EE66E000EE66E1B0EE66ECD
:103FE000040EDAEC28F00CE161EC29F0185102E142
:103FF000080E01D0090E186F52EC28F0020E2ED2D6
:1040000006EC29F002E06BEC29F0FF0E0401145DD0
:1040100031E106EC29F00EE00C016FCCE9FF70CC29
:10402000EAFF6F2B000E70231A0EE926040EEA2217
:104030002F0EEF6EB9EC29F01A0E0C016F25006EF1
:10404000040E7021016E00C0E6FFE66E20EC83F0E6
:10405000026E050EE15E0250B9EC29F047EC83F0E8
:10406000E552E552E5521F500C016F272050702396
:104070006BEC29F01A0E0C016F25746F040E702181
:10408000756F010E745F000E755B1A0E741902E1F4
:10409000040E751909E074CCE9FF75CCEAFFEF5006
:1040A0002E0802E07407EFD7742B000E752304016D
:1040B000196B0B0EE76E1919E8AE02D0E73402D087
:1040C000E750195D23E25D0E006E3B0E016E010E9E
:1040D000026E19C403F0046A056A03AE02D00468D4
:1040E000056822EC2AF0F5CF6DF70900F5CF6EF7E1
:1040F0000800F5CF6FF774CC6BF775CC6CF739EC23
:1041000060F0000903E00401192BD3D761EC29F01A
:10411000FF0E145D18E014C4F2F025EC5AF0F350D1
:10412000020B11E014C4FDF01FEC5BF0F3CFD4F0F0
:10413000F4CFD5F0010E0001D427000ED52377EC83
:1041400057F00401156F00EC2BF0F350F4101CE055
:104150000401010E166F0201710E796F0C0E7A6F59
:10416000F1EC29F09EEC29F00C016D07000E6E5B5E
:10417000620E6D5D000E6E5903E30401050EB8D0AA
:10418000F5EC2AF0F2EC28F004EC2BF0010EF3240D
:1041900002017E6F000EF4207F6F0201F1EC2AF025
:1041A000F1EC29F0020EEF6E04EC2BF00C01F31C85
:1041B00013E16E1D11E1F1EC29F00AEC2AF004E1A3
:1041C00011EC2AF00C01736BA1EC28F002E6E8EC8C
:1041D00028F001E396D2CDD07AEC28F00C01010E44
:1041E0006D190BE16E5109E1020ED3EC29F0F1ECEF
:1041F0002AF0F1EC29F0030E31D10201A66B6DCC4F
:10420000A4F26ECCA5F20201A26BA36B02013A0EDE
:10421000A16FF1EC29F05EEC29F0020E0C016F2782
:10422000000E7023736B100ED8806F55000E705502
:1042300002E2010E54D06FCC7EF270CC7FF202010C
:10424000760E7C6F0C0E7D6F83EC2AF046EC2AF024
:10425000760EE9260C0EEA22EF6A0C016F516D5FB3
:1042600070516E5B726B7251006E016A030E005CDE
:10427000000E01582EE2CF0E006E3B0E016E010EB5
:10428000026E72CC03F0046A056AA9EC29F072CCC4
:104290001FF057EC28F0F5CFE6FF0900F5CFE6FF59
:1042A0000800F5CFE6FF760EE66E0C0EE66EE9EC42
:1042B00082F0066E050EE15E0650000907E172CC41
:1042C00064F8E8DA0C01010E736F03D00C01722B55
:1042D000CAD7735102E004EC2BF0010E0C0154EC30
:1042E00029F0F1EC2AF060D7800E175D03E2030E8F
:1042F000186FB1D010C4E9FF11C4EAFF88EC29F0AF
:10430000F3CF10F4F4CF11F4080E0401185D01E1AD
:10431000A2D052EC28F0040EEF6E165104E152ECDC
:1043200028F0050EEF6E0C01736B0401166BE9D1DA
:104330004DEC2BF0020801E1E4D1F1EC29F0050E7F
:10434000EF6EAEEC2AF0DDEC2AF0F35004010C190C
:1043500014E101500D1911E102500E190EE1035044
:104360000F190BE10AE1A1EC28F002E6E8EC28F0D5
:1043700004E2B4EC2AF00B0E71D0180515E0090E1A
:10438000E76E1819E8AE02D0E73402D0E750185DA6
:1043900059E30B0EE76E1819E8AE02D0183503D0BA
:1043A000E750D88018554EE3090EE76E1819E8AEAD
:1043B00002D0E73402D0E750185D13E30B0EE76E2E
:1043C0001819E8AE02D0183503D0E750D880185538
:1043D00008E3EFEC26F00C01716FE85006E10401F0
:1043E0003AD0EDEC2BF00C01716F020E715D0CE117
:1043F000B1EC2AF0D8EC29F00401010E0C5F000E9C
:104400000D5B0E6B0F6B7DD171051CE1B1EC2AF0D9
:10441000D8EC29F004010E6B0F6B7AEC28F02CEC31
:1044200029F00C5DEE500D59EE500E59EE500F591B
:1044300006E252EC28F00AEC2AF001E062D1040115
:10444000060E08D0F1EC29F0060EEF6EFF0E145D9B
:1044500007E1040E186F52EC28F0070EEF6EA4D09F
:10446000CEEC29F0FF0E155D05E1046905690669CA
:10447000076902D075EC29F0F1EC29F0070EEF6E18
:104480000201020E86EC2AF0A50E006E3B0E016EB4
:10449000010E026E18C403F0046A056A03AE02D06E
:1044A00004680568A2EC2AF00C0E0401185D0DE109
:1044B000BCEC2AF0D20E726F820E736F000EEDEC20
:1044C0002AF0BCEC2AF071EC2AF00401185106E045
:1044D000180504E052EC28F00B0E04D10B0E195D08
:1044E0001BE00201C30E726F820E736F000EEDECC3
:1044F0002AF0810E006E3B0E016E010E026E19C491
:1045000003F0046A056A03AE02D004680568A2ECF1
:104510002AF0020171EC2AF014C4F2F025EC5AF0F2
:10452000F350010B08E00201AA0E726F820E736F46
:10453000000EEDEC2AF002019A0E726F820E736F7C
:10454000000EEDEC2AF0040118050CE0E8680419EF
:1045500008E1E868051905E1E868061902E1E8687C
:10456000071907E00201910E726F820E736F000E41
:104570000DD00201880E726F820E736F000EEAEC8E
:104580002AF0840E726F820E736F000EEAEC2AF02E
:1045900071EC2AF00401165104E052EC28F0080EE8
:1045A00002D00BEC2BF0EF6E0C01736BAAD01A0E3D
:1045B000126F040E136F16515AE00201770E726FDC
:1045C000820E736F000EEDEC2AF019EC29F022E058
:1045D000200E0C01715D03E102012B0E14D0300E90
:1045E000715D0FE37151390803E2410E715D09E31A
:1045F00071515A0803E2610E715D03E371517A084B
:1046000004E291EC2AF0626F02D071CC62F208EC05
:104610002BF0DBD702013D0E626F08EC2BF019EC9A
:1046200029F01FE0200E0C01715D03E102012B0E49
:10463000F3D7300E715D0FE37151390803E2410E7B
:10464000715D09E371515A0803E2610E715D03E384
:1046500071517A0803E291EC2AF0DED771CC62F254
:10466000DCD7020171EC2AF004011607A4D70BEC89
:104670002BF0EF6E0C01736B4AD8000909E041EC96
:1046800029F052EC28F00B0EEF6E0C01010E736F47
:10469000E1EC2AF0D6EC28F034E10C01010E736F46
:1046A00030D00C01010E736FE1EC2AF000EC2AF01F
:1046B000100EF35C000EF45824E308C45FF809C43C
:1046C00060F80AC461F80BC462F854EC1BF00401F2
:1046D0000C510D110E110F1114E10C01736BF1EC63
:1046E00029F0090EEF6E0DD0FF0E145D02E041ECD3
:1046F00029F0FF0E155D02E048EC29F0B4EC2AF039
:10470000EF6A0C01735102E109EF1FF01200E1ECB6
:104710002AF0F3CF02FCF4CF03FCF3CF04F0F4CF84
:1047200005F0066A076A2CEC29F00401045D086EA6
:10473000EE500559096EEE5006590A6EEE500759B3
:104740000B6E0850F35C0950F4580A5006580B5091
:10475000075807E202CC00F003CC01F0026A036ABA
:104760000DD02CEC29F0045D006EEE500559016E61
:10477000EE500659026EEE500759036E00C000FC61
:1047800001C001FC0C010050040100270C01015084
:1047900004010123000E022303230C01000ED88024
:1047A0000055000E015530E2400E005D000E01592B
:1047B00005E200CCDDF001CCDEF004D00001400EBB
:1047C000DD6FDE6B0001050EDB6F0C0EDC6F14C4B9
:1047D000DAF027EC58F0F3CF02FCF4CF03FC0C0125
:1047E000F350F41001E1010C02CC66F203CC67F245
:1047F0000201050E646F0C0ECBEC2AF00C01025185
:10480000005F0351015BC9D72CEC29F004010419A6
:1048100040E1EE5005193DE1EE5006193AE1EE5047
:10482000071937E136E152EC28F00A0EEF6E0C6BF7
:104830000D6B0E6B0F6B0001D86BD96B14C4D7F0E6
:10484000C3EC57F00001040ED86F0C0ED96F14C4DE
:10485000D7F0C3EC57F0000906E0C7EC29F07E0E54
:104860000C01045DEFE1C7EC29F00001080EE06FD8
:10487000040EE16F15C4DFF07BEC58F075EC29F005
:10488000000907E10401046905690669076948EC44
:1048900029F0000C0801645102E1D1EF24F0640515
:1048A00002E158EF24F0020E645D01E1C9D8120064
:1048B000040117BF1200060ED3EC29F0F1EC2AF028
:1048C00078EC2AF001EC29F0F3CF31FC030E0C0157
:1048D0003127FC0E3117326B240E315D000E325938
:1048E00003E3240E316F326B330E5B6F0C0E5C6F83
:1048F000000ED8803155000E325526E2040E02011A
:104900007E6F7F6B5BCC7CF25CCC7DF283EC2AF01B
:10491000030E0701596F5A6B5BCC57F75CCC58F705
:10492000040E0701556F566B5BCC53F75CCC54F704
:10493000A2EC5EF0040E0C01315F000E325B030E40
:104940005B27000E5C23D4D7DDEC29F0EF6A316BD6
:10495000326B330E5B6F0C0E5C6F280E315D000EF8
:1049600032590BE2DDEC29F0EF503A0806E0312B2A
:10497000000E32235B2B5C23F0D7DDEC29F05B2BA0
:10498000000E5C23EF6A5BCC88F45CCC89F40401F4
:10499000330E866F0C0E876F29EC2BF00401176F16
:1049A000120078EC2AF05BEC2AF010C400F011C47D
:1049B00001F07E0ED8800056040E0156020E005EF5
:1049C000000E015A0C010050F35C0150F45802E350
:1049D00011EF2AF00C013351341131E088DB3B0E2A
:1049E000D9EC2AF0F3CF31FCF4CF32FC0C01335177
:1049F000F35C3451F45805E231CC7EF232CC7FF2D4
:104A000004D033CC7EF234CC7FF210C47CF211C4DB
:104A10007DF283EC2AF0E6DB0C013351315D345139
:104A2000325908E2E4EC2AF062DB200ED9EC2AF0DD
:104A3000BDDBF8E078EC2AF05BEC2AF0CBD7120073
:104A400078EC2AF0DEDBF3CF31FCF4CF32FC0C0142
:104A50000A0EF35C000EF45805E30401020E186F11
:104A6000CEEF29F031CC7EF232CC7FF20201330E50
:104A70007C6F0C0E7D6F83EC2AF0F3CF31FCF4CF0A
:104A800032FC330E0C01F324E96E0C0EF420EA6EB6
:104A9000EF6A330EE66E0C0EE66E19EC84F0E5520A
:104AA000E5521EC000F41FC001F420C002F421C072
:104AB00003F4120065C8E6FF66C8E6FF3EEC2AF084
:104AC000F3CF3DFCF4CF3EFC65C83BFC66C83CFC24
:104AD00065C839FC66C83AFC0C013D513E1142E004
:104AE000A3EC29F0000E3A23EFCF3FFC3D073E5BDD
:104AF0003D0E3F5D03E0260E3F5D03E14FDBEF6AB5
:104B0000EBD72B0E3F5D03E149DB200E25D0250EB0
:104B10003F5D24E1020E3D5D000E3E5903E23D6B18
:104B20003E6BDAD7A3EC29F0000E3A23EFCF41FC1D
:104B3000A3EC29F03A23EFCF40FC3D073E5B3D0755
:104B40003E5B40CC67F741CC68F701EC60F0E66E65
:104B50000C0124DBE552E750EF6EBED71FDB3FCCE4
:104B6000EFFFBAD71BDBEF6A3BCCE9FF3CCCEAFF97
:104B7000EF6A3BCCF3FF3CCCF4FF120067C8E9FFBF
:104B800068C8EAFFEF5020E0E2EC29F069C8E6FFD0
:104B90006AC8E6FFC9EC82F0E552E552E552E552FB
:104BA00000090DE169C8E6FF6AC8E6FF3EEC2AF09D
:104BB00008016751F324006E6851F42058D327ECA4
:104BC0002AF027EC2AF0DAD7F36AF46A12006BC8ED
:104BD000E9FF6CC8EAFFEF5027E037DB1FC000F0A9
:104BE00020C001F021C002F0002A000E01220222A2
:104BF00000C0E6FF01C0E6FF61EC2AF0E8DBE7EC6D
:104C000081F0036E070EE15E0350000908E11DDB31
:104C100008016B511F24006E6C51202028D32EEC0C
:104C20002AF02EEC2AF0D3D7F36AF46A120072C885
:104C30007BF873C87CF870C879F871C87AF80801F5
:104C40003D0E786F46D80C016C6F080170517111E0
:104C50000BE070C8E9FF71C8EAFFEF5005E070C8CB
:104C600065F871C866F826DF0C016C51120046DB4E
:104C7000260E786F2ED80C016C6F020E6C5D17E15A
:104C8000B1EC2AF0DDEC2AF004010051F3180FE139
:104C9000015101180CE10251021809E103510318F6
:104CA00006E105E12BDB786B14D80C016C6F080171
:104CB000745175110BE074C8E9FF75C8EAFFEF5035
:104CC00005E074C865F875C866F8F4DE0C016C512F
:104CD00012000801785106E0C8DB78C8A1F281DB38
:104CE00094DB02D0B1EC2AF0F3CF6AFCF4CF6BFC7A
:104CF0000C01F31C03E16B1D01E1020C0801020E23
:104D00007B5D000E7C5906E279517A1103E0C4EC18
:104D10002AF038D079517A1104E1C4EC2AF00C0160
:104D200043D0FEDA0C016A51005C6B5101582EE24F
:104D30007BC87EF27CC87FF20201020E7E5F000E0D
:104D40007F5BD2EC2AF07BC804F07CC805F0020E31
:104D5000045E000E055A04500C016A5D02017E6F6C
:104D600005500C016B5902017F6F0201F1EC2AF032
:104D70003BDBD6DA080179510024E96E7A51012033
:104D8000EA6EEF6A0C01010E696F0FD025DBD2ECE1
:104D90002AF0080179510C016A25E96E08017A515F
:104DA0000C016B21EA6EEF6A696B0801785114E01F
:104DB000E4EC2AF0006E016A026A036A00AE03D0D6
:104DC00001680268036800500401005F0150015B44
:104DD0000250025B0350035B0C0169511200040195
:104DE00018510A0A01E185D0010A66E0020A01E0D1
:104DF000D4D0CBD9040E53DA720E966F820E976F11
:104E0000000E986FEEDAFDD9A9DA0C01F31C01E16E
:104E1000421D44E041CC7EF242CC7FF202017C6B29
:104E20007D6BDFDA55DB9ADBEBDA0A0EF35C000E02
:104E3000F45805E20C01412B000E4223010C0A0E2E
:104E4000B2DA310E7C6F0C0E7D6FCBDA41DB0A0ECD
:104E5000E66EE66A670EE66E820EE66E000EE66E9F
:104E6000310EE66E0C0EA6D915E104010A0E186F7C
:104E70001EEC59F00401146F060E0001EB6FEC6B91
:104E80000001350EE96F0C0EEA6F14C4E8F062EC15
:104E900059F0020C04010B0E186F020C62DBF3CF09
:104EA0007EF2F4CF7FF20201040E7E5F000E7F5B84
:104EB000020197DB99DA010C51DBF6D8F3D8EE52F8
:104EC000EFCF76F2EDEC04F0640E0401005D000E0D
:104ED0000159000E0259000E03595BE3D880000E01
:104EE0000055000E0155000E0255800E035555E287
:104EF00050D034DB33DA61DBF3500401005DF45051
:104F00000159025002590350035904E200C441FC04
:104F100001C442FC0C01000ED8804155000E4255E0
:104F20002CE2100E415D000E425905E241CC7EF2AA
:104F300042CC7FF204D00201100E7E6F7F6B020123
:104F4000310E7C6F0C0E7D6FDEDAF3CF43FCF4CFB5
:104F500044FCAAD80C01F350415FF450425BF3CFFC
:104F6000EBF0F4CFECF00001310EE96F0C0EEA6FBC
:104F700014C4E8F062EC59F0CDD7040100510111DE
:104F8000021103110AE10001010EED6FA8EC59F0C6
:104F9000040188D8070EEF6E000C010C04010C51BF
:104FA0000D110E110F1114E17DC8D1F07EC8D2F0A1
:104FB0007FC8D3F0C5EC56F00C01446FFF0E445D82
:104FC00001E1120044CCFDF01FEC5BF0F1D91AD0E6
:104FD0000CC4D4F00DC4D5F077EC57F00C01446F3D
:104FE000FF0E445D01E112000001020EE76F0EC4E6
:104FF000E3F00FC4E4F00001E56BE66B44CCE2F0B3
:105000008FEC58F0DEDAF3CF00FCF4CF01FC0C019A
:10501000000ED8800055000E015538E2400E005DAC
:10502000000E015905E200CCDDF001CCDEF004D029
:105030000001400EDD6FDE6B0001040EDB6F0C0E15
:10504000DC6F44CCDAF027EC58F0F3CF02FCF4CF5D
:1050500003FC0C01F350F4100AE144CCD6F0B8EC98
:1050600057F004010C6B0D6B0E6B0F6B120002CC32
:1050700066F203CC67F20201040E646F0C0E8BDA49
:105080000C010251005F0351015BC1D744CCFCF01D
:10509000EEEC5AF01EC00EF41FC00FF444CCD6F054
:1050A000B8EF57F08351C4D1ABD9F4EF29F004C065
:1050B00020F005C021F0BDEC9CF01CC003F01DC029
:1050C00004F01EC005F000501C24F36E01501D209A
:1050D000F46E02501E20F86EF4CFF7FFF3CFF6FF08
:1050E00009001200EE52EFCF7BF25BEF05F0BDD965
:1050F0000201120021EC9DF01EC008F41FC009F44B
:1051000020C00AF421C00BF48A0E04010827F00E17
:1051100009231B0E0A23000E0B231200EE52EFCFC1
:1051200071F2A3EF04F071D9F3CF6DFCF4CF6EFCF4
:105130001200A4D965D9010E0026000E01220050EC
:10514000120021EC9DF0040108511E5C006E095113
:105150001F58016E0A512058026E0B512158036EE0
:10516000E834000E03181200EE52EFCF77F2FCEF96
:1051700004F07F0D22DAEE0E0026450E0122000E0D
:10518000022203221200865153D102019F6B0201B9
:105190009D6B9E6B02019B6B9C6B12003BCCE9FFED
:1051A0003CCCEAFF3B2B000E3C23120029D9F350E4
:1051B000F4101200E66EE7EC81F0006E070EE15E7F
:1051C000005000091200EE52EFCF61F242EF03F0FF
:1051D000D880000E0054000E0154000E0254000E40
:1051E00003541200F35004011027F450112310C48B
:1051F000E9FF11C4EAFF102B000E1123260EEF6EFB
:105200001200EE52EFCF95F2BEEF07F03FD91A0E23
:10521000E926040EEA22EF502F0812007F0E0F013C
:10522000286F296B0F01000E266F040E276F01EF08
:105230004BF0040112C4E9FF13C4EAFF122B000E65
:105240001323EFCF71FCEF5012003BD947EC83F0F2
:10525000E552E552E5521200000EE96E040EEA6EC8
:10526000EE501200EE52EFCF60F209EF03F0016E44
:10527000010E0026000E012200C0F3FF01C0F4FF62
:10528000120014C4D6F0B8EC57F0040114691200EF
:1052900015C4D6F0B8EC57F00401156912000201EC
:1052A000996F9A6B020112006D2502017E6F000E4C
:1052B0000C016E2102017F6F02011200A6D86CEF73
:1052C0002AF004011B0E846F040E856F10EC2BF086
:1052D0000401176F120000011B0ECF6F040ED06F78
:1052E00012EC56F00401146F12000001040EE06F7E
:1052F000040EE16F15C4DFF07BEF58F076C87BF841
:1053000077C87CF874C879F875C87AF80801120073
:10531000EF6A08011A0E656F040E666F5AEF25F0EA
:105320007BC800F07CC801F0020E005E000E015A3E
:105330001200EE52EFCFB9F232EF15F0EE52EFCF8E
:1053400078F21EEF05F039CCE9FF3ACCEAFF392BB1
:105350001200030E246E256A266A1200F3CF41FC68
:10536000F4CF42FC120000C011FF01C012FFD0EFC9
:1053700049F0E50EE66E820EE66E000EE66E120055
:10538000EE52EFCF6EF288EC04F00201120004013D
:10539000002B000E0123022303231200006B016B7C
:1053A000026B036B120002017E6F7F6B0201120021
:1053B000F3CF0CF4F4CF0DF412005BCCE9FF5CCC1E
:1053C000EAFF120067C8E6FF68C8E6FF12006BC874
:1053D000E6FF6CC8E6FF12006ACC7EF26BCC7FF26F
:1053E0001200040152EF28F0026A036AF35004012C
:1053F000005FF450015B0250025B0350035B12003C
:10540000F3CF00F0F4CF01F01200EE52EFCFA0F294
:10541000E9EF08F0EE52EFCF80F2DDEC05F0D6EFC9
:1054200028F00401050E186F3DDE070EEF6E120026
:10543000E96EEA6AD890E936EA367F0EE926040E6C
:10544000EA22120086DF03C01FF057EF28F0BADF10
:1054500070DE08016727015068231200B8DF69DE9B
:1054600008016B2701506C2312000201A66B020198
:10547000A46BA56B0201A26BA36B120039EC83F045
:10548000E552E55212002EDE54EF28F06FCCE9FF12
:1054900070CCEAFFE906000EEA5A120094DE71CCE5
:1054A0006AF72CEC60F002011200E66E1A0EE66E4E
:1054B000040EDAEF28F0A5DEF3CF33FCF4CF34FC92
:1054C00012006DC8E6FF6EC8E6FF6FC8E6FF120067
:1054D00009DE44DF54EF28F0F3CF6FFCF4CF70FC0B
:1054E00012005A0E726F3B0E736F010EEDEF2AF031
:1054F0004CDE020ED4DE5A0E966F3B0E976F010EF5
:10550000986FF1EF29F06DDF72EF28F0BE6F0201A6
:10551000BC6BBD6B010E0201BA6FBB6B62DF99EF12
:1055200029F00201250E626F73D871CC69F71EEC69
:1055300060F00201626F55DF4EEF2AF0A16F51DF7C
:1055400093EF28F07FDFF5CF72F20900F5CF73F209
:105550000800F5CF74F245DF8EEF28F0A3DDB4EF3D
:1055600028F03FDFB4EF28F09DDDEE52EFCF50F290
:1055700091EC02F0F1EF29F002011A0E6F6F040EA8
:10558000706F2FDFC0EF29F027DF02017C6B7D6B8E
:1055900028DF43EF2AF0656F24DFEE52EFCF63F28E
:1055A0008FEF03F079C87CF27AC87DF21ADF43EFFF
:1055B0002AF0A16F16DF05EF2AF022DF026A036AE4
:1055C00012000FDF32EF29F00201796B7A6B09DFED
:1055D0009EEF29F002D802011200746F02DF8EEFF5
:1055E00028F07C6B7D6B83EF2AF06DCC7EF26ECC65
:1055F0007FF202011A0E7C6F040E7D6F83EF2AF09A
:1056000076DD200E9EEF2AF072DD0A0E9EEF2AF064
:10561000E8DEE3EF28F0020164DFE3DE090E1200AA
:10562000070EE66EE66A040EE66E820EE66E000E69
:10563000E5EC35F001E1000C040EE66EE66AFF0EC3
:10564000E66E810EE66E000EE5EC35F001E1000C31
:10565000800CF90EE66E810EE66E000EE66E86C4D4
:10566000E6FF87C4E6FFE9EC82F0DDEC35F00009E7
:1056700013E1EF0EE66E810EE66E000EE66E88C454
:10568000E6FF89C4E6FFE9EC82F0016E050EE15EFB
:105690000150000901E1800C000C140E0001FA6FAA
:1056A000FB6B0001020EF86F0C0EEEEC34F0B3EC65
:1056B00035F04EE10801E00E6D6F810E6E6F000E49
:1056C000AEEC35F00AE005EC35F002E0000E01D05A
:1056D000010EE8B09188E8A091980801DB0E6D6F8B
:1056E000810E6E6F000EAEEC35F00AE005EC35F081
:1056F00002E0000E01D0010EE8B09186E8A091967C
:105700000801D60E6D6F810E6E6F000EAEEC35F097
:105710000AE005EC35F002E0000E01D0010EE8B021
:105720009184E8A091940801D10E6D6F810E6E6F87
:10573000000EAEEC35F050E005EC35F002E0000E66
:1057400001D0010EE8B09182E8B046D09192000CF1
:105750000B0EE66EE66AC50EE66E810EE66E000E74
:10576000E66EB3EC35F004E10401010E166F000C97
:10577000080EE66EE66ABC0EE66E810EE66E000E60
:10578000E66EB3EC35F028E10801B80E6D6F810EBE
:105790006E6F000E9FEC34F0F3CFE9FFF4CFEAFF19
:1057A000EF50370A18E0010A14E0030A10E0010A7A
:1057B0000CE0070A08E0010A04E0030A0DE1917217
:1057C000000C9174000C9176000C9178000C917A89
:1057D000000C917C000C917E000C140E0001FA6FFD
:1057E000FB6B0001A10EF86F0C0EEEEC34F0B9EC7F
:1057F00035F002E127EF2CF00A0EE66EE66AAD0EF8
:10580000E66E810EE66E000EE66EB9EC35F002E152
:1058100040EF2EF0120EE66EE66A9A0EE66E810EEC
:10582000E66E000EE66EB9EC35F002E196EF2CF074
:105830008A0EE66E810EE66E000EE66EA10EE66E34
:105840000C0E93EC34F002E109EF2FF0000C040190
:105850007E51010A0BE0010A68E1640E20EC35F08C
:10586000020801E1010C0401010E7E6F860EE66E56
:10587000810EE66E000E80EC35F006E10C011A0E8A
:10588000006F040E016F03D00C01006B016B640EFE
:105890000801766F776B00CC74F801CC75F837ECA3
:1058A00026F0020801E1010C0C010051011103E195
:1058B00004017E6B020C73EC35F039EC83F0E55299
:1058C000E5529AEC35F0200E1CEC35F019E2200E72
:1058D000E66EE66AE66E3C0EE66E080EE66E54EC88
:1058E00082F0DDEC35F073EC35F03C0EE66E080E20
:1058F000E66EFFEC82F0E552E552E552E5520AD041
:10590000200EE66EE66A73EC35F03C0EE66E080E8D
:105910000CEC35F06EEC91F07B0EE66E810EE66ECF
:10592000000EBEEC34F078EF35F0020CBFEC35F031
:10593000F3CF04F0F4CF05F0F3CFE6FFF4CFE6FFAA
:1059400086EC34F0EFCF80F2DDEC05F0E552E7CFE6
:1059500005F0E552E7CF04F00450F324006E055043
:10596000F420016E026A036A04010051005C0151D7
:105970000158025102580351035801E275D1BFEC9E
:1059800035F09AEC35F0026A036A04010051F35CC9
:105990000151F458025102580351035801E2010C1D
:1059A000330E0301F56FF66B0301000EF36F0C0E5F
:1059B000F46F0301060EEF6FF06BF16BF26BC4EC4A
:1059C0008FF00C012C9D61EC35F001E11FD1060E2A
:1059D00020EC35F0000901E047D15C0E0801766F3C
:1059E000776B0801200E746F040E756F37EC26F08C
:1059F000000901E039D1780EE66E810EE66E000EE8
:105A000080EC35F011E10701000E4C6F0C0EB0EC8C
:105A100034F001E129D100CC14FC01CC15FC02CCFE
:105A200016FC03CC17FCCFD7750EE66E810EE66E22
:105A3000000E80EC35F008E10701080E4C6F0C0EEB
:105A4000B0EC34F0C0E110D1710EE66E810EE66E5E
:105A5000000E80EC35F011E10701040E4C6F0C0EC6
:105A6000B0EC34F001E100D104CC18FC05CC19FCF9
:105A700006CC1AFC07CC1BFCA6D76C0EE66E810E7A
:105A8000E66E000E80EC35F008E107010C0E4C6F5D
:105A90000C0EB0EC34F097E1E7D0670EE66E810EA5
:105AA000E66E000E80EC35F009E10701100E4C6F38
