:020000040000fa
:080000000002040000000000f2
:020000040000fa
:100400004fff200000ff27000001880000000000cf
:100410000c00070020592a000100200011000700ed
:10042000000020000000e000020032000000020096
:10043000000000003e940200000000000040da00ce
:100440000000fe004440a900a04721000000e00099
:100450000300320000002000a00188004440a800f2
:100460000000060091018800800078000000eb0089
:1004700015003700e280400032a0b4009101ba00bc
:10048000e280400032a0b4009102ba00e280400055
:1004900032a0b4000002eb00472bde00f507b200eb
:1004a000602ce10004003a000059eb008301e900f0
:1004b000fdff3e00040037006128e100010032002a
:1004c0000082eb00040007001101ba000200e00006
:1004d000e8ff3a00000006003159ba008301e90044
:1004e0000c0032002159ba008301e90008003200f3
:1004f0000400e00003003a00e280400032a0b400b3
:10050000f5ff370011d9ba008301e900faff3a007c
:100510008100e800e180400032a0b4000000060045
:10052000020ab900001bb9000200b80081004200b5
:1005300081004300000006008001eb00020037004c
:1005400061f079008301e800828f5100fcff3a00de
:10055000000006008001eb00020037008171780086
:100560008301e800828f5100fcff3a000000060082
:1005700080007800010037000000e8001004e0006f
:10058000fdff3a0001005000000006008001eb0072
:1005900008003700e342780063c278008301e80076
:1005a00084cf5200030032000080eb0004003900c9
:1005b00010000500828f5100f6ff3a000000eb00aa
:1005c00000000600040037000204e0000a003200c8
:1005d0000000e8008100e80010417800914f5100d0
:1005e000f9ff32000081eb0010407800914f50007d
:1005f00004003900020037000001eb000100370061
:10060000120020000200780000000600800178003f
:100610000001780031407800005978000004e000c3
:10062000fcff3a000300780000000600ec8747005a
:10063000889fbe008a9fbe008c9fbe008e1f7800e0
:10064000f0b79f0081bf9f0082047800000478000b
:10065000010037000804e800184778000e00fb008e
:10066000b20007000000e000faff3a00d0c2b30079
:10067000804f57000500320000c0e900804f57004e
:100680000200320000477800010037000804e8004b
:100690000900e00045003500e18f540043003200be
:1006a00040022000808f540040003c000900e00020
:1006b0000e003400f08f54001a003a0000c3b3005b
:1006c000984f100016003a009840900080c7b30081
:1006d00080cf50000300320080c5b30080cf5000af
:1006e0000f003a000884e8000e003700a90020003f
:1006f00000c3b300984f10000a003a0098409000e1
:1007000080c7b30080cf5000040032008900200071
:1007100080c5b30080cf500002003a000884e80092
:10072000090120000805780000c3b300010037006c
:100730000a05e8009a4f1000fdff32008a05780094
:100740006066b8000e003700b0fc20000042520086
:10075000c4ef9f006149b9000c00be0070ff0700a4
:100760004fea97000401fb00cf91de008b05e80003
:10077000ccb79f00ddb79f0000064100818649008d
:100780001b00fb0071000700800078000901780061
:10079000b0fc200074000700000278000000e000b8
:1007a000e9ff3a008b0f540006003a000fb897009b
:1007b0000000e00029003200ffb097000108780037
:1007c000260037008a80550060fa200060c07c0057
:1007d0000000fb0000805000160033004240a900da
:1007e0000f003c004fe997000200fb00cf80de00c5
:1007f0000000560081805e00800f5600818f5e00f1
:10080000070039006149b900a30107004fb1970003
:10081000dfb19700820f5000838f5800050032002f
:1008200020022000907f88000086eb008086eb008d
:1008300005003700d0c2b300804f570002003a00d5
:1008400060061600e0861e008fb997000300e000e6
:10085000030032008b097800010037006066b800a1
:100860000c00be004f0778004f06be004f05be00cb
:100870004f04be00cf00b1000000060080017800e8
:1008800000017800010037000201e8001204e000d6
:10089000fdff3a00020037000201e8008100e80095
:1008a00011407800004978000004e000faff3a00a7
:1008b0000300780000000600040037000204e00096
:1008c00001003a00000005000000e8001041780037
:1008d000814f5100f9ff3a0000000600889fbe00da
:1008e00081047800114478000804e00009003a000f
:1008f0000c0037008001780009017800d2407800b0
:100900000104e00007003200d3cf1000fbff3200eb
:100910000000e8008800fb00e7ff07000000e0009f
:10092000f4ff3a004f04be00000006006900e10039
:10093000040035006d00e100030034000002b10046
:100940000100320000000500100005008000780062
:100950001104b100030035009101b10001003c0019
:100960000050a000000006008001eb0004003700ea
:100970008301e80090cf1000040032000000e8007e
:10098000828f5100faff3a000000eb0000000600e1
:10099000807f80000000e0000100320000000100c4
:1009a00020ff2000000006003b0107000400be00fd
:1009b00000000600889fbe008a9fbe008c1f780042
:1009c0000205be000004be000006eb00e00f500070
:1009d000e08f5800e00f5900e08f590007003d00fc
:1009e0006000b8006011b800080450008984580005
:1009f0000a0559008b8559001c002000e00f5200a9
:100a0000e08f5a00e00f5b00e08f5b0002003d00ca
:100a10000f0007000c00a2000800be000a01be0083
:100a20002d0107000203be000002be000c00e00022
:100a300001003200060007000400be000601be00ef
:100a40004f0678004f05be004f04be0000000600b0
:100a50006000b8006011b8000402500085825800a0
:100a6000060359008783590000000600881f78009c
:100a7000000478005001be004000be0004004000a9
:100a8000858048000601490087814900009cbe001e
:100a90000294be000400e1000588e1000690e10038
:100aa0000798e10002003100680044001008e800e7
:100ab0004f04780000000600f4874700889fbe00be
:100ac0008a9fbe008c9fbe008e1f78000205be006c
:100ad0000004be00d4b79f00e5b79f00f6b79f00a3
:100ae00087bf9f000000eb00c0b79f00b0b79f001a
:100af000a0b79f0090b79f0080b79f000d04200013
:100b0000bfb097004fb09700000140000000e00028
:100b10000f003d004f08de0000007100c0b79f00cd
:100b20009e00070001003d0012002000a100070008
:100b300001003d0012002000a6000700b1000700e0
:100b4000b60007000f004000c8ff07002200370072
:100b50004f08de0000067100ccb79f008f00070031
:100b600001003d00120020009200070001003d003e
:100b70001200200097000700a20007000fb29700a4
:100b80009fb297002fb39700bfb39700a90007004b
:100b90000000520081805a0002015b0083815b00eb
:100ba00080b79f0091b79f00a2b79f00b3b79f0087
:100bb0000007eb009f0007000020e10001a8e10012
:100bc00002b0e10003b8e100010031001e00200086
:100bd0000e005600c0b79f004fb297000400e0001f
:100be0000700350010002000010020006011b8004f
:100bf00008047000898470000a0571008b857100fb
:100c00008d06e900beff3a000400e00003003d004d
:100c1000820007000f00400094ff07004fa89700d4
:100c20000000e00004003a000fb497009fb4970062
:100c30002fb59700bfb59700940007004f077800c5
:100c40004f06be004f05be004f04be004f01b1006d
:100c500000000600881f780018002000881f780018
:100c600095ff07008f87e9004f0478000000060019
:100c7000801feb0090ff07008f87e900000006004f
:100c8000889fbe008a9fbe008c1f78006e00070000
:100c900007003d0073000700e00f5b00e08f5b0082
:100ca00007003d00320007000006eb00040037009b
:100cb0003400070002003d002a0007001c0020004d
:100cc00072000700e3ff07000203be000002be003f
:100cd0000c00e00001003200220007000400be000a
:100ce0000601be004f0678004f05be004f04be004f
:100cf00000000600889fbe008a9fbe008c1f7800ff
:100d00005100070005003d0056000700e00f5b00a2
:100d1000e08f5b0006003d0004003700190007006b
:100d200003003d006000b8006011b800100007002b
:100d300056000700ceff07000203be000002be00ff
:100d40000c00e00001003200060007000400be00b5
:100d50000601be004f0678004f05be004f04be00de
:100d6000000006006000b8006011b8000000370005
:100d700004025000858258000603590087835900f9
:100d8000000006000006eb00e00f5200e08f5a0062
:100d9000e00f5b00e08f5b00000006000180400078
:100da00090b79f000001eb008fb097000100e000ba
:100db000000006000200700090b79f000180400014
:100dc00080b79f000001eb00ffa897000100e00042
:100dd000000006000200700080b79f000180400004
:100de0006faa9700cf20de0001007000f0af9f00d7
:100df00004024200250007004f18de0000027200c6
:100e000000000600e4af9f000804440089844c0001
:100e10000a054d008b854d00000006003fb297008b
:100e2000cfb297005fb39700efb3970000fe2f009b
:100e3000000006003fb09700cfb097005fb1970069
:100e4000efb19700000006000205be000004be00de
:100e5000e00f5000e08f5800e00f5900e08f59007c
:100e6000000006006000b8006011b80008045000df
:100e7000898458000a0559008b8559001c00200000
:100e8000e00f5200e08f5a00000006000800be008c
:100e90000a01be00000006006022b8000602200021
:100ea0000000d0008180d2000482d2008582d2006e
:100eb0000000a0000202520083825a0003003100a9
:100ec0000202420083824a000000a1000603e900fa
:100ed000f3ff3a0000000600889fbe008a9fbe0014
:100ee0008c9fbe000404b8000506b80089044600c3
:100ef00060854e000606b8000a054600e0854e00f3
:100f00000706b8008b054600040eb80089044600a9
:100f10000a854e00e0854d00050eb8000a05460022
:100f20008b854e00060eb8008b0546000416b800ef
:100f30000a0546008b854e000516b8008b05460055
:100f4000041eb8008b0546000800be000a01be0062
:100f50004f06be004f05be004f04be000000060055
:020000040000fa
:0200000401f009
:04000c00fbff0000f6
:020000040000fa
:0200000401f009
:04001000fdff0000f0
:020000040000fa
:0200000401f009
:040014007fff00006a
:020000040000fa
:10000800cabb0000cabb00008093000086930000b2
:10001800cabb0000cabb0000cabb0000cabb0000c4
:10002800cabb0000cabb0000cabb00005cb9000024
:10003800cabb0000cabb0000cabb0000cabb0000a4
:10004800cabb0000cabb0000cabb0000cabb000094
:10005800cabb0000cabb0000cabb0000cabb000084
:10006800cabb0000cabb0000cabb0000cabb000074
:10007800cabb0000cabb0000cabb0000cabb000064
:10008800cabb0000cabb0000cabb0000cabb000054
:10009800cabb0000cabb00002cb0000060b0000062
:1000a800cabb0000cabb0000cabb0000cabb000034
:1000b800cabb0000cabb0000cabb0000cabb000024
:1000c800cabb0000cabb0000cabb0000cabb000014
:1000d800cabb0000cabb0000cabb0000cabb000004
:1000e800cabb0000cabb0000cabb0000cabb0000f4
:1000f800cabb0000cabb0000cabb0000cabb0000e4
:10010800cabb0000cabb0000cabb0000cabb0000d3
:10011800cabb0000cabb0000cabb0000cabb0000c3
:10012800cabb0000cabb0000cabb0000cabb0000b3
:10013800cabb0000cabb0000cabb0000cabb0000a3
:10014800cabb0000cabb0000cabb0000cabb000093
:10015800cabb0000cabb0000cabb0000cabb000083
:10016800cabb0000cabb0000cabb0000cabb000073
:10017800cabb0000cabb0000cabb0000cabb000063
:10018800cabb0000cabb0000cabb0000cabb000053
:10019800cabb0000cabb0000cabb0000cabb000043
:1001a800cabb0000cabb0000cabb0000cabb000033
:1001b800cabb0000cabb0000cabb0000cabb000023
:1001c800cabb0000cabb0000cabb0000cabb000013
:1001d800cabb0000cabb0000cabb0000cabb000003
:1001e800cabb0000cabb0000cabb0000cabb0000f3
:0801f800cabb0000cabb0000f5
:020000040000fa
:10020800cabb0000cabb00008093000086930000b0
:10021800cabb0000cabb0000cabb0000cabb0000c2
:10022800cabb0000cabb0000cabb00005cb9000022
:10023800cabb0000cabb0000cabb0000cabb0000a2
:10024800cabb0000cabb0000cabb0000cabb000092
:10025800cabb0000cabb0000cabb0000cabb000082
:10026800cabb0000cabb0000cabb0000cabb000072
:10027800cabb0000cabb0000cabb0000cabb000062
:10028800cabb0000cabb0000cabb0000cabb000052
:10029800cabb0000cabb00002cb0000060b0000060
:1002a800cabb0000cabb0000cabb0000cabb000032
:1002b800cabb0000cabb0000cabb0000cabb000022
:1002c800cabb0000cabb0000cabb0000cabb000012
:1002d800cabb0000cabb0000cabb0000cabb000002
:1002e800cabb0000cabb0000cabb0000cabb0000f2
:1002f800cabb0000cabb0000cabb0000cabb0000e2
:10030800cabb0000cabb0000cabb0000cabb0000d1
:10031800cabb0000cabb0000cabb0000cabb0000c1
:10032800cabb0000cabb0000cabb0000cabb0000b1
:10033800cabb0000cabb0000cabb0000cabb0000a1
:10034800cabb0000cabb0000cabb0000cabb000091
:10035800cabb0000cabb0000cabb0000cabb000081
:10036800cabb0000cabb0000cabb0000cabb000071
:10037800cabb0000cabb0000cabb0000cabb000061
:10038800cabb0000cabb0000cabb0000cabb000051
:10039800cabb0000cabb0000cabb0000cabb000041
:1003a800cabb0000cabb0000cabb0000cabb000031
:1003b800cabb0000cabb0000cabb0000cabb000021
:1003c800cabb0000cabb0000cabb0000cabb000011
:1003d800cabb0000cabb0000cabb0000cabb000001
:1003e800cabb0000cabb0000cabb0000cabb0000f1
:0803f800cabb0000cabb0000f3
:020000040000fa
:100f600074650000787400002f7000006c61000050
:100f7000696e00000074000065780000742f0000a6
:100f8000687400006d6c000000740000657800005b
:100f9000742f0000786d00006c0000007465000084
:100fa000787400002f630000737300000069000074
:100fb0006d610000676500002f6700006966000032
:100fc000006900006d610000676500002f7000007f
:100fd0006e670000006900006d6100006765000039
:100fe0002f6a00007065000067000000617000005b
:100ff000706c00006963000061740000696f00009c
:101000006e2f00006a610000766100002d760000fe
:101010006d00000061750000646900006f2f000022
:10102000782d000077610000766500000000000068
:10103000b0870000bb870000bb870000bb870000b3
:10104000c5870000ce870000d7870000e187000039
:10105000eb870000f68700000a8800001788000070
:101060000d0a00000048000054540000502f0000fa
:10107000312e00003120000032300000302000000e
:101080004f4b00000d0a0000436f00006e6e000021
:1010900065630000746900006f6e00003a20000074
:1010a000636c00006f730000650d00000a00000013
:1010b00048540000545000002f3100002e31000031
:1010c0002034000030300000204200006164000045
:1010d0002052000065710000756500007374000007
:1010e0000d0a0000436f00006e6e00006563000093
:1010f000746900006f6e00003a200000636c00000d
:101100006f730000650d00000a0d00000a34000036
:1011100030300000204200006164000020520000d6
:101120006571000075650000737400003a200000ce
:10113000636100006e2700007420000068610000f9
:101140006e6400006c650000204300006f6e0000bc
:10115000746500006e7400002d4c0000656e000088
:1011600067740000680d00000a0000004854000089
:10117000545000002f3100002e31000020340000b8
:1011800030310000205500006e61000075740000d1
:10119000686f0000726900007a650000640d00004d
:1011a0000a570000575700002d41000075740000d9
:1011b000686500006e7400006963000061740000df
:1011c000653a00002042000061730000696300007e
:1011d00020720000656100006c6d00003d2200007f
:1011e000507200006f7400006563000074650000b9
:1011f000642200000d0a0000436f00006e6e0000c4
:1012000065630000746900006f6e00003a20000002
:10121000636c00006f730000650d00000a0d000094
:101220000a34000030310000205500006e610000db
:1012300075740000686f0000726900007a65000034
:10124000643a0000205000006173000073770000d2
:101250006f7200006420000072650000717500006c
:1012600069720000656400000d0a0000004800007b
:1012700054540000502f0000312e00003120000097
:1012800034300000342000004e6f00007420000055
:10129000666f0000756e0000640d00000a430000d8
:1012a0006f6e00006e65000063740000696f0000df
:1012b0006e3a0000206300006c6f00007365000050
:1012c0000d0a0000436f00006e740000656e0000a0
:1012d000742d000054790000706500003a20000071
:1012e00074650000787400002f680000746d0000c1
:1012f0006c0d00000a0d00000a34000030340000bc
:101300003a200000466900006c650000206e000075
:101310006f740000206600006f7500006e640000ae
:101320003c620000723e0000557300006520000022
:101330003c6100002068000072650000663d00000e
:10134000222f00006d7000006673000075700000b1
:101350006c6f000061640000223e00004d500000f0
:101360004653000020550000706c00006f610000c3
:10137000643c00002f6100003e200000746f0000fc
:1013800020700000726f000067720000616d000045
:101390002077000065620000207000006167000097
:1013a000657300000d0a000000480000545400005e
:1013b000502f0000312e0000312000003431000099
:1013c0003420000052650000717500006573000054
:1013d000742d00005552000049200000546f000099
:1013e0006f2000004c6f00006e6700000d0a0000c7
:1013f000436f00006e6e00006563000074690000ba
:101400006f6e00003a200000636c00006f730000f4
:10141000650d00000a0d00000a34000031340000a0
:1014200020520000657100007565000073740000b3
:101430002d55000052490000205400006f6f00003d
:10144000204c00006f6e0000673a00002042000050
:101450007566000066650000722000006f7600006f
:1014600065720000666c00006f7700002064000069
:10147000657400006563000074650000640d000081
:101480000a00000048540000545000002f310000b2
:101490002e310000203500003030000020490000cf
:1014a0006e740000657200006e6100006c20000028
:1014b0005365000072760000657200002045000050
:1014c000727200006f7200000d0a0000436f00008e
:1014d0006e6e000065630000746900006f6e0000ae
:1014e0003a200000636c00006f730000650d00007f
:1014f0000a0d00000a3500003030000020490000cd
:101500006e740000657200006e6100006c200000c7
:1015100053650000727600006572000020450000ef
:10152000727200006f7200003a20000045780000df
:1015300070650000637400006564000020640000b2
:1015400061740000612000006e6f000074200000d4
:101550007072000065730000656e0000740d00007d
:101560000a00000048540000545000002f310000d1
:101570002e3100002035000030310000204e0000e8
:101580006f740000204900006d7000006c65000061
:101590006d6500006e740000656400000d0a0000b7
:1015a000436f00006e6e0000656300007469000008
:1015b0006f6e00003a200000636c00006f73000043
:1015c000650d00000a0d00000a35000030310000f2
:1015d000204e00006f740000204900006d70000074
:1015e0006c6500006d6500006e74000065640000ad
:1015f0003a2000004f6e00006c7900002047000088
:1016000045540000206100006e640000205000007e
:101610004f530000542000007375000070700000ec
:101620006f72000074650000640d00000a00000085
:1016300048540000545000002f3100002e310000ab
:101640002032000030300000204f00004b0d000021
:101650000a4300006f6e00006e65000063740000b6
:10166000696f00006e3a0000206300006c6f00009c
:10167000736500000d0a0000436f00006e740000e7
:10168000656e0000742d0000547900007065000044
:101690003a20000074650000787400002f68000094
:1016a000746d00006c0d00000a0d00000a3c000083
:1016b000687400006d6c00003e3c0000626f00002a
:1016c0006479000020730000747900006c650000ec
:1016d0003d2200006d61000072670000696e00002d
:1016e0003a3100003030000070780000223e0000e7
:1016f0003c6600006f7200006d2000006d65000008
:10170000746800006f6400003d7000006f7300009b
:101710007420000061630000746900006f6e0000b7
:101720003d2200002f6d0000706600007375000000
:10173000706c00006f6100006422000020650000f2
:101740006e63000074790000706500003d220000a7
:101750006d7500006c74000069700000617200001b
:10176000742f0000666f0000726d00002d64000091
:1017700061740000612200003e3c0000623e0000f7
:101780004d50000046530000204900006d610000ec
:101790006765000020550000706c00006f6100005c
:1017a000643c00002f6200003e3c0000703e0000e0
:1017b0003c6900006e700000757400002074000029
:1017c00079700000653d0000666900006c650000ee
:1017d000206e0000616d0000653d00006920000082
:1017e000736900007a6500003d340000303e00005f
:1017f000202600006e620000737000003b20000095
:101800003c6900006e7000007574000020740000d8
:1018100079700000653d000073750000626d000086
:101820006974000020760000616c0000756500009e
:101830003d220000557000006c6f000061640000e4
:10184000223e00003c2f0000666f0000726d000019
:101850003e3c00002f6200006f640000793e0000f3
:101860003c2f0000687400006d6c00003e0000001a
:1018700048540000545000002f3100002e31000069
:101880002032000030300000204f00004b0d0000df
:101890000a4300006f6e00006e6500006374000074
:1018a000696f00006e3a0000206300006c6f00005a
:1018b000736500000d0a0000436f00006e740000a5
:1018c000656e0000742d0000547900007065000002
:1018d0003a20000074650000787400002f68000052
:1018e000746d00006c0d00000a0d00000a3c000041
:1018f000687400006d6c00003e3c0000626f0000e8
:101900006479000020730000747900006c650000a9
:101910003d2200006d61000072670000696e0000ea
:101920003a3100003030000070780000223e0000a4
:101930003c6200003e4d0000504600005320000075
:1019400055700000646100007465000020530000c1
:101950007563000063650000737300006675000026
:101960006c3c00002f6200003e3c0000703e000016
:101970003c6100002068000072650000663d0000c8
:10198000222f0000223e0000536900007465000011
:10199000206d0000616900006e2000007061000091
:1019a000676500003c2f0000613e00003c2f0000f6
:1019b000626f0000647900003e3c00002f68000068
:1019c000746d00006c3e000000480000545400009c
:1019d000502f0000312e0000312000003530000073
:1019e00030200000496e000074650000726e000037
:1019f000616c0000205300006572000076650000f5
:101a00007220000045720000726f0000720d00002d
:101a10000a4300006f6e00006e65000063740000f2
:101a2000696f00006e3a0000206300006c6f0000d8
:101a3000736500000d0a0000436f00006e74000023
:101a4000656e0000742d0000547900007065000080
:101a50003a20000074650000787400002f680000d0
:101a6000746d00006c0d00000a0d00000a3c0000bf
:101a7000687400006d6c00003e3c0000626f000066
:101a80006479000020730000747900006c65000028
:101a90003d2200006d61000072670000696e000069
:101aa0003a3100003030000070780000223e000023
:101ab0003c6200003e4d00005046000053200000f4
:101ac000496d00006167000065200000436f000061
:101ad0007272000075700000742000006f720000c8
:101ae00020570000726f00006e6700002056000053
:101af00065720000736900006f6e00003c2f0000eb
:101b0000623e00003c7000003e3c0000612000008e
:101b100068720000656600003d2200002f6d000025
:101b20007066000073750000706c00006f6100004b
:101b3000642200003e540000727900002061000021
:101b400067610000696e00003f3c00002f610000eb
:101b50003e3c00002f6200006f640000793e0000f0
:101b60003c2f0000687400006d6c00003e00000017
:101b700048540000545000002f3100002e31000066
:101b80002033000030320000204600006f75000056
:101b90006e6400000d0a0000436f00006e6e0000ce
:101ba00065630000746900006f6e00003a20000059
:101bb000636c00006f730000650d00000a4c0000ac
:101bc0006f63000061740000696f00006e3a0000ee
:101bd0002000000048540000545000002f31000045
:101be0002e31000020340000303300002046000079
:101bf0006f7200006269000064640000656e00009e
:101c00000d0a0000436f00006e6e00006563000067
:101c1000746900006f6e00003a200000636c0000e1
:101c20006f730000650d00000a0d00000a3400000b
:101c300030330000204600006f720000626900002f
:101c400064640000656e00003a20000053530000f9
:101c50004c200000526500007175000069720000a0
:101c600065640000202d00002075000073650000f1
:101c70002048000054540000505300000d0a00009a
:101c800000000000338800003388000058880000fe
:101c9000b688000037890000d5890000428a00001c
:101ca000b28a0000188b000017880000388c0000f2
:101cb000e58c0000b88d0000ea8d0000436f000045
:101cc0006f6b0000696500003a000000417500007c
:101cd000746800006f720000697a0000617400008f
:101ce000696f00006e3a0000004300006f6e000054
:101cf000746500006e7400002d4c0000656e0000dd
:101d000067740000683a0000000000005e8e00006a
:101d1000668e0000758e000074780000740000006c
:101d2000687400006d000000687400006d6c0000b5
:101d30000063000067690000007800006d6c00001f
:101d40000063000073730000006700006966000014
:101d5000007000006e670000006a000070670000fd
:101d6000006300006c6100000077000061760000f5
:101d70000000000000000000000000008c8e000049
:101d8000908e0000948e0000998e00009d8e0000c1
:101d9000a18e0000a58e0000a98e0000ad8e00006f
:101da000b18e0000b58e0000b98e0000666f000095
:101db0006f740000657200002e6900006e63000001
:101dc000006800006561000064650000722e00007c
:101dd000696e0000630000002144000045460000d9
:101de0000047000045540000005000004f53000021
:101df000540000006d7000006673000075700000f4
:101e00006c6f000061640000006900006e640000f7
:101e1000657800002e680000746d0000000d000061
:101e20000a0d00000a0000000d0a00000d0a000063
:101e30004d5000004653000002010000000d00005c
:101e40000a0d00000a330000303400002052000068
:101e5000656400006972000065630000743a000068
:101e600020000000436f00006e740000656e0000eb
:101e7000742d000054790000706500003a200000c5
:101e8000004300006f6e0000746500006e74000077
:101e90002d4500006e6300006f640000696e000055
:101ea000673a0000206700007a690000700d0000aa
:101eb0000a0000004361000063680000652d000017
:101ec000436f00006e740000726f00006c3a0000f7
:101ed000200000006e6f00002d63000061630000b1
:101ee00068650000006d0000617800002d61000051
:101ef000676500003d000000363000003000000043
:101f000053650000742d0000436f00006f6b0000ec
:101f1000696500003a20000000000000646e0000c7
:101f20000075000070000000707200006f74000007
:101f30006563000074000000736e00006d700000a7
:101f400000610000646d0000696e0000006d00001b
:101f500069630000726f0000636800006970000030
:101f6000006600006f7200006d7300002e680000b4
:101f7000746d0000006c0000656400003400000017
:101f80006c65000064330000006c000065640000b4
:101f9000320000006c650000643100000063000046
:101fa0006f6f00006b690000657300002e68000011
:101fb000746d0000006c000065640000732e00006a
:101fc00063670000690000006c65000064000000a9
:101fd0006c630000640000002f6600006f72000058
:101fe0006d7300002e680000746d00000075000025
:101ff000706c00006f610000642e000068740000c7
:102000006d0000000d0a0000000d00000a0d000028
:102010000a000000707200006f7400006563000029
:10202000742f0000636f00006e6600006967000097
:102030002e680000746d0000006900007000000050
:102040006777000000730000756200000064000004
:102050006e73000031000000646e000073320000f7
:10206000006d000061630000006800006f730000f5
:10207000740000006468000063700000002f00001e
:10208000707200006f74000065630000742f000020
:1020900072650000626f00006f7400002e6800001f
:1020a000746d00003f0000002f700000726f000090
:1020b00074650000637400002f6300006f6e000001
:1020c00066690000672e0000687400006d00000063
:1020d000656d0000616900006c2f0000696e0000f2
:1020e00064650000782e0000687400006d00000038
:1020f0004d690000637200006f63000068690000b2
:102100007020000054430000502f00004950000090
:102110002053000074610000636b00002053000036
:102120007461000074750000732000005570000099
:10213000646100007465000000220000534d00003f
:1021400054500000205300006572000076690000c2
:1021500063650000222000003c6d00006368000001
:10216000706200006f610000726400004070000047
:10217000696300007361000072650000676f000012
:102180006f6400002e6300006f6d00003e000000d1
:102190004d4900004d4500002d760000657200009d
:1021a000736900006f6e00003a200000312e0000bd
:1021b000300d00000a4300006f6e000074650000df
:1021c0006e7400002d74000079700000653a000004
:1021d000206d0000756c00007469000070610000e3
:1021e000727400002f6d00006978000065640000c3
:1021f0003b200000626f0000756e0000646100000b
:10220000727900003d220000667200006f6e0000cf
:102210007469000065720000220d00000a000000d1
:1022200073650000727600006572000000700000a7
:102230006f7200007400000075730000657200008a
:10224000007000006173000073000000746f0000f4
:10225000006d000073670000005400006869000012
:10226000732000006973000020610000206d0000f1
:10227000756c0000746900002d7000006172000030
:10228000742000006d65000073730000616700003a
:1022900065200000696e0000204d0000494d0000df
:1022a00045200000666f0000726d00006174000040
:1022b0002e0d00000a0000002d2d000066720000a7
:1022c0006f6e000074690000657200000d0a000066
:1022d000436f00006e740000656e0000742d0000f6
:1022e00074790000706500003a20000074650000f9
:1022f000787400002f7000006c610000696e0000af
:102300000d0a00000d0a0000000d00000a2d00005b
:102310002d660000726f00006e7400006965000099
:10232000720d00000a4300006f6e0000746500002b
:102330006e7400002d74000079700000653a000092
:102340002074000065780000742f000063730000a3
:10235000760d00000a4300006f6e000074650000f7
:102360006e7400002d44000069730000706f00005f
:1023700073690000746900006f6e00003a2000006d
:102380006174000074610000636800006d65000006
:102390006e7400003b200000666900006c65000060
:1023a0006e6100006d6500003d2200007374000046
:1023b00061740000757300002e63000073760000e6
:1023c000220d00000a0d00000a0000005359000011
:1023d00053540000454d00002053000054410000bc
:1023e00054550000530d00000a0000004275000023
:1023f000747400006f6e0000733a00002c0000003f
:102400004c450000447300003a2c000000500000ce
:102410006f7400003a2c0000002d00002d660000b3
:10242000726f00006e74000069650000722d00007c
:102430002d0d00000a0000002f6500006d610000f6
:10244000696c00002f6900006e6400006578000070
:102450002e680000746d0000004e00006f760000d2
:102460002020000034200000323000003130000015
:1024700020310000323a0000353800003a310000c7
:1024800039000000763500002e33000031000000d6
:10249000534500004c4500004354000045440000f3
:1024a000003c000062720000202f00003e0000008f
:1024b000266e000062730000703b0000006e00009a
:1024c000616d000065000000486500006c6c000054
:1024d0006f2c0000200000006e6f000074200000d0
:1024e00073650000740000003c6200003e5500006f
:1024f000706c00006f61000064200000612000002b
:10250000466900006c6500003c2f0000623e000040
:10251000003c0000623e0000557000006c6f00003f
:10252000616400006564000020460000696c0000e2
:1025300065270000732000004d4400003520000096
:1025400077610000733a00003c2f0000623e0000fb
:102550003c620000722000002f3e0000006300007b
:1025600068650000636b00006564000000660000a1
:10257000616900006c0000005468000065200000e4
:10258000447900006e6100006d6900006320000066
:10259000444e000053200000436c000069650000b9
:1025a0006e74000020690000732000006e6f000050
:1025b00074200000656e0000616200006c65000020
:1025c000642e0000006e00006f6e000065000000c9
:1025d000626c00006f6300006b0000000d0a0000d9
:1025e0000d0a00000d4d000069630000726f0000cd
:1025f0006368000069700000205400004350000030
:102600002f49000050200000436f00006e6600005c
:102610006967000020410000707000006c690000d4
:1026200063610000746900006f6e000020280000e4
:10263000763500002e330000312c0000204e0000c3
:102640006f760000202000003420000032300000af
:1026500031300000290d00000a0d00000a000000c2
:10266000093100003a20000043680000616e00005c
:10267000676500002073000065720000696100005a
:102680006c2000006e7500006d6200006572000035
:102690003a090000090000000d0a0000093200009c
:1026a0003a20000043680000616e0000676500008a
:1026b000206800006f730000742000006e6100004d
:1026c0006d6500003a09000009090000000d0000d6
:1026d0000a090000333a000020430000686100004e
:1026e0006e670000652000007374000061740000d4
:1026f0006963000020490000502000006164000070
:102700006472000065730000733a0000090900005c
:10271000000d00000a090000343a000020430000c8
:10272000686100006e67000065200000737400009f
:10273000617400006963000020670000617400009c
:10274000657700006179000020610000646400008a
:1027500072650000737300003a090000000d00006c
:102760000a090000353a00002043000068610000bb
:102770006e67000065200000737400006174000043
:102780006963000020730000756200006e65000040
:10279000742000006d610000736b00003a090000b6
:1027a000090000000d0a0000093600003a20000070
:1027b00043680000616e0000676500002073000040
:1027c00074610000746900006320000070720000f2
:1027d000696d00006172000079200000444e000025
:1027e00053200000736500007276000065720000df
:1027f0003a090000000d00000a090000373a000005
:1028000020430000686100006e6700006520000042
:10281000737400006174000069630000207300009d
:10282000656300006f6e0000646100007279000053
:10283000204400004e530000207300006572000029
:1028400076650000723a0000090000000d0a0000e1
:10285000093800003a2000000044000069730000bd
:10286000004500006e000000616200006c65000021
:1028700020440000484300005020000026200000b3
:1028800049500000204700006c650000616e0000a8
:10289000696e0000673a0000090900004448000022
:1028a00043500000206900007320000063750000a1
:1028b00072720000656e0000746c000079200000e8
:1028c000006500006e610000626c0000656400003d
:1028d0000064000069730000616200006c65000024
:1028e000640000000d0a0000093900003a200000d1
:1028f000446f0000776e00006c6f000061640000a0
:10290000204d00005046000053200000696d00007b
:1029100061670000652e0000000d00000a0900003c
:10292000303a00002053000061760000652000006e
:102930002620000051750000697400002e00000080
:102940000d0a0000456e0000746500007220000052
:10295000612000006d6500006e75000020630000be
:10296000686f000069630000653a00002000000005
:102970000d0a0000004e0000657700002073000083
:1029800065740000746900006e6700003a20000062
:10299000004900006e760000616c00006964000070
:1029a000206900006e700000757400002e0d00009c
:1029b0000a0000005365000074740000696e000096
:1029c00067730000207300006176000065640000fa
:1029d0002e0d00000a0000000d0a00000d0a000084
:1029e000476f00006f6400006279000065210000fd
:1029f0000d0a000000200000202000002020000020
:102a00002020000020200000200000000d0a00000f
:102a1000534e00005450000020540000696d000027
:102a2000653a0000202000002020000028640000fb
:102a300069730000616200006c6500006429000099
:102a40000d0a0000416e0000616c00006f6700001d
:102a50003a2000002020000020200000202000005c
:102a60002020000020200000202000003130000045
:102a7000323300000d0a000042750000747400003b
:102a80006f6e0000733a000020200000202000003c
:102a90002020000020200000203300002032000011
:102aa00020310000203000000d0a00004c450000dd
:102ab000447300003a20000020200000203700006e
:102ac00020360000203500002034000020330000b4
:102ad000203200002031000020300000000d0000f6
:102ae0000a4c00006f67000067650000642000006a
:102af000696e0000207300007563000063650000cc
:102b000073730000667500006c6c0000790d0000a6
:102b10000a0d00000a0d00000a5000007265000056
:102b2000737300002027000071270000207400004c
:102b30006f20000071750000697400000d0a00002c
:102b4000000d00000a41000063630000657300008f
:102b500073200000646500006e6900006564000079
:102b60000d0a00000d0a0000005000006173000013
:102b7000737700006f720000643a000020ff0000cd
:102b8000fd2d0000001b00005b3200004a1b00000e
:102b90005b330000316d00001b5b0000316d0000f5
:102ba0004d690000637200006f63000068690000f7
:102bb00070200000546500006c6e00006574000019
:102bc000205300006572000076650000722000004e
:102bd000312e0000311b00005b3000006d0d000045
:102be0000a280000666f0000722000007468000070
:102bf0006973000020640000656d00006f2c000008
:102c0000207400007970000065200000276100003a
:102c1000646d0000696e000027200000666f0000f0
:102c20007220000074680000652000006c6f0000d6
:102c3000676900006e200000616e000064200000e3
:102c4000276d000069630000726f00006368000078
:102c50006970000027200000666f000072200000ed
:102c6000746800006520000070610000737300004c
:102c7000776f0000726400002e2900000d0a00002a
:102c80004c6f0000676900006e3a000020000000f1
:102c90000d0a0000546f00006f2000006d750000e9
:102ca000636800002064000061740000612e000071
:102cb0000d0a000000610000646d0000696e0000f4
:102cc000005400006f6f0000206d0000756300006d
:102cd0006820000064610000746100002e0d000097
:102ce0000a0000006d690000637200006f6300005d
:102cf00068690000700000001b5b0000316d00007f
:102d0000001b00005b310000303b0000313500004b
:102d1000660000001b5b0000313100003b32000008
:102d200031660000001b00005b310000323b0000f8
:102d300031380000660000001b5b000031330000ea
:102d40003b31000030660000001b00005b310000da
:102d5000343b00003166000000000000070c00005a
:102d600011160000070c000011160000070c0000ef
:102d700011160000070c00001116000005090000e4
:102d80000e140000050900000e14000005090000e3
:102d90000e140000050900000e140000040b0000d2
:102da00010170000040b000010170000040b0000b7
:102db00010170000040b000010170000060a0000a6
:102dc0000f150000060a00000f150000060a00009b
:102dd0000f150000060a00000f15000078a400007f
:102de0006ad7000056b70000c7e80000db7000009b
:102df00020240000eece0000bdc10000af0f000097
:102e00007cf500002ac6000087470000134600003a
:102e100030a800000195000046fd0000d898000091
:102e200080690000aff70000448b0000b15b000038
:102e3000ffff0000bed700005c89000022110000e7
:102e4000906b00009371000098fd00008e4300001d
:102e500079a6000021080000b449000062250000a6
:102e60001ef6000040b3000040c00000515a0000b0
:102e70005e260000aac70000b6e900005d10000051
:102e80002fd60000531400004402000081e6000029
:102e9000a1d80000c8fb0000d3e70000e6cd000089
:102ea000e1210000d607000037c30000870d0000b5
:102eb000d5f40000ed1400005a45000005e90000bb
:102ec000e3a90000f8a30000effc0000d902000015
:102ed0006f6700008a4c00002a8d00004239000014
:102ee000faff000081f600007187000022610000f7
:102ef0009d6d00000c380000e5fd000044ea000074
:102f0000bea40000a9cf0000de4b0000604b000013
:102f1000bbf6000070bc0000bfbe0000c67e000013
:102f20009b280000fa270000a1ea0000853000007d
:102f3000efd40000051d00008804000039d0000017
:102f4000d4d90000e5990000dbe60000f87c000021
:102f5000a21f000065560000acc40000442200001f
:102f600029f4000097ff00002a430000a723000077
:102f700094ab000039a0000093fc0000c35900008e
:102f80005b65000092cc00000c8f00007df4000017
:102f9000efff0000d15d0000848500004f7e00003f
:102fa000a86f0000e0e600002cfe000014430000c3
:102fb00001a30000a1110000084e0000827e000065
:102fc00053f7000035f200003abd0000bbd200000c
:102fd000d72a000091d3000086eb0000777700002d
:102fe000772e0000676f00006f6700006c650000bf
:102ff0002e6300006f6d0000004300006f7500003d
:103000006c640000206e00006f74000020720000ed
:10301000657300006f6c00007665000020530000af
:103020006572000076650000724e0000616d000060
:10303000655b00005d200000746f00002049000007
:10304000502000006164000064720000657300009d
:10305000732e00000d0a0000000d00000a0d000094
:103060000a4300006f6e00006e650000637400008c
:10307000696e00006720000075730000696e000033
:103080006720000042650000726b0000656c000064
:1030900065790000205300006f6300006b6500003d
:1030a00074730000205400004350000020410000d1
:1030b000504900002e2e00002e0d00000a000000d6
:1030c00020200000204e00006f740000653a0000d0
:1030d000207400006869000073200000646500002f
:1030e0006d6f000020770000696c00006c2000000c
:1030f000646f0000206e00006f74000068690000bb
:103100006e6700002069000066200000616e00000c
:10311000207500006e640000657200006c7900008c
:10312000696e00006720000054430000505f0000fb
:1031300050550000525000004f530000455f000002
:1031400042450000524b0000454c0000455900002c
:103150005f4300004c490000454e00005420000031
:103160007479000070650000200d00000a20000046
:1031700020200000736f0000636b00006574000086
:103180002069000073200000756e00006176000069
:10319000616900006c610000626c0000652c000039
:1031a000206100007320000064650000636c000073
:1031b0006172000065640000206200007920000058
:1031c0007468000065200000544300005053000064
:1031d0006f6300006b650000744900006e690000b9
:1031e00074690000616c0000697a0000657200007b
:1031f0005b5d0000206100007272000061790000d8
:10320000206900006e2000000d0a00002020000050
:10321000205400004350000049500000436f00005c
:103220006e660000696700002e6800002e0d000029
:103230000a0d00000a00000000040000a3000000c6
:10324000000000005443000050530000746100006f
:10325000636b000020760000352e00003331000043
:10326000202000002020000020200000202000005e
:10327000202000002020000020200000202000004e
:1032800020200000004d0000434800005042000094
:103290004f41000052440000000d00000a0d0000e4
:1032a0000a42000055540000544f00004e30000008
:1032b00020680000656c000064200000666f00005c
:1032c000722000006d6f0000726500002074000025
:1032d000686100006e20000034200000736500006b
:1032e000636f00006e640000732e00002020000059
:1032f0004465000066610000756c000074200000e9
:103300007365000074740000696e0000677300004c
:103310002072000065730000746f00007265000089
:10332000642e00000d0a00000d0a0000000d0000d0
:103330000a4e000065770000204900005020000080
:10334000416400006472000065730000733a00007d
:10335000200000000d0a0000000000002f73000094
:103360006561000072630000683f00006173000047
:103370005f7100003d4d000069630000726f000046
:10338000636800006970000026610000735f000040
:1033900073690000746500007365000061720000cd
:1033a000636800003d6d000069630000726f0000fb
:1033b00063680000697000002e6300006f6d0000fc
:1033c000000d00000a0d00000a4300006f6e0000af
:1033d0006e65000063740000696e000067200000e5
:1033e00075730000696e0000672000004d690000e1
:1033f000637200006f6300006869000070200000c5
:10340000544300005020000041500000492e0000ad
:103410002e2e00000d0a0000004700004554000059
:10342000200000002048000054540000502f0000ed
:10343000312e0000300d00000a4800006f730000bc
:10344000743a0000200000000d0a0000436f0000e5
:103450006e6e000065630000746900006f6e00000e
:103460003a200000636c00006f730000650d0000df
:103470000a0d00000a000000484500004c4f000003
:10348000204d000043480000504200004f41000022
:10349000524400000d0a000000450000484c0000a6
:1034a0004f2000004d43000048500000424f0000f4
:1034b00041520000440d00000a0000004155000088
:1034c00054480000204c00004f470000494e0000c7
:1034d0000d0a0000000d00000a0000004d41000030
:1034e000494c000020460000524f00004d3a0000b9
:1034f0003c0000003e0d00000a00000052430000a6
:1035000050540000205400004f3a00003c000000de
:1035100044410000544100000d0a00000046000034
:10352000726f00006d3a0000200000000d0a0000dc
:10353000546f00003a200000000d00000a43000014
:10354000433a0000200000000d0a000053750000ff
:10355000626a000065630000743a00002000000009
:103560000d0a00002e0d00000a0000000d0a0000e8
:103570002e00000051550000495400000d0a0000c3
:10358000000000003a2000005765000020610000a4
:103590007265000020630000757200007265000013
:1035a0006e7400006c790000206100006368000008
:1035b00069650000766900006e6700002000000069
:1035c000202000002020000020200000200000001b
:1035d0003030000020620000797400006573000044
:1035e0002f730000656300006f6e00006420000010
:1035f0005458000020740000687200006f750000cd
:103600006768000070750000742e00000d0a00004d
:10361000002000006279000074650000732f000034
:1036200073650000636f00006e6400000d0a000007
:10363000000000006d610000696c000000220000c5
:10364000534d0000545000002053000065720000ec
:103650007669000063650000222000003c6d0000d8
:1036600063680000706200006f6100007264000017
:103670004070000069630000736100007265000023
:10368000676f00006f6400002e6300006f6d000024
:103690003e000000486500006c6c00006f200000d8
:1036a000776f0000726c0000642100002020000091
:1036b000534d00005450000020540000657300007a
:1036c000742e00000000000077770000312e00000b
:1036d0006d690000637200006f630000686900009c
:1036e000702e0000636f00006d0000005069000044
:1036f0006e67000020740000696d000065640000c2
:10370000206f00007574000000430000616e00002f
:103710002774000020720000657300006f6c0000c9
:10372000766500002049000050000000526500004e
:10373000706c0000793a0000200000006d730000fa
:1037400000000000000000007d000000b004000048
:10375000010000001400000014000000020000003e
:10376000c80000009600000005000000d00700001f
:10377000010000000700000000010000000100003f
:1037800008000000dc050000dc0500000800000067
:10379000dc050000dc05000009000000e803000073
:1037a000e80300000a0000001900000014000000f7
:1037b0000d0a000044480000435000002f50000054
:1037c0006f770000657200002065000076650000dc
:1037d0006e740000206f00006363000075720000cb
:1037e0007265000064000000426f00006f7400000a
:1037f0006c6f0000616400006572000020520000e0
:10380000657300006574000000000000706f000028
:103810006f6c00002e6e0000747000002e6f0000b0
:103820007267000000000000706f00006f6c000005
:103830002e6e0000747000002e6f00007267000092
:10384000000000004d50000046530000020100003f
:043850000000000074
:020000040000fa
:10385400804078009ccfbf00814f50001700320099
:10386400e24f400008003200e2c1b3000440bc0053
:10387400e088200000014100c08020000e00090003
:1038840030197800e201b100010078009cefb70024
:10389400e2cf40000900320001407800e2c1b300e9
:1038a4000440bc00e088200000014100c0802000ea
:1038b4000e00090032187800e201b1000000060091
:1038c400e3ff070021418000000021000080600028
:1038d400020032002588a900100020000000060024
:1038e400dbff07008000eb0010418000e70f500071
:1038f40001003a00110020000100780000000600d9
:10390400d3ff07002182200091407800e7cf5000c8
:10391400030032000000eb00ebcf50000b003a0034
:1039240091408000a040800001015000808f500031
:1039340005003900604080000e08b5000200400018
:103944000000e900000006000200e9000000060093
:10395400889fbe0000447800bdff070060408000df
:103964000e08b5008004e90008407800e4ff070071
:10397400008054004f04be0000000600b4ff07009e
:10398400b2408000c1408000810f51000200390024
:1039940001005100000006008040800081005000ba
:1039a4007040800000005100808040000100e80069
:1039b40000000600889fbe0000447800a4ff0700b2
:1039c40079408000804080008904500008407800dd
:1039d400eaff070080845400090078004f04be0009
:1039e40000000600881f78000004780010007800aa
:1039f400847d020000000000000c78001800900094
:103a0400847d02000000000010049800280090004b
:103a1400b8009000967d0200000000002004980089
:103a24003104980048009000d8009000967d020070
:103a340000000000400498005104980078009000b1
:103a4400847d0200000000007004980008089000c3
:103a5400847d020000000000000c9800180890000b
:103a6400847d020000000000100c98004f047800d0
:103a7400000006000200fa00889fbe00c00020007b
:103a8400c8b102000000000046550200000000001a
:103a9400000fb2004280de00f444500033003200d4
:103aa400710020000000eb00c2570200000000007b
:103ab4002b00370046550200000000000004e0001f
:103ac4002a003200e14f500025003200e24f50003e
:103ad40017003a00e2cf5400240036000000eb0047
:103ae400d0bf9f004655020000000000e44f500084
:103af40006003a004655020000000000b0ff9f0097
:103b04004655020000000000a0ff9f00dfb89700a8
:103b140070212000808f500014003600d039b0008e
:103b2400808f500012003e00010078001000370022
:103b3400e1cf54000d00360046550200000000009d
:103b44000044780080cf5400080039008080fb00d6
:103b54000000eb00c25702000000000088c45400bb
:103b64008944e900e1cf4400d2ff3a0080212000db
:103b74004f04be000080fa0000000600889fbe00cb
:103b84008a1f780000057800020478008404780015
:103b94000304e00015003200e1cf51002a003a008e
:103ba4000104e00008003200e1cf500026003a0092
:103bb40004017800880078000a0078009c02020062
:103bc4000000000020003700e10f45000300320030
:103bd4000a00780004580200000000000800be003b
:103be400ac54020000000000170037000104e0009c
:103bf4000c003200e1cf500013003a00e10f410005
:103c04000300320002007800ee57020000000000ba
:103c1400890078000a007800c25702000000000002
:103c24000900370004017800880078000a00780051
:103c3400be580200000000004a5c020000000000c0
:103c44000000e000fcff32004f0578004f04be0086
:103c5400000006009dcfbf00c1f92000914078000c
:103c64000104e10018003200e24f40000b00320072
:103c7400e2c1b3000440bc007c034100e58820009d
:103c840062807a008002b1008402200013c0b30075
:103c940062862000e6c07a00b8ff07009ccfbf0010
:103ca4009defb70082fd2f006140800001014100bb
:103cb40084022000838220009341780011c0b30065
:103cc40060862000adff070000000600e1ff07004a
:103cd400b0438000304188006040800090408800fc
:103ce400a040880070408000b0408800c040880038
:103cf400400020002468ab0001003a00d0002000fe
:103d0400104188002408a9002428a9002448a900f7
:103d14002488a90024a8a90024c8a90024e8a9008b
:103d24002508a9002528a9002548a9002568a90077
:103d34002588a8008808a9008828a9008868a900ff
:103d44008888a9006040800090438800fc780200c5
:103d54000000000050438800fc78020000000000ce
:103d64006043880086a8ef0010002000c04388004c
:103d740000000600b6fe0700b6ff07000080200022
:103d8400c18720000900090031587800a043800051
:103d9400504088000080200000000600889fbe007c
:103da4008a9fbe009e0fe20007003a005a79020083
:103db40000000000f27f20000200600002402000aa
:103dc40002004000f07c8800c20320008000eb0069
:103dd400a0822000aa02020000000000e95e200088
:103de4000005eb0038ba29000a40780098fe070065
:103df4000800e80090007800630044001001780097
:103e04001804e00008003a000280400000804400ea
:103e1400ab02200080854500e05e2400808f5500c1
:103e240002003600fdff3700ffff37002868ef006f
:103e3400800220000900400060408800010040002a
:103e44000000e800704088000200400080408800c4
:103e5400d0002000104188002468a9007dff0700dd
:103e640078f897008de8b70098ff07000a05e80086
:103e740066044400e90f5500020032008b04780008
:103e8400d9ff37004f05be004f04be0000000600f6
:103e94002600fa00889fbe008a9fbe008c1f78000f
:103ea40000447800014578006aff07000808a30071
:103eb400020032002568a8000804a10024a8a90073
:103ec40024c8a90024e8a9002528a9002548a90098
:103ed4002508a90034580200000000000000e0009a
:103ee400fcff3200e60064008004eb0056003a0058
:103ef4009040800092438000820f500002003a00fc
:103f04008104780045003700c3438000820f5000cd
:103f14001300360002005000830f500001003600e9
:103f24000300780059448000890f500002003e00cd
:103f340080047800010037002548a80009027800b1
:103f440083822000934178008040eb0060032000ce
:103f54000aff0700090078007228b4002f00370018
:103f6400714080000282500084b79f0080004200ac
:103f74006040800000805000830f50000100360034
:103f84000300780059448000890f500002003e006d
:103f940080047800010037002548a800890f5200ea
:103fa4000100360089b79f000fb29700838220007a
:103fb400934178008040eb0060032000effe07008f
:103fc4000fb097008080540081b79f000900320031
:103fd40062408000904380000e08b5006003b0008a
:103fe4000102780083822000934178008040eb0036
:103ff400e2fe0700904380008080440091438800e3
:1040040072408000828f50000400390060408000bc
:104014000000510000805000904388002568ab00e8
:1040240007003200c0438000808f54000400320037
:1040340050448000808f5400010032000804a00026
:104044000900e00002003a00630064001600320038
:10405400090078007828b5000900e000010032006a
:104064000834a0000a08a300050032008c68ef00a1
:10407400a125260031438800210020004143880007
:1040840008b902000000000032438000434380006e
:104094000001410081814900d2408800e34088004a
:1040a4002488a8002b003700224180008a80fb006e
:1040b4000118a3000e0032008240e800e78060008f
:1040c40080ff2f0000006100010070002041880083
:1040d400504380006143800061005000e08058003c
:1040e40050438800614388001900200019003700fc
:1040f4007000610002003a00800478001500370067
:104104000108a3000a003a008cc8bf00080032006e
:104114000040e9008ce8b700304380004143800050
:104124008100d1000080d3003043880041438800df
:1041340008b90200000000003243800043438000bd
:104144000001410081814900d2408800e340880099
:104154008004eb00b143800091b79f00a24380002c
:10416400a2b79f005243800063438000b2b79f0010
:10417400c3b79f007043800081438000d0b79f0085
:10418400e1b79f007fb09700f1ff230001006000ba
:1041940001ff2f0001006000f0b79f00f8ef9f00bf
:1041a4000000eb00a0bf9f0009014100e08149002d
:1041b40052438800634388008880fb000100d100db
:1041c40061006000804578000004e00013003200c4
:1041d4000148a30003003a006000b800d0b79f0074
:1041e400e1b79f008828ab00070032003fb097007a
:1041f400cfb0970061005000e0805800b0b79f0036
:10420400c1b79f000500370061014100e08149000a
:1042140052438800634388008828a8000808a30044
:10422400100032008808ab00070032003fb097004e
:10423400cfb0970061005000e0805800b0b79f00f5
:10424400c1b79f00070037005043800061438000de
:1042540061004000e08048005043880061438800ca
:104264008808a800b2408000c1408000810f51003e
:1042740005003900704080001008b500810051002d
:104284000100500002003700028050000000e900e5
:1042940080bf9f001a580200000000000004b10013
:1042a40080af9f0002003b008000eb0081af9f00c5
:1042b4008fa897007e8657000fb89700810f500093
:1042c4000100360081bf9f000c007800c5fd070087
:1042d40074854400f2f02f007fb0970082006000e4
:1042e4000105b300f1b79f000b04e0000a0032009f
:1042f4007885440020c0b300a0d79f0040c0b3001d
:10430400b0d79f0020802100a0af9f0002806000f2
:104314000006b300f0b79f00c1d0200091407800a0
:104324008180fb000dcdbf004800dd00010170005d
:10433400e1d02000914078008180fb000fcdbf00c8
:104344004800dd008101700060fd2f000f04400073
:10435400028cbe00e0438000f1438000d0af9f0098
:10436400e1af9f000040eb00e0df9f0069c0b300b5
:10437400f9df9f008ab79f000a007800847d02005d
:104384000000000080b79f00c100200008007800f2
:10439400c47d0200000000000080ea0090bf9f007e
:1043a400e000200004580200000000000a01780028
:1043b40089407800c0872000f4b1020000000000aa
:1043c400410120000c007800ac5402000000000001
:1043d4000b04e000050032004100200022fd2f0004
:1043e4000f004100ac540200000000002002200035
:1043f400ee570200000000000a007800685c02002a
:104404000000000080af9f00200320000458020039
:10441400000000002100200000fd2f000f004000dc
:10442400ac540200000000000c5d0200000000001b
:104434004f0678004f05be004f04be000080fa000e
:1044440000000600889fbe008a9fbe000104780019
:104454000205780083447800fdfc07000800e000b2
:1044640001003a0018002000604080001008b500e8
:104474008005e9000a0444008b0f54004a003e0002
:10448400f4fd07006380640001003a003940b30082
:10449400088055008981fb000318a30002003a003c
:1044a4000a017800040037000308a3000100320069
:1044b4000000d10000014500604080000000410080
:1044c4000004e800b140800032448000e10f410064
:1044d40009003200d0438000000041008080400089
:1044e40080408000808f5000030036000e08b50025
:1044f400008040008000e900c0408000810f50002f
:10450400020039000500360070408000800f54001e
:10451400040036000328a30023003a00c8408800a2
:10452400b8408800c0408000808f500011003100e6
:104534000328a3000f003200724080000282500062
:10454400838220009341780083407800080078003b
:104554008afd0700b1408000c0408000808f500079
:1045640004003100080078000e08b50000805000f7
:10457400b040880078408800604080009043880004
:10458400a040880090408800110020001041800065
:10459400e70f500005003a0000c1b3003cfe0700dd
:1045a40011002000010037008000eb0001007800ba
:1045b4004f05be004f04be0000000600881f7800af
:1045c40000447800edfc07000000e0000700320022
:1045d400084078009efc0700b0408000c04088007e
:1045e40011c0b30000c1b30029fe07004f047800d6
:1045f4000000060096fc070096fd0700914080002d
:1046040090438000808f50000300320011c0b3003b
:1046140000c1b3001efe0700000006008cfc07006a
:10462400b0408000c040880010418000e50f500079
:104634002f00320006003e00e10f50000d00320052
:104644002b003900e30f500026003e0028003700fd
:10465400eb0f50001500320003003e00e70f50003e
:1046640020003e0006003700ee0f50001d003a0007
:1046740019003700687e0200000000001c003700ab
:1046840011c0b30010c1b30001fe07007808e200b6
:10469400040032009140800090438000808f5000dd
:1046a400f7ff3a00800020000c00370011c0b3006f
:1046b40010c1b300f6fd07007808e20004003200e0
:1046c4009140800090438000808f5000f7ff3a00b3
:1046d400c000200001003700d000200010418800f5
:1046e400000006008040eb0040c1b300e8fd070075
:1046f40076fd3700881f78000044780054fc0700da
:104704002468a90008407800c4ff07004f0478001b
:10471400000006000400fa00889fbe008a9fbe00c5
:104724008c1f780090bf9f00a1bf9f0002447800b7
:1047340003057800844578008004eb00094678007e
:104744000940780042fc070010418000ed0f500042
:1047540063003a003ffd07000b4078008d48e300fa
:104764005f003a0080212000504488000804e000e3
:1047740006003a00ba4388002468a80040002000dc
:10478400104188003a4188005300370000c02f00d0
:104794009e0fb40081f82000810f50000200360003
:1047a40000402000f07c8800f07c8000b04388004a
:1047b4000000e800f07c8800aa43880008b90200e1
:1047c40000000000d0408800e14088002488a80050
:1047d400e34f54001600320003003e00e14f540042
:1047e4003d00390003003700e44f54003a003a001a
:1047f400210037001fb89700afb89700e043880046
:10480400f14388000814a2000880fb000000e900be
:104814004f00de004200dd00414480000120a10081
:1048240080807000414488002228ef002a0037006d
:104834002fb897009fb89700010040000a0040007d
:10484400b143800001006800304188001fb8970020
:10485400afb89700e0438800f14388008c68ef000c
:1048640081092000314388006828ef0020002000df
:1048740010418800180037001fb9970022409000ab
:104884000080fb00b2409000c808dd00808070000a
:104894009281fb00124090004800dd00030070008c
:1048a400808040008a804000b0438000808068009f
:1048b40031418800c087200009000900325878007f
:1048c400a200b100500020001041880011c0b300c4
:1048d40020c0b3006efd07000c80fb00040037000d
:1048e4008904e800e98f540094ff3a00e00f2000a7
:1048f4004f0678004f05be004f04be000080fa004a
:10490400000006000f03b000889fbe008a9fbe000f
:104914008c9fbe008e1f780080057800820478008a
:104924001082fb00104090004800dd00040170007c
:104934002b4290000482fb003b4090004800dd00c5
:1049440084017000a2a79f00b3a79f001101be00bd
:10495400c2a79f00d3a79f000040eb00c0cf9f00d9
:1049640060c0b300d0cf9f00f9a79f000900780072
:10497400847d020000000000f0a79f00c100200019
:1049840040fc2f000f004000c47d02000000000026
:104994000004780009007800685c02000000000050
:1049a4008880ea00808f50002a033a000000eb0060
:1049b400c8b102000000000003fd2f000f84410075
:1049c4004101200008007800c257020000000000e6
:1049d4000800780003fc07006fa897004400de007d
:1049e4006f4060004200dd00744050000080fb0016
:1049f4008084540089bf9f00748754009fa9970046
:104a04000300e000130332002b4090000080fb0001
:104a1400bb409000c808dd00808070001b81fb0053
:104a24001b4090004800dd000200700080804000c0
:104a34009880400003856800e9cfb3000004eb00d0
:104a44000840780082fb070010418000ed0f500001
:104a54002200320031418000e40f500005003a008a
:104a64001fa89700808f50001c003a0088447800eb
:104a74001a0037008a8f500018003a0075fc0700ae
:104a84009fa89700b0438000808f500013003a0025
:104a940004fd2f008f004200a0438000910f1000fe
:104aa4000e003a009b80fb001b4090004800dd0094
:104ab40001017000ab4090008180fb003b409000fe
:104ac4004800dd0081017000e0438000f143800074
:104ad400800f5100818f5900d10232000804e80090
:104ae400e90f5400d6ff3a0005fd2f000f84420061
:104af400e2cf44000f0032000940780054fb070065
:104b040054fc07003a418800c687200009000900c8
:104b14003b5b7800ab00b10018047800a843880020
:104b24001fac9700b843880069408000994388000f
:104b3400bb0237006fa897000098a300c50232009b
:104b44006208e200c3023a001fab970098027800a3
:104b54008004eb00a4832000140078000000e0002f
:104b640017003200860f500011003a0054b8970025
:104b7400850f50000e003a009b80fb001b40900004
:104b84004800dd0001017000ab4090008180fb0013
:104b94003b4090004800dd008101700004b897009c
:104ba40094b89700820f5000838f58007b02320024
:104bb4008904e80074024200e38f5400e6ff3a00df
:104bc4000004eb000840780021fb07002468ab00d8
:104bd400050032001ffc0700b14380001fa89700a6
:104be400808f5000740232000804e800e90f54007a
:104bf40098023200f3ff370008b9020000000000f9
:104c040042782d0073012000000141008181490098
:104c1400d2408800e340880014418000e40f520031
:104c240003003200e50f520047003a001600370037
:104c34000880fb00e400600006003a000048a3007e
:104c4400060032005c4388006d438800044078000d
:104c54008ffc07001dfc07007e0237000018a3002c
:104c6400fcff32003fb09700cfb0970061004000d6
:104c7400e080480070438800814388007dfb070082
:104c8400504488002a0037008880fb000128a300d4
:104c940070023a004408de006100600000457800bc
:104ca4000004e0000500320058438000694380009e
:104cb400880f5600898f5e008d003a000118a3000a
:104cc400640232003fb19700cfb197006101410007
:104cd400e08149007243880083438800ffa997005c
:104ce400c343880063fb0700504488000a04e000c3
:104cf4000f00320011c0b30000c1b30064fc070010
:104d0400700020001041880008b902000000000073
:104d140042782d0073012000000141008181490087
:104d2400d2408800e34088002488a9004902370063
:104d340011c0b30020c1b30055fc0700600020007f
:104d440010418800430237000883fb00e10263003e
:104d5400e5b79f00a5ef9f004fe897000004e0002f
:104d640002003a00aeb79f00030037000fb9970066
:104d740073015100a2b79f000884fb00f8b79f009d
:104d84000818a30003003200afb197008301e800c4
:104d9400a3b79f00b2408000c1408000810f510042
:104da40005003900704080001008b50081005100f2
:104db4000105500002003700028050000005e900a0
:104dc40070438000814380003fb49700cfb49700c4
:104dd4000001540081815c0082057800afb4970023
:104de4000900e0001f0032000a00e0002800320041
:104df400e00f5100e08f5900040035006150b80005
:104e0400820f5000838f58000a003e00afb2970013
:104e140005004100e08049004240a9000700340039
:104e240005005500cf80de00800f5100818f5900ae
:104e340002003c0015002000010037008002eb0056
:104e44006150b800800f5100818f59000e003d0061
:104e54002fb49700088045004240a90010003c0090
:104e640009003700e00f5100e08f59000c003200b8
:104e7400070035006150b800820f5000838f58003e
:104e840007003e00020037000500e00004003a007d
:104e9400ffb497000928a300ee013a00dc013700b3
:104ea400660063006bff3a007fb097000048a300e0
:104eb400e8013200eb0f520005003e00e70f5200fc
:104ec40015003100e60f5200c5003a000300370018
:104ed400ec0f5200c2003a00bb0037005843800078
:104ee40069438000880f5600898f5e0008003200f5
:104ef4005c4388006d43880011c0b30040c0b30018
:104f0400e3fb07005843880069438800d101370058
:104f14007000200010418800974380009240800078
:104f24008700510003003b00604080000e08b5007c
:104f340080804000524380006343800001004100b0
:104f4400e08049000c0050008d80580002003b00b6
:104f54008040eb00af013700a6408000068053007c
:104f6400cf80de000002510081825900868f5300f9
:104f7400020039000400be000400370060408000d5
:104f84000e08b50000005200e0805a0000015600ef
:104f940081815e004240a9002f00340061408000fe
:104fa40079408000018454006140b800800f5100b2
:104fb400818f590028003e008868a9008888a900cc
:104fc4002508a900a040800002024000a4408800f7
:104fd40091438000808f500004003900848f50007a
:104fe4000d00310001005200040037000880400029
:104ff400840f50000800310000005200524380002a
:105004006343800000004100e08049005043880071
:10501400614388009443880071408000810f5200ee
:1050240004003900604080000080500000005200fd
:10503400a04088009243800071408000810f51009d
:105044001c003900604080000080500000005100c6
:105054009043880017003700870f53001500320073
:10506400404480000038a300110032000048a3002f
:105074000e0032005443880065438800904380004a
:10508400860f500007003100604080000e08b50014
:10509400cf80de000000520081805a005043880017
:1050a40061438800964388002548a8008888a800a2
:1050b4008868a800a140800090408000808f500044
:1050c40015003a002568ab000a003a0008b902004e
:1050d4000000000042782d0073012000000141000f
:1050e40081814900d2408800e34088002488a900d7
:1050f4000900370050438000614380008c0f50004a
:105104008d8f580004003a008808ab00020032007a
:105114002488a9002568a900504380008c00500011
:105124007fa89700010050007808e20003003a00cd
:105134000000e000010032002528a800c0438800d8
:1051440010418000e80f500013003a0050438000e3
:10515400614380008c0f50008d8f580020003a006e
:105164008808ab001e00320008b9020000000000ed
:1051740022bc2e00b30020000001410081814900bf
:10518400d2408800e34088002488a80090002000d2
:105194001041880012003700e90f500008003a005f
:1051a400efb097000100e0000d003a005c43880076
:1051b4006d438800cfe8970040c1b300a4fe3700d8
:1051c400ea0f500006003a0050438000614380001b
:1051d4008c0f50008d8f58001e013a009dfe370041
:1051e400ffb497000902b2001a013a00104180008e
:1051f400eb0f500017013200ea0f50001501320086
:10520400ec0f5000130132000e00e0009800320051
:105214000b0447000b00e0004c003c006fa8970013
:105224004200de00c003b2000b005000c8b102000f
:10523400000000008a0f540001003e0008057800b9
:1052440070438000814380000a004000e0804800f1
:105254007043880081438800b5408000824080000c
:105264000a8042008182200091407800820f500021
:1052740013003600050451000804e8000802780011
:10528400894178000081eb00050078003bfa0700b3
:10529400080455008182200091407800704080000d
:1052a40008027800894178000081eb0033fa070096
:1052b4007040800000044400b840880007003700b4
:1052c4000a027800894178000081eb00050078002b
:1052d4002afa07000a0078001628b4003044800037
:1052e400e10f4000620032008a005000314488001f
:1052f400d043800000814000120033000100e00030
:105304005b003c0070438000814380000200400049
:10531400e08048007043880081438800b0408000ea
:1053240080004100b140880080408000808f5000a0
:10533400040036000e08b500008040000000e900bb
:10534400b040880086a8ef00490037008a0f540057
:10535400010036000b0755006fa897004200de00dd
:10536400c003b200c8b1020000000000b3408000d6
:105374008b824100824080000e804200820f5000e8
:10538400180036008182200091407800030051000b
:105394000b0050000004e8000a0033000802780003
:1053a400894178000081eb0005007800f3f90700db
:1053b40081822000914078007040800008025700ec
:1053c40005003700020078000e08b5000080420096
:1053d4000000e9000e027800894178000081eb00aa
:1053e4000600370081822000914078000e02780088
:1053f400894178000081eb0005007800dff907009f
:1054040030448000e10f400003003a003b44880030
:10541400de438800160037000b044700d1438000a8
:10542400808f55000b00310081004000810f540033
:1054340002003e00800f540002003100de43880069
:10544400020037000b805000d04388003b448800a2
:105454000700370081004000810f5400040036002b
:10546400818f550002003e0000005400d0438800a4
:10547400afb097000100e00014003200104180003a
:10548400e70f500002003200b2408000c2408800a2
:1054940024e8ab000500320011c0b30000c1b30022
:1054a4007bfa0700ebf907000800370024e8a8009e
:1054b40024c8ab0005003a0024c8a80010b90200b3
:1054c40000000000d003b00000418800afe997005d
:1054d4000304e0005f0032007443800085438000d1
:1054e40061014200e0814a002fb297003fb4970067
:1054f400cfb4970004004400e0804c00800f5100ba
:10550400818f590053003a00724388008343880016
:1055140010418000e70f50000e00320003003e00ef
:10552400e60f50003a003a0005003700e80f50003b
:105534000f003200e90f500035003a001400370024
:10554400c00020001041880011c0b30010c1b30096
:1055540031003700b00020001041880010b902006b
:1055640000000000a007b0000041880028003700b8
:1055740050438000614380008c0f50008d8f580091
:1055840003003200a00020001041880020003700f2
:105594008040eb0000c1b300adfd370010b902003c
:1055a400000000007449b90072014100a482200087
:1055b40000317a0027003700744cb900aa82200019
:1055c4000a004400090009003b587800a000b1001b
:1055d400ab00b1006a0044008faa970005307d003b
:1055e4000a0044002fa99700bfa997006200980001
:1055f400730098007000440001307d0010b902006f
:10560400000000007204440000347d0011003700e3
:1056140011c0b30000c1b3001dfa07000d0037002c
:105624005fdc97004fae9700dfae97002faa97007c
:10563400bfaa9700b4b79f00c5b79f002408a9006c
:105644002428a9002448a9002488ab0072fd3a004c
:1056540069fd3700225902000000000010002000fc
:105664004f0778004f06be004f05be004f04be0032
:105674000f03b100000006000400fa00889fbe007a
:105684008a9fbe008c1f78000006eb008c457800d2
:105694000c4078006ef80700204180000160200073
:1056a40001006000310032003458020000000000a4
:1056b4000000e0002d003200204180004a00de009e
:1056c4006105600009c1b3002a00370061f90700d1
:1056d4007440b90080017800a282200002004000da
:1056e400c187200009000900b0587800a000b1006b
:1056f400ea804100e1007900a1438800ec80410088
:105704008280400016002000070020003102430080
:10571400a1824b007443880085438800e1438000e4
:10572400f743800087804000a243800082804000cd
:10573400b24380008280680031418800610020000b
:1057440011418800620214007422b900e183200030
:105754000181410013c0b3008340780007f90700ba
:105764006228ef0029c1b300310037008044eb0008
:105774000005eb0024a8ab0007003200f8408000cd
:1057840010b9020000000000000454004240a900c7
:1057940001003c0009c1b30024c8ab00070032007b
:1057a4000841800010b90200000000000004540009
:1057b4004240a90001003c0009c1b300104180002f
:1057c400eb0f500009003a000841800010b90200b4
:1057d40000000000000454004240a90003003c0003
:1057e400c00020001041880019c1b300104180009e
:1057f400e40f50000c003a00324180000004eb003a
:10580400a1832000110078000000e00006003200af
:10581400820f5000adff32000804e800f48040001d
:10582400e30f5400f7ff3a000904e00004003200db
:1058340011c0b3008ac050000940780094f90700f1
:105844002488ab0026003a0010418000e70f500086
:10585400ec003a0008b9020000000000d2408000c9
:10586400e34080000200500083805800e5003300cc
:105874002141800067806000e60f50000b003a0071
:10588400430cde00614464000b40780063fb0700b6
:105894000b40780061fb07000804e000d9003a00df
:1058a400e000200010418800d6003700e9f8070026
:1058b40021c0b30000c1b30075f9070008b90200a4
:1058c4000000000042782d00730120000001410017
:1058d40081814900d2408800e3408800c900370034
:1058e40008b9020000000000d2408000e3408000bc
:1058f4000200500083805800c2003300d5f807002e
:105904001041800001002000ec0f5000e08f58008f
:1059140094003e00006001000c00370015003700c1
:105924003a003700410037008e0037005f0037002f
:105934006a003700730037007b0037008d003700a2
:105944007e0037006f003700810037005c7e020064
:10595400000000000000e00082003200110020007e
:1059640011418800e0438000827e020000000000b4
:105974007c0037006e805700467f02000000000064
:105984000000e00077003200687e020000000000a2
:10599400000478000000e000120032001fb89700f5
:1059a400afb89700e0438800f1438800200020004e
:1059b40010418800e04380007e08b400a1438000c9
:1059c40001004000b14380000100680030418800bc
:1059d4008c68ef0081092000314388006828ef00bb
:1059e4006000370008b902000000000042782d0072
:1059f400730120000001410081814900d2408800e8
:105a0400e3408800184188005600370010b90200ae
:105a140000000000f0408800c0872000e8970200e2
:105a24000000000030002000190037000188200029
:105a3400c0872000c0960200000000000000e000c3
:105a440015003a0010b9020000000000f240800086
:105a54000200500032438000820f500041003600a3
:105a64008cc8bf00e54f500008003e000040e8002d
:105a74008ce8b700304380004143800000004000c0
