:020000040000FA
:0600000068EF93F012000E
:020006001200E6
:0600080017EF57F0120093
:02000E000004EC
:04001000A300000049
:020014001200D8
:020016000400E4
:06001800F1EF56F01200AA
:02001E001700C9
:1000200094270100E607000001000000932701006B
:10003000E50700000100000091270100DB07000038
:100040000200000090270100E4070000010000000A
:100050008D270100D0070000030000008927010060
:10006000CC0700000400000087270100D90700002A
:10007000020000007F270100F806000008000000D1
:100080007E270100E3070000010000007D2701003A
:10009000E2070000010000007C270100E1070000EA
:1000A000010000007A270100D707000002000000CD
:1000B00078270100D5070000020000007427010026
:1000C000C80700000400000072270100D3070000E9
:1000D0000200000071270100E0070000010000009D
:1000E00070270100DF070000010000006F270100FA
:1000F000DE07000001000000A5740000DD0700001D
:100100000100000069270100BE0700000600000092
:1001100067270100FE0500000200000063270100C0
:10012000C40700000400000016000000FE000000EC
:0401300002000000C9
:0C013400010145510701D75D01E11200F7
:10014000FE0ED75D0CE01C0EE66EE66A290EE66E2A
:10015000010EE66ED75173EC18F0FEEC18F045C1B5
:10016000D7F7FE0E0101455D01E112001C0EE66E9F
:10017000E66A455173EC18F0290EE66E010EE66E44
:10018000FEEF18F00701D751D85D01E11200FE0E15
:10019000D85D21E0270E0101C56FC66B0101010E7C
:1001A000C46F0101020EC26F010EC36F0701E8ECBC
:1001B00018F01B0E55EC1AF0EFCFC1F1E8EC18F077
:1001C000EECFBFF1EFCFC0F10101270EBF5F000EF0
:1001D000C05BE9EC15F0D7C7D8F7270ED6EC18F0BE
:1001E00029C1C2F12AC1C3F10101C25F000EC35B84
:1001F0000DEC1AF0020EBF6F010EC06FE9EF15F0A3
:100200000B01580E396F160E3A6F010100510111A2
:100210000FE129EC4EF01EC000F11FC001F1FF0EEE
:1002200001010017070E0117000E0027040E01231D
:100230003C0EE66EE66AE66A7F0EE66E050EE66E38
:10024000A9EC81F0006E050EE15E00500B01316BF0
:10025000306B3051C9EC17F001E38ED030CB45F153
:1002600069DFFBEC16F034EC17F0F62A000EF722EB
:10027000F8220800F5CF38FBFBEC16F034EC17F051
:10028000020EF626000EF722F8220900F5CF32FB07
:100290000A00F5CF33FBFBEC16F0DAEC1AF0040E93
:1002A000F626000EF722F8220900F5CF34FB0A00EB
:1002B000F5CF35FB0B01385128E139CB36FB3ACB72
:1002C00037FB270E036A3225026E3351032210ECEE
:1002D0001AF002503425006E035035217DEC1AF0DF
:1002E0000050392701503A2339CB00F03ACB01F0C6
:1002F000026A036AD880580E0054360E0154000E6C
:100300000254000E035402E2EFD7FFD738CB44F17A
:10031000270E0B0136250101296F000E0B01372135
:1003200001012A6F29510B01322501012B6F2A513E
:100330000B01332101012C6F010E2B27000E2C2302
:100340002B510B01342501012D6F2C510B0135214F
:1003500001012E6F0D0E3F6F409714DFFBEC16F07E
:100360001CC003F0DAEC1AF00800F5CF28F182EC9B
:100370000FF00B01302B6DD712000B01186B1851C9
:10038000C9EC17F001E390D018CB45F1D3DE0D0E88
:1003900001013F5D01E085D0F5DE01014D51285D91
:1003A00001E07FD0180E256F020E266F4A510CE136
:1003B0004BC112F14CC113F14087040E3F6F4BC18A
:1003C00042F14CC143F16AD0000E005D040E0159A8
:1003D00006E3880ED8800055130E015503E2006B2A
:1003E000040E016F00C112F101C113F1002B000EC8
:1003F00001234BC110F14CC111F159EC1AF001016C
:1004000040894A51040A25E0070A11E0020A02E085
:10041000030A44E129EC19F0020E4A5D02E0000EE5
:1004200001D0010E2495E8B024853F6B37D04851A8
:100430004625026E495147217EEC18F029EC19F04F
:10044000276B270E026F036B046B056B020E3F6F69
:1004500025D046C1E9FF47C1EAFF32EC19F046C199
:10046000E9FF47C1EAFF0450EE24026E0550EE207A
:100470007EEC18F00A0EE66EE66A46C1E6FF47C15A
:10048000E6FF93EC19F069EC18F00101050E3F6FDF
:1004900093EC1AF0020EAD6FB2EC0BF00B01185199
:1004A00012000B01182B6BD7FE0C4EC145F142DE3A
:1004B000010141A902D04199010C000C4FC145F145
:1004C00039DE070E01013F5D01E0000C010C50C157
:1004D00045F1C0EC19F001013F51080A38E0010A6A
:1004E00036E0050A34E0020A2FE0050A1FE00D0A93
:1004F0000FE0010A0DE0070A31E0020A2FE0010ACD
:100500002DE0060A2BE0040A22E106EC63F026D077
:1005100065EC18F001011451151106E00E512F1968
:10052000F7E10F513019F4E1080E0FD065EC18F027
:1005300001011451151106E00E512F19F7E10F5169
:100540003019F4E10C0E01D00D0E3F6F12000101C5
:10055000AE6B0101140EAD6FB2EC0BF082EF0FF039
:1005600051C145F1E7DD0101409751C150F167EFFD
:1005700002F052C145F115EC1AF00A0EE66EE66A79
:1005800093EC19F0530EE66E010EE66E69EC18F06E
:1005900010C15DF111C15EF1530E006E010E74EFDA
:1005A00017F05FC145F115EC1AF001010E512F193A
:1005B00002E10F51301902E02DEC17F0120060C17A
:1005C00045F1B8DD3FC119FB070E0B01195D06E0CF
:1005D0000B0E195D03E0F36AF46A12000101315158
:1005E0002F5D3251305916E329512B5D026E2C518B
:1005F0002A55036E0206000E035A31512F5D046E18
:1006000030513255056E0450025C006E055003589F
:1006100074EF17F02F51315D006E32513055016E7D
:100620000006000E015A00C0F3FF01C0F4FF1200E3
:1006300061C145F17FDD61C160F1C1DFF3CF35FB01
:10064000F4CF36FB0B01F350F41001E1000C010E66
:10065000351904E1365102E119EC1AF0010141515A
:10066000010B0CE1CCEC1AF00B013551005C36515A
:10067000015804E319EC1AF001014181010E010156
:10068000C56FC66B0101C46F0101620EC26F010E1E
:10069000C36FAAEC1AF001012F2B000E30232B514F
:1006A0002F5D2C51305902E316EC19F00B01010EAD
:1006B000351905E1365103E119EC1AF0010C01017D
:1006C00040BB02D031EC17F0010C0B013E6B3F6BCD
:1006D00063C145F12FDD63C160F171DFF3CF3CFBF6
:1006E000F4CF3DFB0B01F350F41005E11DEC1AF0C3
:1006F000F36AF46A12003CCB3AFB3DCB3BFBA2EC25
:1007000019F004E266C13AFB67C13BFB4151010BA2
:100710000CE1CCEC1AF00B013C51005C3D5101584E
:1007200004E31DEC1AF00101418101012F510B017D
:100730003A25006E010130510B013B21C7EC19F045
:100740001EE32F512B5D0B013E6F010130512C59DF
:100750000B013F6F3ECBC5F1E8CFC6F1F5EC17F0CA
:100760000B013E51010164270B013F51010165233B
:100770000B013E513A5F3F513B5B16EC19F03ACB0F
:10078000C5F13BCBC6F1F5EC17F00B013A51010175
:100790002F270B013B51010130230B01A2EC19F073
:1007A00003E31DEC1AF004D040BB02D031EC17F08B
:1007B0000B013A513E25006E3B513F2174EF17F07B
:1007C0000B01346B356B68C145F1B4DC68C160F175
:1007D000F6DEF3CF32FBF4CF33FB0B01F350F41012
:1007E00005E121EC1AF0F36AF46A120001014151AB
:1007F000010B0CE1CCEC1AF00B013251005C3351CF
:10080000015804E321EC1AF00101418132CB30FBA5
:1008100033CB31FB39EC19F004E26CC130FB6DC114
:1008200031FB2F510B013025006E010130510B01BE
:100830003121C7EC19F022E32F512B5D0B01346FEE
:10084000010130512C590B01356F34CBCDF1E8CF7C
:10085000CEF13BEC18F034CB00F035CB01F0026A5E
:1008600000500101692701506A2302506B230B01DC
:100870003451305F3551315B16EC19F030CBCDF18E
:1008800031CBCEF13BEC18F00B01305101012F2799
:100890000B0131510101302339EC19F003E321EC54
:1008A0001AF004D040BB02D031EC17F00B013051EC
:1008B0003425006E3151352174EF17F06FC1E6FF1A
:1008C00070C1E6FF33EC82F0E552E552F3CF66F1FA
:1008D000F4CF67F16FC164F170C165F16EC163F16E
:1008E000F4DE01016F51F324006E7051F42074EFB7
:1008F00017F072C1E6FF73C1E6FF74C1E6FF41EC79
:1009000082F0E552E552E5521FC06CF120C06DF156
:1009100072C169F173C16AF174C16BF171C168F19F
:100920004FDF056A01017251F324006E7351F42008
:10093000016E74510520026E00C01FF001C020F04E
:10094000216E120075C145F19AEC00F001012951A8
:100950002B5D0B01026F01012A512C590B01036F12
:10096000010E025F000E035B75C160F128DEF3CF5C
:1009700000FBF4CF01FB0B01F350025D006E03514D
:10098000F45474EF17F076C177F10CD801EC1BF03A
:10099000F350F41006E076C145F1C0EC19F02DECEF
:1009A00017F0120077C145F19AEC00F0DCEC18F07A
:1009B00006E33551335D006E3451365513D0355151
:1009C0002D5D026E2E513655036E10EC1AF02B5130
:1009D000335D046E34512C55056E02500424006EB4
:1009E0000350052074EF17F078C177F1DBDFF3CF08
:1009F00044FBF4CF45FB0B01F350F41001E1000C74
:100A000078C145F19AEC00F0010179517A110FE0BB
:100A1000010ED6EC18F035C1C2F136C1C3F10101A7
:100A2000C16F79C1BFF17AC1C0F1E9EC15F00101E4
:100A3000352B000E362335512D5D36512E5902E2ED
:100A400025EC1AF00B01010E441905E1455103E1B3
:100A500001014185010C010140BB02D093EC17F06C
:100A6000010C0B01466B476B7BC177F19BDFF3CF2A
:100A700044FBF4CF45FB0B01F350F41003E1F36AA0
:100A8000F46A12007BC145F19AEC00F001017E513D
:100A90000B01445D01017F510B01455904E244CB38
:100AA0007EF145CB7FF1010135517E25006E365137
:100AB0007F218DEC19F029E235512D5D0B01466F38
:100AC000010136512E590B01476F010E4627000ECA
:100AD000472301017C517D110EE046CBC5F147CB88
:100AE000C6F1FEEC17F00B01465101017C270B010A
:100AF000475101017D230B01465101017E5F0B012E
:100B0000475101017F5B25EC1AF07C517D1106E015
:100B10007EC1C5F17FC1C6F1FEEC17F001017E5127
:100B200035277F5136230B01465101017E270B01EA
:100B3000475101017F237E510B01445D006E4551F9
:100B400001017F55016E00507E5D01507F5902E327
:100B5000418504D040BB02D093EC17F07EC1F3FF77
:100B60007FC1F4FF120080C145F19AEC00F0010151
:100B70002B512D5D0B011B6F01012C512E590B01C7
:100B80001C6F80C177F10EDF0B01F3501B5D006E0F
:100B90001C51F45474EF17F001018451851103E1E5
:100BA000F36AF46A120081C145F19AEC00F081C148
:100BB00077F1F8DEF3CF02FBF4CF03FB010186519E
:100BC0008425006E87518521016E0B010050F35C76
:100BD0000150F4580BE2010186510B01025D010145
:100BE000846F87510B0103590101856F0101355154
:100BF00086250B01006F0101365187210B01016F22
:100C0000005101012D5D0B01015101012E5906E238
:100C100025EC17F00B01005F0150015B0B01005147
:100C200001012D5D0B01046F015101012E590B01D2
:100C3000056F010E0427000E0523010184510B01ED
:100C4000045D010185510B01055907E384C1C5F11C
:100C500085C1C6F185EC18F022D004CBC5F105CBD7
:100C6000C6F185EC18F0E9EC15F00B010451010117
:100C7000845D0101C56F0B0105510101855942ECED
:100C800019F01DEC1BF0010182510B01042501013B
:100C9000BF6F010183510B0105210101C06FE9EC18
:100CA00015F084C1F3FF85C1F4FF120089C186F1FC
:100CB0008AC187F1010E0101846F856B0101060E67
:100CC000826F0B0E836F88C181F166DF0B010651C5
:100CD000120001018E518F1103E1F36AF46A1200D0
:100CE0008BC145F19AEC00F08BC177F15BDE01011D
:100CF0009051F35C0C019F6F01019151F4580C016C
:100D0000A06F4BEC19F001E205D101019251931152
:100D10000DE00C019F510101925D0C01A0510101F8
:100D2000935904E292C19FFC93C1A0FC35519025D8
:100D30000C01A36F0101365191210C01A46FA35145
:100D400001012D5D0C01A45101012E5906E225EC93
:100D500017F00C01A35F0150A45BA3CC9DFCA4CCB5
:100D60009EFC0C01A35101012D5D0C01A16FA4514A
:100D700001012E590C01A26F010EA127000EA22322
:100D800090C1A3FC91C1A4FC8EC1A5FC8FC1A6FC9F
:100D90008CC1A7FC8DC1A8FC01018CC1E9FF8DC1EC
:100DA000EAFF8C2B8D23EFCFAAFC0C01AC6B010169
:100DB000945109E0610E0C01AA5D05E3AA517A087D
:100DC00002E3E00EAA270C01200EAB6FE850A15DF4
:100DD000000EA25902E2A1CCABFCAB519F5D000E0C
:100DE000A05902E29FCCABFCAB51D6EC18F09DCCE5
:100DF000C2F19ECCC3F10DEC1AF0AD0EBF6F0C0E1C
:100E0000C06FE9EC15F00C01AB5125EC19F09D27F2
:100E100001509E23AB5125EC19F0A15F0150A25B5C
:100E2000A151A21106E12BC19DFC2CC19EFCA16920
:100E3000A269010194513EE00C01A96BAB51A95D7F
:100E40005FE2D0EC17F0EFCF00F0610E005C0BE337
:100E5000D0EC17F0EF507A0806E3E00E006ED0EC0D
:100E600017F00050EF26D0EC17F0EF50AA5D0EE11E
:100E7000CEEC19F02CE091EC18F0610EAA5D18E3AD
:100E8000AA517A0815E3E00EAA2712D0A5CC8EF15C
:100E9000A6CC8FF1AC510CE049EC18F0610E0C01BE
:100EA000AA5D05E3AA517A0802E3E00EAA27AC6B1B
:100EB000A92BC4D70C01A96BAB51A95D21E2D0ECE1
:100EC00017F0EF50AA5D10E1CEEC19F00AE10C0129
:100ED000A551A35D026EA451A655036EA9510BEF57
:100EE00018F091EC18F00AD0A5CC8EF1A6CC8FF1B9
:100EF000AC5104E049EC18F00C01AC6BA92BDCD729
:100F00000C01AB5125EC19F09F5F0150A05B4BEC3D
:100F100019F003E2F368F4681200AB5125EC19F004
:100F2000A3270150A4234FD7010199519A1103E13E
:100F3000F36AF46A120095C145F19AEC00F095C18C
:100F400077F130DD01019B51F35C0C01026F01016F
:100F50009C51F4580C01036F54EC19F001E205D1D7
:100F600001019D519E110DE00C01025101019D5D99
:100F70000C01035101019E5904E29DC102FC9EC176
:100F800003FC35519B250C01066F010136519C2154
:100F90000C01076F065101012D5D0C010751010184
:100FA0002E5906E225EC17F00C01065F0150075B95
:100FB00006CC00FC07CC01FC0C01065101012D5DA3
:100FC0000C01046F075101012E590C01056F010E30
:100FD0000427000E05239BC106FC9CC107FC99C198
:100FE00008FC9AC109FC96C10AFC97C10BFC98C188
:100FF0000CFC010196C1F6FF962B97C1F7FFB2ECEE
:101000001AF0106B01019F5109E0610E0C010E5D99
:1010100005E30E517A0802E3E00E0E270C01200EC4
:101020000F6FE850045D000E055902E204CC0FFC7E
:101030000F51025D000E035902E202CC0FFC0F516A
:10104000D6EC18F000CCC2F101CCC3F10DEC1AF0D3
:10105000110EBF6F0C0EC06FE9EC15F00C010F51B3
:1010600025EC19F00027015001230F5125EC19F050
:10107000045F0150055B0451051106E12BC100FC22
:101080002CC101FC0469056901019F513EE00C017E
:101090000D6B0F510D5D5FE2D7EC17F0EFCF00F055
:1010A000610E005C0BE3D7EC17F0EF507A0806E313
:1010B000E00E006ED7EC17F00050EF26D7EC17F0DB
:1010C000EF500E5D0EE1D5EC19F02CE0DEEC17F0E0
:1010D000610E0E5D18E30E517A0815E3E00E0E273F
:1010E00012D008CC99F109CC9AF110510CE07EECA9
:1010F00017F0610E0C010E5D05E30E517A0802E354
:10110000E00E0E27106B0D2BC4D70C010D6B0F5189
:101110000D5D21E2D7EC17F0EF500E5D10E1D5EC3C
:1011200019F00AE10C010851065D026E07510955DC
:10113000036E0D510BEF18F0DEEC17F00AD008CC5F
:1011400099F109CC9AF1105104E07EEC17F00C01F2
:10115000106B0D2BDCD70C010F5125EC19F0025F41
:101160000150035B54EC19F003E2F368F4681200D9
:101170000F5125EC19F00627015007234FD7A6C1C0
:1011800094F1A4C192F1A5C193F1A2C190F1A3C1C0
:1011900091F1010E01018E6F8F6B0101A10E8C6F19
:1011A000010E8D6FA0C18BF169EF06F00B01786B1A
:1011B0007851C9EC17F001E309D278CB45F19AECEC
:1011C00000F00B017B6B796B7A6B01014151020BD3
:1011D00003E14151040B0EE0C5EC3BF000090AE0CD
:1011E0000B01100E7B6F01014151040B01E0010E58
:1011F0000B01796F010140AB11D000EC91F00101BE
:101200001E503B5D006E1F503C59016EE83402E2F7
:101210002AEC1AF003E30B01100E7B6F010140ADC5
:1012200009D0F3EC18F002E22AEC1AF003E30B0108
:10123000100E7B6F0B0E01013F5D0CE1F3EC18F01B
:1012400002E22AEC1AF006E30B01110E7B6F01019A
:101250000C0E3F6F040E3F5D53E10B017C6B7D6B09
:10126000030E7C5D000E7D594BE24FEC1AF006EC4C
:101270001BF046E04FEC1AF070EC18F0F0EC17F0B1
:1012800001014251001837E14351011834E1C2EC29
:1012900000F00A0EE66EE66A4FEC1AF05DEC19F00B
:1012A00093EC19F05BEC81F0060EE15E4FEC1AF066
:1012B0002FEC1AF0EECF10F1EDCF11F14FEC1AF048
:1012C0000C0E55EC1AF0EECF0AF1EECF0BF1EECF8B
:1012D0000CF1EFCF0DF101010A2B0B230C230D2391
:1012E000AAEC17F00B01120E7B6F0101060E3F6F87
:1012F000ABEC16F005D00B017C2B000E7D23B0D794
:101300000B017B510AE0795102E0000E01D0010E81
:101310000101AE6F7BCBADF125DA010140B92FD0D1
:10132000070E3F5D01E04FD1B6EC17F001E04BD165
:1013300001014051070B060816E14051080B01E07E
:10134000010E0B017B6F78CB50F167EC02F078CB8C
:1013500050F167EC02F00B017B5101E034D1010147
:101360000E0E3F6F30D1C2EC00F00101020EAE6FE5
:101370000101100EA7EC1AF0F0EC16F024D1B6EC37
:1013800017F001E020D1C2EC00F001013F510C0A3E
:1013900001E1CDD0060A01E1C4D0030A01E1D0D0B9
:1013A000010A01E1BAD00F0A01E1AED00C0A01E155
:1013B000ABD00D0A01E19DD0030A01E187D0060AF6
:1013C0005AE0010A48E0030A21E0010A01E0BDD029
:1013D00001EC63F0000901E1B8D00101010E3F6F9B
:1013E00024A50BD00601B36F18C1B0F619C1B1F630
:1013F0001AC1B2F633EC63F0A8D00601AF6F18C182
:10140000ADF619C1AEF613EC63F09FD006017E0E67
:10141000B46F0B0EB56F56EC63F0000901E195D087
:1014200006EC63F0000913E07ECB18F17FCB19F1D5
:1014300080CB1AF181CB1BF10101020E3F6FAAECA8
:1014400017F0276B270E026F036B046B50D0F0EC84
:1014500016F03F6B7AD000EC91F01EC03BF11FC03C
:101460003CF10F01180E586F010E596F37EC77F0F1
:101470000101030E29D00F011C0E5C6F010E5D6F80
:101480000F01180E5A6F010E5B6F64EC77F00009C4
:1014900015E100EC91F001013B511E5C006E3C51E6
:1014A0001F58016E0050025D015003594EE2060EB6
:1014B000275D02E2DCEC19F0020E06D00B01020EF1
:1014C0007B6F796B0101050E3F6F3FD00B01020E60
:1014D0007B6F010E796F040E0101275D36E3040E68
:1014E000276F200E026FEF0E036F090E046F056B5E
:1014F0002CD0020E275D03E20B01120E1DD040B767
:101500001FD00B01020E07D0050E275D0DE3080E5C
:101510003F6F0B01110E7B6F18D0050E275D10E297
:1015200009D0050E275D0CE20B01100E05D0050E4B
:10153000275D06E20B01110E7B6F010E796F05D05E
:101540000B01140E7B6F010E7A6F0B017B5136E09D
:1015500079512EE00101DCEC19F031510E5D0B01E7
:101560007C6F010132510F590B017D6F010198EC25
:1015700019F007E21AEC17F000500B017C2701501C
:101580007D237CCB00F07DCB01F0026A036A005022
:101590000101B2EC18F00B017C51010114270B0181
:1015A0007D510101152332EC1AF00101AE6B03D01D
:1015B0000101010EAE6F7BCBADF1D4D80B017A5196
:1015C00002E082EC0FF00B01782BF2D57C6B7D6B87
:1015D000030E7C5D000E7D592FE24FEC1AF006ECF5
:1015E0001BF001E112004FEC1AF037EC1AF0BAECE4
:1015F00018F002C0E6FF03C0E6FF00EC91F0E552F0
:10160000E7CF03F0E552E7CF02F002501E5C006E18
:1016100003501F58016EDC0ED8800054010E015497
:1016200006E2ABEC16F00B017C07000E7D5B0B01B4
:101630007C2B000E7D23CCD71200A7C1E9FFA8C1E7
:10164000EAFFEECF14FCEECF15FCEECF16FCEFCF89
:1016500017FCA9C1E9FFAAC1EAFFEECF18FCEECF43
:1016600019FCEECF1AFCEFCF1BFC0C011C6B060E15
:101670001D6FABC11EFCACC11FFCABC163F5ACC19F
:1016800064F504EC51F0F3CF1EFCF4CF1FFC0C0EFC
:1016900005016B6F6C6B0501140E696F0C0E6A6FA0
:1016A0001FEC51F0F3CF20FCF4CF21FC0C01201FE4
:1016B000211FABC16DF5ACC16EF570EC51F0F3CFED
:1016C00022FCF4CF23FC0C01F350201948E12351F4
:1016D000211945E10601F46BF56BA2EC83F0140EC1
:1016E00006012E6F2F6B0601000E2C6F0C0E2D6F56
:1016F000ABEC3FF00101000EB36F0C0EB46FC1DB19
:101700000C010C51D1EC1AF0040DF350E3EC19F07C
:1017100000C024FC0050006E016AE8500101AB5D7E
:10172000AB6F0150AC59AC6F140EAB5F000EAC5BED
:10173000A7C1B1F1A8C1B2F10101000EAF6F0C0E4B
:10174000B06F64DA00090BE0ABC1B7F1ACC1B8F11E
:101750000101000EB56F0C0EB66F21EC10F054ECC9
:101760003CF0010CC2EC00F00101ADA102D04187B8
:10177000AD91409B409D409F419341954191C5EC67
:101780003BF00009FCE0060E0101AD1504E00C0180
:101790006B6B6C6BB3D00E512F1907E10F513019E1
:1017A00004E10C016B6B6C6B91D02F510E5D3051CD
:1017B0000F591FE20E512F5D0C016B6F01010F518C
:1017C00030591BEC19F004E214C16BFC15C16CFC20
:1017D00066EC19F005E225C16BFC26C16CFC418565
:1017E0006BCCC5F16CCCC6F116EC18F06FEC19F0AF
:1017F0006DD00E512B5D0C01696F01010F512C59F9
:101800000C016A6F695101012F25006E0C016A51AC
:1018100001013021016E2951005C0C016B6F010147
:101820002A5101581BEC19F004E214C16BFC15C1DC
:101830006CFC66EC19F005E225C16BFC26C16CFC62
:1018400041850C0169516B5D6A516C5904E26BCCA6
:1018500069FC6CCC6AFC69CCC5F16ACCC6F116ECAB
:1018600018F00C0169516B5D696F6A516C596A6FB0
:1018700069516A1122E069CCC5F16ACCC6F144C154
:10188000C4F129C1C2F12AC1C3F10101C16B010137
:101890000E512B5D006E2C510F55016E026A036ACA
:1018A000B20E00260A0E0122000E0222032200C000
:1018B000BFF101C0C0F1E9EC15F06FEC19F02B514C
:1018C0000E5D2C510F5902E3E0EC1AF0010141A723
:1018D00015D014510C016B1904E1010115510C01D3
:1018E0006C190CE0010125510C016B1904E1010197
:1018F00026510C016C1902E00101AD810C016B5104
:101900006C1104E1030E0101AD151CE00C016B51DB
:101910000101145F0C016C510101155B0C016B514D
:101920006C1102E00101AD870101AEA107D0276B68
:10193000F20E026F9E0E036F046B056B25EC18F020
:10194000408929D0AEA319D0400EE96E010EEA6E8F
:10195000EF50070BE82AE850070BF36EF46EF80E11
:10196000EF14F310EF6E0607000E075B085B095BD0
:10197000010E0C016B6F6C6B0ED040A90CD0AEB198
:1019800008D0275106E02707D890053304330333E6
:10199000023325EC18F012C147FC13C148FC10C1FA
:1019A00049FC11C14AFC06C14BFC07C14CFC08C1F3
:1019B0004DFC09C14EFC0AC14FFC0BC150FC0CC1CF
:1019C00051FC0DC152FC0C01539153935395539705
:1019D000ADC154FC596B5A6B6B51010106270C01C8
:1019E0006C5101010723000E08230923ADA315D074
:1019F000ADB905D00C014F6B506B516B526B0101AF
:101A000024A306D00C014B074C5B4D5B4E5B05D00D
:101A1000062B07230823092324830101ADA10DD040
:101A200024A106D00C014B074C5B4D5B4E5B05D0EF
:101A3000062B0723082309232481DCEC18F00AE392
:101A40009EEC18F00C010250005C556F03500158D9
:101A5000566F0DD03351355D0C01556F0101345176
:101A600036590C01566F010E555F000E565B58EC4F
:101A70003CF0F3CF45FCF4CF46FC0C01400E455F33
:101A8000000E465B800E461502E0456B466B5551D5
:101A9000455D5651465904E245CC55FC46CC56FCB2
:101AA0000101470EB36F0C0EB46FEBD9140E0C018D
:101AB0006B27000E6C235389539B538D539F010159
:101AC000ADA323D0040E0C016B27000E6C23020E75
:101AD0005B6F040E5C6F020E5D6F180E5E6F010E81
:101AE000006E530EE96E0C0EEA6EEF50D1EC1AF058
:101AF00000240F0BF36EF46EF346F346F346F34601
:101B00000F0EEF14F310EF6EF45000C35FFC01C32F
:101B100060FC02C361FC03C362FC18C163FC19C111
:101B200064FC1AC165FC1BC166FC0C01676B060EE8
:101B3000686F6BCC69FC6CCC6AFC6BCC63F56CCCCD
:101B400064F504EC51F0F3CF69FCF4CF6AFC0C0EA1
:101B500005016B6F6C6B05015F0E696F0C0E6A6F90
:101B60001FEC51F0F3CF57FCF4CF58FC0C01571F7A
:101B7000581F06018A0E1E6F0A0E1F6FCDEC3DF036
:101B80006BCCF2F66CCCF3F60601060EF16F060193
:101B9000180EEF6F010EF06F32EC83F0140E3AEC7A
:101BA0001AF0470E316F0C0E326FF7EC3FF0010167
:101BB000ADA309D0040E3AEC1AF05B0E316F0C0E97
:101BC000326FF7EC3FF006019E0E206F0A0E216F78
:101BD000DBEC3DF06BCC6DF56CCC6EF570EC51F040
:101BE000F3CF45FCF4CF46FC0601AE0E1E6F0A0E85
:101BF0001F6FCDEC3DF0020E3AEC1AF0450E316F3E
:101C00000C0E326FF7EC3FF099EF3DF021EC17F03E
:101C1000EE50ED1001E1000C0B01FE0E016F9DEC8A
:101C200019F032EC19F09DEC19F00450EE24026E1C
:101C30000550EE20036E73EC1AF00250EE24006E95
:101C40000350EE20016E21EC17F00050EE18026FE9
:101C50000150EE18036F006B0051C9EC17F048E219
:101C600000CB45F19AEC00F00D0E01013F5D3DE027
:101C7000040E3F5D0BE1D7EC1AF00050421935E13C
:101C80000150431932E100CB01FB2FD00B0102516F
:101C9000010142192AE10B0103510101431925E118
:101CA000C2EC00F0D7EC1AF00101125100181DE14E
:101CB000135101181AE173EC1AF0BAEC18F0105134
:101CC000021813E11151031810E19DEC19F0EE50C8
:101CD00018190BE1EE50191908E1EE501A1905E137
:101CE000EE501B1902E101E1010C0B01002BB4D7EE
:101CF000FE0E015D21E001CB45F115EC1AF0FE0E60
:101D00000B01015D19E002CB42F103CB43F1AAECD8
:101D100019F093EC19F069EC18F073EC1AF0EECFAF
:101D200010F1EDCF11F121EC17F0EECF12F1EDCF64
:101D300013F13FEC1AF0010C73EC1AF00D0E55EC98
:101D40001AF0EF50020B01E1000C0501B751B81178
:101D500001E0000C0B01046B056B030E045D000E2B
:101D600005593BE249EC1AF006EC1BF036E049EC71
:101D70001AF070EC18F0F0EC17F021EC17F0BAEC58
:101D800018F00250001824E10350011821E149EC39
:101D90001AF02FEC1AF0F0EC17F073EC1AF0BAEC22
:101DA00018F00250001814E10350011811E19DECE5
:101DB00019F021EC1BF0EE500001001808E1EE5084
:101DC000011805E1EE50021802E1EE50031848E058
:101DD0000B01042B000E0523C0D7006B0051C9EC8A
:101DE00017F04EE200CB45F19AEC00F0010140A75C
:101DF00044D0C2EC00F0D7EC1AF0005001011219E7
:101E00003CE10150131939E1AAEC19F049EC1AF040
:101E10005DEC19F0FEEC18F073EC1AF0F0EC17F032
:101E200049EC1AF02FEC1AF000C0EEFF01C0EDFFF4
:101E300073EC1AF0040E55EC1AF021EC1BF00C0EAA
:101E400055EC1AF000C0EEFFE6EC1AF0D7EC1AF0F1
:101E500049EC1AF070EC18F000C0EEFF01C0EDFF85
:101E600000EC91F01FC001F049EC1AF037EC1AF0C9
:101E70001EC0EEFF01C0EDFF000C0B01002BAED722
:101E8000000C78EC1AF011EC17F0F3CFEEFF01C064
:101E9000EDFF78EC1AF0020E55EC1AF011EC17F089
:101EA000020EF3CFEBFF030E05EC19F0040E5FEC0E
:101EB00017F0040E35EC18F0080E5FEC17F0080E62
:101EC00035EC18F00E0E55EC1AF011EC17F00E0E62
:101ED000F3CFEBFF0F0E05EC19F070EC18F011ECDE
:101EE00017F0100EF3CFEBFF110E05EC19F037ECE5
:101EF0001AF011EC17F0120EF3CFEBFF130E01C026
:101F0000EBFF1200C2EC00F012C142F113C143F129
:101F100016EC19F029C131F12AC132F12BC133F18C
:101F20002CC134F125EC1AF001014051080B02E0FC
:101F3000040E01D00D0E3F6F4091409340954099A3
:101F4000409B409D409F41914193419541974189DC
:101F500024912493249724993FEC1AF0EDEC4DF052
:101F6000F3CF06F1F4CF07F1EDEC4DF0F3CF08F12C
:101F7000F4CF09F1010122692369010E146F156B79
:101F800012000C0E0601F46FF56BA2EC83F097ECD7
:101F90003FF00B01006FF00E0015E840E8403F0BEA
:101FA000E3EC19F000C000FB005046E0070E78ECAF
:101FB00019F00B010051000700093EE044EC1AF053
:101FC000E8503AE00105F5E0020E015D26E1030E5E
:101FD000005D32E3026B036B44EC1AF0040E015D0A
:101FE00008E197EC3FF00B01036F97EC3FF00B011A
:101FF000026F180E025D020E03591EE3B40ED88064
:102000000255050E035504E2B40EF36E050E17D00B
:1020100002CBF3FF03CBF4FF1200020E005D0CE3D2
:1020200044EC1AF0E850005D07E3015178EC19F038
:102030000B010151005FBDD7180EF36E020EF46E56
:10204000120098EC1AF00D0E55EC1AF0EFCF33FC9D
:1020500098EC1AF0080E55EC1AF0EECF34FCEECFE7
:1020600035FCEECF36FCEFCF37FC98EC1AF0040EBF
:1020700055EC1AF0EECF38FCEECF39FCEECF3AFC3F
:10208000EFCF3BFC010140914093409540B902D015
:10209000F0EC16F03F51050A1FE0010A08E0B7C155
:1020A0003CFCB8C13DFC0C0133A14AD046D00C0128
:1020B00033B510D033A906D0BFEC18F0040EA7EC4E
:1020C0001AF008D033A306D058EC18F0EAEC19F057
:1020D000ABEF18F082EF0FF00C0133B5120033A90B
:1020E00010D0E2EC18F00101061908E1EE500719D2
:1020F00005E1EE50081902E1EE50091902E042EF45
:1021000017F00C0133A30FEF15F058EC18F080EC2A
:1021100019F0EECF14F1EDCF15F1EAEC19F00C0146
:1021200033A909D02DEC17F00101070E3F6FF0EC39
:1021300016F040991200ABEF18F03C2B000E3D2337
:1021400033A303D03C2B000E3D23DCEC18F00AE354
:102150009EEC18F00C010250005C316F03500158E6
:10216000326F0DD03351355D0C01316F01013451A7
:1021700036590C01326F010E315F000E325B0A0ED0
:10218000E96E010EEA6EEE50385D2B6FEE50395954
:102190002C6FEE503A592D6FEE503B592E6F2BCCD1
:1021A0002FFC2CCC30FC3E6B3C513D115FE031519B
:1021B000321169E0800E2E1503E162EC18F03BE36A
:1021C0003CCC00F03DCC01F0026A036A2B0EE96EB4
:1021D0000C0EEA6EEE500026EE500122EE50022266
:1021E000EE5003220334000E031809E6D880000ED7
:1021F0000054000E0154000E0254000E03541DE260
:102200003C51315D046E32513D55056E066A076AD8
:1022100005AE02D00668076807502E19E8AE02D056
:102220002E3508D02B51045C2C5105582D510658E1
:102230002E51075802E3010E3E6FEDEC1AF02E51BD
:102240000318E8AE02D0033402D0BBEC1AF01BE254
:102250002F513C25046E30513D21056EE83413E2C8
:1022600004500008000E05540EE20BD02B512C1127
:102270002D112E1106E0800E2E1505E162EC18F0EE
:1022800002E2010E3E6F3E5104E133B5C8D32DEF9B
:1022900017F0060E331502E082EF0FF033A912009B
:1022A00001013F510C0A01E1B6D10B0A1CE00F0AF3
:1022B0001AE0010A18E0020A16E0010A14E00C0A0A
:1022C00001E0B9D1E2EC18F0061908E1EE50071967
:1022D00005E1EE50081902E1EE50091902E042EF63
:1022E00017F0070E3F6F0E512F5D0C01296F010192
:1022F0000F5130590C012A6F800E2A1508E0010198
:102300001AEC17F000500C01292701502A2329CC80
:1023100000F02ACC01F0026A036A0AEC1BF0EE50CE
:102320000024256FEE500120266FEE500220276F0B
:10233000EE500320286FE2EC18F0255D006EEE50A1
:102340002659016EEE502759026EEE502859036E41
:102350000001800E031402E0B2EF19F0010184ECD9
:1023600019F001AE02D0026803680AEC1BF00050BD
:10237000EE5C0C01256F0150EE58266F0250EE58AE
:10238000276F0350EE58286F010198EC19F00BE20B
:102390000FEC1BF000500C01255F0150265B025032
:1023A000275B0350285B250EE96E0C0EEA6EEE509B
:1023B0000C01345D256FEE503559266FEE503659BD
:1023C000276FEE503759286FE834000E281909E6B8
:1023D000D880000E2555000E2655000E2755000EFC
:1023E00028556CE201010FEC1BF00C012551005C3B
:1023F0002651015827510258285103585FE3010123
:1024000024972499419131C129FC32C12AFC0C0145
:102410002551010131270C012651010132230C0104
:10242000295101010E5D0C012A5101010F5909E3E7
:1024300098EC19F02FE20E51315D006E32510F55BC
:102440001BD01AEC17F00E5100240C01296F01016A
:102450000F5101200C012A6F010131510C01295D3E
:10246000010132510C012A5915E229510101315D56
:10247000006E32510C012A55016E0001005001011D
:1024800006270001015001010723000E082309233C
:1024900032EC1AF001012B51315D2C51325906E317
:1024A0001AEC17F00050315F0150325B2B510E5D7A
:1024B0002C510F5928E3E0EC1AF025D001010E5100
:1024C000311902E10F5132191EE024A71BD024A9B3
:1024D00018D084EC19F001AE02D0026803680050F5
:1024E000B2EC18F098EC19F009E20FEC1BF001AE19
:1024F00002D0026803680050B2EC18F032EC1AF017
:102500004185248924872F5131191CE1305132191A
:1025100019E141B704D0F0EC16F0409913D079ECF2
:1025200017F010E1EE5035190DE1EE5036190AE1C1
:10253000EE50371907E106E101012451010B02E0D9
:1025400040994197E2EC18F00101065D006EEE50F3
:102550000759016EEE500859026EEE500959036E8C
:1025600080EC19F00C010050EE5C3F6F0150EE580A
:10257000406F01011451151106E10C013F5140114A
:1025800002E0010141833FCC14F140CC15F1080E6B
:1025900001013F5D20E179EC17F04DE1EE50351976
:1025A0004AE1EE50361947E1EE50371944E143E174
:1025B00001012451010B3FE059EC1AF0BA0E010160
:1025C00037271A0E3823030E3923000E3A23408989
:1025D000090E3F6F30D0090E3F5D0AE10C0133B1A7
:1025E0002AD0BFEC18F0140EA7EC1AF082EF0FF00F
:1025F0000A0E3F5D20E179EC17F00CE1EE50351941
:1026000009E1EE50361906E1EE50371903E101E019
:1026100006D278DC120079EC17F00CE1EE50351997
:1026200009E1EE50361906E1EE50371903E101E0F9
:10263000F6D168DC12000C0133BB12000B0E010155
:102640003F5D01E112000A0E3F5D01E112000C0E38
:102650003F5D01E11200B751B81101E166D10C01F3
:10266000303504E22F510008000E305501E2A2D0AF
:10267000E8EC17F0006E016A2F51F35C0601F46F6D
:102680000C01305101580601F56FA2EC83F00C01EA
:102690002F510101B7270C0130510101B823B75167
:1026A0000C01315D0101B8510C01325904E231CC09
:1026B000B7F132CCB8F10101B7510A27B8510B2359
:1026C000000E0C230D233351B725006E3451B82171
:1026D0008DEC19F024E233512D5D0C01296F0101BD
:1026E00034512E590C012A6F010E2927000E2A237E
:1026F000F4EC1AF033C1BFF134C1C0F164EC1AF04C
:1027000009EC19F0006EB8510C012A55016E010157
:102710002B510024336F2C510120346F0CD08DECE1
:102720001AF033C1BFF134C1C0F153DA0101B7511E
:102730003327B8513423221D01E1231D01E1F5D0D7
:10274000B751225FB851235B165122250C01296F26
:102750000101175123210C012A6F800E2A1502E076
:10276000010125D00101233504E222510008000EA9
:10277000235501E2DAD00C01295101010A270C018D
:102780002A5101010B23000E0C230D230C012951AA
:10279000010133270C012A510101342333512D5DEE
:1027A00034512E5904E251DB335F0150345B22690E
:1027B0002369BBD0303501E3B8D02F510008000E9B
:1027C000305501E3B2D00101B7510C012F25006E45
:1027D0000101B8510C013021016E0050315D0150F2
:1027E000325909E22F51315D0101B76F0C013051AF
:1027F00032590101B86FECDB0601F46FF56BA2EC06
:1028000083F013EC1BF0026E18EC1BF0036E025009
:102810000101B725006E0350B8218DEC19F031E2AB
:1028200033512D5D006E2E5134557DEC1AF00C01A4
:102830002F51005C296F305101582A6F800E2A15E4
:1028400008E1F4EC1AF0C4EC18F0C06F64EC1AF074
:102850001DD08DEC1AF013EC1BF0006E18EC1BF081
:10286000016E01012B512D5D026E2E512C55036E10
:1028700010EC1AF001010250005CBF6F03500158C8
:1028800004D08DEC1AF0C4EC18F0C06FA2D901018D
:10289000221D0BE1231D09E12FCC22F130CC23F1C5
:1028A000B7C116F1B8C117F140D022510C012F5D0C
:1028B000010123510C0130591EE238DB06E30C0103
:1028C000CAEC18F02351055805E2B7C116F1B8C19A
:1028D00017F10CD00FEC19F00C012F51005C010125
:1028E000166F0C01305101580101176F2FCC22F1E6
:1028F00030CC23F11AD01ADB18E20FEC19F00C01DE
:102900002F51005C3051015810E3CAEC18F0026EF0
:1029100023510558036E1651025C006E175103587F
:10292000016E00501627015017230C013C513D1138
:1029300019E0070E01013F5D04E033C135F134C1F8
:1029400036F140AF04D089DAC2EC00F00BD0408FF2
:1029500040BD08D0408DF1EC19F00F0E01013D276C
:10296000000E3E230C0133A15AD00AC100F00BC166
:1029700001F00CC102F00DC103F0002A000E01228B
:10298000022203223CCC04F03DCC05F0066A076A23
:10299000380EE96E0C0EEA6EEE500426EE5005225B
:1029A000EE500622EE5007220050041838E1015084
:1029B000051835E10250061832E1035007182FE1DF
:1029C0002EE1FAEC1AF03F51090A24E0010A12E064
:1029D0000F0A06E0010A22E10C0E3F6F65EF18F0C6
:1029E0000B0E3F6FF1EC19F01F0E01013D27000E99
:1029F0003E2314D07EDA0AE1EE50351907E1EE509D
:102A0000361904E1EE50371901E104E001010A0E24
:102A10003F6F04D0B2EC19F082EF0FF01EDA120013
:102A2000B9C145F19AEC00F00101BA51BB1103E1C3
:102A3000010EBA6FBB6B29512D5D0B01306F010187
:102A40002A512E590B01316F010E305F000E315BA0
:102A50000101F8EC19F00B010050305D01503159C3
:102A600001E2000CC2EC00F0030E0101BE1502E110
:102A7000030EBE13BCC134FBBDC135FBF8EC19F02D
:102A800000500B01305F0150315B0101BEA313D038
:102A9000BEA10CD030CB00F031CB01F0D890013288
:102AA000003200500B013427015004D00B0130518B
:102AB000342731513523010129510B013425306F61
:102AC00001012A510B013521316F010E3027000E13
:102AD000312333C132FB34C133FB0101221D01E13B
:102AE000231D13E09CDB00500B01322701503323E0
:102AF000325101012D5D0B01335101012E5905E2C7
:102B0000A4D90B01325F0150335B0B01325101013B
:102B1000355D0B013351010136590CE20B01305187
:102B20000101355D0B0131510101365918E2BEA595
:102B30000ED0000CB8EC19F00AE2305101012B5D07
:102B40000B01315101012C590AE2BEB5000C30CB0A
:102B500035F131CB36F130CB33F131CB34F10101EA
:102B6000B8EC19F025E2040E0101BE1521E02B514D
:102B70000B01325D0101C56F01012C510B0133596D
:102B800081DB44C1C1F130CBBFF131CBC0F121D8E1
:102B900013DB0EE20B01305101012B5D006E2C5155
:102BA0000B013155016E00500101335F0150345B60
:102BB00030CB2BF131CB2CF13FEC1AF029C131F1A4
:102BC0002AC132F133DB070E01013F5D01E145D936
:102BD000010C0101C4512AE0010A01E01200C151B7
:102BE00011E0010A01E01200C5C1E6FFC6C1E6FF1F
:102BF000C2C1E6FFC3C1E6FFBFC1E6FFC0C1E6FF39
:102C000069EF18F0BF1D01E1C01D06E0BFC11EF64F
:102C1000C0C11FF6CDEC3DF0C5C133F6C6C134F6D8
:102C2000C2C131F6C3C132F6F7EF3FF0C15117E030
:102C3000010A01E01200C21D01E1C31D06E0C2C18C
:102C400020F6C3C121F6DBEC3DF0C5C12EF6C6C1AE
:102C50002FF6BFC12CF6C0C12DF6ABEF3FF0C5C1BA
:102C60002AF6C6C12BF6C2C128F6C3C129F6BFC1D8
:102C700026F6C0C127F60BEC3EF096EC3FF00009BB
:102C8000FCE012000101C9510EE0010A01E012004E
:102C9000CDC1E6FFCEC1E6FFB2DBC7C1E6FFC8C1CA
:102CA000E6FF06EF1AF0C71D01E1C81D06E0C7C127
:102CB0001EF6C8C11FF6CDEC3DF0100E0B01296FBA
:102CC0002A6B0101CD51CE1137E00B0129510101D1
:102CD000CD5D0B012A510101CE5904E2CDC129FB82
:102CE000CEC12AFB29CBE6FF2ACBE6FF88DB190EF3
:102CF000E66E0B0EE66E8ADB29CB33F62ACB34F672
:102D00000601190E316F0B0E326FF7EC3FF029CB35
:102D100000F02ACB01F0026A00500101CA270150DD
:102D2000CB230250CC230B0129510101CD5F0B01B4
:102D30002A510101CE5BC5D71200140EEA02F3CF6F
:102D4000EAFFE902F3CFE9FFF450EA267F0EE92615
:102D5000050EEA2212007CCBC5F17DCBC6F1010144
:102D6000020ED880C557000EC657140EC603F3CF07
:102D7000C6F1C503F3CFC5F1F450C6270101010E1A
:102D8000C46F0B017C250101C26F000E0B017D2178
:102D90000101C36F140EC303F3CFC3F1C203F3CF1A
:102DA000C2F1F450C3277F0EC227050EC3231DECCA
:102DB0001BF0140E206E216A7CCB25F07DCB26F013
:102DC0007DEC8CF01EC0BFF11FC0C0F17F0E010171
:102DD000BF27050EC023FDDE0501B76BB86B1200DF
:102DE00068DB740E01013727350E3823060E3923B0
:102DF000000E3A2312003A0E006E270E016E010EED
:102E0000026E30CB03F0046A056A060E246E256A52
:102E1000266A30CB1FF004C020F005C021F09BEFE4
:102E20008CF0EECF63F5EDCF64F504EC51F0E9DB07
:102E300078EF1AF029512B5D006E2C512A55016E46
:102E4000120051DB020E55EF1AF02B512D5D006E72
:102E50002E512C5552DB0050120065DB100EA7EFEF
:102E60001AF06BDB060E4FD300501C24F36E01509A
:102E70001D20F46E02501E20F86EF4CFF7FFF3CF42
:102E8000F6FF120006C138FC07C139FC08C13AFC44
:102E900009C13BFCDDDB47DB040E59DB38CC06F116
:102EA00039CC07F13ACC08F13BCC09F11200010111
:102EB000C46B0101C269C36944C1C1F11200F5DAF2
:102EC000EECF65F5EECF66F5EECF67F5EFCF68F59F
:102ED00009EC51F01EC000F01FC001F020C002F04C
:102EE00021C003F078EF1AF0016E00C0F3FFF46E1A
:102EF000120090DBEE500C01341912000ACC96F14E
:102F00000BCC97F10CCC98F101010ACCF6FF962B73
:102F10000BCCF7FF000E97230CCCF8FF982308008A
:102F2000F5CF0EFC120009DB1F0EEDD22F5101016F
:102F3000B725006E0C0130510101B821016E2251FC
:102F40001625026E23511721036E0050025C0150BA
:102F5000035812001A511825026E1B511921036ED5
:102F600002501025006E035011210ED3F6EC90F0A4
:102F7000010137511E5C006E38511F58016E3951E6
:102F80002058026E3A512158036E0001800E03143E
:102F90001200006E016A030E005C000E0158120060
:102FA000A951EA6AAD0FE96E0C0EEA2212000D512A
:102FB000EA6A110FE96E0C0EEA22120096C1F6FFC2
:102FC000962B97C1F7FF000ECDDA010E106F12009D
:102FD000AFDA0C0E6ADAEF50E4DA040DF3501200A7
:102FE000EECF00F0EFCF01F012000101010EC46F2F
:102FF00064C1C2F165C1C3F1AAEF1AF044C1C4F1C2
:1030000035C1C2F136C1C3F118DB7CC1BFF17DC14E
:10301000C0F1E9EF15F000010224006E000E03205C
:103020006CDA00C0F3FF01C0F4FF120044C1C4F128
:103030000EC1C2F10FC1C3F10101C16B0101B20E9A
:10304000BF6F0A0EC06FE9EF15F0F6EC90F01E505E
:1030500001010225376F1F500321386F20500421D2
:10306000396F215005213A6F12001FDA1EC0EEFFA2
:10307000ADDA78EF1AF069C1CAF16AC1CBF16BC160
:10308000CCF144C1C9F12FC1C7F130C1C8F142EF41
:1030900016F0A7CC8CF1A8CC8DF10101A7CCE9FFEB
:1030A000A8CCEAFF8C2B000E8D23EFCFAAFC1200D8
:1030B00038CC0AF139CC0BF13ACC0CF13BCC0DF108
:1030C000FAEF1AF08ADABBEF1AF02DDA110EA7EF39
:1030D0001AF05BEC81F0006E060EE15E005012000B
:1030E000100E55EF1AF01C0D8CDAA70E0026030EF9
:1030F000012200C0E6FF01C0E6FF1200036E02508D
:103100004B25006E03504C213FD244C1C4F100CB8B
:10311000C2F101CBC3F191DA82C1BFF183C1C0F129
:1031200012008CC1E9FF8DC1EAFF8C2B000E8D23AC
:10313000EFCFAAFC0C01010EAC6F12002B512D5DDC
:10314000006E2E512C55016E3551335D026E345197
:103150003655036E1200E7D9120EF9D90101060E99
:103160003F6F1200065F0150075B0250085B03507F
:10317000095B1200EECF02F0EFCF03F0120068DA25
:103180000101AE6B010112004EDA0101BF6F50DA8E
:10319000010112002F510101B725046E0C013051BD
:1031A0000101B821056E2251045C12000101C56FB6
:1031B000C66B44C1C4F1120001013551335D365173
:1031C00034591200340EE96E0C0EEA6EEE50120005
:1031D000D8511C0DF3CFE9FFF4CFEAFFA70EE92683
:1031E000030EEA22120000EC91F001011E503D5D39
:1031F000006E1F503E59016EE83412005BEC81F006
:10320000026E060EE15E0250120001C0EBFF78EF85
:103210001AF0DFDC0C0129510101B75D12002251C7
:103220001625006E23511721016E120029C12FF1BE
:103230002AC130F112000C016C6F6B510101145D59
:103240000C016C51010115591200006E016A005009
:10325000120046C118F147C119F148C11AF149C11C
:103260001BF11200020E21D9EECF04F0EFCF05F0D2
:1032700012000B01325101016C5D0B013351010150
:103280006D5912000101C66F44C1C4F12BC1C2F1D6
:103290002CC1C3F1120001018E510C019F5D01018F
:1032A0008F510C01A0591200010199510C01025DCE
:1032B00001019A510C0103591200E9CF00F0EACF45
:1032C00001F0E9CFE6FFEACFE6FF12000C016B51F7
:1032D0000101255D0C016C510101265912000C0100
:1032E0006B5101010E270C016C5101010F231200DB
:1032F00006012E6F2F6B06012C6B2D6BABEF3FF091
:1033000017D90E0E55EF1AF031510E5D006E0F51A8
:103310003255016E026A036A1200016E00502D5D83
:1033200001502E591200180EE66E010EE66E1200C4
:1033300031510E5D32510F591200B1C1E9FFB2C1D6
:10334000EAFF12003C510101665D0B013D51010194
:10335000675912000A0EE66EE66AB1C1E6FFB2C115
:10336000E6FF12000101AE6B0101100EA7EF1AF08B
:1033700035510B01325D010136510B0133591200F9
:103380009AEC00F033C135F134C136F11200016E10
:1033900001012B51005C2C510158120001018E07D4
:1033A000000E8F5B8E518F11120001019907000EE4
:1033B0009A5B99519A111200272BD8900237033744
:1033C000043705371200006E016A140E005E000E0D
:1033D000015A1200C1EC0FF0F3CF25F1F4CF26F122
:1033E000120000EC91F01EC03DF11FC03EF1120032
:1033F000BA51BC25006EBB51BD21016E1200CAC17D
:10340000E6FFCBC1E6FFCCC1E6FF120086EC81F0FF
:10341000006E070EE15E005012000FD9010112008C
:10342000010E0226000E032212009AEC00F0C2EFF9
:1034300000F061C15FF1D1EF02F063C15FF1D1EF44
:1034400002F068C15FF1D1EF02F02BC135F12CC160
:1034500036F1120000500008000E015412000A0E4E
:1034600055EF1AF031C10EF132C10FF11200120EF8
:1034700055EF1AF00601336F346B0601120029C1B3
:103480000EF12AC10FF1120097EC3FF00B01016F12
:10349000120004CBE9FF05CBEAFF9DEF16F07CCBD1
:1034A000E9FF7DCBEAFF9DEF16F0E926000EEA2248
:1034B0001200F6EC90F01EC037F11FC038F120C0AA
:1034C00039F121C03AF11200A4DE0101C56F0C01EF
:1034D0002A510101B8590101C66FE9DC2BC1BFF1C6
:1034E0002CC1C0F11200AFC1E9FFB0C1EAFF120068
:1034F000B3C1E9FFB4C1EAFF1200016E010E00265C
:10350000000E012212000026000E012202220322D8
:1035100000C03BF101C03CF11200B7C1C5F1B8C118
:10352000C6F157EF17F00101010EAE6F0101120055
:10353000B5C1E9FFB6C1EAFF1200408B00EC91F083
:103540001EC000F01FC001F0026A036A1200AD6FD6
:10355000B2EF0BF044C1C1F12FC1BFF130C1C0F1D6
:10356000E9EF15F0972398C1F8FF98230800F5CFED
:103570000EFC0C01120000502B5D01502C59025022
:103580002D5903502E591200016E00501219426F2E
:1035900001501319436F12004DDCD89001320032F4
:1035A0001200F00BE842E842E842E842120049DC2F
:1035B000F0EF17F01DC004F01EC005F034EF17F057
:1035C00039DC00500E5F01500F5B120001C0EEFFAE
:1035D00002C0EEFF03C0EEFF120031CC00F032CC8F
:1035E00001F0026A036A120029CCC5F12ACCC6F1A7
:1035F00057EF17F001010A2B000E0B230C230D23AC
:103600001200F3CF00F0F4CF01F0120069DDEE50AC
:10361000ED101200060EE96E010EEA6E12000ADCD1
:10362000026A036A1200010133510C012F251200B6
:10363000010134510C01302112000101010EC16F52
:103640001200EECF00F0EECF01F094DD49EF1AF05A
:1036500034CC06F135CC07F136CC08F137CC09F182
:02366000120056
:0E366200490E0701221905E1235103E124510D
:1036700001E1255101E1E4D2480E221905E123516F
:1036800003E1245101E1255101E1D8D2470E22196D
:1036900005E1235103E1245101E1255101E1C8D2A3
:1036A000460E221905E1235103E1245101E1255180
:1036B00001E1BCD2450E221905E1235103E1245159
:1036C00001E1255101E1AFD2440E221905E1235158
:1036D00003E1245101E1255101E19FD2430E22195A
:1036E00005E1235103E1245101E1255101E193D288
:1036F000420E221905E1235103E1245101E1255134
:1037000001E186D2330E221905E1235103E1245150
:1037100001E1255101E173D2310E221905E1235156
:1037200003E1245101E1255101E163D2300E221958
:1037300005E1235103E1245101E1255101E157D273
:103740002F0E221905E1235103E1245101E12551F6
:1037500001E14AD22E0E221905E1235103E1245141
:1037600001E1255101E13ED22D0E221905E123513F
:1037700003E1245101E1255101E132D22C0E22193D
:1037800005E1235103E1245101E1255101E126D254
:103790002B0E221905E1235103E1245101E12551AA
:1037A00001E11AD22A0E221905E1235103E1245125
:1037B00001E1255101E10ED2290E221905E1235123
:1037C00003E1245101E1255101E102D2280E221921
:1037D00005E1235103E1245101E1255101E1F6D135
:1037E000270E221905E1235103E1245101E125515E
:1037F00001E1EAD1260E221905E1235103E124510A
:1038000001E1255101E1DED1250E221905E1235107
:1038100003E1245101E1255101E1D2D1240E221905
:1038200005E1235103E1245101E1255101E1C6D114
:10383000230E221905E1235103E1245101E1255111
:1038400001E1BAD1220E221905E1235103E12451ED
:1038500001E1255101E1AED1210E221905E12351EB
:1038600003E1245101E1255101E1A2D1200E2219E9
:1038700005E1235103E1245101E1255101E196D1F4
:103880001F0E221905E1235103E1245101E12551C5
:1038900001E18AD11E0E221905E1235103E12451D1
:1038A00001E1255101E17ED11D0E221905E12351CF
:1038B00003E1245101E1255101E172D11C0E2219CD
:1038C00005E1235103E1245101E1255101E166D1D4
:1038D0001B0E221905E1235103E1245101E1255179
:1038E00001E156D11A0E221905E1235103E12451B9
:1038F00001E1255101E14AD1190E221905E12351B7
:1039000003E1245101E1255101E13ED1180E2219B4
:1039100005E1235103E1245101E1255101E131D1B8
:10392000170E221905E1235103E1245101E125512C
:1039300001E122D1160E221905E1235103E12451A0
:1039400001E1255101E116D1150E221905E123519E
:1039500003E1245101E1255101E103D1140E2219A3
:1039600005E1235103E1245101E1255101E1F4D0A6
:10397000130E221905E1235103E1245101E12551E0
:1039800001E1E5D0120E221905E1235103E1245192
:1039900001E1255101E1D7D0110E221905E1235192
:1039A00003E1245101E1255101E1C8D0100E221993
:1039B00005E1235103E1245101E1255101E1BAD090
:1039C0000F0E221905E1235103E1245101E1255194
:1039D00001E1ABD00E0E221905E1235103E1245180
:1039E00001E1255101E19DD00D0E221905E1235180
:1039F00003E1245101E1255101E191D00C0E22197E
:103A000005E1235103E1245101E1255101E183D076
:103A10000B0E221905E1235103E1245101E1255147
:103A200001E177D00A0E221905E1235103E1245167
:103A300001E125516CE0090E221905E1235103E152
:103A4000245101E1255161E0080E221905E12351BD
:103A500003E1245101E1255156E0070E221905E149
:103A6000235103E1245101E125514BE0060E2219B7
:103A700005E1235103E1245101E1255140E0050E08
:103A8000221905E1235103E1245101E1255135E0DB
:103A9000040E221905E1235103E1245101E12551CE
:103AA0002AE0030E221905E1235103E1245101E12B
:103AB00025511FE0020E221905E1235103E1245193
:103AC00001E125510FE0010E221901E0BBD0235185
:103AD00001E0B8D0245101E0B5D0255101E0B2D0C9
:103AE000C9EF30F007018F0E406F6F0E416F000E6F
:103AF0008CD0DEEF30F034EF1EF0E6EF2EF0070E44
:103B00000BD0060E09D0050E07D0040E05D0030E0B
:103B100003D0020E01D0010E0401E56F2FD021EF7A
:103B200030F0010E0401E96F02D00401E96BEA6B89
:103B3000040E1BD0010E0401E96F02D00401E96BF1
:103B4000EA6B030E12D0010E0401E96F02D00401EA
:103B5000E96BEA6B020E09D0010E0401E96FEA6B12
:103B600004D00401E96BEA6B010E0401E76FE86B16
:103B7000AAEF2FF016EF2FF00401E56BE66B57EF7D
:103B80002FF00401E36B07D0010E03D0020E01D029
:103B9000030E0401E36FE46B1EEF2FF00AEF30F029
:103BA000F4EF30F0E0EF31F0BDEF31F0C5EF31F080
:103BB000B9EF31F0BAEF31F0BBEF31F0EAEF31F0AD
:103BC00091EF31F04FEF31F054EF31F05FEF31F022
:103BD00069EF31F073EF31F07DEF31F087EF31F0C5
:103BE000B2EF31F0B4EF31F00401F36B05D0010E08
:103BF00001D0020E0401F36FF46BBCEF31F007014A
:103C0000840E406F6F0E416F000E426FABEF27F0D6
:103C10000401EF6B05D0010E01D0020E0401EF6F1D
:103C2000F06BB0EF31F00401F16B05D0010E01D063
:103C3000020E0401F16FF26BB1EF31F0DAEF31F007
:103C4000DDEF31F0040E01016C6F6D6B01017F0E31
:103C5000696F6F0E6A6F000E6B6FCEEC29F0EE523B
:103C6000EFCF68F1E0EF03F001017E0E626FE5EF48
:103C70002AF00401836B020E835D30E22FEC28F002
:103C8000EF6A0101080E4D6F500E01014B6F4C6B36
:103C900001014A6B0101466B476B486B496BBDECF8
:103CA00001F0E66ECEEC29F0EE52E552E750EF6EF1
:103CB00014691569835196EC28F090EC29F0F3CF44
:103CC00000FBF4CF01FBEBEC28F000CB1EF601CBA0
:103CD0001FF6CDEC3DF00401832BCDD7836B120092
:103CE0000B016C6B020E6C5D36E2A0EC28F0EE521C
:103CF000EF50FE082DE0A0EC28F0EE52EFCF4EF191
:103D000055EC02F0000914E06CCB26F725D8CEEC78
:103D100029F0EF6AFF0E145D02E01EEC29F0FF0EA1
:103D2000155D02E025EC29F00101040E63EC2AF098
:103D30000B01A0EC28F0EF5007E1A0EC28F091EC8B
:103D400028F0B3EC28F004E06CCB26F705D83ED879
:103D50000B016C2BC7D71200040183510701265DAC
:103D600001E112000401835196EC28F090EC29F057
:103D7000F3CF00FBF4CF01FBEBEC28F000CB1EF6F9
:103D800001CB1FF6CDEC3DF00701265196EC28F053
:103D900000C020F601C021F6DBEC3DF0F3CF00FBC4
:103DA000F4CF01FB7F0E06012E6F2F6B0601000E74
:103DB0002C6F040E2D6FABEC3FF000CB20F601CB47
:103DC00021F6DBEC3DF026C783F412000B01010E57
:103DD000066FCEEC29F0EF500B0A02E151EF23F011
:103DE000010A02E12EEF23F0030A02E117EF23F0AC
:103DF000010A01E1B9D30F0A01E11FD3010A01E170
:103E000002D3030A01E17AD2010A01E16ED2070A64
:103E100001E147D2010A01E1A4D1030A27E0010A26
:103E200002E05EEF23F08BEC2AF0F3CF00FBF4CF3F
:103E300001FBF350F41002E15EEF23F004011A0ECF
:103E4000106F040E116F2FEC28F0010EEF6E176942
:103E5000166B57EC28F00C690D690E690F69ABEC15
:103E600029F07E6B0101050E63EC2AF054EC28F07A
:103E70000A0EB6EC2AF0DDEC29F00001F31C14E187
:103E8000011C12E1CEEC29F0E7EC29F004E1EEECA4
:103E900029F00B01066B7EEC28F002E6C5EC28F059
:103EA00002E35EEF23F042D257EC28F0DDEC2AF07B
:103EB0000B01050ED880F354000EF45403E2050EF6
:103EC000006F016B010E31EC29F01A0E7C6F040EAD
:103ED0007D6F60EC2AF0030EE66EE66AAD0EE66ECC
:103EE000680EE66E000E32EC2AF003E10401186B56
:103EF00012D0040EE66EE66AA80EE66E680EE66E56
:103F0000000E32EC2AF004E10401010E186F03D018
:103F10000401070ECAD1DDEC2AF00101A66BF3CF34
:103F2000A4F1F4CFA5F10101A26BA36B01013F0E37
:103F3000A16FCEEC29F03BEC29F00B01F350005DB2
:103F4000F450015904E302CB00FB03CB01FB590EF3
:103F5000D8800055000E015501E2ECD0D2EC2AF0D9
:103F600049EC2AF01A0EF324E96E040EF420EA6EEE
:103F700065EC29F01A0EE66E040EE66E1BEC2AF0D4
:103F800049EC2AF00B0EE66EE66A9D0EE66E680EB0
:103F9000E66E000EE66E1B0EE66E040EB7EC28F021
:103FA0000CE13EEC29F0185102E1080E01D0090E97
:103FB000186F2FEC28F0020E2ED2E3EC28F002E06E
:103FC00048EC29F0FF0E0401145D31E1E3EC28F028
:103FD0000EE00B0102CBE9FF03CBEAFF022B000E40
:103FE00003231A0EE926040EEA222F0EEF6E96EC3A
:103FF00029F01A0E0B010225006E040E0321016E3A
:1040000000C0E6FFE66E1AEC82F0026E050EE15E7D
:10401000025096EC29F041EC82F0E552E552E5526F
:104020001F500B0102272050032348EC29F01A0EE1
:104030000B010225076F040E0321086F010E075FB5
:10404000000E085B1A0E071902E1040E081909E0B8
:1040500007CBE9FF08CBEAFFEF502E0802E0070785
:10406000EFD7072B000E08230401196B0B0EE76E28
:104070001919E8AE02D0E73402D0E750195D23E207
:10408000BD0E006E240E016E010E026E19C403F007
:10409000046A056A03AE02D004680568FFEC29F0E3
:1040A000F5CF60F50900F5CF61F50800F5CF62F5B1
:1040B00007CB5EF508CB5FF5C5EC50F0000903E0D7
:1040C0000401192BD3D73EEC29F0FF0E145D18E044
:1040D00014C4F2F02DEC45F0F350020B11E014C4BF
:1040E000FDF027EC46F0F3CFD4F0F4CFD5F0010E7D
:1040F0000001D427000ED5237FEC42F00401156F98
:10410000DDEC2AF0F350F4101CE00401010E166FF0
:104110000101040E796F0B0E7A6FCEEC29F07BEC67
:1041200029F00B010007000E015B620E005D000E1E
:10413000015903E30401050EB8D0D2EC2AF0CFEC0C
:1041400028F0E1EC2AF0010EF32401017E6F000E4D
:10415000F4207F6F0101CEEC2AF0CEEC29F0020EA4
:10416000EF6EE1EC2AF00B01F31C13E1011D11E1EC
:10417000CEEC29F0E7EC29F004E1EEEC29F00B019C
:10418000066B7EEC28F002E6C5EC28F001E396D23F
:10419000CDD057EC28F00B01010E00190BE10151B5
:1041A00009E1020EB0EC29F0CEEC2AF0CEEC29F0B9
:1041B000030E31D10101A66B00CBA4F101CBA5F117
:1041C0000101A26BA36B01013A0EA16FCEEC29F0A5
:1041D0003BEC29F0020E0B010227000E0323066BB5
:1041E000100ED8800255000E035502E2010E54D085
:1041F00002CB7EF103CB7FF10101090E7C6F0B0E28
:104200007D6F60EC2AF023EC2AF0090EE9260B0EF4
:10421000EA22EF6A0B010251005F0351015B056B5B
:104220000551006E016A030E005C000E01582EE27B
:104230002F0E006E250E016E010E026E05CB03F0EF
:10424000046A056A86EC29F005CB1FF034EC28F0EF
:10425000F5CFE6FF0900F5CFE6FF0800F5CFE6FF52
:10426000090EE66E0B0EE66EE3EC81F0066E050EAF
:10427000E15E0650000907E105CB27F7E8DA0B01FC
:10428000010E066F03D00B01052BCAD7065102E0C1
:10429000E1EC2AF0010E0B0131EC29F0CEEC2AF012
:1042A00060D7800E175D03E2030E186FB1D010C403
:1042B000E9FF11C4EAFF65EC29F0F3CF10F4F4CF65
:1042C00011F4080E0401185D01E1A2D02FEC28F0D2
:1042D000040EEF6E165104E12FEC28F0050EEF6E80
:1042E0000B01066B0401166BE9D12AEC2BF00208D6
:1042F00001E1E4D1CEEC29F0050EEF6E8BEC2AF053
:10430000BAEC2AF0F35004010C1914E101500D1914
:1043100011E102500E190EE103500F190BE10AE1F1
:104320007EEC28F002E6C5EC28F004E291EC2AF0DD
:104330000B0E71D0180515E0090EE76E1819E8AEDE
:1043400002D0E73402D0E750185D59E30B0EE76E58
:104350001819E8AE02D0183503D0E750D8801855A8
:104360004EE3090EE76E1819E8AE02D0E73402D02A
:10437000E750185D13E30B0EE76E1819E8AE02D094
:10438000183503D0E750D880185508E3CCEC26F058
:104390000B01046FE85006E104013AD0CAEC2BF09F
:1043A0000B01046F020E045D0CE18EEC2AF0B5ECFB
:1043B00029F00401010E0C5F000E0D5B0E6B0F6BFC
:1043C0007DD104051CE18EEC2AF0B5EC29F0040146
:1043D0000E6B0F6B57EC28F009EC29F00C5DEE50DA
:1043E0000D59EE500E59EE500F5906E22FEC28F001
:1043F000E7EC29F001E062D10401060E08D0CEEC12
:1044000029F0060EEF6EFF0E145D07E1040E186F23
:104410002FEC28F0070EEF6EA4D0ABEC29F0FF0EC6
:10442000155D05E1046905690669076902D052EC6A
:1044300029F0CEEC29F0070EEF6E0101020E63ECBD
:104440002AF0050E006E250E016E010E026E18C4D4
:1044500003F0046A056A03AE02D0046805687FECC5
:104460002AF00C0E0401185D0DE199EC2AF0800E83
:10447000726F680E736F000ECAEC2AF099EC2AF086
:104480004EEC2AF00401185106E0180504E02FEC68
:1044900028F00B0E04D10B0E195D1BE00101710E0B
:1044A000726F680E736F000ECAEC2AF0E10E006E98
:1044B000240E016E010E026E19C403F0046A056A2F
:1044C00003AE02D0046805687FEC2AF001014EECCF
:1044D0002AF014C4F2F02DEC45F0F350010B08E083
:1044E0000101580E726F680E736F000ECAEC2AF04D
:1044F0000101480E726F680E736F000ECAEC2AF04D
:10450000040118050CE0E868041908E1E8680519D9
:1045100005E1E868061902E1E868071907E001010A
:104520003F0E726F680E736F000E0DD00101360ED4
:10453000726F680E736F000EC7EC2AF0320E726F46
:10454000680E736F000EC7EC2AF04EEC2AF00401DF
:10455000165104E02FEC28F0080E02D0E8EC2AF007
:10456000EF6E0B01066BAAD01A0E126F040E136FBA
:1045700016515AE00101250E726F680E736F000E1E
:10458000CAEC2AF0F6EC28F022E0200E0B01045DC4
:1045900003E101012B0E14D0300E045D0FE3045132
:1045A000390803E2410E045D09E304515A0803E2AD
:1045B000610E045D03E304517A0804E26EEC2AF014
:1045C000626F02D004CB62F1E5EC2AF0DBD7010187
:1045D0003D0E626FE5EC2AF0F6EC28F01FE0200EAD
:1045E0000B01045D03E101012B0EF3D7300E045DD6
:1045F0000FE30451390803E2410E045D09E304515D
:104600005A0803E2610E045D03E304517A0803E2F1
:104610006EEC2AF0DED704CB62F1DCD701014EEC60
:104620002AF004011607A4D7E8EC2AF0EF6E0B017C
:10463000066B4AD8000909E01EEC29F02FEC28F09F
:104640000B0EEF6E0B01010E066FBEEC2AF0B3EC01
:1046500028F034E10B01010E066F30D00B01010E82
:10466000066FBEEC2AF0DDEC29F0100EF35C000EB4
:10467000F45824E308C422F709C423F70AC424F732
:104680000BC425F731EC1BF004010C510D110E1178
:104690000F1114E10B01066BCEEC29F0090EEF6E41
:1046A0000DD0FF0E145D02E01EEC29F0FF0E155D2B
:1046B00002E025EC29F091EC2AF0EF6A0B0106519B
:1046C00002E1E6EF1EF01200BEEC2AF0F3CF02FC8E
:1046D000F4CF03FCF3CF04F0F4CF05F0066A076AC9
:1046E00009EC29F00401045D086EEE500559096ECD
:1046F000EE5006590A6EEE5007590B6E0850F35CE7
:104700000950F4580A5006580B50075807E202CCDB
:1047100000F003CC01F0026A036A0DD009EC29F025
:10472000045D006EEE500559016EEE500659026EA2
:10473000EE500759036E00C000FC01C001FC0C01E3
:104740000050040100270C01015004010123000E58
:10475000022303230C01000ED8800055000E0155E2
:1047600030E2400E005D000E015905E200CCDDF0A4
:1047700001CCDEF004D00001400EDD6FDE6B0001E5
:10478000050EDB6F0C0EDC6F14C4DAF02FEC43F077
:10479000F3CF02FCF4CF03FC0C01F350F41001E161
:1047A000010C02CC66F103CC67F10101050E646FC8
:1047B0000C0EA8EC2AF00C010251005F0351015BC2
:1047C000C9D709EC29F00401041940E1EE5005199C
:1047D0003DE1EE5006193AE1EE50071937E136E1B6
:1047E0002FEC28F00A0EEF6E0C6B0D6B0E6B0F6B3F
:1047F0000001D86BD96B14C4D7F0CBEC42F00001A8
:10480000040ED86F0C0ED96F14C4D7F0CBEC42F065
:10481000000906E0A4EC29F07E0E0C01045DEFE136
:10482000A4EC29F00001080EE06F040EE16F15C43E
:10483000DFF083EC43F052EC29F0000907E10401BA
:10484000046905690669076925EC29F0000C070170
:10485000275102E1AEEF24F0270502E135EF24F005
:10486000020E275D01E1C9D81200040117BF120032
:10487000060EB0EC29F0CEEC2AF055EC2AF0DEEC76
:1048800028F0F3CF31FC030E0C013127FC0E311759
:10489000326B240E315D000E325903E3240E316F6A
:1048A000326B330E5B6F0C0E5C6F000ED88031558F
:1048B000000E325526E2040E01017E6F7F6B5BCC49
:1048C0007CF15CCC7DF160EC2AF0030E0501546FA5
:1048D000556B5BCC52F55CCC53F5040E0501506F63
:1048E000516B5BCC4EF55CCC4FF5BBEC4FF0040E3E
:1048F0000C01315F000E325B030E5B27000E5C2360
:10490000D4D7BAEC29F0EF6A316B326B330E5B6FA0
:104910000C0E5C6F280E315D000E32590BE2BAECC2
:1049200029F0EF503A0806E0312B000E32235B2BC2
:104930005C23F0D7BAEC29F05B2B000E5C23EF6A06
:104940005BCC88F45CCC89F40401330E866F0C0ECA
:10495000876F06EC2BF00401176F120055EC2AF05C
:1049600038EC2AF010C400F011C401F07E0ED8809B
:104970000056040E0156020E005E000E015A0B0195
:104980000050F35C0150F45802E3EEEF29F00B0104
:104990003251331131E088DB3B0EB6EC2AF0F3CF15
:1049A00030FBF4CF31FB0B013251F35C3351F4583F
:1049B00005E230CB7EF131CB7FF104D032CB7EF1FA
:1049C00033CB7FF110C47CF111C47DF160EC2AF08F
:1049D000E6DB0B013251305D3351315908E2C1EC55
:1049E0002AF062DB200EB6EC2AF0BDDBF8E055ECD5
:1049F0002AF038EC2AF0CBD7120055EC2AF0DEDB97
:104A0000F3CF30FBF4CF31FB0B010A0EF35C000E49
:104A1000F45805E30401020E186FABEF29F030CB18
:104A20007EF131CB7FF10101320E7C6F0B0E7D6F79
:104A300060EC2AF0F3CF30FBF4CF31FB320E0B01E8
:104A4000F324E96E0B0EF420EA6EEF6A320EE66E86
:104A50000B0EE66E5FEC7CF0E552E5521EC000F4F2
:104A60001FC001F420C002F421C003F4120028C7C3
:104A7000E6FF29C7E6FF1BEC2AF0F3CF1DFBF4CFBE
:104A80001EFB28C71BFB29C71CFB28C719FB29C70E
:104A90001AFB0B011D511E1142E080EC29F0000EA3
:104AA0001A23EFCF1FFB1D071E5B3D0E1F5D03E0AA
:104AB000260E1F5D03E14FDBEF6AEBD72B0E1F5D68
:104AC00003E149DB200E25D0250E1F5D24E1020EF7
:104AD0001D5D000E1E5903E21D6B1E6BDAD780ECC4
:104AE00029F0000E1A23EFCF21FB80EC29F01A23C6
:104AF000EFCF20FB1D071E5B1D071E5B20CB5AF569
:104B000021CB5BF58DEC50F0E66E0B0124DBE5521A
:104B1000E750EF6EBED71FDB1FCBEFFFBAD71BDB13
:104B2000EF6A1BCBE9FF1CCBEAFFEF6A1BCBF3FF5D
:104B30001CCBF4FF12002AC7E9FF2BC7EAFFEF5096
:104B400020E0BFEC29F02CC7E6FF2DC7E6FFC3EC41
:104B500081F0E552E552E552E55200090DE12CC71E
:104B6000E6FF2DC7E6FF1BEC2AF007012A51F324CC
:104B7000006E2B51F42058D304EC2AF004EC2AF0F8
:104B8000DAD7F36AF46A12002EC7E9FF2FC7EAFFEB
:104B9000EF5027E037DB1FC000F020C001F021C03C
:104BA00002F0002A000E0122022200C0E6FF01C02E
:104BB000E6FF3EEC2AF0E8DB3CEC81F0036E070EEA
:104BC000E15E0350000908E11DDB07012E511F249F
:104BD000006E2F51202028D30BEC2AF00BEC2AF08A
:104BE000D3D7F36AF46A120035C73EF736C73FF7EA
:104BF00033C73CF734C73DF707013D0E3B6F46D83E
:104C00000B014B6F0701335134110BE033C7E9FF40
:104C100034C7EAFFEF5005E033C728F734C729F758
:104C200026DF0B014B51120046DB260E3B6F2ED8C0
:104C30000B014B6F020E4B5D17E18EEC2AF0BAECC4
:104C40002AF004010051F3180FE1015101180CE1A1
:104C50000251021809E10351031806E105E12BDBBB
:104C60003B6B14D80B014B6F0701375138110BE028
:104C700037C7E9FF38C7EAFFEF5005E037C728F725
:104C800038C729F7F4DE0B014B51120007013B51E5
:104C900006E0C8DB3BC7A1F181DB94DB02D08EECE0
:104CA0002AF0F3CF49FBF4CF4AFB0B01F31C03E1DD
:104CB0004A1D01E1020C0701020E3E5D000E3F5944
:104CC00006E23C513D1103E0A1EC2AF038D03C5102
:104CD0003D1104E1A1EC2AF00B0143D0FEDA0B01F7
:104CE0004951005C4A5101582EE23EC77EF13FC750
:104CF0007FF10101020E7E5F000E7F5BAFEC2AF0B8
:104D00003EC704F03FC705F0020E045E000E055AD0
:104D100004500B01495D01017E6F05500B014A599A
:104D200001017F6F0101CEEC2AF03BDBD6DA0701EF
:104D30003C510024E96E3D510120EA6EEF6A0B01FF
:104D4000010E486F0FD025DBAFEC2AF007013C5174
:104D50000B014925E96E07013D510B014A21EA6E1D
:104D6000EF6A486B07013B5114E0C1EC2AF0006E7A
:104D7000016A026A036A00AE03D001680268036830
:104D800000500401005F0150015B0250025B0350C0
:104D9000035B0B0148511200040118510A0A01E19A
:104DA00085D0010A66E0020A01E0D4D0CBD9040E16
:104DB00053DA200E966F680E976F000E986FEEDA3A
:104DC000FDD9A9DA0B01F31C01E1411D44E040CB00
:104DD0007EF141CB7FF101017C6B7D6BDFDA55DB2E
:104DE0009ADBEBDA0A0EF35C000EF45805E20B01D5
:104DF000402B000E4123010C0A0EB2DA300E7C6FFC
:104E00000B0E7D6FCBDA41DB0A0EE66EE66A150EFD
:104E1000E66E680EE66E000EE66E300EE66E0B0E67
:104E2000A6D915E104010A0E186F26EC44F004011E
:104E3000146F060E0001EB6FEC6B0001340EE96F8E
:104E40000B0EEA6F14C4E8F06AEC44F0020C0401A3
:104E50000B0E186F020C62DBF3CF7EF1F4CF7FF103
:104E60000101040E7E5F000E7F5B010197DB99DA82
:104E7000010C51DBF6D8F3D8EE52EFCF76F1C3EC4C
:104E800004F0640E0401005D000E0159000E025989
:104E9000000E03595BE3D880000E0055000E01554B
:104EA000000E0255800E035555E250D034DB33DA44
:104EB00061DBF3500401005DF450015902500259C6
:104EC0000350035904E200C440FB01C441FB0B0141
:104ED000000ED8804055000E41552CE2100E405D6A
:104EE000000E415905E240CB7EF141CB7FF104D069
:104EF0000101100E7E6F7F6B0101300E7C6F0B0E77
:104F00007D6FDEDAF3CF42FBF4CF43FBAAD80B016F
:104F1000F350405FF450415BF3CFEBF0F4CFECF093
:104F20000001300EE96F0B0EEA6F14C4E8F06AEC72
:104F300044F0CDD7040100510111021103110AE11F
:104F40000001010EED6FB0EC44F0040188D8070EAB
:104F5000EF6E000C010C04010C510D110E110F111C
:104F600014E140C7D1F041C7D2F042C7D3F0CDEC35
:104F700041F00C01446FFF0E445D01E1120044CC8E
:104F8000FDF027EC46F0F1D91AD00CC4D4F00DC4D2
:104F9000D5F07FEC42F00C01446FFF0E445D01E15F
:104FA00012000001020EE76F0EC4E3F00FC4E4F03C
:104FB0000001E56BE66B44CCE2F097EC43F0DEDAFF
:104FC000F3CF00FCF4CF01FC0C01000ED88000559B
:104FD000000E015538E2400E005D000E015905E259
:104FE00000CCDDF001CCDEF004D00001400EDD6F1E
:104FF000DE6B0001040EDB6F0C0EDC6F44CCDAF0CC
:105000002FEC43F0F3CF02FCF4CF03FC0C01F35080
:10501000F4100AE144CCD6F0C0EC42F004010C6B71
:105020000D6B0E6B0F6B120002CC66F103CC67F1B7
:105030000101040E646F0C0E8BDA0C010251005F4B
:105040000351015BC1D744CCFCF0F6EC45F01EC027
:105050000EF41FC00FF444CCD6F0C0EF42F08351E1
:10506000C4D1ABD9D1EF29F004C020F005C021F0A4
:105070009BEC8CF01CC003F01DC004F01EC005F0BA
:1050800000501C24F36E01501D20F46E02501E20AF
:10509000F86EF4CFF7FFF3CFF6FF09001200EE52DF
:1050A000EFCF7BF131EF05F0BDD901011200F6EC35
:1050B00090F01EC008F41FC009F420C00AF421C0FB
:1050C0000BF48A0E04010827F00E09231B0E0A2395
:1050D000000E0B231200EE52EFCF71F179EF04F0C6
:1050E00071D9F3CF00FBF4CF01FB1200A4D965D92D
:1050F000010E0026000E012200501200F6EC90F086
:10510000040108511E5C006E09511F58016E0A51BE
:105110002058026E0B512158036EE834000E03181C
:105120001200EE52EFCF77F1D2EF04F07F0D22DACA
:10513000580E0026360E0122000E02220322120013
:105140006C5153D101019F6B01019D6B9E6B01015D
:105150009B6B9C6B12001BCBE9FF1CCBEAFF1B2B4C
:10516000000E1C23120029D9F350F4101200E66E31
:105170003CEC81F0006E070EE15E00500009120069
:10518000EE52EFCF61F118EF03F0D880000E00541B
:10519000000E0154000E0254000E03541200F3508E
:1051A00004011027F450112310C4E9FF11C4EAFFD1
:1051B000102B000E1123260EEF6E1200EE52EFCFD1
:1051C00095F194EF07F03FD91A0EE926040EEA2272
:1051D000EF502F0812007F0E0601336F346B06016B
:1051E000000E316F040E326FF7EF3FF0040112C46E
:1051F000E9FF13C4EAFF122B000E1323EFCF04FBC9
:10520000EF5012003BD941EC82F0E552E552E552F5
:105210001200000EE96E040EEA6EEE501200EE521D
:10522000EFCF60F1DFEF02F0016E010E0026000EFD
:10523000012200C0F3FF01C0F4FF120014C4D6F035
:10524000C0EC42F004011469120015C4D6F0C0ECA1
:1052500042F00401156912000101996F9A6B010176
:105260001200002501017E6F000E0B0101210101DA
:105270007F6F01011200A6D849EF2AF004011B0E2E
:10528000846F040E856FEDEC2AF00401176F120095
:1052900000011B0ECF6F040ED06F1AEC41F0040119
:1052A000146F12000001040EE06F040EE16F15C4CC
:1052B000DFF083EF43F039C73EF73AC73FF737C710
:1052C0003CF738C73DF707011200EF6A07011A0ED5
:1052D000286F040E296F37EF25F03EC700F03FC757
:1052E00001F0020E005E000E015A1200EE52EFCFE6
:1052F000B9F110EF15F0EE52EFCF78F1F4EF04F0C2
:1053000019CBE9FF1ACBEAFF192B1200030E246E0A
:10531000256A266A1200F3CF40FBF4CF41FB12004E
:1053200000C01EF601C01FF6CDEF3DF0930EE66EF5
:10533000680EE66E000EE66E1200EE52EFCF6EF1D2
:105340005EEC04F0010112000401002B000E0123A9
:10535000022303231200006B016B026B036B12002C
:1053600001017E6F7F6B01011200F3CF0CF4F4CFCB
:105370000DF412005BCCE9FF5CCCEAFF12002AC7F7
:10538000E6FF2BC7E6FF12002EC7E6FF2FC7E6FF9A
:10539000120049CB7EF14ACB7FF1120004012FEFBE
:1053A00028F0026A036AF3500401005FF450015BC5
:1053B0000250025B0350035B1200F3CF00F0F4CF06
:1053C00001F01200EE52EFCFA0F1BFEF08F0EE5265
:1053D000EFCF80F1B3EC05F0B3EF28F00401050E38
:1053E000186F3DDE070EEF6E1200E96EEA6AD89084
:1053F000E936EA367F0EE926040EEA22120086DF3D
:1054000003C01FF034EF28F0BADF70DE07012A274F
:1054100001502B231200B8DF69DE07012E2701504F
:105420002F2312000101A66B0101A46BA56B0101E2
:10543000A26BA36B120033EC82F0E552E55212002E
:105440002EDE31EF28F002CBE9FF03CBEAFFE906BD
:10545000000EEA5A120094DE04CB5DF5B8EC50F071
:1054600001011200E66E1A0EE66E040EB7EF28F088
:10547000A5DEF3CF32FBF4CF33FB120030C7E6FFDB
:1054800031C7E6FF32C7E6FF120009DE44DF31EF25
:1054900028F0F3CF02FBF4CF03FB1200BA0E726FB9
:1054A000240E736F010ECAEF2AF04CDE020ED4DE1A
:1054B000BA0E966F240E976F010E986FCEEF29F0FB
:1054C0006DDF4FEF28F0BE6F0101BC6BBD6B010EAD
:1054D0000101BA6FBB6B62DF76EF29F00101250E87
:1054E000626F73D804CB5CF5AAEC50F00101626FD7
:1054F00055DF2BEF2AF0A16F51DF70EF28F07FDF2F
:10550000F5CF72F10900F5CF73F10800F5CF74F112
:1055100045DF6BEF28F0A3DD91EF28F03FDF91EF3F
:1055200028F09DDDEE52EFCF50F167EC02F0CEEFA8
:1055300029F001011A0E6F6F040E706F2FDF9DEFBF
:1055400029F027DF01017C6B7D6B28DF20EF2AF03B
:10555000656F24DFEE52EFCF63F165EF03F03CC7D8
:105560007CF13DC77DF11ADF20EF2AF0A16F16DF35
:10557000E2EF29F022DF026A036A12000FDF0FEF69
:1055800029F00101796B7A6B09DF7BEF29F002D8F2
:1055900001011200746F02DF6BEF28F07C6B7D6BF2
:1055A00060EF2AF000CB7EF101CB7FF101011A0EF2
:1055B0007C6F040E7D6F60EF2AF076DD200E7BEFAE
:1055C0002AF072DD0A0E7BEF2AF0E8DEC0EF28F049
:0A55D000010164DFE3DE090E1200A2
:0655DA00070EE66EE66A12
:1055E0000D0EE66E680EE66E000E07EC33F001E17C
:1055F000000C040EE66EE66A080EE66E680EE66EB5
:10560000000E07EC33F001E1000C800C020EE66E98
:10561000680EE66E000EE66E86C4E6FF87C4E6FFFF
:10562000E3EC81F0FFEC32F0000913E1F80EE66ED6
:10563000670EE66E000EE66E88C4E6FF89C4E6FFDC
:10564000E3EC81F0016E050EE15E0150000901E11D
:10565000800C000C140E0001FA6FFB6B00011B0E96
:10566000F86F0B0E51EC32F0E5EC32F04EE1070131
:10567000E90E306F670E316F000EE0EC32F00AE099
:1056800068EC32F002E0000E01D0010EE8B0918823
:10569000E8A091980701E40E306F670E316F000E9D
:1056A000E0EC32F00AE068EC32F002E0000E01D0EB
:1056B000010EE8B09186E8A091960701DF0E306FE9
:1056C000670E316F000EE0EC32F00AE068EC32F069
:1056D00002E0000E01D0010EE8B09184E8A09194A0
:1056E0000701DA0E306F670E316F000EE0EC32F01A
:1056F00050E068EC32F002E0000E01D0010EE8B09C
:105700009182E8B046D09192000C0B0EE66EE66AEC
:10571000CE0EE66E670EE66E000EE66EE5EC32F03B
:1057200004E10401010E166F000C080EE66EE66A35
:10573000C50EE66E670EE66E000EE66EE5EC32F024
:1057400028E10701C10E306F670E316F000E0BECC0
:1057500032F0F3CFE9FFF4CFEAFFEF50370A18E059
:10576000010A14E0030A10E0010A0CE0070A08E04D
:10577000010A04E0030A0DE19172000C9174000C1F
:105780009176000C9178000C917A000C917C000CC1
:10579000917E000C140E0001FA6FFB6B0001300EBD
:1057A000F86F0B0E51EC32F0EBEC32F002E1F6EF59
:1057B0002BF00A0EE66EE66AB60EE66E670EE66E31
:1057C000000EE66EEBEC32F002E117EF2EF0120E57
:1057D000E66EE66AA30EE66E670EE66E000EE66EF5
:1057E000EBEC32F002E168EF2CF0000C04017E518A
:1057F000010A0BE0010A6BE1640E7BEC32F0020857
:1058000001E1010C0401010E7E6F9F0EE66E670E32
:10581000E66E000E01EC32F006E10B011A0E4F6F3E
:10582000040E506F03D00B014F6B506B640E0701D9
:10583000396F3A6B4FCB37F750CB38F714EC26F073
:10584000020801E1010C0B014F51501103E1040169
:105850007E6B020CC1EC32F033EC82F0E552E55283
:10586000D8EC32F0200EF35C000EF45819E2200E52
:10587000E66EE66AE66EC30EE66E060EE66EA9EC0E
:1058800081F0FFEC32F0C1EC32F0C30EE66E060E92
:10589000E66EF9EC81F0E552E552E552E5520AD0A8
:1058A000200EE66EE66AC1EC32F0C30EE66E060E1E
:1058B0006FEC32F007EC87F0940EE66E670EE66E42
:1058C000000E39EC32F004010C0E186F000C020CC3
:1058D00004EC33F0F3CF04F0F4CF05F0F3CFE6FFA0
:1058E000F4CFE6FFF4EC31F0EFCF80F1B3EC05F04C
:1058F000E552E7CF05F0E552E7CF04F00450F3247A
:10590000006E0550F420016E026A036A0401005122
:10591000005C01510158025102580351035801E241
:1059200078D104EC33F0D8EC32F0026A036A040157
:105930000051F35C0151F4580251025803510358CD
:1059400001E2010C970E0601696F6A6B0601000EF9
:10595000676F0C0E686F0601060E636F646B656BF4
:10596000666B5DEC85F00C012C9D0401005101116A
:105970000211031101E11FD1060E7BEC32F0000988
:1059800001E047D15C0E0701396F3A6B0701200E29
:10599000376F040E386F14EC26F0000901E039D19E
:1059A000910EE66E670EE66E000E01EC32F011E12C
:1059B0000501000E476F0C0E19EC32F001E129D100
:1059C00000CC14FC01CC15FC02CC16FC03CC17FC5B
:1059D000CCD78E0EE66E670EE66E000E01EC32F04E
:1059E00008E10501080E476F0C0E19EC32F0BDE11D
:1059F00010D18A0EE66E670EE66E000E01EC32F0F4
:105A000011E10501040E476F0C0E19EC32F001E1B3
:105A100000D104CC18FC05CC19FC06CC1AFC07CC30
:105A20001BFCA3D7850EE66E670EE66E000E01EC3A
:105A300032F008E105010C0E476F0C0E19EC32F044
:105A400094E1E7D0800EE66E670EE66E000E01EC84
:105A500032F009E10501100E476F0C0E19EC32F01F
:105A600001E083D7D6D07C0EE66E670EE66E000EA0
:105A700001EC32F073E10C01200E976F040E986F69
:105A80009C6B0C0E9C5D44E213EC33F025E048EC7B
:105A900032F0EFCF00F0300E005C04E313EC33F093
:105AA00039081AE248EC32F0EFCF01F0410E015C08
