:020000040000FA
:06000000B7EF9AF01200B8
:020006001200E6
:0600080038EF73F0120056
:02000E000004EC
:04001000A300000049
:02001400FFFFEC
:02001600FEFEEC
:0600180012EF73F012006C
:02001E001E00C2
:10002000C5360100070A000001000000C4360100C7
:10003000060A000001000000C2360100FA090000B3
:100040000200000054360100000500006E000000B0
:1000500053360100050A0000010000004A36010085
:10006000CD0900000900000048360100F809000031
:100070000200000047360100040A000001000000F1
:1000800045360100F609000002000000423601007A
:10009000EF0900000300000040360100F4090000F1
:1000A000020000002D360100E408000013000000EB
:1000B0002C360100030A0000010000002836010070
:1000C000EB0900000400000027360100020A0000CE
:1000D0000100000025360100F209000002000000C6
:1000E0001D360100D6090000080000001C36010082
:1000F000010A0000010000001B360100000A000098
:10010000010000001A360100FF0900000100000094
:1001100017360100FD07000003000000CF35010085
:10012000B606000048000000C6350100F7080000D0
:1001300009000000C5350100FE09000001000000B3
:10014000C3350100FE06000002000000160000009A
:10015000FE0500000200000001350100FD0900005D
:1001600001000000BF350100E709000004000000A5
:10017000B5350100C30900000A00000014000000AA
:08018000FE0000000200000077
:08018800020145510601FE5D74
:1001900001E11200FE0EFE5D0CE01C0EE66EE66A4A
:1001A000290EE66E020EE66EFE5194EC18F01FEC7E
:1001B00019F045C2FEF6FE0E0201455D01E1120096
:1001C0001C0EE66EE66A455194EC18F0290EE66EB8
:1001D000020EE66E1FEF19F00601FE51FF5D01E110
:1001E0001200FE0EFF5D21E0270E0201C56FC66BF7
:1001F0000201010EC46F0201020EC26F020EC36F34
:10020000060109EC19F01B0E76EC1AF0EFCFC1F2E3
:1002100009EC19F0EECFBFF2EFCFC0F20201270ECA
:10022000BF5F000EC05B0BEC16F0FEC6FFF6270E9C
:10023000F7EC18F029C2C2F22AC2C3F20201C25F6F
:10024000000EC35B2EEC1AF0020EBF6F020EC06FE1
:100250000BEF16F00D01EE0E1D6F050E1E6F020165
:10026000005101110FE170EC5BF01EC000F21FC0E5
:1002700001F2FF0E02010017070E0117000E002702
:10028000040E01233C0EE66EE66AE66A000EE66E98
:100290000F0EE66E2FEC89F0006E050EE15E005049
:1002A0000D01156B146B1451EBEC17F001E38ED0BC
:1002B00014CD45F269DF1DEC17F056EC17F0F62A65
:1002C000000EF722F8220800F5CF1CFD1DEC17F0F8
:1002D00056EC17F0020EF626000EF722F82209005F
:1002E000F5CF16FD0A00F5CF17FD1DEC17F0F8EC61
:1002F0001AF0040EF626000EF722F8220900F5CFB8
:1003000018FD0A00F5CF19FD0D011C5128E11DCD86
:100310001AFD1ECD1BFD270E036A1625026E17510E
:10032000032231EC1AF002501825006E03501921F7
:100330009EEC1AF000501D2701501E231DCD00F029
:100340001ECD01F0026A036AD880EE0E0054450EFD
:100350000154000E0254000E035402E2EFD7FFD7FF
:100360001CCD44F2270E0D011A250201296F000E43
:100370000D011B2102012A6F29510D0116250201D1
:100380002B6F2A510D01172102012C6F010E2B2713
:10039000000E2C232B510D01182502012D6F2C511D
:1003A0000D01192102012E6F0D0E3F6F409714DFD2
:1003B0001DEC17F01CC003F0F8EC1AF00800F5CFA4
:1003C00028F2A6EC0FF00D01142B6DD712000D01D1
:1003D0003B6B3B51EBEC17F001E390D03BCD45F28A
:1003E000D3DE0D0E02013F5D01E085D0F5DE020196
:1003F0004D51285D01E07FD0180E256F020E266F4B
:100400004A510CE14BC212F24CC213F24087040E67
:100410003F6F4BC242F24CC243F26AD0000E005D05
:10042000040E015906E3880ED8800055130E0155BD
:1004300003E2006B040E016F00C212F201C213F25C
:10044000002B000E01234BC210F24CC211F27AECC9
:100450001AF0020140894A51040A25E0070A11E016
:10046000020A02E0030A44E14AEC19F0020E4A5D76
:1004700002E0000E01D0010E2495E8B024853F6B08
:1004800037D048514625026E495147219FEC18F05C
:100490004AEC19F0276B260E026F036B046B056B99
:1004A000020E3F6F25D046C2E9FF47C2EAFF53EC78
:1004B00019F046C2E9FF47C2EAFF0450EE24026E7B
:1004C0000550EE209FEC18F00A0EE66EE66A46C272
:1004D000E6FF47C2E6FFB4EC19F08AEC18F002011F
:1004E000050E3F6FB1EC1AF0020EAD6FDCEC0BF0B5
:1004F0000D013B5112000D013B2B6BD7FE0C4EC280
:1005000045F242DE020141A902D04199010C000CE2
:100510004FC245F239DE070E02013F5D01E0000CDB
:10052000010C50C245F2E1EC19F002013F51080AFA
:1005300038E0010A36E0050A34E0020A2FE0050A35
:100540001FE00D0A0FE0010A0DE0070A31E0020A80
:100550002FE0010A2DE0060A2BE0040A22E1BAECA2
:100560006CF026D086EC18F002011451151106E04B
:100570000E512F19F7E10F513019F4E1080E0FD089
:1005800086EC18F002011451151106E00E512F19D6
:10059000F7E10F513019F4E10C0E01D00D0E3F6F51
:1005A00012000201AE6B0201140EAD6FDCEC0BF019
:1005B000A6EF0FF051C245F2E7DD0201409751C2AC
:1005C00050F291EF02F052C245F236EC1AF00A0EE8
:1005D000E66EE66AB4EC19F0530EE66E020EE66EB5
:1005E0008AEC18F010C25DF211C25EF2530E006E7A
:1005F000020E96EF17F05FC245F236EC1AF00201D8
:100600000E512F1902E10F51301902E04FEC17F093
:10061000120060C245F2B8DD3FC245FD070E0D0174
:10062000455D06E00B0E455D03E0F36AF46A1200D7
:10063000020131512F5D3251305916E329512B5DA2
:10064000026E2C512A55036E0206000E035A3151D8
:100650002F5D046E30513255056E0450025C006E01
:100660000550035896EF17F02F51315D006E32514F
:100670003055016E0006000E015A00C0F3FF01C0A4
:10068000F4FF120061C245F27FDD61C260F2C1DF9A
:10069000F3CF0FFDF4CF10FD0D01F350F41001E185
:1006A000000C010E0F1904E1105102E13AEC1AF0AE
:1006B00002014151010B0CE1EAEC1AF00D010F515E
:1006C000005C1051015804E33AEC1AF00201418138
:1006D000010E0201C56FC66B0201C46F0201620EFA
:1006E000C26F020EC36FC8EC1AF002012F2B000E6E
:1006F00030232B512F5D2C51305902E337EC19F088
:100700000D01010E0F1905E1105103E13AEC1AF049
:10071000010C020140BB02D053EC17F0010C0D019B
:10072000A56BA66B63C245F22FDD63C260F271DF79
:10073000F3CFA3FDF4CFA4FD0D01F350F41005E1B8
:100740003EEC1AF0F36AF46A1200A3CDA1FDA4CD29
:10075000A2FDC3EC19F004E266C2A1FD67C2A2FDCE
:100760004151010B0CE1EAEC1AF00D01A351005CC0
:10077000A451015804E33EEC1AF002014181020148
:100780002F510D01A125006E020130510D01A22152
:10079000E8EC19F01EE32F512B5D0D01A56F02014E
:1007A00030512C590D01A66FA5CDC5F2E8CFC6F288
:1007B00017EC18F00D01A551020164270D01A65197
:1007C000020165230D01A551A15FA651A25B37EC83
:1007D00019F0A1CDC5F2A2CDC6F217EC18F00D01AB
:1007E000A15102012F270D01A251020130230D0159
:1007F000C3EC19F003E33EEC1AF004D040BB02D086
:1008000053EC17F00D01A151A525006EA251A621B0
:1008100096EF17F00D012E6B2F6B68C245F2B4DC1A
:1008200068C260F2F6DEF3CF2CFDF4CF2DFD0D0192
:10083000F350F41005E142EC1AF0F36AF46A120086
:1008400002014151010B0CE1EAEC1AF00D012C51AF
:10085000005C2D51015804E342EC1AF00201418181
:100860002CCD2AFD2DCD2BFD5AEC19F004E26CC2E3
:100870002AFD6DC22BFD2F510D012A25006E0201AC
:1008800030510D012B21E8EC19F022E32F512B5DA3
:100890000D012E6F020130512C590D012F6F2ECDFD
:1008A000CDF2E8CFCEF24EEC18F02ECD00F02FCDE9
:1008B00001F0026A00500201692701506A230250C8
:1008C0006B230D012E512A5F2F512B5B37EC19F052
:1008D0002ACDCDF22BCDCEF24EEC18F00D012A51DF
:1008E00002012F270D012B51020130235AEC19F080
:1008F00003E342EC1AF004D040BB02D053EC17F0F3
:100900000D012A512E25006E2B512F2196EF17F045
:100910006FC2E6FF70C2E6FFD7EC89F0E552E55200
:10092000F3CF66F2F4CF67F26FC264F270C265F281
:100930006EC263F2F4DE02016F51F324006E705157
:10094000F42096EF17F072C2E6FF73C2E6FF74C29E
:10095000E6FFE5EC89F0E552E552E5521FC06CF286
:1009600020C06DF272C269F273C26AF274C26BF295
:1009700071C268F24FDF056A02017251F324006E02
:100980007351F420016E74510520026E00C01FF0F7
:1009900001C020F0216E120075C245F2C4EC00F0D7
:1009A000020129512B5D0D01026F02012A512C59C0
:1009B0000D01036F010E025F000E035B75C260F252
:1009C00028DEF3CF00FDF4CF01FD0D01F350025DF1
:1009D000006E0351F45496EF17F076C277F20CD8FC
:1009E0001FEC1BF0F350F41006E076C245F2E1EC88
:1009F00019F04FEC17F0120077C245F2C4EC00F08A
:100A0000FDEC18F006E33551335D006E3451365578
:100A100013D035512D5D026E2E513655036E31ECDB
:100A20001AF02B51335D046E34512C55056E025073
:100A30000424006E0350052096EF17F078C277F279
:100A4000DBDFF3CF39FDF4CF3AFD0D01F350F410A5
:100A500001E1000C78C245F2C4EC00F002017951CA
:100A60007A110FE0010EF7EC18F035C2C2F236C26F
:100A7000C3F20201C16F79C2BFF27AC2C0F20BECBD
:100A800016F00201352B000E362335512D5D3651FF
:100A90002E5902E246EC1AF00D01010E391905E15A
:100AA0003A5103E102014185010C020140BB02D031
:100AB000B5EC17F0010C0D01636B646B7BC277F230
:100AC0009BDFF3CF61FDF4CF62FD0D01F350F41015
:100AD00003E1F36AF46A12007BC245F2C4EC00F051
:100AE00002017E510D01615D02017F510D016259CC
:100AF00004E261CD7EF262CD7FF2020135517E25A6
:100B0000006E36517F21AEEC19F029E235512D5D92
:100B10000D01636F020136512E590D01646F010EF4
:100B20006327000E642302017C517D110EE063CD2A
:100B3000C5F264CDC6F220EC18F00D01635102013C
:100B40007C270D01645102017D230D0163510201D7
:100B50007E5F0D01645102017F5B46EC1AF07C510F
:100B60007D1106E07EC2C5F27FC2C6F220EC18F00D
:100B700002017E5135277F5136230D016351020159
:100B80007E270D01645102017F237E510D01615DBD
:100B9000006E625102017F55016E00507E5D015072
:100BA0007F5902E3418504D040BB02D0B5EC17F079
:100BB0007EC2F3FF7FC2F4FF120080C245F2C4EC94
:100BC00000F002012B512D5D0D013B6F02012C51F4
:100BD0002E590D013C6F80C277F20EDF0D01F350EC
:100BE0003B5D006E3C51F45496EF17F002018451C6
:100BF000851103E1F36AF46A120081C245F2C4EC84
:100C000000F081C277F2F8DEF3CF02FDF4CF03FDEE
:100C1000020186518425006E87518521016E0D01E8
:100C20000050F35C0150F4580BE2020186510D01B3
:100C3000025D0201846F87510D0103590201856F26
:100C40000201355186250D01006F020136518721C1
:100C50000D01016F005102012D5D0D0101510201D5
:100C60002E5906E247EC17F00D01005F0150015BC1
:100C70000D01005102012D5D0D01046F01510201B2
:100C80002E590D01056F010E0427000E05230201E8
:100C900084510D01045D020185510D01055907E3E1
:100CA00084C2C5F285C2C6F2A6EC18F022D004CDEB
:100CB000C5F205CDC6F2A6EC18F00BEC16F00D014E
:100CC00004510201845D0201C56F0D01055102014D
:100CD000855963EC19F03BEC1BF0020182510D01C8
:100CE00004250201BF6F020183510D01052102019C
:100CF000C06F0BEC16F084C2F3FF85C2F4FF120044
:100D000089C286F28AC287F2010E0201846F856B66
:100D10000201060E826F0D0E836F88C281F266DFBC
:100D20000D010651120002018E518F1103E1F36A89
:100D3000F46A12008BC245F2C4EC00F08BC277F269
:100D40005BDE02019051F35C0D013B6F020191519A
:100D5000F4580D013C6F6CEC19F001E205D1020171
:100D6000925193110DE00D013B510201925D0D0175
:100D70003C510201935904E292C23BFD93C23CFDF7
:100D8000355190250D013F6F0201365191210D0122
:100D9000406F3F5102012D5D0D01405102012E595E
:100DA00006E247EC17F00D013F5F0150405B3FCD7D
:100DB00039FD40CD3AFD0D013F5102012D5D0D0180
:100DC0003D6F405102012E590D013E6F010E3D272E
:100DD000000E3E2390C23FFD91C240FD8EC241FDF8
:100DE0008FC242FD8CC243FD8DC244FD02018CC204
:100DF000E9FF8DC2EAFF8C2B8D23EFCF46FD0D015D
:100E0000486B0201945109E0610E0D01465D05E356
:100E100046517A0802E3E00E46270D01200E476F87
:100E2000E8503D5D000E3E5902E23DCD47FD475181
:100E30003B5D000E3C5902E23BCD47FD4751F7ECCC
:100E400018F039CDC2F23ACDC3F22EEC1AF0490EA9
:100E5000BF6F0D0EC06F0BEC16F00D01475146EC45
:100E600019F0392701503A23475146EC19F03D5FFC
:100E700001503E5B3D513E1106E12BC239FD2CC2B3
:100E80003AFD3D693E69020194513EE00D01456B1A
:100E90004751455D5FE2F2EC17F0EFCF00F0610ED5
:100EA000005C0BE3F2EC17F0EF507A0806E3E00E7B
:100EB000006EF2EC17F00050EF26F2EC17F0EF5056
:100EC000465D0EE1EFEC19F02CE0B2EC18F0610E8B
:100ED000465D18E346517A0815E3E00E462712D026
:100EE00041CD8EF242CD8FF248510CE05CEC18F00F
:100EF000610E0D01465D05E346517A0802E3E00EFE
:100F00004627486B452BC4D70D01456B4751455DBE
:100F100021E2F2EC17F0EF50465D10E1EFEC19F032
:100F20000AE10D0141513F5D026E40514255036E91
:100F300045512DEF18F0B2EC18F00AD041CD8EF2E9
:100F400042CD8FF2485104E05CEC18F00D01486B83
:100F5000452BDCD70D01475146EC19F03B5F0150A2
:100F60003C5B6CEC19F003E2F368F4681200475143
:100F700046EC19F03F27015040234FD70201995109
:100F80009A1103E1F36AF46A120095C245F2C4ECC7
:100F900000F095C277F230DD02019B51F35C0D0148
:100FA000026F02019C51F4580D01036F75EC19F0AA
:100FB00001E205D102019D519E110DE00D0102518A
:100FC00002019D5D0D01035102019E5904E29DC283
:100FD00002FD9EC203FD35519B250D01066F0201E6
:100FE00036519C210D01076F065102012D5D0D0147
:100FF000075102012E5906E247EC17F00D01065F7A
:101000000150075B06CD00FD07CD01FD0D01065126
:1010100002012D5D0D01046F075102012E590D01D2
:10102000056F010E0427000E05239BC206FD9CC21E
:1010300007FD99C208FD9AC209FD96C20AFD97C232
:101040000BFD98C20CFD020196C2F6FF962B97C2CB
:10105000F7FFD0EC1AF0106B02019F5109E0610E0E
:101060000D010E5D05E30E517A0802E3E00E0E2736
:101070000D01200E0F6FE850045D000E055902E2CD
:1010800004CD0FFD0F51025D000E035902E202CDA7
:101090000FFD0F51F7EC18F000CDC2F201CDC3F2F5
:1010A0002EEC1AF0110EBF6F0D0EC06F0BEC16F088
:1010B0000D010F5146EC19F00027015001230F518B
:1010C00046EC19F0045F0150055B0451051106E17F
:1010D0002BC200FD2CC201FD0469056902019F516C
:1010E0003EE00D010D6B0F510D5D5FE2F9EC17F065
:1010F000EFCF00F0610E005C0BE3F9EC17F0EF505E
:101100007A0806E3E00E006EF9EC17F00050EF26C7
:10111000F9EC17F0EF500E5D0EE1F6EC19F02CE053
:1011200000EC18F0610E0E5D18E30E517A0815E31D
:10113000E00E0E2712D008CD99F209CD9AF2105187
:101140000CE0A0EC17F0610E0D010E5D05E30E51F1
:101150007A0802E3E00E0E27106B0D2BC4D70D01A9
:101160000D6B0F510D5D21E2F9EC17F0EF500E5DA4
:1011700010E1F6EC19F00AE10D010851065D026E6E
:1011800007510955036E0D512DEF18F000EC18F0C2
:101190000AD008CD99F209CD9AF2105104E0A0ECE2
:1011A00017F00D01106B0D2BDCD70D010F5146EC24
:1011B00019F0025F0150035B75EC19F003E2F3686C
:1011C000F46812000F5146EC19F00627015007236E
:1011D0004FD7A6C294F2A4C292F2A5C293F2A2C2C1
:1011E00090F2A3C291F2010E02018E6F8F6B020189
:1011F000A10E8C6F020E8D6FA0C28BF293EF06F0E2
:101200000D01006B0051EBEC17F001E309D200CDAA
:1012100045F2C4EC00F00D01036B016B026B02019F
:101220004151020B03E14151040B0EE05BEC46F02F
:1012300000090AE00D01100E036F02014151040B79
:1012400001E0010E0D01016F020140AB11D02FEC46
:1012500099F002011E503B5D006E1F503C59016E1B
:10126000E83402E24BEC1AF003E30D01100E036FB9
:10127000020140AD09D014EC19F002E24BEC1AF077
:1012800003E30D01100E036F0B0E02013F5D0CE135
:1012900014EC19F002E24BEC1AF006E30D01110E0A
:1012A000036F02010C0E3F6F040E3F5D53E10D0111
:1012B000046B056B030E045D000E05594BE270ECE8
:1012C0001AF024EC1BF046E070EC1AF091EC18F0E8
:1012D00012EC18F002014251001837E14351011895
:1012E00034E1ECEC00F00A0EE66EE66A70EC1AF0FF
:1012F0007EEC19F0B4EC19F0E1EC88F0060EE15E3A
:1013000070EC1AF050EC1AF0EECF10F2EDCF11F2B3
:1013100070EC1AF00C0E76EC1AF0EECF0AF2EECF6B
:101320000BF2EECF0CF2EFCF0DF202010A2B0B23E2
:101330000C230D23CCEC17F00D01120E036F0201EC
:10134000060E3F6FCDEC16F005D00D01042B000EFC
:101350000523B0D70D0103510AE0015102E0000E50
:1013600001D0010E0201AE6F03CDADF225DA02010C
:1013700040B92FD0070E3F5D01E04FD1D8EC17F0F8
:1013800001E04BD102014051070B060816E1405124
:10139000080B01E0010E0D01036F00CD50F291EC3E
:1013A00002F000CD50F291EC02F00D01035101E08A
:1013B00034D102010E0E3F6F30D1ECEC00F002018F
:1013C000020EAE6F0201100EC5EC1AF012EC17F00F
:1013D00024D1D8EC17F001E020D1ECEC00F00201B0
:1013E0003F510C0A01E1CDD0060A01E1C4D0030A45
:1013F00001E1D0D0010A01E1BAD00F0A01E1AED07B
:101400000C0A01E1ABD00D0A01E19DD0030A01E114
:1014100087D0060A5AE0010A48E0030A21E0010ADF
:1014200001E0BDD0B5EC6CF0000901E1B8D00201DB
:10143000010E3F6F24A50BD00501EE6F18C2EBF52E
:1014400019C2ECF51AC2EDF5E7EC6CF0A8D0050175
:10145000EA6F18C2E8F519C2E9F5C7EC6CF09FD045
:101460000501060EEF6F0D0EF06F0AEC6DF000092E
:1014700001E195D0BAEC6CF0000913E006CD18F24A
:1014800007CD19F208CD1AF209CD1BF20201020EA6
:101490003F6FCCEC17F0276B260E026F036B046BCB
:1014A00050D012EC17F03F6B7AD02FEC99F01EC0A1
:1014B0003BF21FC03CF20901180E546F020E556F2B
:1014C000FFEC7EF00201030E29D009011C0E586FBB
:1014D000020E596F0901180E566F020E576F2CEC51
:1014E0007FF0000915E12FEC99F002013B511E5CE1
:1014F000006E3C511F58016E0050025D01500359AF
:101500004EE2060E275D02E2FDEC19F0020E06D057
:101510000D01020E036F016B0201050E3F6F3FD0FC
:101520000D01020E036F010E016F040E0201275D13
:1015300036E3040E276F700E026F890E036F090EDB
:10154000046F056B2CD0020E275D03E20D01120E15
:101550001DD040B71FD00D01020E07D0050E275D2C
:101560000DE3080E3F6F0D01110E036F18D0050E2D
:10157000275D10E209D0050E275D0CE20D01100E6B
:1015800005D0050E275D06E20D01110E036F010E59
:10159000016F05D00D01140E036F010E026F0D01D6
:1015A000035136E001512EE00201FDEC19F03151FA
:1015B0000E5D0D01046F020132510F590D01056FCF
:1015C0000201B9EC19F007E23CEC17F000500D01F4
:1015D00004270150052304CD00F005CD01F0026A77
:1015E000036A00500201D3EC18F00D01045102010E
:1015F00014270D0105510201152353EC1AF00201C5
:10160000AE6B03D00201010EAE6F03CDADF2D4D8A4
:101610000D01025102E0A6EC0FF00D01002BF2D5F6
:10162000046B056B030E045D000E05592FE270EC90
:101630001AF024EC1BF001E1120070EC1AF058ECE7
:101640001AF0DBEC18F002C0E6FF03C0E6FF2FEC57
:1016500099F0E552E7CF03F0E552E7CF02F00250F0
:101660001E5C006E03501F58016EC90ED8800054D6
:10167000010E015406E2CDEC16F00D010407000E38
:10168000055B0D01042B000E0523CCD71200A7C269
:10169000E9FFA8C2EAFFEECF14FDEECF15FDEECFB5
:1016A00016FDEFCF17FDA9C2E9FFAAC2EAFFEECFF0
:1016B00018FDEECF19FDEECF1AFDEFCF1BFD0D018A
:1016C0001C6B060E1D6FABC21EFDACC21FFDABC274
:1016D0002AF8ACC22BF8D8EC5EF0F3CF1EFDF4CFA5
:1016E0001FFD0C0E0801326F336B0801140E306FB2
:1016F0000D0E316FF3EC5EF0F3CF20FDF4CF21FD42
:101700000D01201F211FABC219F6ACC21AF6B1ECB5
:1017100048F0F3CF22FDF4CF23FD0D01F350201943
:1017200048E12351211945E109016A6B6B6B97EC84
:1017300090F0140E0601236F246B0601000E216F3A
:101740000D0E226F4CEC49F00201000EB36F0D0E2E
:10175000B46FBBDB0D010C51EFEC1AF0040DF3502C
:1017600004EC1AF000C024FD0050006E016AE8503D
:101770000201AB5DAB6F0150AC59AC6F140EAB5FA7
:10178000000EAC5BA7C2B1F2A8C2B2F20201000E19
:10179000AF6F0D0EB06F5EDA00090BE0ABC2B7F2AF
:1017A000ACC2B8F20201000EB56F0D0EB66F45EC7B
:1017B00010F062EC46F0010CECEC00F00201ADA17F
:1017C00002D04187AD91409B409D409F4193419500
:1017D00041915BEC46F00009FCE0060E0201AD15FC
:1017E00004E00D016B6B6C6BB0D00E512F1907E14B
:1017F0000F51301904E10D016B6B6C6B8ED02F51C2
:101800000E5D30510F591FE20E512F5D0D016B6FB0
:1018100002010F5130593CEC19F004E214C26BFD87
:1018200015C26CFD87EC19F005E225C26BFD26C2DE
:101830006CFD41856BCDC5F26CCDC6F26BEC18F03A
:1018400090EC19F06AD00E512B5D0D01696F020109
:101850000F512C590D016A6F695102012F25006E3D
:101860000D016A5102013021016E2951005C0D0108
:101870006B6F02012A5101583CEC19F004E214C2CA
:101880006BFD15C26CFD87EC19F005E225C26BFDFE
:1018900026C26CFD41850D0169516B5D6A516C5921
:1018A00004E26BCD69FD6CCD6AFD69CDC5F26ACDF0
:1018B000C6F26BEC18F00D0169516B5D696F6A51EE
:1018C0006C596A6F69516A111FE069CDC5F26ACD22
:1018D000C6F244C2C4F229C2C2F22AC2C3F2020151
:1018E000C16B02010E512B5D006E2C510F55016E24
:1018F000026A036A360E00264FEC1BF000C0BFF2EE
:1019000001C0C0F20BEC16F090EC19F02B510E5DFB
:101910002C510F5902E3FEEC1AF0020141A715D039
:1019200014510D016B1904E1020115510D016C19DF
:101930000CE0020125510D016B1904E10201265151
:101940000D016C1902E00201AD810D016B516C11AA
:1019500004E1030E0201AD151CE00D016B51020103
:10196000145F0D016C510201155B0D016B516C117F
:1019700002E00201AD870201AEA107D0276B970EEE
:10198000026F980E036F046B056B38EC18F04089FA
:1019900029D0AEA319D0400EE96E020EEA6EEF50C8
:1019A000070BE82AE850070BF36EF46EF80EEF14FD
:1019B000F310EF6E0607000E075B085B095B010E74
:1019C0000D016B6F6C6B0ED040A90CD0AEB108D07E
:1019D000275106E02707D890053304330333023339
:1019E00038EC18F012C247FD13C248FD10C249FD81
:1019F00011C24AFD06C24BFD07C24CFD08C24DFD97
:101A000009C24EFD0AC24FFD0BC250FD0CC251FD72
:101A10000DC252FD0D015391539353955397ADC28F
:101A200054FD596B5A6B6B51020106270D016C5125
:101A300002010723000E08230923ADA315D0ADB979
:101A400005D00D014F6B506B516B526B020124A3FB
:101A500006D00D014B074C5B4D5B4E5B05D0062B52
:101A600007230823092324830201ADA10DD024A15B
:101A700006D00D014B074C5B4D5B4E5B05D0062B32
:101A80000723082309232481FDEC18F00AE3BFECA7
:101A900018F00D010250005C556F03500158566F4D
:101AA0000DD03351355D0D01556F0201345136595A
:101AB0000D01566F010E555F000E565B91EC46F01E
:101AC000F3CF45FDF4CF46FD0D01400E455F000EFE
:101AD000465B800E461502E0456B466B5551455DF1
:101AE0005651465904E245CD55FD46CD56FD0201FD
:101AF000470EB36F0D0EB46FE8D9140E0D016B27AE
:101B0000000E6C235389539B538D539F0201ADA349
:101B100023D0040E0D016B27000E6C23020E5B6FA9
:101B2000040E5C6F020E5D6F180E5E6F010E006E8C
:101B3000530EE96E0D0EEA6EEF50EFEC1AF0002432
:101B40000F0BF36EF46EF346F346F346F3460F0EB7
:101B5000EF14F310EF6EF45044C85FFD45C860FD0C
:101B600046C861FD47C862FD18C263FD19C264FD25
:101B70001AC265FD1BC266FD0D01676B060E686F1C
:101B80006BCD69FD6CCD6AFD6BCD2AF86CCD2BF861
:101B9000D8EC5EF0F3CF69FDF4CF6AFD0C0E0801BE
:101BA000326F336B08015F0E306F0D0E316FF3EC47
:101BB0005EF0F3CF57FDF4CF58FD0D01571F581FAE
:101BC0000E0E0601116F126B58EC48F06BCD68F9E0
:101BD0006CCD69F90901060E676F0901180E656F72
:101BE000020E666F24EC90F0140E5BEC1AF0470EB8
:101BF000266F0D0E276F83EC49F00201ADA309D0CB
:101C0000040E5BEC1AF05B0E266F0D0E276F83EC53
:101C100049F0220E0601136F146B6BEC48F06BCD8C
:101C200019F66CCD1AF6B1EC48F0F3CF45FDF4CFC0
:101C300046FD320E0601116F126B58EC48F0020E91
:101C40005BEC1AF0450E266F0D0E276F83EC49F002
:101C50000EEF48F043EC17F0EE50ED1001E1000CF0
:101C60000D01FE0E266FBEEC19F053EC19F0BEEC20
:101C700019F00450EE24026E0550EE20036E94EC31
:101C80001AF00250EE24006E0350EE20016E43EC79
:101C900017F00050EE18276F0150EE18286F256BD3
:101CA0002551EBEC17F048E225CD45F2C4EC00F0ED
:101CB0000D0E02013F5D3DE0040E3F5D0BE1F5ECD2
:101CC0001AF00050421935E10150431932E125CD97
:101CD00026FD2FD00D012751020142192AE10D01E5
:101CE00028510201431925E1ECEC00F0F5EC1AF063
:101CF0000201125100181DE1135101181AE194EC70
:101D00001AF0DBEC18F01051021813E1115103180E
:101D100010E1BEEC19F0EE5018190BE1EE50191954
:101D200008E1EE501A1905E1EE501B1902E101E13C
:101D3000010C0D01252BB4D7FE0E265D21E026CD2A
:101D400045F236EC1AF0FE0E0D01265D19E027CDA6
:101D500042F228CD43F2CBEC19F0B4EC19F08AEC46
:101D600018F094EC1AF0EECF10F2EDCF11F243EC34
:101D700017F0EECF12F2EDCF13F260EC1AF0010C77
:101D800094EC1AF00D0E76EC1AF0EF50020B01E114
:101D9000000C0F013851391101E0000C0D01296BC5
:101DA0002A6B030E295D000E2A593BE26AEC1AF0F9
:101DB00024EC1BF036E06AEC1AF091EC18F012EC0F
:101DC00018F043EC17F0DBEC18F00250001824E197
:101DD0000350011821E16AEC1AF050EC1AF012ECF1
:101DE00018F094EC1AF0DBEC18F00250001814E133
:101DF0000350011811E1BEEC19F03FEC1BF0EE505E
:101E00000001001808E1EE50011805E1EE5002183B
:101E100002E1EE50031848E00D01292B000E2A23A1
:101E2000C0D7256B2551EBEC17F04EE225CD45F2DE
:101E3000C4EC00F0020140A744D0ECEC00F0F5EC5B
:101E40001AF00050020112193CE10150131939E156
:101E5000CBEC19F06AEC1AF07EEC19F01FEC19F0DB
:101E600094EC1AF012EC18F06AEC1AF050EC1AF03C
:101E700000C0EEFF01C0EDFF94EC1AF0040E76EC0A
:101E80001AF03FEC1BF00C0E76EC1AF000C0EEFFDF
:101E900004EC1BF0F5EC1AF06AEC1AF091EC18F077
:101EA00000C0EEFF01C0EDFF2FEC99F01FC001F064
:101EB0006AEC1AF058EC1AF01EC0EEFF01C0EDFFFC
:101EC000000C0D01252BAED7000C99EC1AF033EC69
:101ED00017F0F3CFEEFF01C0EDFF99EC1AF0020E00
:101EE00076EC1AF033EC17F0020EF3CFEBFF030E93
:101EF00026EC19F0040E81EC17F0040E48EC18F0F3
:101F0000080E81EC17F0080E48EC18F00E0E76EC77
:101F10001AF033EC17F00E0EF3CFEBFF0F0E26EC9A
:101F200019F091EC18F033EC17F0100EF3CFEBFF33
:101F3000110E26EC19F058EC1AF033EC17F0120ED3
:101F4000F3CFEBFF130E01C0EBFF1200ECEC00F03F
:101F500012C242F213C243F237EC19F029C231F235
:101F60002AC232F22BC233F22CC234F246EC1AF0FF
:101F700002014051080B02E0040E01D00D0E3F6F2C
:101F80004091409340954099409B409D409F419196
:101F90004193419541974189249124932497249911
:101FA00060EC1AF034EC5BF0F3CF06F2F4CF07F2FA
:101FB00034EC5BF0F3CF08F2F4CF09F202012269AE
:101FC0002369010E146F156B12000C0E09016A6F64
:101FD0006B6B97EC90F03CEC49F00D01416FF00E0B
:101FE0004115E840E8403F0B04EC1AF000C041FD09
:101FF000005046E0070E99EC19F00D0141514107E0
:1020000000093EE065EC1AF0E8503AE04205F5E0E0
:10201000020E425D26E1030E415D32E3436B446BE9
:1020200065EC1AF0040E425D08E13CEC49F00D014C
:10203000446F3CEC49F00D01436F180E435D020EF6
:1020400044591EE3B40ED8804355050E445504E2AE
:10205000B40EF36E050E17D043CDF3FF44CDF4FF5D
:102060001200020E415D0CE365EC1AF0E850415D90
:1020700007E3425199EC19F00D014251415FBDD780
:10208000180EF36E020EF46E1200B6EC1AF00D0E7E
:1020900076EC1AF0EFCF33FDB6EC1AF0080E76ECC2
:1020A0001AF0EECF34FDEECF35FDEECF36FDEFCF9B
:1020B00037FDB6EC1AF0040E76EC1AF0EECF38FDD0
:1020C000EECF39FDEECF3AFDEFCF3BFD020140915F
:1020D0004093409540B902D012EC17F03F51050AE9
:1020E0001FE0010A08E0B7C23CFDB8C23DFD0D018A
:1020F00033A14AD046D00D0133B510D033A906D054
:10210000E0EC18F0040EC5EC1AF008D033A306D0AA
:1021100079EC18F00BEC1AF0CCEF18F0A6EF0FF0FA
:102120000D0133B5120033A910D003EC19F00201F0
:10213000061908E1EE50071905E1EE50081902E111
:10214000EE50091902E064EF17F00D0133A331EFEF
:1021500015F079EC18F0A1EC19F0EECF14F2EDCFF8
:1021600015F20BEC1AF00D0133A909D04FEC17F062
:102170000201070E3F6F12EC17F040991200CCEFEE
:1021800018F03C2B000E3D2333A303D03C2B000E54
:102190003D23FDEC18F00AE3BFEC18F00D010250EE
:1021A000005C316F03500158326F0DD03351355DF3
:1021B0000D01316F0201345136590D01326F010E9C
:1021C000315F000E325B0A0EE96E020EEA6EEE50CF
:1021D000385D2B6FEE5039592C6FEE503A592D6FF8
:1021E000EE503B592E6F2BCD2FFD2CCD30FD3E6B8D
:1021F0003C513D115FE03151321169E0800E2E15E6
:1022000003E183EC18F03BE33CCD00F03DCD01F061
:10221000026A036A2B0EE96E0D0EEA6EEE5000267E
:10222000EE500122EE500222EE5003220334000E43
:10223000031809E6D880000E0054000E0154000E69
:102240000254000E03541DE23C51315D046E3251C4
:102250003D55056E066A076A05AE02D00668076836
:1022600007502E19E8AE02D02E3508D02B51045C51
:102270002C5105582D5106582E51075802E3010ED6
:102280003E6F0BEC1BF02E510318E8AE02D0033466
:1022900002D0D9EC1AF01BE22F513C25046E3051CC
:1022A0003D21056EE83413E204500008000E055489
:1022B0000EE20BD02B512C112D112E1106E0800EA9
:1022C0002E1505E183EC18F002E2010E3E6F3E513F
:1022D00004E133B5C6D34FEF17F0060E331502E015
:1022E000A6EF0FF033A9120002013F510C0A01E1E1
:1022F000B6D10B0A1CE00F0A1AE0010A18E0020A24
:1023000016E0010A14E00C0A01E0B9D103EC19F05F
:10231000061908E1EE50071905E1EE50081902E12F
:10232000EE50091902E064EF17F0070E3F6F0E51EF
:102330002F5D0D01296F02010F5130590D012A6FD8
:10234000800E2A1508E002013CEC17F000500D0148
:10235000292701502A2329CD00F02ACD01F0026A55
:10236000036A28EC1BF0EE500024256FEE5001208C
:10237000266FEE500220276FEE500320286F03ECEB
:1023800019F0255D006EEE502659016EEE5027596A
:10239000026EEE502859036E0001800E031402E015
:1023A000D3EF19F00201A5EC19F001AE02D00268DA
:1023B000036828EC1BF00050EE5C0D01256F015006
:1023C000EE58266F0250EE58276F0350EE58286FD4
:1023D0000201B9EC19F00BE22DEC1BF000500D01DD
:1023E000255F0150265B0250275B0350285B250EBA
:1023F000E96E0D0EEA6EEE500D01345D256FEE5064
:102400003559266FEE503659276FEE503759286FE1
:10241000E834000E281909E6D880000E2555000E74
:102420002655000E2755000E28556CE202012DECB2
:102430001BF00D012551005C26510158275102580F
:10244000285103585FE3020124972499419131C236
:1024500029FD32C22AFD0D012551020131270D014E
:102460002651020132230D01295102010E5D0D0199
:102470002A5102010F5909E3B9EC19F02FE20E516C
:10248000315D006E32510F551BD03CEC17F00E51F0
:1024900000240D01296F02010F5101200D012A6F47
:1024A000020131510D01295D020132510D012A59FC
:1024B00015E229510201315D006E32510D012A559C
:1024C000016E0001005002010627000101500201C7
:1024D0000723000E0823092353EC1AF002012B51A5
:1024E000315D2C51325906E33CEC17F00050315F5E
:1024F0000150325B2B510E5D2C510F5928E3FEEC3D
:102500001AF025D002010E51311902E10F51321992
:102510001EE024A71BD024A918D0A5EC19F001AE09
:1025200002D0026803680050D3EC18F0B9EC19F03F
:1025300009E22DEC1BF001AE02D0026803680050E6
:10254000D3EC18F053EC1AF04185248924872F51DD
:1025500031191CE13051321919E141B704D012ECA4
:1025600017F0409913D09BEC17F010E1EE5035199D
:102570000DE1EE5036190AE1EE50371907E106E198
:1025800002012451010B02E04099419703EC19F03C
:102590000201065D006EEE500759016EEE500859BB
:1025A000026EEE500959036EA1EC19F00D010050B6
:1025B000EE5C3F6F0150EE58406F0201145115114F
:1025C00006E10D013F51401102E0020141833FCD80
:1025D00014F240CD15F2080E02013F5D20E19BECA4
:1025E00017F04DE1EE5035194AE1EE50361947E14A
:1025F000EE50371944E143E102012451010B3FE061
:102600007AEC1AF0F30E02013727FA0E3823020E85
:102610003923000E3A234089090E3F6F30D0090E4E
:102620003F5D0AE10D0133B12AD0E0EC18F0140E41
:10263000C5EC1AF0A6EF0FF00A0E3F5D20E19BEC0F
:1026400017F00CE1EE50351909E1EE50361906E1AC
:10265000EE50371903E101E004D278DC12009BEC64
:1026600017F00CE1EE50351909E1EE50361906E18C
:10267000EE50371903E101E0F4D168DC12000D01DE
:1026800033BB12000B0E02013F5D01E112000A0E86
:102690003F5D01E112000C0E3F5D01E11200B751F8
:1026A000B81101E166D10D01303504E22F51000867
:1026B000000E305501E2A2D00AEC18F0006E016A5B
:1026C0002F51F35C09016A6F0D0130510158090166
:1026D0006B6F97EC90F00D012F510201B7270D01A0
:1026E00030510201B823B7510D01315D0201B851DB
:1026F0000D01325904E231CDB7F232CDB8F2020108
:10270000B7510A27B8510B23000E0C230D23335168
:10271000B725006E3451B821AEEC19F024E23351E4
:102720002D5D0D01296F020134512E590D012A6FC3
:10273000010E2927000E2A2312EC1BF033C2BFF230
:1027400034C2C0F285EC1AF02AEC19F0006EB851D0
:102750000D012A55016E02012B510024336F2C51BB
:102760000120346F0CD0ABEC1AF033C2BFF234C28C
:10277000C0F251DA0201B7513327B8513423221D78
:1027800001E1231D01E1F5D0B751225FB851235B70
:10279000165122250D01296F0201175123210D0128
:1027A0002A6F800E2A1502E0020125D0020123358E
:1027B00004E222510008000E235501E2DAD00D0197
:1027C000295102010A270D012A5102010B23000E93
:1027D0000C230D230D012951020133270D012A512C
:1027E0000201342333512D5D34512E5904E24FDB65
:1027F000335F0150345B22692369BBD0303501E37C
:10280000B8D02F510008000E305501E3B2D00201BC
:10281000B7510D012F25006E0201B8510D01302175
:10282000016E0050315D0150325909E22F51315D86
:102830000201B76F0D01305132590201B86FEADB66
:1028400009016A6F6B6B97EC90F031EC1BF0026E34
:1028500036EC1BF0036E02500201B725006E0350E8
:10286000B821AEEC19F031E233512D5D006E2E51DE
:1028700034559EEC1AF00D012F51005C296F305138
:1028800001582A6F800E2A1508E112EC1BF0E5ECC6
:1028900018F0C06F85EC1AF01DD0ABEC1AF031ECDB
:1028A0001BF0006E36EC1BF0016E02012B512D5D0A
:1028B000026E2E512C55036E31EC1AF002010250BB
:1028C000005CBF6F0350015804D0ABEC1AF0E5EC8C
:1028D00018F0C06FA0D90201221D0BE1231D09E1F0
:1028E0002FCD22F230CD23F2B7C216F2B8C217F2C2
:1028F00040D022510D012F5D020123510D013059AD
:102900001EE236DB06E30D01EBEC18F0235105580F
:1029100005E2B7C216F2B8C217F20CD030EC19F0CB
:102920000D012F51005C0201166F0D01305101584D
:102930000201176F2FCD22F230CD23F21AD018DB0F
:1029400018E230EC19F00D012F51005C30510158A4
:1029500010E3EBEC18F0026E23510558036E16518C
:10296000025C006E17510358016E0050162701508B
:1029700017230D013C513D1119E0070E02013F5D87
:1029800004E033C235F234C236F240AF04D087DA05
:10299000ECEC00F00BD0408F40BD08D0408D12EC25
:1029A0001AF00F0E02013D27000E3E230D0133A148
:1029B00058D00AC200F00BC201F00CC202F00DC2E6
:1029C00003F0002A4FEC1BF03CCD04F03DCD05F0A8
:1029D000066A076A380EE96E0D0EEA6EEE5004269E
:1029E000EE500522EE500622EE5007220050041849
:1029F00038E10150051835E10250061832E1035064
:102A000007182FE12EE118EC1BF03F51090A24E0D2
:102A1000010A12E00F0A06E0010A22E10C0E3F6FE4
:102A200086EF18F00B0E3F6F12EC1AF01E0E02012B
:102A30003D27000E3E2314D07EDA0AE1EE50351910
:102A400007E1EE50361904E1EE50371901E104E0D8
:102A500002010A0E3F6F04D0D3EC19F0A6EF0FF07D
:102A60001EDA1200B9C245F2C4EC00F00201BA51FC
:102A7000BB1103E1010EBA6FBB6B29512D5D0D0136
:102A8000006F02012A512E590D01016F010E005FE6
:102A9000000E015B020119EC1AF00D010050005DFF
:102AA0000150015901E2000CECEC00F0030E0201B0
:102AB000BE1502E1030EBE13BCC204FDBDC205FD7E
:102AC00019EC1AF000500D01005F0150015B02018A
:102AD000BEA313D0BEA10CD000CD00F001CD01F0FB
:102AE000D8900132003200500D010427015004D06B
:102AF0000D010051042701510523020129510D0147
:102B00000425006F02012A510D010521016F010EFC
:102B10000027000E012333C202FD34C203FD02016F
:102B2000221D01E1231D13E09BDB00500D01022754
:102B300001500323025102012D5D0D0103510201D9
:102B40002E5905E2A4D90D01025F0150035B0D016E
:102B500002510201355D0D010351020136590CE2AB
:102B60000D0100510201355D0D010151020136597F
:102B700018E2BEA50ED0000CD9EC19F00AE2005103
:102B800002012B5D0D01015102012C590AE2BEB573
:102B9000000C00CD35F201CD36F200CD33F201CD7F
:102BA00034F20201D9EC19F025E2040E0201BE153F
:102BB00021E02B510D01025D0201C56F02012C5174
:102BC0000D01035980DB44C2C1F200CDBFF201CD3B
:102BD000C0F221D812DB0EE20D01005102012B5D83
:102BE000006E2C510D010155016E00500201335F42
:102BF0000150345B00CD2BF201CD2CF260EC1AF0C9
:102C000029C231F22AC232F232DB070E02013F5DE5
:102C100001E145D9010C0201C4512AE0010A01E099
:102C20001200C15111E0010A01E01200C5C2E6FF25
:102C3000C6C2E6FFC2C2E6FFC3C2E6FFBFC2E6FFEE
:102C4000C0C2E6FF8AEF18F0BF1D01E1C01D06E01B
:102C5000BFC211F6C0C212F658EC48F0C5C228F641
:102C6000C6C229F6C2C226F6C3C227F683EF49F0D0
:102C7000C15117E0010A01E01200C21D01E1C31DAC
:102C800006E0C2C213F6C3C214F66BEC48F0C5C22C
:102C900023F6C6C224F6BFC221F6C0C222F64CEF0C
:102CA00049F0C5C21FF6C6C220F6C2C21DF6C3C295
:102CB0001EF6BFC21BF6C0C21CF6D4EC48F02BECCB
:102CC00049F00009FCE012000201C9510EE0010ABE
:102CD00001E01200CDC2E6FFCEC2E6FFB1DBC7C203
:102CE000E6FFC8C2E6FF27EF1AF0C71D01E1C81DC5
:102CF00006E0C7C211F6C8C212F658EC48F0100E32
:102D00000D01286F296B0201CD51CE1137E00D0165
:102D100028510201CD5D0D0129510201CE5904E275
:102D2000CDC228FDCEC229FD28CDE6FF29CDE6FF84
:102D300087DB180EE66E0D0EE66E89DB28CD28F6D1
:102D400029CD29F60601180E266F0D0E276F83EC8C
:102D500049F028CD00F029CD01F0026A00500201AF
:102D6000CA270150CB230250CC230D012851020168
:102D7000CD5F0D0129510201CE5BC5D71200140EA3
:102D8000EA02F3CFEAFFE902F3CFE9FFF450EA26C3
:102D9000000EE9260F0EEA22120004CDC5F205CD81
:102DA000C6F20201020ED880C557000EC657140E97
:102DB000C603F3CFC6F2C503F3CFC5F2F450C6275E
:102DC0000201010EC46F0D0104250201C26F000E45
:102DD0000D0105210201C36F140EC303F3CFC3F22B
:102DE000C203F3CFC2F2F450C327000EC2270F0E66
:102DF000C3233BEC1BF0140E206E216A04CD25F09A
:102E000005CD26F0A3EC98F01EC0BFF21FC0C0F2A3
:102E1000000E0201BF270F0EC023FDDE0F01386B2D
:102E2000396B120067DBE60E02013727F50E3823F7
:102E3000050E3923000E3A231200980E006E340E50
:102E4000016E010E026E14CD03F0046A056A060ECF
:102E5000246E256A266A14CD1FF004C020F005C038
:102E600021F0C1EF98F0EECF2AF8EDCF2BF8D8EC97
:102E70005EF0E5DB99EF1AF029512B5D006E2C51C5
:102E80002A55016E120050DB020E76EF1AF02B511C
:102E90002D5D006E2E512C5551DB0050120061DB70
:102EA000100EC5EF1AF067DB060E4ED300501C243F
:102EB000F36E01501D20F46E02501E20F86EF4CF08
:102EC000F7FFF3CFF6FF120006C238FD07C239FD47
:102ED00008C23AFD09C23BFDD9DB43DB040E55DBDA
:102EE00038CD06F239CD07F23ACD08F23BCD09F2E2
:102EF00012000201C46B0201C269C36944C2C1F27B
:102F00001200F4DAEECF2CF8EECF2DF8EECF2EF83B
:102F1000EFCF2FF8DDEC5EF01EC000F01FC001F017
:102F200020C002F021C003F099EF1AF0016E00C03A
:102F3000F3FFF46E12008CDBEE500D013419120019
:102F40000ACD96F20BCD97F20CCD98F202010ACD84
:102F5000F6FF962B0BCDF7FF000E97230CCDF8FF55
:102F600098230800F5CF0EFD120005DB1E0EECD2F3
:102F70002F510201B725006E0D0130510201B82119
:102F8000016E22511625026E23511721036E005047
:102F9000025C0150035812001A511825026E1B5191
:102FA0001921036E02501025006E035011210AD31F
:102FB00025EC99F0020137511E5C006E38511F5804
:102FC000016E39512058026E3A512158036E0001AA
:102FD000800E03141200006E016A090E005C000EE0
:102FE000015812004551EA6A490FE96E0D0EEA22B6
:102FF00012000D51EA6A110FE96E0D0EEA2212005D
:1030000096C2F6FF962B97C2F7FF000EC9DA010EA3
:10301000106F1200ABDA0C0E69DAEF50E0DA040D33
:10302000F3501200EECF00F0EFCF01F012000201DA
:10303000010EC46F64C2C2F265C2C3F2C8EF1AF0D7
:1030400044C2C4F235C2C2F236C2C3F214DB7CC23F
:10305000BFF27DC2C0F20BEF16F000010224006E39
:10306000000E03206BDA00C0F3FF01C0F4FF120072
:1030700025EC99F01E5002010225376F1F500321E5
:10308000386F20500421396F215005213A6F12000A
:103090002DDA1EC0EEFFB8DA99EF1AF069C2CAF253
:1030A0006AC2CBF26BC2CCF244C2C9F22FC2C7F2E1
:1030B00030C2C8F264EF16F043CD8CF244CD8DF2ED
:1030C000020143CDE9FF44CDEAFF8C2B000E8D2396
:1030D000EFCF46FD120044C2C4F20EC2C2F20FC2CC
:1030E000C3F20201C16B360E0201BF6FC06B0BEF62
:1030F00016F038CD0AF239CD0BF23ACD0CF23BCDB9
:103100000DF218EF1BF087DAD9EF1AF02ADA110E58
:10311000C5EF1AF0E1EC88F0006E060EE15E00509B
:103120001200100E76EF1AF01C0D89DA000E002640
:10313000010E012200C0E6FF01C0E6FF1200036E8F
:1031400002504B25006E03504C213CD244C2C4F2C5
:1031500000CDC2F201CDC3F28EDA82C2BFF283C2C9
:10316000C0F212008CC2E9FF8DC2EAFF8C2B000E68
:103170008D23EFCF46FD0D01010E486F12002B513C
:103180002D5D006E2E512C55016E3551335D026E52
:1031900034513655036E1200E4D9120EF6D90201ED
:1031A000060E3F6F1200065F0150075B0250085B7E
:1031B0000350095B1200EECF02F0EFCF03F01200D4
:1031C00065DA0201AE6B020112004BDA0201BF6F39
:1031D0004DDA020112002F510201B725046E0D01D4
:1031E00030510201B821056E2251045C1200020127
:1031F000C56FC66B44C2C4F2120002013551335D83
:10320000365134591200340EE96E0D0EEA6EEE504E
:103210001200FF511C0DF3CFE9FFF4CFEAFF000EBF
:10322000E926010EEA2212002FEC99F002011E504D
:103230003D5D006E1F503E59016EE8341200E1EC16
:1032400088F0026E060EE15E0250120001C0EBFF34
:1032500099EF1AF0E0DC0D0129510201B75D12006F
:1032600022511625006E23511721016E120029C22A
:103270002FF22AC230F212000D016C6F6B51020165
:10328000145D0D016C51020115591200006E016AA6
:103290000050120046C218F247C219F248C21AF290
:1032A00049C21BF21200020E21D9EECF04F0EFCF7B
:1032B00005F012000D012C5102016C5D0D012D5124
:1032C00002016D5912000201C66F44C2C4F22BC242
:1032D000C2F22CC2C3F2120002018E510D013B5DFD
:1032E00002018F510D013C591200020199510D014B
:1032F000025D02019A510D0103591200E9CF00F05D
:10330000EACF01F0E9CFE6FFEACFE6FF12000D01B8
:103310006B510201255D0D016C510201265912000D
:103320000D016B5102010E270D016C5102010F239B
:1033300012000601236F246B0601216B226B4CEFF8
:1033400049F014D90E0E76EF1AF031510E5D006E71
:103350000F513255016E026A036A1200016E00506D
:103360002D5D01502E591200180EE66E020EE66E0B
:10337000120031510E5D32510F591200B1C2E9FFF6
:10338000B2C2EAFF1200A3510201665D0D01A45111
:103390000201675912000A0EE66EE66AB1C2E6FF44
:1033A000B2C2E6FF12000201AE6B0201100EC5EFC1
:1033B0001AF035510D01025D020136510D0103591C
:1033C0001200C4EC00F033C235F234C236F21200FF
:1033D000016E02012B51005C2C51015812000201B8
:1033E0008E07000E8F5B8E518F111200020199071C
:1033F000000E9A5B99519A111200272BD890023730
:103400000337043705371200006E016A140E005EA0
:10341000000E015A1200E5EC0FF0F3CF25F2F4CFC5
:1034200026F212002FEC99F01EC03DF21FC03EF2B2
:103430001200BA51BC25006EBB51BD21016E1200B5
:10344000CAC2E6FFCBC2E6FFCCC2E6FF12000CEC1C
:1034500089F0006E070EE15E005012000CD90201E7
:103460001200010E0226000E03221200C4EC00F02E
:10347000ECEF00F061C25FF2FBEF02F063C25FF2BB
:10348000FBEF02F068C25FF2FBEF02F02BC235F2F5
:103490002CC236F2120000500008000E0154120037
:1034A0000A0E76EF1AF031C20EF232C20FF212009B
:1034B000120E76EF1AF00601286F296B0601120032
:1034C00029C20EF22AC20FF212003CEC49F00D01A3
:1034D000426F120029CDE9FF2ACDEAFFBFEF16F0B7
:1034E00004CDE9FF05CDEAFFBFEF16F0E926000E97
:1034F000EA22120025EC99F01EC037F21FC038F204
:1035000020C039F221C03AF21200A4DE0201C56FD8
:103510000D012A510201B8590201C66FEADC2BC223
:10352000BFF22CC2C0F21200AFC2E9FFB0C2EAFF84
:103530001200B3C2E9FFB4C2EAFF1200016E010E2D
:103540000026000E012212000026A9D800C03BF27E
:1035500001C03CF21200B7C2C5F2B8C2C6F279EFA0
:1035600017F00201010EAE6F02011200B5C2E9FFB1
:10357000B6C2EAFF1200408B2FEC99F01EC000F09B
:103580001FC001F0026A036A1200AD6FDCEF0BF09E
:1035900044C2C1F22FC2BFF230C2C0F20BEF16F02C
:1035A000972398C2F8FF98230800F5CF0EFD0D0170
:1035B000120000502B5D01502C5902502D59035020
:1035C0002E591200016E00501219426F015013194A
:1035D000436F120051DCD890013200321200F00B20
:1035E000E842E842E842E84212004DDC12EF18F0EF
:1035F0001DC004F01EC005F056EF17F03DDC005072
:103600000E5F01500F5B120001C0EEFF02C0EEFF23
:1036100003C0EEFF120031CD00F032CD01F0026A9E
:10362000036A120029CDC5F22ACDC6F279EF17F050
:1036300002010A2B000E0B230C230D231200F3CFE3
:1036400000F0F4CF01F012006CDDEE50ED1012002E
:10365000060EE96E020EEA6E12000EDC026A036AC2
:103660001200020133510D012F25120002013451C5
:103670000D01302112000201010EC16F1200EECFC8
:1036800000F0EECF01F097DD6AEF1AF034CD06F2CC
:1036900035CD07F236CD08F237CD09F21200000E13
:0836A0000122022203221200A4
:0836A800490E0801C31905E1F8
:1036B000C45103E1C55101E1C65101E1E4D2480E14
:1036C000C31905E1C45103E1C55101E1C65101E14E
:1036D000D8D2470EC31905E1C45103E1C55101E138
:1036E000C65101E1C8D2460EC31905E1C45103E138
:1036F000C55101E1C65101E1BCD2450EC31905E136
:10370000C45103E1C55101E1C65101E1AFD2440EFC
:10371000C31905E1C45103E1C55101E1C65101E1FD
:103720009FD2430EC31905E1C45103E1C55101E124
:10373000C65101E193D2420EC31905E1C45103E120
:10374000C55101E1C65101E186D2330EC31905E12D
:10375000C45103E1C55101E1C65101E173D2310EFB
:10376000C31905E1C45103E1C55101E1C65101E1AD
:1037700063D2300EC31905E1C45103E1C55101E123
:10378000C65101E157D22F0EC31905E1C45103E11F
:10379000C55101E1C65101E14AD22E0EC31905E11E
:1037A000C45103E1C55101E1C65101E13ED22D0EE4
:1037B000C31905E1C45103E1C55101E1C65101E15D
:1037C00032D22C0EC31905E1C45103E1C55101E108
:1037D000C65101E126D22B0EC31905E1C45103E104
:1037E000C55101E1C65101E11AD22A0EC31905E102
:1037F000C45103E1C55101E1C65101E10ED2290EC8
:10380000C31905E1C45103E1C55101E1C65101E10C
:1038100002D2280EC31905E1C45103E1C55101E1EB
:10382000C65101E1F6D1270EC31905E1C45103E1E8
:10383000C55101E1C65101E1EAD1260EC31905E1E6
:10384000C45103E1C55101E1C65101E1DED1250EAC
:10385000C31905E1C45103E1C55101E1C65101E1BC
:10386000D2D1240EC31905E1C45103E1C55101E1D0
:10387000C65101E1C6D1230EC31905E1C45103E1CC
:10388000C55101E1C65101E1BAD1220EC31905E1CA
:10389000C45103E1C55101E1C65101E1AED1210E90
:1038A000C31905E1C45103E1C55101E1C65101E16C
:1038B000A2D1200EC31905E1C45103E1C55101E1B4
:1038C000C65101E196D11F0EC31905E1C45103E1B0
:1038D000C55101E1C65101E18AD11E0EC31905E1AE
:1038E000C45103E1C55101E1C65101E17ED11D0E74
:1038F000C31905E1C45103E1C55101E1C65101E11C
:1039000072D11C0EC31905E1C45103E1C55101E197
:10391000C65101E166D11B0EC31905E1C45103E193
:10392000C55101E1C65101E156D11A0EC31905E195
:10393000C45103E1C55101E1C65101E14AD1190E5B
:10394000C31905E1C45103E1C55101E1C65101E1CB
:103950003ED1180EC31905E1C45103E1C55101E17F
:10396000C65101E131D1170EC31905E1C45103E17C
:10397000C55101E1C65101E122D1160EC31905E17D
:10398000C45103E1C55101E1C65101E116D1150E43
:10399000C31905E1C45103E1C55101E1C65101E17B
:1039A00003D1140EC31905E1C45103E1C55101E16E
:1039B000C65101E1F4D0130EC31905E1C45103E16E
:1039C000C55101E1C65101E1E5D0120EC31905E16F
:1039D000C45103E1C55101E1C65101E1D7D0110E37
:1039E000C31905E1C45103E1C55101E1C65101E12B
:1039F000C8D0100EC31905E1C45103E1C55101E15E
:103A0000C65101E1BAD00F0EC31905E1C45103E15B
:103A1000C55101E1C65101E1ABD00E0EC31905E15C
:103A2000C45103E1C55101E1C65101E19DD00D0E24
:103A3000C31905E1C45103E1C55101E1C65101E1DA
:103A400091D00C0EC31905E1C45103E1C55101E148
:103A5000C65101E183D00B0EC31905E1C45103E146
:103A6000C55101E1C65101E177D00A0EC31905E144
:103A7000C45103E1C55101E1C6516CE0090EC319FF
:103A800005E1C45103E1C55101E1C65161E0080EF1
:103A9000C31905E1C45103E1C55101E1C65156E026
:103AA000070EC31905E1C45103E1C55101E1C65137
:103AB0004BE0060EC31905E1C45103E1C55101E114
:103AC000C65140E0050EC31905E1C45103E1C551DB
:103AD00001E1C65135E0040EC31905E1C45103E10B
:103AE000C55101E1C6512AE0030EC31905E1C451D5
:103AF00003E1C55101E1C6511FE0020EC31905E102
:103B0000C45103E1C55101E1C6510FE0010EC319D3
:103B100001E0BBD0C45101E0B8D0C55101E0B5D03F
:103B2000C65101E0B2D049EF32F00801510EE16F09
:103B3000870EE26F000E8CD05EEF32F057EF1EF072
:103B400003EF31F0070E0BD0060E09D0050E07D09B
:103B5000040E05D0030E03D0020E01D0010E0401A5
:103B6000E96F2FD038EF32F0010E0401ED6F02D073
:103B70000401ED6BEE6B040E1BD0010E0401ED6F22
:103B800002D00401ED6BEE6B030E12D0010E0401A6
:103B9000ED6F02D00401ED6BEE6B020E09D0010E49
:103BA0000401ED6FEE6B04D00401ED6BEE6B010EC2
:103BB0000401EB6FEC6BC1EF31F032EF31F0040137
:103BC000E96BEA6B6EEF31F00401E76B07D0010E91
:103BD00003D0020E01D0030E0401E76FE86B3AEF49
:103BE00031F021EF32F074EF32F05AEF33F039EF69
:103BF00033F041EF33F035EF33F036EF33F037EF9A
:103C000033F064EF33F00FEF33F0CDEF32F0D2EF5B
:103C100032F0DDEF32F0E7EF32F0F1EF32F0FBEFB0
:103C200032F005EF33F02EEF33F030EF33F00401D4
:103C3000F76B05D0010E01D0020E0401F76FF86B8F
:103C400038EF33F00801460EE16F870EE26F000E89
:103C5000E36FCEEF27F00401F36B05D0010E01D026
:103C6000020E0401F36FF46B2CEF33F00401F56BDB
:103C700005D0010E01D0020E0401F56FF66B2DEF99
:103C800033F054EF33F057EF33F0040E02016C6F52
:103C90006D6B0201410E696F870E6A6F000E6B6FCC
:103CA000F1EC29F0EE52EFCF68F20AEF04F00201D6
:103CB0007E0E626F08EF2BF00401836B020E835DB2
:103CC00030E252EC28F0EF6A0201080E4D6F500E00
:103CD00002014B6F4C6B02014A6B0201466B476B52
:103CE000486B496BE7EC01F0E66EF1EC29F0EE521F
:103CF000E552E750EF6E146915698351B9EC28F06D
:103D0000B3EC29F0F3CF00FDF4CF01FD0EEC29F068
:103D100000CD11F601CD12F658EC48F00401832BCA
:103D2000CDD7836B12000D01866B020E865D36E2E5
:103D3000C3EC28F0EE52EF50FE082DE0C3EC28F063
:103D4000EE52EFCF4EF27FEC02F0000914E086CD88
:103D5000C7F825D8F1EC29F0EF6AFF0E145D02E0F8
:103D600041EC29F0FF0E155D02E048EC29F002015C
:103D7000040E86EC2AF00D01C3EC28F0EF5007E1A9
:103D8000C3EC28F0B4EC28F0D6EC28F004E086CDA3
:103D9000C7F805D83ED80D01862BC7D712000401FD
:103DA00083510801C75D01E1120004018351B9ECA0
:103DB00028F0B3EC29F0F3CF00FDF4CF01FD0EECB9
:103DC00029F000CD11F601CD12F658EC48F00801AB
:103DD000C751B9EC28F000C013F601C014F66BEC23
:103DE00048F0F3CF00FDF4CF01FD7F0E0601236FF5
:103DF000246B0601000E216F040E226F4CEC49F07B
:103E000000CD13F601CD14F66BEC48F0C7C883F46F
:103E100012000D01010E736FF1EC29F0EF500B0A47
:103E200002E174EF23F0010A02E151EF23F0030AEB
:103E300002E13AEF23F0010A01E1B9D30F0A01E1EF
:103E40001FD3010A01E102D3030A01E17AD2010A78
:103E500001E16ED2070A01E147D2010A01E1A4D1D2
:103E6000030A27E0010A02E081EF23F0AEEC2AF01A
:103E7000F3CF6DFDF4CF6EFDF350F41002E181EF4E
:103E800023F004011A0E106F040E116F52EC28F08B
:103E9000010EEF6E1769166B7AEC28F00C690D694C
:103EA0000E690F69CEEC29F07E6B0201050E86ECDF
:103EB0002AF077EC28F00A0ED9EC2AF000EC2AF070
:103EC0000001F31C14E1011C12E1F1EC29F00AECF1
:103ED0002AF004E111EC2AF00D01736BA1EC28F03B
:103EE00002E6E8EC28F002E381EF23F042D27AEC1C
:103EF00028F000EC2BF00D01050ED880F354000ED5
:103F0000F45403E2050E6D6F6E6B010E54EC29F054
:103F10001A0E7C6F040E7D6F83EC2AF0030EE66EA2
:103F2000E66A6F0EE66E800EE66E000E55EC2AF025
:103F300003E10401186B12D0040EE66EE66A6A0E05
:103F4000E66E800EE66E000E55EC2AF004E10401E8
:103F5000010E186F03D00401070ECAD100EC2BF03C
:103F60000201A66BF3CFA4F2F4CFA5F20201A26B7B
:103F7000A36B02013F0EA16FF1EC29F05EEC29F07A
:103F80000D01F3506D5DF4506E5904E36FCD6DFD7E
:103F900070CD6EFD590ED8806D55000E6E5501E244
:103FA000ECD0F5EC2AF06CEC2AF01A0EF324E96E52
:103FB000040EF420EA6E88EC29F01A0EE66E040E68
:103FC000E66E3EEC2AF06CEC2AF00B0EE66EE66A2A
:103FD0005F0EE66E800EE66E000EE66E1B0EE66E5F
:103FE000040EDAEC28F00CE161EC29F0185102E142
:103FF000080E01D0090E186F52EC28F0020E2ED2D6
:1040000006EC29F002E06BEC29F0FF0E0401145DD0
:1040100031E106EC29F00EE00D016FCDE9FF70CD26
:10402000EAFF6F2B000E70231A0EE926040EEA2217
:104030002F0EEF6EB9EC29F01A0E0D016F25006EF0
:10404000040E7021016E00C0E6FFE66EBEEC89F042
:10405000026E050EE15E0250B9EC29F0E5EC89F044
:10406000E552E552E5521F500D016F272050702395
:104070006BEC29F01A0E0D016F25746F040E702180
:10408000756F010E745F000E755B1A0E741902E1F4
:10409000040E751909E074CDE9FF75CDEAFFEF5004
:1040A0002E0802E07407EFD7742B000E752304016D
:1040B000196B0B0EE76E1919E8AE02D0E73402D087
:1040C000E750195D23E2650E006E330E016E010E9E
:1040D000026E19C403F0046A056A03AE02D00468D4
:1040E000056822EC2AF0F5CF27F80900F5CF28F86B
:1040F0000800F5CF29F874CD25F875CD26F899EC90
:104100005EF0000903E00401192BD3D761EC29F01C
:10411000FF0E145D18E014C4F2F085EC58F0F35073
:10412000020B11E014C4FDF07FEC59F0F3CFD4F092
:10413000F4CFD5F0010E0001D427000ED523D7EC23
:1041400055F00401156F00EC2BF0F350F4101CE057
:104150000401010E166F0201710E796F0D0E7A6F58
:10416000F1EC29F09EEC29F00D016D07000E6E5B5D
:10417000620E6D5D000E6E5903E30401050EB8D0AA
:10418000F5EC2AF0F2EC28F004EC2BF0010EF3240D
:1041900002017E6F000EF4207F6F0201F1EC2AF025
:1041A000F1EC29F0020EEF6E04EC2BF00D01F31C84
:1041B00013E16E1D11E1F1EC29F00AEC2AF004E1A3
:1041C00011EC2AF00D01736BA1EC28F002E6E8EC8B
:1041D00028F001E396D2CDD07AEC28F00D01010E43
:1041E0006D190BE16E5109E1020ED3EC29F0F1ECEF
:1041F0002AF0F1EC29F0030E31D10201A66B6DCD4E
:10420000A4F26ECDA5F20201A26BA36B02013A0EDD
:10421000A16FF1EC29F05EEC29F0020E0D016F2781
:10422000000E7023736B100ED8806F55000E705502
:1042300002E2010E54D06FCD7EF270CD7FF202010A
:10424000760E7C6F0D0E7D6F83EC2AF046EC2AF023
:10425000760EE9260D0EEA22EF6A0D016F516D5FB1
:1042600070516E5B726B7251006E016A030E005CDE
:10427000000E01582EE2D70E006E330E016E010EB5
:10428000026E72CD03F0046A056AA9EC29F072CDC2
:104290001FF057EC28F0F5CFE6FF0900F5CFE6FF59
:1042A0000800F5CFE6FF760EE66E0D0EE66EA8EC82
:1042B00089F0066E050EE15E0650000907E172CD39
:1042C000C8F8E8DA0D01010E736F03D00D01722BEF
:1042D000CAD7735102E004EC2BF0010E0D0154EC2F
:1042E00029F0F1EC2AF060D7800E175D03E2030E8F
:1042F000186FB1D010C4E9FF11C4EAFF88EC29F0AF
:10430000F3CF10F4F4CF11F4080E0401185D01E1AD
:10431000A2D052EC28F0040EEF6E165104E152ECDC
:1043200028F0050EEF6E0D01736B0401166BE9D1D9
:104330004AEC2BF0020801E1E4D1F1EC29F0050E82
:10434000EF6EAEEC2AF0DDEC2AF0F35004010C190C
:1043500014E101500D1911E102500E190EE1035044
:104360000F190BE10AE1A1EC28F002E6E8EC28F0D5
:1043700004E2B4EC2AF00B0E71D0180515E0090E1A
:10438000E76E1819E8AE02D0E73402D0E750185DA6
:1043900059E30B0EE76E1819E8AE02D0183503D0BA
:1043A000E750D88018554EE3090EE76E1819E8AEAD
:1043B00002D0E73402D0E750185D13E30B0EE76E2E
:1043C0001819E8AE02D0183503D0E750D880185538
:1043D00008E3EFEC26F00D01716FE85006E10401EF
:1043E0003AD0F3EC2BF00D01716F020E715D0CE110
:1043F000B1EC2AF0D8EC29F00401010E0C5F000E9C
:104400000D5B0E6B0F6B7DD171051CE1B1EC2AF0D9
:10441000D8EC29F004010E6B0F6B7AEC28F02CEC31
:1044200029F00C5DEE500D59EE500E59EE500F591B
:1044300006E252EC28F00AEC2AF001E062D1040115
:10444000060E08D0F1EC29F0060EEF6EFF0E145D9B
:1044500007E1040E186F52EC28F0070EEF6EA4D09F
:10446000CEEC29F0FF0E155D05E1046905690669CA
:10447000076902D075EC29F0F1EC29F0070EEF6E18
:104480000201020E86EC2AF0AD0E006E330E016EB4
:10449000010E026E18C403F0046A056A03AE02D06E
:1044A00004680568A2EC2AF00C0E0401185D0DE109
:1044B000BCEC2AF0420E726F800E736F000EEDECB2
:1044C0002AF0BCEC2AF071EC2AF00401185106E045
:1044D000180504E052EC28F00B0E04D10B0E195D08
:1044E0001BE00201330E726F800E736F000EEDEC55
:1044F0002AF0890E006E330E016E010E026E19C491
:1045000003F0046A056A03AE02D004680568A2ECF1
:104510002AF0020171EC2AF014C4F2F085EC58F094
:10452000F350010B08E002011A0E726F800E736FD8
:10453000000EEDEC2AF002010A0E726F800E736F0E
:10454000000EEDEC2AF0040118050CE0E8680419EF
:1045500008E1E868051905E1E868061902E1E8687C
:10456000071907E00201010E726F800E736F000ED3
:104570000DD00201F80E726F7F0E736F000EEAEC21
:104580002AF0F40E726F7F0E736F000EEAEC2AF0C1
:1045900071EC2AF00401165104E052EC28F0080EE8
:1045A00002D00BEC2BF0EF6E0D01736BAAD01A0E3C
:1045B000126F040E136F16515AE00201E70E726F6C
:1045C0007F0E736F000EEDEC2AF019EC29F022E05B
:1045D000200E0D01715D03E102012B0E14D0300E8F
:1045E000715D0FE37151390803E2410E715D09E31A
:1045F00071515A0803E2610E715D03E371517A084B
:1046000004E291EC2AF0626F02D071CD62F208EC04
:104610002BF0DBD702013D0E626F08EC2BF019EC9A
:1046200029F01FE0200E0D01715D03E102012B0E48
:10463000F3D7300E715D0FE37151390803E2410E7B
:10464000715D09E371515A0803E2610E715D03E384
:1046500071517A0803E291EC2AF0DED771CD62F253
:10466000DCD7020171EC2AF004011607A4D70BEC89
:104670002BF0EF6E0D01736B4AD8000909E041EC95
:1046800029F052EC28F00B0EEF6E0D01010E736F46
:10469000E1EC2AF0D6EC28F034E10D01010E736F45
:1046A00030D00D01010E736FE1EC2AF000EC2AF01E
:1046B000100EF35C000EF45824E308C4C3F809C4D8
:1046C000C4F80AC4C5F80BC4C6F854EC1BF00401C6
:1046D0000C510D110E110F1114E10D01736BF1EC62
:1046E00029F0090EEF6E0DD0FF0E145D02E041ECD3
:1046F00029F0FF0E155D02E048EC29F0B4EC2AF039
:10470000EF6A0D01735102E109EF1FF01200E1ECB5
:104710002AF0F3CF02FDF4CF03FDF3CF04F0F4CF82
:1047200005F0066A076A2CEC29F00401045D086EA6
:10473000EE500559096EEE5006590A6EEE500759B3
:104740000B6E0850F35C0950F4580A5006580B5091
:10475000075807E202CD00F003CD01F0026A036AB8
:104760000DD02CEC29F0045D006EEE500559016E61
:10477000EE500659026EEE500759036E00C000FD60
:1047800001C001FD0D010050040100270D01015081
:1047900004010123000E022303230D01000ED88023
:1047A0000055000E015530E2400E005D000E01592B
:1047B00005E200CDDDF001CDDEF004D00001400EB9
:1047C000DD6FDE6B0001050EDB6F0D0EDC6F14C4B8
:1047D000DAF087EC56F0F3CF02FDF4CF03FD0D01C4
:1047E000F350F41001E1010C02CD66F203CD67F243
:1047F0000201050E646F0D0ECBEC2AF00D01025183
:10480000005F0351015BC9D72CEC29F004010419A6
:1048100040E1EE5005193DE1EE5006193AE1EE5047
:10482000071937E136E152EC28F00A0EEF6E0C6BF7
:104830000D6B0E6B0F6B0001D86BD96B14C4D7F0E6
:1048400023EC56F00001040ED86F0D0ED96F14C47E
:10485000D7F023EC56F0000906E0C7EC29F07E0EF5
:104860000D01045DEFE1C7EC29F00001080EE06FD7
:10487000040EE16F15C4DFF0DBEC56F075EC29F0A7
:10488000000907E10401046905690669076948EC44
:1048900029F0000C0801C85102E1D1EF24F0C8054D
:1048A00002E158EF24F0020EC85D01E1C9D8120000
:1048B000040117BF1200060ED3EC29F0F1EC2AF028
:1048C00078EC2AF001EC29F0F3CF31FD030E0D0155
:1048D0003127FC0E3117326B240E315D000E325938
:1048E00003E3240E316F326B330E5B6F0D0E5C6F82
:1048F000000ED8803155000E325526E2040E02011A
:104900007E6F7F6B5BCD7CF25CCD7DF283EC2AF019
:10491000030E0801136F146B5BCD11F85CCD12F818
:10492000040E08010F6F106B5BCD0DF85CCD0EF817
:1049300002EC5DF0040E0D01315F000E325B030EE0
:104940005B27000E5C23D4D7DDEC29F0EF6A316BD6
:10495000326B330E5B6F0D0E5C6F280E315D000EF7
:1049600032590BE2DDEC29F0EF503A0806E0312B2A
:10497000000E32235B2B5C23F0D7DDEC29F05B2BA0
:10498000000E5C23EF6A5BCD88F45CCD89F40401F2
:10499000330E866F0D0E876F29EC2BF00401176F15
:1049A000120078EC2AF05BEC2AF010C400F011C47D
:1049B00001F07E0ED8800056040E0156020E005EF5
:1049C000000E015A0D010050F35C0150F45802E34F
:1049D00011EF2AF00D013351341131E088DB3B0E29
:1049E000D9EC2AF0F3CF31FDF4CF32FD0D01335174
:1049F000F35C3451F45805E231CD7EF232CD7FF2D2
:104A000004D033CD7EF234CD7FF210C47CF211C4D9
:104A10007DF283EC2AF0E6DB0D013351315D345138
:104A2000325908E2E4EC2AF062DB200ED9EC2AF0DD
:104A3000BDDBF8E078EC2AF05BEC2AF0CBD7120073
:104A400078EC2AF0DEDBF3CF31FDF4CF32FD0D013F
:104A50000A0EF35C000EF45805E30401020E186F11
:104A6000CEEF29F031CD7EF232CD7FF20201330E4E
:104A70007C6F0D0E7D6F83EC2AF0F3CF31FDF4CF08
:104A800032FD330E0D01F324E96E0D0EF420EA6EB3
:104A9000EF6A330EE66E0D0EE66E2AEC80F0E552FC
:104AA000E5521EC000F41FC001F420C002F421C072
:104AB00003F41200C9C8E6FFCAC8E6FF3EEC2AF0BC
:104AC000F3CF3DFDF4CF3EFDC9C83BFDCAC83CFD58
:104AD000C9C839FDCAC83AFD0D013D513E1142E039
:104AE000A3EC29F0000E3A23EFCF3FFD3D073E5BDC
:104AF0003D0E3F5D03E0260E3F5D03E14FDBEF6AB5
:104B0000EBD72B0E3F5D03E149DB200E25D0250EB0
:104B10003F5D24E1020E3D5D000E3E5903E23D6B18
:104B20003E6BDAD7A3EC29F0000E3A23EFCF41FD1C
:104B3000A3EC29F03A23EFCF40FD3D073E5B3D0754
:104B40003E5B40CD21F841CD22F861EC5EF0E66E8F
:104B50000D0124DBE552E750EF6EBED71FDB3FCDE2
:104B6000EFFFBAD71BDBEF6A3BCDE9FF3CCDEAFF95
:104B7000EF6A3BCDF3FF3CCDF4FF1200CBC8E9FF59
:104B8000CCC8EAFFEF5020E0E2EC29F0CDC8E6FF08
:104B9000CEC8E6FF88EC89F0E552E552E552E552D1
:104BA00000090DE1CDC8E6FFCEC8E6FF3EEC2AF0D5
:104BB0000801CB51F324006ECC51F42058D327ECDC
:104BC0002AF027EC2AF0DAD7F36AF46A1200CFC889
:104BD000E9FFD0C8EAFFEF5027E037DB1FC000F045
:104BE00020C001F021C002F0002A000E01220222A2
:104BF00000C0E6FF01C0E6FF61EC2AF0E8DBC2EC92
:104C000088F0036E070EE15E0350000908E11DDB2A
:104C10000801CF511F24006ED051202028D32EEC44
:104C20002AF02EEC2AF0D3D7F36AF46A1200D6C821
:104C3000DFF8D7C8E0F8D4C8DDF8D5C8DEF8080139
:104C40003D0EDC6F46D80D016C6F0801D451D511B3
:104C50000BE0D4C8E9FFD5C8EAFFEF5005E0D4C89F
:104C6000C9F8D5C8CAF826DF0D016C51120046DB21
:104C7000260EDC6F2ED80D016C6F020E6C5D17E1F5
:104C8000B1EC2AF0DDEC2AF004010051F3180FE139
:104C9000015101180CE10251021809E103510318F6
:104CA00006E105E12BDBDC6B14D80D016C6F08010C
:104CB000D851D9110BE0D8C8E9FFD9C8EAFFEF50A5
:104CC00005E0D8C8C9F8D9C8CAF8F4DE0D016C519E
:104CD00012000801DC5106E0C8DBDCC8A1F281DB70
:104CE00094DB02D0B1EC2AF0F3CF6AFDF4CF6BFD78
:104CF0000D01F31C03E16B1D01E1020C0801020E22
:104D0000DF5D000EE05906E2DD51DE1103E0C4EC88
:104D10002AF038D0DD51DE1104E1C4EC2AF00D0197
:104D200043D0FEDA0D016A51005C6B5101582EE24E
:104D3000DFC87EF2E0C87FF20201020E7E5F000E45
:104D40007F5BD2EC2AF0DFC804F0E0C805F0020E69
:104D5000045E000E055A04500D016A5D02017E6F6B
:104D600005500D016B5902017F6F0201F1EC2AF031
:104D70003BDBD6DA0801DD510024E96EDE5101206B
:104D8000EA6EEF6A0D01010E696F0FD025DBD2ECE0
:104D90002AF00801DD510D016A25E96E0801DE5196
:104DA0000D016B21EA6EEF6A696B0801DC5114E0BA
:104DB000E4EC2AF0006E016A026A036A00AE03D0D6
:104DC00001680268036800500401005F0150015B44
:104DD0000250025B0350035B0D0169511200040194
:104DE00018510A0A01E185D0010A66E0020A01E0D1
:104DF000D4D0CBD9040E53DAE20E966F7F0E976FA4
:104E0000000E986FEEDAFDD9A9DA0D01F31C01E16D
:104E1000421D44E041CD7EF242CD7FF202017C6B27
:104E20007D6BDFDA55DB9ADBEBDA0A0EF35C000E02
:104E3000F45805E20D01412B000E4223010C0A0E2D
:104E4000B2DA310E7C6F0D0E7D6FCBDA41DB0A0ECC
:104E5000E66EE66AD70EE66E7F0EE66E000EE66E32
:104E6000310EE66E0D0EA6D915E104010A0E186F7B
:104E70007EEC57F00401146F060E0001EB6FEC6B33
:104E80000001350EE96F0D0EEA6F14C4E8F0C2ECB4
:104E900057F0020C04010B0E186F020C62DBF3CF0B
:104EA0007EF2F4CF7FF20201040E7E5F000E7F5B84
:104EB000020197DB99DA010C51DBF6D8F3D8EE52F8
:104EC000EFCF76F2EDEC04F0640E0401005D000E0D
:104ED0000159000E0259000E03595BE3D880000E01
:104EE0000055000E0155000E0255800E035555E287
:104EF00050D034DB33DA61DBF3500401005DF45051
:104F00000159025002590350035904E200C441FD03
:104F100001C442FD0D01000ED8804155000E4255DE
:104F20002CE2100E415D000E425905E241CD7EF2A9
:104F300042CD7FF204D00201100E7E6F7F6B020122
:104F4000310E7C6F0D0E7D6FDEDAF3CF43FDF4CFB3
:104F500044FDAAD80D01F350415FF450425BF3CFFA
:104F6000EBF0F4CFECF00001310EE96F0D0EEA6FBB
:104F700014C4E8F0C2EC57F0CDD704010051011180
:104F8000021103110AE10001010EED6F08EC58F067
:104F9000040188D8070EEF6E000C010C04010C51BF
:104FA0000D110E110F1114E1E1C8D1F0E2C8D2F0D9
:104FB000E3C8D3F025EC55F00D01446FFF0E445DBE
:104FC00001E1120044CDFDF07FEC59F0F1D91AD087
:104FD0000CC4D4F00DC4D5F0D7EC55F00D01446FDE
:104FE000FF0E445D01E112000001020EE76F0EC4E6
:104FF000E3F00FC4E4F00001E56BE66B44CDE2F0B2
:10500000EFEC56F0DEDAF3CF00FDF4CF01FD0D0139
:10501000000ED8800055000E015538E2400E005DAC
:10502000000E015905E200CDDDF001CDDEF004D027
:105030000001400EDD6FDE6B0001040EDB6F0D0E14
:10504000DC6F44CDDAF087EC56F0F3CF02FDF4CFFD
:1050500003FD0D01F350F4100AE144CDD6F018EC35
:1050600056F004010C6B0D6B0E6B0F6B120002CD32
:1050700066F203CD67F20201040E646F0D0E8BDA47
:105080000D010251005F0351015BC1D744CDFCF01B
:105090004EEC59F01EC00EF41FC00FF444CDD6F0F4
:1050A00018EF56F08351C4D1ABD9F4EF29F004C006
:1050B00020F005C021F0C1EC98F01CC003F01DC029
:1050C00004F01EC005F000501C24F36E01501D209A
:1050D000F46E02501E20F86EF4CFF7FFF3CFF6FF08
:1050E00009001200EE52EFCF7BF25BEF05F0BDD965
:1050F0000201120025EC99F01EC008F41FC009F44B
:1051000020C00AF421C00BF48B0E04010827D20E34
:1051100009231A0E0A23000E0B231200EE52EFCFC2
:1051200071F2A3EF04F071D9F3CF6DFDF4CF6EFDF2
:105130001200A4D965D9010E0026000E01220050EC
:10514000120025EC99F0040108511E5C006E095113
:105150001F58016E0A512058026E0B512158036EE0
:10516000E834000E03181200EE52EFCF77F2FCEF96
:1051700004F07F0D22DAEE0E0026450E0122000E0D
:10518000022203221200865153D102019F6B0201B9
:105190009D6B9E6B02019B6B9C6B12003BCDE9FFEC
:1051A0003CCDEAFF3B2B000E3C23120029D9F350E3
:1051B000F4101200E66EC2EC88F0006E070EE15E9D
:1051C000005000091200EE52EFCF61F242EF03F0FF
:1051D000D880000E0054000E0154000E0254000E40
:1051E00003541200F35004011027F450112310C48B
:1051F000E9FF11C4EAFF102B000E1123260EEF6EFB
:105200001200EE52EFCF95F2BEEF07F03FD91A0E23
:10521000E926040EEA22EF502F0812007F0E060145
:10522000286F296B0601000E266F040E276F83EF8F
:1052300049F0040112C4E9FF13C4EAFF122B000E67
:105240001323EFCF71FDEF5012003BD9E5EC89F04D
:10525000E552E552E5521200000EE96E040EEA6EC8
:10526000EE501200EE52EFCF60F209EF03F0016E44
:10527000010E0026000E012200C0F3FF01C0F4FF62
:10528000120014C4D6F018EC56F004011469120090
:1052900015C4D6F018EC56F004011569120002018D
:1052A000996F9A6B020112006D2502017E6F000E4C
:1052B0000D016E2102017F6F02011200A6D86CEF72
:1052C0002AF004011B0E846F040E856F10EC2BF086
:1052D0000401176F120000011B0ECF6F040ED06F78
:1052E00072EC54F00401146F12000001040EE06F20
:1052F000040EE16F15C4DFF0DBEF56F0DAC8DFF81B
:10530000DBC8E0F8D8C8DDF8D9C8DEF8080112001B
:10531000EF6A08011A0EC96F040ECA6F5AEF25F022
:10532000DFC800F0E0C801F0020E005E000E015A76
:105330001200EE52EFCFB9F232EF15F0EE52EFCF8E
:1053400078F21EEF05F039CDE9FF3ACDEAFF392BAF
:105350001200030E246E256A266A1200F3CF41FD67
:10536000F4CF42FD120000C011F601C012F658EF52
:1053700048F0550EE66E800EE66E000EE66E1200E8
:10538000EE52EFCF6EF288EC04F00201120004013D
:10539000002B000E0123022303231200006B016B7C
:1053A000026B036B120002017E6F7F6B0201120021
:1053B000F3CF0CF4F4CF0DF412005BCDE9FF5CCD1C
:1053C000EAFF1200CBC8E6FFCCC8E6FF1200CFC848
:1053D000E6FFD0C8E6FF12006ACD7EF26BCD7FF209
:1053E0001200040152EF28F0026A036AF35004012C
:1053F000005FF450015B0250025B0350035B12003C
:10540000F3CF00F0F4CF01F01200EE52EFCFA0F294
:10541000E9EF08F0EE52EFCF80F2DDEC05F0D6EFC9
:1054200028F00401050E186F3DDE070EEF6E120026
:10543000E96EEA6AD890E936EA367F0EE926040E6C
:10544000EA22120086DF03C01FF057EF28F0BADF10
:1054500070DE0801CB270150CC231200B8DF69DED3
:105460000801CF270150D02312000201A66B0201D0
:10547000A46BA56B0201A26BA36B1200D7EC89F0A1
:10548000E552E55212002EDE54EF28F06FCDE9FF11
:1054900070CDEAFFE906000EEA5A120094DE71CDE3
:1054A00024F88CEC5EF002011200E66E1A0EE66E35
:1054B000040EDAEF28F0A5DEF3CF33FDF4CF34FD90
:1054C0001200D1C8E6FFD2C8E6FFD3C8E6FF12003B
:1054D00009DE44DF54EF28F0F3CF6FFDF4CF70FD09
:1054E0001200620E726F330E736F010EEDEF2AF031
:1054F0004CDE020ED4DE620E966F330E976F010EF5
:10550000986FF1EF29F06DDF72EF28F0BE6F0201A6
:10551000BC6BBD6B010E0201BA6FBB6B62DF99EF12
:1055200029F00201250E626F73D871CD23F87EEC4D
:105530005EF00201626F55DF4EEF2AF0A16F51DF7E
:1055400093EF28F07FDFF5CF72F20900F5CF73F209
:105550000800F5CF74F245DF8EEF28F0A3DDB4EF3D
:1055600028F03FDFB4EF28F09DDDEE52EFCF50F290
:1055700091EC02F0F1EF29F002011A0E6F6F040EA8
:10558000706F2FDFC0EF29F027DF02017C6B7D6B8E
:1055900028DF43EF2AF0656F24DFEE52EFCF63F28E
:1055A0008FEF03F0DDC87CF2DEC87DF21ADF43EF37
:1055B0002AF0A16F16DF05EF2AF022DF026A036AE4
:1055C00012000FDF32EF29F00201796B7A6B09DFED
:1055D0009EEF29F002D802011200746F02DF8EEFF5
:1055E00028F07C6B7D6B83EF2AF06DCD7EF26ECD63
:1055F0007FF202011A0E7C6F040E7D6F83EF2AF09A
:1056000076DD200E9EEF2AF072DD0A0E9EEF2AF064
:10561000E8DEE3EF28F0020164DFE3DE090E1200AA
:10562000070EE66EE66A740EE66E7F0EE66E000EFC
:1056300090EC34F001E1000C040EE66EE66A6F0EA9
:10564000E66E7F0EE66E000E90EC34F001E1000C89
:10565000800C690EE66E7F0EE66E000EE66E86C466
:10566000E6FF87C4E6FF97EC34F013E15F0EE66EC9
:105670007F0EE66E000EE66E88C4E6FF89C4E6FF84
:10568000A8EC89F0016E050EE15E0150000901E110
:10569000800C000C140E0001FA6FFB6B0001020E6F
:1056A000F86F0D0EF96F14C4F7F024EC59F0090EE1
:1056B000E66EE66A550EE66E7F0EE66E000E51EC63
:1056C00034F04EE10801500ED16F7F0ED26F000E04
:1056D0006CEC34F00AE0D8EC33F002E0000E01D0BC
:1056E000010EE8B08C88E8A08C9808014B0ED16FB1
:1056F0007F0ED26F000E6CEC34F00AE0D8EC33F081
:1057000002E0000E01D0010EE8B08C86E8A08C9675
:105710000801460ED16F7F0ED26F000E6CEC34F094
:105720000AE0D8EC33F002E0000E01D0010EE8B040
:105730008C84E8A08C940801410ED16F7F0ED26F4B
:10574000000E6CEC34F04EE0D8EC33F002E0000ECA
:1057500001D0010EE8B08C82E8B044D08C92000CED
:105760000B0EE66EE66A350EE66E7F0EE66E000EF6
:1057700051EC34F004E10401010E166F000C080E28
:10578000E66EE66A2C0EE66E7F0EE66E000E51ECBB
:1057900034F028E10801280ED16F7F0ED26F000E81
:1057A00082EC33F0F3CFE9FFF4CFEAFFEF50370A92
:1057B00018E0010A14E0030A10E0010A0CE0070AED
:1057C00008E0010A04E0030A0DE18C72000C8C74FD
:1057D000000C8C76000C8C78000C8C7A000C8C7C85
:1057E000000C8C7E000C140E0001FA6FFB6B0001A4
:1057F000A10EF86F0D0EF96F14C4F7F024EC59F0F8
:105800000A0EE66EE66A1D0EE66E7F0EE66E000E6E
:105810009FEC34F002E1DDEF2DF0120EE66EE66A49
:105820000A0EE66E7F0EE66E000E9FEC34F002E18B
:1058300029EF2CF0FA0EE66E7E0EE66E000EE66E96
:10584000A10EE66E0D0E7BEC33F002E1A6EF2EF01A
:10585000000C71EC34F0F3CF04F0F4CF05F0F3CF8B
:10586000E6FFF4CFE6FF6EEC33F0EFCF80F2DDEC35
:1058700005F0E552E7CF05F0E552E7CF04F004501C
:10588000F324006E0550F420016E026A036A0401DD
:105890000051005C01510158025102580351035854
:1058A00001E27DD171EC34F058EC34F0026A036A05
:1058B00004010051F35C0151F458025102580351A4
:1058C000035801E2010C330E0301F56FF66B03017F
:1058D000000EF36F0D0EF46F0301060EEF6FF06B09
:1058E000F16BF26B7EEC8DF00D012C9D19EC34F018
:1058F00001E127D1060E0801D66FD76B08011A0EF9
:10590000D46F040ED56F17EC26F0000901E047D1E3
:105910005C0E0801DA6FDB6B0801200ED86F040EF5
:10592000D96F37EC26F0000901E039D1F70EE66EA9
:105930007E0EE66E000E37EC34F011E10801000E29
:10594000066F0D0E97EC33F001E129D100CD14FD67
:1059500001CD15FD02CD16FD03CD17FDC7D7F40E01
:10596000E66E7E0EE66E000E37EC34F008E10801BC
:10597000080E066F0D0E97EC33F0B8E110D1F00E63
:10598000E66E7E0EE66E000E37EC34F011E1080193
:10599000040E066F0D0E97EC33F001E100D104CD3B
:1059A00018FD05CD19FD06CD1AFD07CD1BFD9ED7AF
:1059B000EB0EE66E7E0EE66E000E37EC34F008E17C
:1059C00008010C0E066F0D0E97EC33F08FE1E7D057
:1059D000E60EE66E7E0EE66E000E37EC34F009E160
:1059E0000801100E066F0D0E97EC33F001E07ED724
:1059F000D6D0E20EE66E7E0EE66E000E37EC34F088
:105A000073E10D01200E336F040E346F386B0C0EF2
:105A1000385D44E2ABEC34F025E0C7EC33F0EFCF77
:105A200000F0300E005C04E3ABEC34F039081AE20D
:105A3000C7EC33F0EFCF01F0410E015C04E3ABECB7
:105A400034F046080FE2C7EC33F0EFCF02F0610EFE
:105A5000025C04E3ABEC34F0660804E2332B000E86
:105A60003423D8D7ABEC34F00AE10C0E385D16E2E3
:105A70003851ABEC33F0300EEF6E382BF6D7C7EC65
:105A800033F0332B000E3423EF50E66E3851ABEC7D
:105A900033F0E552E750EF6E382BB9D70D01386B74
:105AA000060E385D01E322D73851E824ABEC33F021
