:020000040000FA
:06000000B3EF8FF01200C7
:020006001200E6
:06000800BEEF5DF01200E6
:02000E000004EC
:04001000A300000049
:020014001200D8
:020016000400E4
:0600180098EF5DF01200FC
:02001E001700C9
:1000200014200100630800000100000013200100FB
:1000300062080000010000001120010059080000C2
:100040000200000010200100610800000100000013
:100050000D200100500800000300000009200100ED
:1000600049080000040000000720010057080000B4
:1000700002000000FF1F010020080000080000002F
:10008000FE1F01006008000001000000FD1F0100CC
:100090005F08000001000000FC1F01005E08000076
:1000A00001000000FA1F01005508000002000000D6
:1000B000F81F01005308000002000000F41F0100B7
:1000C0004508000004000000F21F01003E0F000080
:1000D00002000000F11F01005D08000001000000A7
:1000E000F01F01005C08000001000000EF1F01008C
:1000F0005B08000001000000E9710000FF0700003C
:1001000001000000E91F01003B080000060000009C
:10011000E71F0100FE06000002000000E31F0100CF
:10012000410800000400000016000000FE0000006E
:0401300002000000C9
:0C013400010145510801555D01E1120078
:10014000FE0E555D0CE01C0EE66EE66A290EE66EAC
:10015000010EE66E555173EC18F0FEEC18F045C137
:1001600055F8FE0E0101455D01E112001C0EE66E20
:10017000E66A455173EC18F0290EE66E010EE66E44
:10018000FEEF18F008015551565D01E11200FE0E18
:10019000565D21E0270E0101C56FC66B0101010EFE
:1001A000C46F0101020EC26F010EC36F0801E8ECBB
:1001B00018F01B0E55EC1AF0EFCFC1F1E8EC18F077
:1001C000EECFBFF1EFCFC0F10101270EBF5F000EF0
:1001D000C05BE9EC15F055C856F8270ED6EC18F0C0
:1001E00029C1C2F12AC1C3F10101C25F000EC35B84
:1001F0000DEC1AF0020EBF6F010EC06FE9EF15F0A3
:100200000C01580E096F160E0A6F01010051011101
:100210000FE1CBEC4CF01EC000F11FC001F1FF0E4E
:1002200001010017070E0117000E0027040E01231D
:100230003C0EE66EE66AE66A000EE66E060EE66EB6
:1002400051EC81F0006E050EE15E00500C01016B77
:10025000006B0051C9EC17F001E38ED000CC45F1E2
:1002600069DFFBEC16F034EC17F0F62A000EF722EB
:10027000F8220800F5CF08FCFBEC16F034EC17F080
:10028000020EF626000EF722F8220900F5CF02FC36
:100290000A00F5CF03FCFBEC16F0DAEC1AF0040EC2
:1002A000F626000EF722F8220900F5CF04FC0A001A
:1002B000F5CF05FC0C01085128E109CC06FC0ACC5D
:1002C00007FC270E036A0225026E0351032210EC7D
:1002D0001AF002500425006E035005217DEC1AF03F
:1002E0000050092701500A2309CC00F00ACC01F084
:1002F000026A036AD880580E0054360E0154000E6C
:100300000254000E035402E2EFD7FFD708CC44F1A9
:10031000270E0C0106250101296F000E0C01072193
:1003200001012A6F29510C01022501012B6F2A516D
:100330000C01032101012C6F010E2B27000E2C2331
:100340002B510C01042501012D6F2C510C010521AD
:1003500001012E6F0D0E3F6F409714DFFBEC16F07E
:100360001CC003F0DAEC1AF00800F5CF28F182EC9B
:100370000FF00C01002B6DD712000C01106B105107
:10038000C9EC17F001E390D010CC45F1D3DE0D0E8F
:1003900001013F5D01E085D0F5DE01014D51285D91
:1003A00001E07FD0180E256F020E266F4A510CE136
:1003B0004BC112F14CC113F14087040E3F6F4BC18A
:1003C00042F14CC143F16AD0000E005D040E0159A8
:1003D00006E3880ED8800055130E015503E2006B2A
:1003E000040E016F00C112F101C113F1002B000EC8
:1003F00001234BC110F14CC111F159EC1AF001016C
:1004000040894A51040A25E0070A11E0020A02E085
:10041000030A44E129EC19F0020E4A5D02E0000EE5
:1004200001D0010E2495E8B024853F6B37D04851A8
:100430004625026E495147217EEC18F029EC19F04F
:10044000276B260E026F036B046B056B020E3F6F6A
:1004500025D046C1E9FF47C1EAFF32EC19F046C199
:10046000E9FF47C1EAFF0450EE24026E0550EE207A
:100470007EEC18F00A0EE66EE66A46C1E6FF47C15A
:10048000E6FF93EC19F069EC18F00101050E3F6FDF
:1004900093EC1AF0020EAD6FB2EC0BF00C011051A0
:1004A00012000C01102B6BD7FE0C4EC145F142DE41
:1004B000010141A902D04199010C000C4FC145F145
:1004C00039DE070E01013F5D01E0000C010C50C157
:1004D00045F1C0EC19F001013F51080A38E0010A6A
:1004E00036E0050A34E0020A2FE0050A1FE00D0A93
:1004F0000FE0010A0DE0070A31E0020A2FE0010ACD
:100500002DE0060A2BE0040A22E146EC61F026D039
:1005100065EC18F001011451151106E00E512F1968
:10052000F7E10F513019F4E1080E0FD065EC18F027
:1005300001011451151106E00E512F19F7E10F5169
:100540003019F4E10C0E01D00D0E3F6F12000101C5
:10055000AE6B0101140EAD6FB2EC0BF082EF0FF039
:1005600051C145F1E7DD0101409751C150F167EFFD
:1005700002F052C145F115EC1AF00A0EE66EE66A79
:1005800093EC19F0530EE66E010EE66E69EC18F06E
:1005900010C15DF111C15EF1530E006E010E74EFDA
:1005A00017F05FC145F115EC1AF001010E512F193A
:1005B00002E10F51301902E02DEC17F0120060C17A
:1005C00045F1B8DD3FC104FC070E0C01045D06E0F7
:1005D0000B0E045D03E0F36AF46A1200010131516D
:1005E0002F5D3251305916E329512B5D026E2C518B
:1005F0002A55036E0206000E035A31512F5D046E18
:1006000030513255056E0450025C006E055003589F
:1006100074EF17F02F51315D006E32513055016E7D
:100620000006000E015A00C0F3FF01C0F4FF1200E3
:1006300061C145F17FDD61C160F1C1DFF3CF13FC22
:10064000F4CF14FC0C01F350F41001E1000C010E86
:10065000131904E1145102E119EC1AF0010141519E
:10066000010B0CE1CCEC1AF00C011351005C14519D
:10067000015804E319EC1AF001014181010E010156
:10068000C56FC66B0101C46F0101620EC26F010E1E
:10069000C36FAAEC1AF001012F2B000E30232B514F
:1006A0002F5D2C51305902E316EC19F00C01010EAC
:1006B000131905E1145103E119EC1AF0010C0101C1
:1006C00040BB02D031EC17F0010C0C01396B3A6BD6
:1006D00063C145F12FDD63C160F171DFF3CF37FCFA
:1006E000F4CF38FC0C01F350F41005E11DEC1AF0C6
:1006F000F36AF46A120037CC35FC38CC36FCA2EC35
:1007000019F004E266C135FC67C136FC4151010BAA
:100710000CE1CCEC1AF00C013751005C3851015857
:1007200004E31DEC1AF00101418101012F510C017C
:100730003525006E010130510C013621C7EC19F04E
:100740001EE32F512B5D0C01396F010130512C59E3
:100750000C013A6F39CCC5F1E8CFC6F1F5EC17F0D2
:100760000C013951010164270C013A510101652343
:100770000C013951355F3A51365B16EC19F035CC26
:10078000C5F136CCC6F1F5EC17F00C01355101017D
:100790002F270C013651010130230C01A2EC19F076
:1007A00003E31DEC1AF004D040BB02D031EC17F08B
:1007B0000C0135513925006E36513A2174EF17F08E
:1007C0000C01166B176B68C145F1B4DC68C160F1B0
:1007D000F6DEF3CF14FCF4CF15FC0C01F350F4104B
:1007E00005E121EC1AF0F36AF46A120001014151AB
:1007F000010B0CE1CCEC1AF00C011451005C15510A
:10080000015804E321EC1AF00101418114CC12FCDF
:1008100015CC13FC39EC19F004E26CC112FC6DC16B
:1008200013FC2F510C011225006E010130510C01F7
:100830001321C7EC19F022E32F512B5D0C01166F29
:10084000010130512C590C01176F16CCCDF1E8CFB6
:10085000CEF13BEC18F016CC00F017CC01F0026A98
:1008600000500101692701506A2302506B230C01DB
:100870001651125F1751135B16EC19F012CCCDF123
:1008800013CCCEF13BEC18F00C01125101012F27D3
:100890000C0113510101302339EC19F003E321EC71
:1008A0001AF004D040BB02D031EC17F00C01125109
:1008B0001625006E1351172174EF17F06FC1E6FF74
:1008C00070C1E6FFBAEC81F0E552E552F3CF66F174
:1008D000F4CF67F16FC164F170C165F16EC163F16E
:1008E000F4DE01016F51F324006E7051F42074EFB7
:1008F00017F072C1E6FF73C1E6FF74C1E6FFC8ECF2
:1009000081F0E552E552E5521FC06CF120C06DF157
:1009100072C169F173C16AF174C16BF171C168F19F
:100920004FDF056A01017251F324006E7351F42008
:10093000016E74510520026E00C01FF001C020F04E
:10094000216E120075C145F19AEC00F001012951A8
:100950002B5D0C01026F01012A512C590C01036F10
:10096000010E025F000E035B75C160F128DEF3CF5C
:1009700000FCF4CF01FC0C01F350025D006E03514A
:10098000F45474EF17F076C177F10CD801EC1BF03A
:10099000F350F41006E076C145F1C0EC19F02DECEF
:1009A00017F0120077C145F19AEC00F0DCEC18F07A
:1009B00006E33551335D006E3451365513D0355151
:1009C0002D5D026E2E513655036E10EC1AF02B5130
:1009D000335D046E34512C55056E02500424006EB4
:1009E0000350052074EF17F078C177F1DBDFF3CF08
:1009F00014FCF4CF15FC0C01F350F41001E1000CD1
:100A000078C145F19AEC00F0010179517A110FE0BB
:100A1000010ED6EC18F035C1C2F136C1C3F10101A7
:100A2000C16F79C1BFF17AC1C0F1E9EC15F00101E4
:100A3000352B000E362335512D5D36512E5902E2ED
:100A400025EC1AF00C01010E141905E1155103E112
:100A500001014185010C010140BB02D093EC17F06C
:100A6000010C0C01166B176B7BC177F19BDFF3CF89
:100A700014FCF4CF15FC0C01F350F41003E1F36AFD
:100A8000F46A12007BC145F19AEC00F001017E513D
:100A90000C01145D01017F510C01155904E214CCC5
:100AA0007EF115CC7FF1010135517E25006E365166
:100AB0007F218DEC19F029E235512D5D0C01166F67
:100AC000010136512E590C01176F010E1627000E29
:100AD000172301017C517D110EE016CCC5F117CC16
:100AE000C6F1FEEC17F00C01165101017C270C0138
:100AF000175101017D230C01165101017E5F0C018C
:100B0000175101017F5B25EC1AF07C517D1106E045
:100B10007EC1C5F17FC1C6F1FEEC17F001017E5127
:100B200035277F5136230C01165101017E270C0118
:100B3000175101017F237E510C01145D006E155188
:100B400001017F55016E00507E5D01507F5902E327
:100B5000418504D040BB02D093EC17F07EC1F3FF77
:100B60007FC1F4FF120080C145F19AEC00F0010151
:100B70002B512D5D0C01166F01012C512E590C01CA
:100B8000176F80C177F10EDF0C01F350165D006E18
:100B90001751F45474EF17F001018451851103E1EA
:100BA000F36AF46A120081C145F19AEC00F081C148
:100BB00077F1F8DEF3CF02FCF4CF03FC010186519C
:100BC0008425006E87518521016E0C010050F35C75
:100BD0000150F4580BE2010186510C01025D010144
:100BE000846F87510C0103590101856F0101355153
:100BF00086250C01006F0101365187210C01016F20
:100C0000005101012D5D0C01015101012E5906E237
:100C100025EC17F00C01005F0150015B0C01005145
:100C200001012D5D0C01046F015101012E590C01D0
:100C3000056F010E0427000E0523010184510C01EC
:100C4000045D010185510C01055907E384C1C5F11B
:100C500085C1C6F185EC18F022D004CCC5F105CCD5
:100C6000C6F185EC18F0E9EC15F00C010451010116
:100C7000845D0101C56F0C0105510101855942ECEC
:100C800019F01DEC1BF0010182510C01042501013A
:100C9000BF6F010183510C0105210101C06FE9EC17
:100CA00015F084C1F3FF85C1F4FF120089C186F1FC
:100CB0008AC187F1010E0101846F856B0101060E67
:100CC000826F0C0E836F88C181F166DF0C010651C3
:100CD000120001018E518F1103E1F36AF46A1200D0
:100CE0008BC145F19AEC00F08BC177F15BDE01011D
:100CF0009051F35C0D019F6F01019151F4580D016A
:100D0000A06F4BEC19F001E205D101019251931152
:100D10000DE00D019F510101925D0D01A0510101F6
:100D2000935904E292C19FFD93C1A0FD35519025D6
:100D30000D01A36F0101365191210D01A46FA35143
:100D400001012D5D0D01A45101012E5906E225EC92
:100D500017F00D01A35F0150A45BA3CD9DFDA4CDB1
:100D60009EFD0D01A35101012D5D0D01A16FA45147
:100D700001012E590D01A26F010EA127000EA22321
:100D800090C1A3FD91C1A4FD8EC1A5FD8FC1A6FD9B
:100D90008CC1A7FD8DC1A8FD01018CC1E9FF8DC1EA
:100DA000EAFF8C2B8D23EFCFAAFD0D01AC6B010167
:100DB000945109E0610E0D01AA5D05E3AA517A087C
:100DC00002E3E00EAA270D01200EAB6FE850A15DF3
:100DD000000EA25902E2A1CDABFDAB519F5D000E0A
:100DE000A05902E29FCDABFDAB51D6EC18F09DCDE2
:100DF000C2F19ECDC3F10DEC1AF0AD0EBF6F0D0E1A
:100E0000C06FE9EC15F00D01AB5125EC19F09D27F1
:100E100001509E23AB5125EC19F0A15F0150A25B5C
:100E2000A151A21106E12BC19DFD2CC19EFDA1691E
:100E3000A269010194513EE00D01A96BAB51A95D7E
:100E40005FE2D0EC17F0EFCF00F0610E005C0BE337
:100E5000D0EC17F0EF507A0806E3E00E006ED0EC0D
:100E600017F00050EF26D0EC17F0EF50AA5D0EE11E
:100E7000CEEC19F02CE091EC18F0610EAA5D18E3AD
:100E8000AA517A0815E3E00EAA2712D0A5CD8EF15B
:100E9000A6CD8FF1AC510CE049EC18F0610E0D01BC
:100EA000AA5D05E3AA517A0802E3E00EAA27AC6B1B
:100EB000A92BC4D70D01A96BAB51A95D21E2D0ECE0
:100EC00017F0EF50AA5D10E1CEEC19F00AE10D0128
:100ED000A551A35D026EA451A655036EA9510BEF57
:100EE00018F091EC18F00AD0A5CD8EF1A6CD8FF1B7
:100EF000AC5104E049EC18F00D01AC6BA92BDCD728
:100F00000D01AB5125EC19F09F5F0150A05B4BEC3C
:100F100019F003E2F368F4681200AB5125EC19F004
:100F2000A3270150A4234FD7010199519A1103E13E
:100F3000F36AF46A120095C145F19AEC00F095C18C
:100F400077F130DD01019B51F35C0D01026F01016E
:100F50009C51F4580D01036F54EC19F001E205D1D6
:100F600001019D519E110DE00D01025101019D5D98
:100F70000D01035101019E5904E29DC102FD9EC174
:100F800003FD35519B250D01066F010136519C2152
:100F90000D01076F065101012D5D0D010751010182
:100FA0002E5906E225EC17F00D01065F0150075B94
:100FB00006CD00FD07CD01FD0D01065101012D5D9E
:100FC0000D01046F075101012E590D01056F010E2E
:100FD0000427000E05239BC106FD9CC107FD99C196
:100FE00008FD9AC109FD96C10AFD97C10BFD98C184
:100FF0000CFD010196C1F6FF962B97C1F7FFB2ECED
:101000001AF0106B01019F5109E0610E0D010E5D98
:1010100005E30E517A0802E3E00E0E270D01200EC3
:101020000F6FE850045D000E055902E204CD0FFD7C
:101030000F51025D000E035902E202CD0FFD0F5168
:10104000D6EC18F000CDC2F101CDC3F10DEC1AF0D1
:10105000110EBF6F0D0EC06FE9EC15F00D010F51B1
:1010600025EC19F00027015001230F5125EC19F050
:10107000045F0150055B0451051106E12BC100FD21
:101080002CC101FD0469056901019F513EE00D017C
:101090000D6B0F510D5D5FE2D7EC17F0EFCF00F055
:1010A000610E005C0BE3D7EC17F0EF507A0806E313
:1010B000E00E006ED7EC17F00050EF26D7EC17F0DB
:1010C000EF500E5D0EE1D5EC19F02CE0DEEC17F0E0
:1010D000610E0E5D18E30E517A0815E3E00E0E273F
:1010E00012D008CD99F109CD9AF110510CE07EECA7
:1010F00017F0610E0D010E5D05E30E517A0802E353
:10110000E00E0E27106B0D2BC4D70D010D6B0F5188
:101110000D5D21E2D7EC17F0EF500E5D10E1D5EC3C
:1011200019F00AE10D010851065D026E07510955DB
:10113000036E0D510BEF18F0DEEC17F00AD008CD5E
:1011400099F109CD9AF1105104E07EEC17F00D01F0
:10115000106B0D2BDCD70D010F5125EC19F0025F40
:101160000150035B54EC19F003E2F368F4681200D9
:101170000F5125EC19F00627015007234FD7A6C1C0
:1011800094F1A4C192F1A5C193F1A2C190F1A3C1C0
:1011900091F1010E01018E6F8F6B0101A10E8C6F19
:1011A000010E8D6FA0C18BF169EF06F00C01416B50
:1011B0004151C9EC17F001E309D241CC45F19AEC59
:1011C00000F00C01446B426B436B01014151020B77
:1011D00003E14151040B0EE067EC3AF000090AE02C
:1011E0000C01100E446F01014151040B01E0010E8E
:1011F0000C01426F010140AB11D061EC8DF0010197
:101200001E503B5D006E1F503C59016EE83402E2F7
:101210002AEC1AF003E30C01100E446F010140ADFB
:1012200009D0F3EC18F002E22AEC1AF003E30C0107
:10123000100E446F0B0E01013F5D0CE1F3EC18F052
:1012400002E22AEC1AF006E30C01110E446F0101D0
:101250000C0E3F6F040E3F5D53E10C01456B466B76
:10126000030E455D000E46594BE24FEC1AF006ECBA
:101270001BF046E04FEC1AF070EC18F0F0EC17F0B1
:1012800001014251001837E14351011834E1C2EC29
:1012900000F00A0EE66EE66A4FEC1AF05DEC19F00B
:1012A00093EC19F003EC81F0060EE15E4FEC1AF0BE
:1012B0002FEC1AF0EECF10F1EDCF11F14FEC1AF048
:1012C0000C0E55EC1AF0EECF0AF1EECF0BF1EECF8B
:1012D0000CF1EFCF0DF101010A2B0B230C230D2391
:1012E000AAEC17F00C01120E446F0101060E3F6FBD
:1012F000ABEC16F005D00C01452B000E4623B0D701
:101300000C0144510AE0425102E0000E01D0010EEE
:101310000101AE6F44CCADF125DA010140B92FD007
:10132000070E3F5D01E04FD1B6EC17F001E04BD165
:1013300001014051070B060816E14051080B01E07E
:10134000010E0C01446F41CC50F167EC02F041CC2E
:1013500050F167EC02F00C01445101E034D101017D
:101360000E0E3F6F30D1C2EC00F00101020EAE6FE5
:101370000101100EA7EC1AF0F0EC16F024D1B6EC37
:1013800017F001E020D1C2EC00F001013F510C0A3E
:1013900001E1CDD0060A01E1C4D0030A01E1D0D0B9
:1013A000010A01E1BAD00F0A01E1AED00C0A01E155
:1013B000ABD00D0A01E19DD0030A01E187D0060AF6
:1013C0005AE0010A48E0030A21E0010A01E0BDD029
:1013D00041EC61F0000901E1B8D00101010E3F6F5D
:1013E00024A50BD007013F6F18C13CF719C13DF789
:1013F0001AC13EF773EC61F0A8D007013B6F18C12A
:1014000039F719C13AF753EC61F09FD00701470E45
:10141000406F0C0E416F96EC61F0000901E195D030
:1014200046EC61F0000913E047CC18F148CC19F103
:1014300049CC1AF14ACC1BF10101020E3F6FAAEC14
:1014400017F0276B260E026F036B046B50D0F0EC85
:1014500016F03F6B7AD061EC8DF01EC03BF11FC0DF
:101460003CF10701180EE86F010EE96F77EC75F09B
:101470000101030E29D007011C0EEC6F010EED6F68
:101480000701180EEA6F010EEB6FA4EC75F000096E
:1014900015E161EC8DF001013B511E5C006E3C5189
:1014A0001F58016E0050025D015003594EE2060EB6
:1014B000275D02E2DCEC19F0020E06D00C01020EF0
:1014C000446F426B0101050E3F6F3FD00C01020ECD
:1014D000446F010E426F040E0101275D36E3040ED6
:1014E000276F700E026F890E036F090E046F056B74
:1014F0002CD0020E275D03E20C01120E1DD040B766
:101500001FD00C01020E07D0050E275D0DE3080E5B
:101510003F6F0C01110E446F18D0050E275D10E2CD
:1015200009D0050E275D0CE20C01100E05D0050E4A
:10153000275D06E20C01110E446F010E426F05D0CB
:101540000C01140E446F010E436F0C01445136E040
:1015500042512EE00101DCEC19F031510E5D0C011D
:10156000456F010132510F590C01466F010198EC92
:1015700019F007E21AEC17F000500C014527015052
:10158000462345CC00F046CC01F0026A036A0050C5
:101590000101B2EC18F00C014551010114270C01B6
:1015A00046510101152332EC1AF00101AE6B03D054
:1015B0000101010EAE6F44CCADF1D4D80C01435102
:1015C00002E082EC0FF00C01412BF2D5456B466B2B
:1015D000030E455D000E46592FE24FEC1AF006EC63
:1015E0001BF001E112004FEC1AF037EC1AF0BAECE4
:1015F00018F002C0E6FF03C0E6FF61EC8DF0E55293
:10160000E7CF03F0E552E7CF02F002501E5C006E18
:1016100003501F58016EC90ED8800054010E0154AA
:1016200006E2ABEC16F00C014507000E465B0C0120
:10163000452B000E4623CCD71200A7C1E9FFA8C155
:10164000EAFFEECF14FDEECF15FDEECF16FDEFCF86
:1016500017FDA9C1E9FFAAC1EAFFEECF18FDEECF41
:1016600019FDEECF1AFDEFCF1BFD0D011C6B060E11
:101670001D6FABC11EFDACC11FFDABC122FFACC1D4
:1016800023FFA6EC4FF0F3CF1EFDF4CF1FFD0C0E91
:101690000F012A6F2B6B0F01140E286F0D0E296F8F
:1016A000C1EC4FF0F3CF20FDF4CF21FD0D01201F41
:1016B000211FABC12CFFACC12DFF12EC50F0F3CFBA
:1016C00022FDF4CF23FD0D01F350201948E12351F1
:1016D000211945E10601FA6BFB6B7AEC80F0140EE0
:1016E0000601A66FA76B0601000EA46F0D0EA56F75
:1016F0004DEC3EF00101000EB36F0D0EB46FC1DB77
:101700000D010C51D1EC1AF0040DF350E3EC19F07B
:1017100000C024FD0050006E016AE8500101AB5D7D
:10172000AB6F0150AC59AC6F140EAB5F000EAC5BED
:10173000A7C1B1F1A8C1B2F10101000EAF6F0D0E4A
:10174000B06F64DA00090BE0ABC1B7F1ACC1B8F11E
:101750000101000EB56F0D0EB66F21EC10F0F6EC26
:101760003AF0010CC2EC00F00101ADA102D04187BA
:10177000AD91409B409D409F41934195419167ECC5
:101780003AF00009FCE0060E0101AD1504E00D0180
:101790006B6B6C6BB3D00E512F1907E10F513019E1
:1017A00004E10D016B6B6C6B91D02F510E5D3051CC
:1017B0000F591FE20E512F5D0D016B6F01010F518B
:1017C00030591BEC19F004E214C16BFD15C16CFD1E
:1017D00066EC19F005E225C16BFD26C16CFD418563
:1017E0006BCDC5F16CCDC6F116EC18F06FEC19F0AD
:1017F0006DD00E512B5D0D01696F01010F512C59F8
:101800000D016A6F695101012F25006E0D016A51AA
:1018100001013021016E2951005C0D016B6F010146
:101820002A5101581BEC19F004E214C16BFD15C1DB
:101830006CFD66EC19F005E225C16BFD26C16CFD5F
:1018400041850D0169516B5D6A516C5904E26BCDA4
:1018500069FD6CCD6AFD69CDC5F16ACDC6F116ECA6
:1018600018F00D0169516B5D696F6A516C596A6FAF
:1018700069516A1122E069CDC5F16ACDC6F144C152
:10188000C4F129C1C2F12AC1C3F10101C16B010137
:101890000E512B5D006E2C510F55016E026A036ACA
:1018A000B20E00260A0E0122000E0222032200C000
:1018B000BFF101C0C0F1E9EC15F06FEC19F02B514C
:1018C0000E5D2C510F5902E3E0EC1AF0010141A723
:1018D00015D014510D016B1904E1010115510D01D1
:1018E0006C190CE0010125510D016B1904E1010196
:1018F00026510D016C1902E00101AD810D016B5102
:101900006C1104E1030E0101AD151CE00D016B51DA
:101910000101145F0D016C510101155B0D016B514B
:101920006C1102E00101AD870101AEA107D0276B68
:10193000970E026F980E036F046B056B25EC18F081
:10194000408929D0AEA319D0400EE96E010EEA6E8F
:10195000EF50070BE82AE850070BF36EF46EF80E11
:10196000EF14F310EF6E0607000E075B085B095BD0
:10197000010E0D016B6F6C6B0ED040A90CD0AEB197
:1019800008D0275106E02707D890053304330333E6
:10199000023325EC18F012C147FD13C148FD10C1F8
:1019A00049FD11C14AFD06C14BFD07C14CFD08C1EF
:1019B0004DFD09C14EFD0AC14FFD0BC150FD0CC1CB
:1019C00051FD0DC152FD0D01539153935395539702
:1019D000ADC154FD596B5A6B6B51010106270D01C6
:1019E0006C5101010723000E08230923ADA315D074
:1019F000ADB905D00D014F6B506B516B526B0101AE
:101A000024A306D00D014B074C5B4D5B4E5B05D00C
:101A1000062B07230823092324830101ADA10DD040
:101A200024A106D00D014B074C5B4D5B4E5B05D0EE
:101A3000062B0723082309232481DCEC18F00AE392
:101A40009EEC18F00D010250005C556F03500158D8
:101A5000566F0DD03351355D0D01556F0101345175
:101A600036590D01566F010E555F000E565BFAECAC
:101A70003AF0F3CF45FDF4CF46FD0D01400E455F32
:101A8000000E465B800E461502E0456B466B5551D5
:101A9000455D5651465904E245CD55FD46CD56FDAE
:101AA0000101470EB36F0D0EB46FEBD9140E0D018B
:101AB0006B27000E6C235389539B538D539F010159
:101AC000ADA323D0040E0D016B27000E6C23020E74
:101AD0005B6F040E5C6F020E5D6F180E5E6F010E81
:101AE000006E530EE96E0D0EEA6EEF50D1EC1AF057
:101AF00000240F0BF36EF46EF346F346F346F34601
:101B00000F0EEF14F310EF6EF45000C35FFD01C32E
:101B100060FD02C361FD03C362FD18C163FD19C10D
:101B200064FD1AC165FD1BC166FD0D01676B060EE4
:101B3000686F6BCD69FD6CCD6AFD6BCD22FF6CCDFE
:101B400023FFA6EC4FF0F3CF69FDF4CF6AFD0C0E36
:101B50000F012A6F2B6B0F015F0E286F0D0E296F7F
:101B6000C1EC4FF0F3CF57FDF4CF58FD0D01571FD7
:101B7000581F06018A0E966F0A0E976F6FEC3CF0A5
:101B80006BCDF8F66CCDF9F60601060EF76F06017F
:101B9000180EF56F010EF66F0AEC80F0140E3AEC99
:101BA0001AF0470EA96F0D0EAA6F99EC3EF00101D5
:101BB000ADA309D0040E3AEC1AF05B0EA96F0D0E1E
:101BC000AA6F99EC3EF006019E0E986F0A0E996F6F
:101BD0007DEC3CF06BCD2CFF6CCD2DFF12EC50F06A
:101BE000F3CF45FDF4CF46FD0601AE0E966F0A0E0B
:101BF000976F6FEC3CF0020E3AEC1AF0450EA96FAD
:101C00000D0EAA6F99EC3EF03BEF3CF021EC17F083
:101C1000EE50ED1001E1000C0C01FE0E016F9DEC89
:101C200019F032EC19F09DEC19F00450EE24026E1C
:101C30000550EE20036E73EC1AF00250EE24006E95
:101C40000350EE20016E21EC17F00050EE18026FE9
:101C50000150EE18036F006B0051C9EC17F048E219
:101C600000CC45F19AEC00F00D0E01013F5D3DE026
:101C7000040E3F5D0BE1D7EC1AF00050421935E13C
:101C80000150431932E100CC01FC2FD00C0102516C
:101C9000010142192AE10C0103510101431925E117
:101CA000C2EC00F0D7EC1AF00101125100181DE14E
:101CB000135101181AE173EC1AF0BAEC18F0105134
:101CC000021813E11151031810E19DEC19F0EE50C8
:101CD00018190BE1EE50191908E1EE501A1905E137
:101CE000EE501B1902E101E1010C0C01002BB4D7ED
:101CF000FE0E015D21E001CC45F115EC1AF0FE0E5F
:101D00000C01015D19E002CC42F103CC43F1AAECD5
:101D100019F093EC19F069EC18F073EC1AF0EECFAF
:101D200010F1EDCF11F121EC17F0EECF12F1EDCF64
:101D300013F13FEC1AF0010C73EC1AF00D0E55EC98
:101D40001AF0EF50020B01E1000C06013851391175
:101D500001E0000C0C01046B056B030E045D000E2A
:101D600005593BE249EC1AF006EC1BF036E049EC71
:101D70001AF070EC18F0F0EC17F021EC17F0BAEC58
:101D800018F00250001824E10350011821E149EC39
:101D90001AF02FEC1AF0F0EC17F073EC1AF0BAEC22
:101DA00018F00250001814E10350011811E19DECE5
:101DB00019F021EC1BF0EE500001001808E1EE5084
:101DC000011805E1EE50021802E1EE50031848E058
:101DD0000C01042B000E0523C0D7006B0051C9EC89
:101DE00017F04EE200CC45F19AEC00F0010140A75B
:101DF00044D0C2EC00F0D7EC1AF0005001011219E7
:101E00003CE10150131939E1AAEC19F049EC1AF040
:101E10005DEC19F0FEEC18F073EC1AF0F0EC17F032
:101E200049EC1AF02FEC1AF000C0EEFF01C0EDFFF4
:101E300073EC1AF0040E55EC1AF021EC1BF00C0EAA
:101E400055EC1AF000C0EEFFE6EC1AF0D7EC1AF0F1
:101E500049EC1AF070EC18F000C0EEFF01C0EDFF85
:101E600061EC8DF01FC001F049EC1AF037EC1AF06C
:101E70001EC0EEFF01C0EDFF000C0C01002BAED721
:101E8000000C78EC1AF011EC17F0F3CFEEFF01C064
:101E9000EDFF78EC1AF0020E55EC1AF011EC17F089
:101EA000020EF3CFEBFF030E05EC19F0040E5FEC0E
:101EB00017F0040E35EC18F0080E5FEC17F0080E62
:101EC00035EC18F00E0E55EC1AF011EC17F00E0E62
:101ED000F3CFEBFF0F0E05EC19F070EC18F011ECDE
:101EE00017F0100EF3CFEBFF110E05EC19F037ECE5
:101EF0001AF011EC17F0120EF3CFEBFF130E01C026
:101F0000EBFF1200C2EC00F012C142F113C143F129
:101F100016EC19F029C131F12AC132F12BC133F18C
:101F20002CC134F125EC1AF001014051080B02E0FC
:101F3000040E01D00D0E3F6F4091409340954099A3
:101F4000409B409D409F41914193419541974189DC
:101F500024912493249724993FEC1AF08FEC4CF0B1
:101F6000F3CF06F1F4CF07F18FEC4CF0F3CF08F18B
:101F7000F4CF09F1010122692369010E146F156B79
:101F800012000C0E0601FA6FFB6B7AEC80F039EC54
:101F90003EF00C01006FF00E0015E840E8403F0BEA
:101FA000E3EC19F000C000FC005046E0070E78ECAE
:101FB00019F00C010051000700093EE044EC1AF052
:101FC000E8503AE00105F5E0020E015D26E1030E5E
:101FD000005D32E3026B036B44EC1AF0040E015D0A
:101FE00008E139EC3EF00C01036F39EC3EF00C01D6
:101FF000026F180E025D020E03591EE3B40ED88064
:102000000255050E035504E2B40EF36E050E17D00B
:1020100002CCF3FF03CCF4FF1200020E005D0CE3D0
:1020200044EC1AF0E850005D07E3015178EC19F038
:102030000C010151005FBDD7180EF36E020EF46E55
:10204000120098EC1AF00D0E55EC1AF0EFCF33FD9C
:1020500098EC1AF0080E55EC1AF0EECF34FDEECFE6
:1020600035FDEECF36FDEFCF37FD98EC1AF0040EBC
:1020700055EC1AF0EECF38FDEECF39FDEECF3AFD3C
:10208000EFCF3BFD010140914093409540B902D014
:10209000F0EC16F03F51050A1FE0010A08E0B7C155
:1020A0003CFDB8C13DFD0D0133A14AD046D00D0124
:1020B00033B510D033A906D0BFEC18F0040EA7EC4E
:1020C0001AF008D033A306D058EC18F0EAEC19F057
:1020D000ABEF18F082EF0FF00D0133B5120033A90A
:1020E00010D0E2EC18F00101061908E1EE500719D2
:1020F00005E1EE50081902E1EE50091902E042EF45
:1021000017F00D0133A30FEF15F058EC18F080EC29
:1021100019F0EECF14F1EDCF15F1EAEC19F00D0145
:1021200033A909D02DEC17F00101070E3F6FF0EC39
:1021300016F040991200ABEF18F03C2B000E3D2337
:1021400033A303D03C2B000E3D23DCEC18F00AE354
:102150009EEC18F00D010250005C316F03500158E5
:10216000326F0DD03351355D0D01316F01013451A6
:1021700036590D01326F010E315F000E325B0A0ECF
:10218000E96E010EEA6EEE50385D2B6FEE50395954
:102190002C6FEE503A592D6FEE503B592E6F2BCDD0
:1021A0002FFD2CCD30FD3E6B3C513D115FE0315198
:1021B000321169E0800E2E1503E162EC18F03BE36A
:1021C0003CCD00F03DCD01F0026A036A2B0EE96EB2
:1021D0000D0EEA6EEE500026EE500122EE50022265
:1021E000EE5003220334000E031809E6D880000ED7
:1021F0000054000E0154000E0254000E03541DE260
:102200003C51315D046E32513D55056E066A076AD8
:1022100005AE02D00668076807502E19E8AE02D056
:102220002E3508D02B51045C2C5105582D510658E1
:102230002E51075802E3010E3E6FEDEC1AF02E51BD
:102240000318E8AE02D0033402D0BBEC1AF01BE254
:102250002F513C25046E30513D21056EE83413E2C8
:1022600004500008000E05540EE20BD02B512C1127
:102270002D112E1106E0800E2E1505E162EC18F0EE
:1022800002E2010E3E6F3E5104E133B5C8D32DEF9B
:1022900017F0060E331502E082EF0FF033A912009B
:1022A00001013F510C0A01E1B6D10B0A1CE00F0AF3
:1022B0001AE0010A18E0020A16E0010A14E00C0A0A
:1022C00001E0B9D1E2EC18F0061908E1EE50071967
:1022D00005E1EE50081902E1EE50091902E042EF63
:1022E00017F0070E3F6F0E512F5D0D01296F010191
:1022F0000F5130590D012A6F800E2A1508E0010197
:102300001AEC17F000500D01292701502A2329CD7E
:1023100000F02ACD01F0026A036A0AEC1BF0EE50CD
:102320000024256FEE500120266FEE500220276F0B
:10233000EE500320286FE2EC18F0255D006EEE50A1
:102340002659016EEE502759026EEE502859036E41
:102350000001800E031402E0B2EF19F0010184ECD9
:1023600019F001AE02D0026803680AEC1BF00050BD
:10237000EE5C0D01256F0150EE58266F0250EE58AD
:10238000276F0350EE58286F010198EC19F00BE20B
:102390000FEC1BF000500D01255F0150265B025031
:1023A000275B0350285B250EE96E0D0EEA6EEE509A
:1023B0000D01345D256FEE503559266FEE503659BC
:1023C000276FEE503759286FE834000E281909E6B8
:1023D000D880000E2555000E2655000E2755000EFC
:1023E00028556CE201010FEC1BF00D012551005C3A
:1023F0002651015827510258285103585FE3010123
:1024000024972499419131C129FD32C12AFD0D0142
:102410002551010131270D012651010132230D0102
:10242000295101010E5D0D012A5101010F5909E3E6
:1024300098EC19F02FE20E51315D006E32510F55BC
:102440001BD01AEC17F00E5100240D01296F010169
:102450000F5101200D012A6F010131510D01295D3C
:10246000010132510D012A5915E229510101315D55
:10247000006E32510D012A55016E0001005001011C
:1024800006270001015001010723000E082309233C
:1024900032EC1AF001012B51315D2C51325906E317
:1024A0001AEC17F00050315F0150325B2B510E5D7A
:1024B0002C510F5928E3E0EC1AF025D001010E5100
:1024C000311902E10F5132191EE024A71BD024A9B3
:1024D00018D084EC19F001AE02D0026803680050F5
:1024E000B2EC18F098EC19F009E20FEC1BF001AE19
:1024F00002D0026803680050B2EC18F032EC1AF017
:102500004185248924872F5131191CE1305132191A
:1025100019E141B704D0F0EC16F0409913D079ECF2
:1025200017F010E1EE5035190DE1EE5036190AE1C1
:10253000EE50371907E106E101012451010B02E0D9
:1025400040994197E2EC18F00101065D006EEE50F3
:102550000759016EEE500859026EEE500959036E8C
:1025600080EC19F00D010050EE5C3F6F0150EE5809
:10257000406F01011451151106E10D013F51401149
:1025800002E0010141833FCD14F140CD15F1080E69
:1025900001013F5D20E179EC17F04DE1EE50351976
:1025A0004AE1EE50361947E1EE50371944E143E174
:1025B00001012451010B3FE059EC1AF0F30E010127
:1025C0003727FA0E3823020E3923000E3A234089AA
:1025D000090E3F6F30D0090E3F5D0AE10D0133B1A6
:1025E0002AD0BFEC18F0140EA7EC1AF082EF0FF00F
:1025F0000A0E3F5D20E179EC17F00CE1EE50351941
:1026000009E1EE50361906E1EE50371903E101E019
:1026100006D278DC120079EC17F00CE1EE50351997
:1026200009E1EE50361906E1EE50371903E101E0F9
:10263000F6D168DC12000D0133BB12000B0E010154
:102640003F5D01E112000A0E3F5D01E112000C0E38
:102650003F5D01E11200B751B81101E166D10D01F2
:10266000303504E22F510008000E305501E2A2D0AF
:10267000E8EC17F0006E016A2F51F35C0601FA6F67
:102680000D01305101580601FB6F7AEC80F00D010D
:102690002F510101B7270D0130510101B823B75166
:1026A0000D01315D0101B8510D01325904E231CD06
:1026B000B7F132CDB8F10101B7510A27B8510B2358
:1026C000000E0C230D233351B725006E3451B82171
:1026D0008DEC19F024E233512D5D0D01296F0101BC
:1026E00034512E590D012A6F010E2927000E2A237D
:1026F000F4EC1AF033C1BFF134C1C0F164EC1AF04C
:1027000009EC19F0006EB8510D012A55016E010156
:102710002B510024336F2C510120346F0CD08DECE1
:102720001AF033C1BFF134C1C0F153DA0101B7511E
:102730003327B8513423221D01E1231D01E1F5D0D7
:10274000B751225FB851235B165122250D01296F25
:102750000101175123210D012A6F800E2A1502E075
:10276000010125D00101233504E222510008000EA9
:10277000235501E2DAD00D01295101010A270D018B
:102780002A5101010B23000E0C230D230D012951A9
:10279000010133270D012A510101342333512D5DED
:1027A00034512E5904E251DB335F0150345B22690E
:1027B0002369BBD0303501E3B8D02F510008000E9B
:1027C000305501E3B2D00101B7510D012F25006E44
:1027D0000101B8510D013021016E0050315D0150F1
:1027E000325909E22F51315D0101B76F0D013051AE
:1027F00032590101B86FECDB0601FA6FFB6B7AEC22
:1028000080F013EC1BF0026E18EC1BF0036E02500C
:102810000101B725006E0350B8218DEC19F031E2AB
:1028200033512D5D006E2E5134557DEC1AF00D01A3
:102830002F51005C296F305101582A6F800E2A15E4
:1028400008E1F4EC1AF0C4EC18F0C06F64EC1AF074
:102850001DD08DEC1AF013EC1BF0006E18EC1BF081
:10286000016E01012B512D5D026E2E512C55036E10
:1028700010EC1AF001010250005CBF6F03500158C8
:1028800004D08DEC1AF0C4EC18F0C06FA2D901018D
:10289000221D0BE1231D09E12FCD22F130CD23F1C3
:1028A000B7C116F1B8C117F140D022510D012F5D0B
:1028B000010123510D0130591EE238DB06E30D0101
:1028C000CAEC18F02351055805E2B7C116F1B8C19A
:1028D00017F10CD00FEC19F00D012F51005C010124
:1028E000166F0D01305101580101176F2FCD22F1E4
:1028F00030CD23F11AD01ADB18E20FEC19F00D01DC
:102900002F51005C3051015810E3CAEC18F0026EF0
:1029100023510558036E1651025C006E175103587F
:10292000016E00501627015017230D013C513D1137
:1029300019E0070E01013F5D04E033C135F134C1F8
:1029400036F140AF04D089DAC2EC00F00BD0408FF2
:1029500040BD08D0408DF1EC19F00F0E01013D276C
:10296000000E3E230D0133A15AD00AC100F00BC165
:1029700001F00CC102F00DC103F0002A000E01228B
:10298000022203223CCD04F03DCD05F0066A076A21
:10299000380EE96E0D0EEA6EEE500426EE5005225A
:1029A000EE500622EE5007220050041838E1015084
:1029B000051835E10250061832E1035007182FE1DF
:1029C0002EE1FAEC1AF03F51090A24E0010A12E064
:1029D0000F0A06E0010A22E10C0E3F6F65EF18F0C6
:1029E0000B0E3F6FF1EC19F01E0E01013D27000E9A
:1029F0003E2314D07EDA0AE1EE50351907E1EE509D
:102A0000361904E1EE50371901E104E001010A0E24
:102A10003F6F04D0B2EC19F082EF0FF01EDA120013
:102A2000B9C145F19AEC00F00101BA51BB1103E1C3
:102A3000010EBA6FBB6B29512D5D0C010E6F0101A8
:102A40002A512E590C010F6F010E0E5F000E0F5B05
:102A50000101F8EC19F00C0100500E5D01500F5906
:102A600001E2000CC2EC00F0030E0101BE1502E110
:102A7000030EBE13BCC112FCBDC113FCF8EC19F06F
:102A800000500C010E5F01500F5B0101BEA313D07B
:102A9000BEA10CD00ECC00F00FCC01F0D8900132CA
:102AA000003200500C011227015004D00C010E51CD
:102AB00012270F511323010129510C0112250E6F0A
:102AC00001012A510C0113210F6F010E0E27000E78
:102AD0000F2333C110FC34C111FC0101221D01E19F
:102AE000231D13E09CDB00500C0110270150112323
:102AF000105101012D5D0C01115101012E5905E20A
:102B0000A4D90C01105F0150115B0C01105101019F
:102B1000355D0C011151010136590CE20C010E51C9
:102B20000101355D0C010F510101365918E2BEA5B6
:102B30000ED0000CB8EC19F00AE20E5101012B5D29
:102B40000C010F5101012C590AE2BEB5000C0ECC4C
:102B500035F10FCC36F10ECC33F10FCC34F101014D
:102B6000B8EC19F025E2040E0101BE1521E02B514D
:102B70000C01105D0101C56F01012C510C011159AF
:102B800081DB44C1C1F10ECCBFF10FCCC0F121D823
:102B900013DB0EE20C010E5101012B5D006E2C5176
:102BA0000C010F55016E00500101335F0150345B81
:102BB0000ECC2BF10FCC2CF13FEC1AF029C131F1E6
:102BC0002AC132F133DB070E01013F5D01E145D936
:102BD000010C0101C4512AE0010A01E01200C151B7
:102BE00011E0010A01E01200C5C1E6FFC6C1E6FF1F
:102BF000C2C1E6FFC3C1E6FFBFC1E6FFC0C1E6FF39
:102C000069EF18F0BF1D01E1C01D06E0BFC196F6D7
:102C1000C0C197F66FEC3CF0C5C1ABF6C6C1ACF6CF
:102C2000C2C1A9F6C3C1AAF699EF3EF0C15117E09F
:102C3000010A01E01200C21D01E1C31D06E0C2C18C
:102C400098F6C3C199F67DEC3CF0C5C1A6F6C6C1A5
:102C5000A7F6BFC1A4F6C0C1A5F64DEF3EF0C5C1B1
:102C6000A2F6C6C1A3F6C2C1A0F6C3C1A1F6BFC1F8
:102C70009EF6C0C19FF6ADEC3CF038EC3EF000098A
:102C8000FCE012000101C9510EE0010A01E012004E
:102C9000CDC1E6FFCEC1E6FFB2DBC7C1E6FFC8C1CA
:102CA000E6FF06EF1AF0C71D01E1C81D06E0C7C127
:102CB00096F6C8C197F66FEC3CF0100E0C01106F41
:102CC000116B0101CD51CE1137E00C011051010102
:102CD000CD5D0C0111510101CE5904E2CDC110FCB2
:102CE000CEC111FC10CCE6FF11CCE6FF88DB000E54
:102CF000E66E0C0EE66E8ADB10CCABF611CCACF6B1
:102D00000601000EA96F0C0EAA6F99EC3EF010CCD4
:102D100000F011CC01F0026A00500101CA270150F5
:102D2000CB230250CC230C0110510101CD5F0C01CB
:102D300011510101CE5BC5D71200140EEA02F3CF88
:102D4000EAFFE902F3CFE9FFF450EA26000EE92694
:102D5000060EEA22120045CCC5F146CCC6F10101AF
:102D6000020ED880C557000EC657140EC603F3CF07
:102D7000C6F1C503F3CFC5F1F450C6270101010E1A
:102D8000C46F0C0145250101C26F000E0C014621E4
:102D90000101C36F140EC303F3CFC3F1C203F3CF1A
:102DA000C2F1F450C327000EC227060EC3231DEC48
:102DB0001BF0140E206E216A45CC25F046CC26F07F
:102DC000F0EC88F01EC0BFF11FC0C0F1000E010181
:102DD000BF27060EC023FDDE0601386B396B1200DB
:102DE00068DBE60E01013727F50E3823050E39237F
:102DF000000E3A231200BA0E006E1F0E016E010E75
:102E0000026E00CC03F0046A056A060E246E256A81
:102E1000266A00CC1FF004C020F005C021F00EEFA0
:102E200089F0EECF22FFEDCF23FFA6EC4FF0E9DBD8
:102E300078EF1AF029512B5D006E2C512A55016E46
:102E4000120051DB020E55EF1AF02B512D5D006E72
:102E50002E512C5552DB0050120065DB100EA7EFEF
:102E60001AF06BDB060E4FD300501C24F36E01509A
:102E70001D20F46E02501E20F86EF4CFF7FFF3CF42
:102E8000F6FF120006C138FD07C139FD08C13AFD41
:102E900009C13BFDDDDB47DB040E59DB38CD06F114
:102EA00039CD07F13ACD08F13BCD09F1120001010E
:102EB000C46B0101C269C36944C1C1F11200F5DAF2
:102EC000EECF24FFEECF25FFEECF26FFEFCF27FF7B
:102ED000ABEC4FF01EC000F01FC001F020C002F0AC
:102EE00021C003F078EF1AF0016E00C0F3FFF46E1A
:102EF000120090DBEE500D01341912000ACD96F14C
:102F00000BCD97F10CCD98F101010ACDF6FF962B70
:102F10000BCDF7FF000E97230CCDF8FF9823080088
:102F2000F5CF0EFD120009DB1E0EEDD22F5101016F
:102F3000B725006E0D0130510101B821016E2251FB
:102F40001625026E23511721036E0050025C0150BA
:102F5000035812001A511825026E1B511921036ED5
:102F600002501025006E035011210ED357EC8DF046
:102F7000010137511E5C006E38511F58016E3951E6
:102F80002058026E3A512158036E0001800E03143E
:102F90001200006E016A030E005C000E0158120060
:102FA000A951EA6AAD0FE96E0D0EEA2212000D5129
:102FB000EA6A110FE96E0D0EEA22120096C1F6FFC1
:102FC000962B97C1F7FF000ECDDA010E106F12009D
:102FD000AFDA0C0E6ADAEF50E4DA040DF3501200A7
:102FE000EECF00F0EFCF01F012000101010EC46F2F
:102FF00064C1C2F165C1C3F1AAEF1AF044C1C4F1C2
:1030000035C1C2F136C1C3F118DB7CC1BFF17DC14E
:10301000C0F1E9EF15F000010224006E000E03205C
:103020006CDA00C0F3FF01C0F4FF120044C1C4F128
:103030000EC1C2F10FC1C3F10101C16B0101B20E9A
:10304000BF6F0A0EC06FE9EF15F057EC8DF01E5000
:1030500001010225376F1F500321386F20500421D2
:10306000396F215005213A6F12001FDA1EC0EEFFA2
:10307000ADDA78EF1AF069C1CAF16AC1CBF16BC160
:10308000CCF144C1C9F12FC1C7F130C1C8F142EF41
:1030900016F0A7CD8CF1A8CD8DF10101A7CDE9FFE8
:1030A000A8CDEAFF8C2B000E8D23EFCFAAFD1200D6
:1030B00038CD0AF139CD0BF13ACD0CF13BCD0DF104
:1030C000FAEF1AF08ADABBEF1AF02DDA110EA7EF39
:1030D0001AF003EC81F0006E060EE15E0050120063
:1030E000100E55EF1AF01C0D8CDAA70E0026030EF9
:1030F000012200C0E6FF01C0E6FF1200036E02508D
:103100004B25006E03504C213FD244C1C4F100CC8A
:10311000C2F101CCC3F191DA82C1BFF183C1C0F128
:1031200012008CC1E9FF8DC1EAFF8C2B000E8D23AC
:10313000EFCFAAFD0D01010EAC6F12002B512D5DDA
:10314000006E2E512C55016E3551335D026E345197
:103150003655036E1200E7D9120EF9D90101060E99
:103160003F6F1200065F0150075B0250085B03507F
:10317000095B1200EECF02F0EFCF03F0120068DA25
:103180000101AE6B010112004EDA0101BF6F50DA8E
:10319000010112002F510101B725046E0D013051BC
:1031A0000101B821056E2251045C12000101C56FB6
:1031B000C66B44C1C4F1120001013551335D365173
:1031C00034591200340EE96E0D0EEA6EEE50120004
:1031D00056511C0DF3CFE9FFF4CFEAFFA70EE92605
:1031E000030EEA22120061EC8DF001011E503D5DDC
:1031F000006E1F503E59016EE834120003EC81F05E
:10320000026E060EE15E0250120001C0EBFF78EF85
:103210001AF0DFDC0D0129510101B75D12002251C6
:103220001625006E23511721016E120029C12FF1BE
:103230002AC130F112000D016C6F6B510101145D58
:103240000D016C51010115591200006E016A005008
:10325000120046C118F147C119F148C11AF149C11C
:103260001BF11200020E21D9EECF04F0EFCF05F0D2
:1032700012000C01145101016C5D0C01155101018A
:103280006D5912000101C66F44C1C4F12BC1C2F1D6
:103290002CC1C3F1120001018E510D019F5D01018E
:1032A0008F510D01A0591200010199510D01025DCC
:1032B00001019A510D0103591200E9CF00F0EACF44
:1032C00001F0E9CFE6FFEACFE6FF12000D016B51F6
:1032D0000101255D0D016C510101265912000D01FE
:1032E0006B5101010E270D016C5101010F231200DA
:1032F0000601A66FA76B0601A46BA56B4DEF3EF010
:1033000017D90E0E55EF1AF031510E5D006E0F51A8
:103310003255016E026A036A1200016E00502D5D83
:1033200001502E591200180EE66E010EE66E1200C4
:1033300031510E5D32510F591200B1C1E9FFB2C1D6
:10334000EAFF120037510101665D0C01385101019D
:10335000675912000A0EE66EE66AB1C1E6FFB2C115
:10336000E6FF12000101AE6B0101100EA7EF1AF08B
:1033700035510C01105D010136510C01115912003B
:103380009AEC00F033C135F134C136F11200016E10
:1033900001012B51005C2C510158120001018E07D4
:1033A000000E8F5B8E518F11120001019907000EE4
:1033B0009A5B99519A111200272BD8900237033744
:1033C000043705371200006E016A140E005E000E0D
:1033D000015A1200C1EC0FF0F3CF25F1F4CF26F122
:1033E000120061EC8DF01EC03DF11FC03EF11200D5
:1033F000BA51BC25006EBB51BD21016E1200CAC17D
:10340000E6FFCBC1E6FFCCC1E6FF12002EEC81F057
:10341000006E070EE15E005012000FD9010112008C
:10342000010E0226000E032212009AEC00F0C2EFF9
:1034300000F061C15FF1D1EF02F063C15FF1D1EF44
:1034400002F068C15FF1D1EF02F02BC135F12CC160
:1034500036F1120000500008000E015412000A0E4E
:1034600055EF1AF031C10EF132C10FF11200120EF8
:1034700055EF1AF00601AB6FAC6B0601120029C1C3
:103480000EF12AC10FF1120039EC3EF00C01016F70
:10349000120004CCE9FF05CCEAFF9DEF16F045CC05
:1034A000E9FF46CCEAFF9DEF16F0E926000EEA227E
:1034B000120057EC8DF01EC037F11FC038F120C04C
:1034C00039F121C03AF11200A4DE0101C56F0D01EE
:1034D0002A510101B8590101C66FE9DC2BC1BFF1C6
:1034E0002CC1C0F11200AFC1E9FFB0C1EAFF120068
:1034F000B3C1E9FFB4C1EAFF1200016E010E00265C
:10350000000E012212000026000E012202220322D8
:1035100000C03BF101C03CF11200B7C1C5F1B8C118
:10352000C6F157EF17F00101010EAE6F0101120055
:10353000B5C1E9FFB6C1EAFF1200408B61EC8DF026
:103540001EC000F01FC001F0026A036A1200AD6FD6
:10355000B2EF0BF044C1C1F12FC1BFF130C1C0F1D6
:10356000E9EF15F0972398C1F8FF98230800F5CFED
:103570000EFD0D01120000502B5D01502C59025020
:103580002D5903502E591200016E00501219426F2E
:1035900001501319436F12004DDCD89001320032F4
:1035A0001200F00BE842E842E842E842120049DC2F
:1035B000F0EF17F01DC004F01EC005F034EF17F057
:1035C00039DC00500E5F01500F5B120001C0EEFFAE
:1035D00002C0EEFF03C0EEFF120031CD00F032CD8D
:1035E00001F0026A036A120029CDC5F12ACDC6F1A5
:1035F00057EF17F001010A2B000E0B230C230D23AC
:103600001200F3CF00F0F4CF01F0120069DDEE50AC
:10361000ED101200060EE96E010EEA6E12000ADCD1
:10362000026A036A1200010133510D012F251200B5
:10363000010134510D01302112000101010EC16F51
:103640001200EECF00F0EECF01F094DD49EF1AF05A
:1036500034CD06F135CD07F136CD08F137CD09F17E
:02366000120056
:0E366200490E0701711905E1725103E1735120
:1036700001E1745101E1E4D2480E711905E1725182
:1036800003E1735101E1745101E1D8D2470E711980
:1036900005E1725103E1735101E1745101E1C8D2B6
:1036A000460E711905E1725103E1735101E1745144
:1036B00001E1BCD2450E711905E1725103E173516C
:1036C00001E1745101E1AFD2440E711905E172516B
:1036D00003E1735101E1745101E19FD2430E71196D
:1036E00005E1725103E1735101E1745101E193D29B
:1036F000420E711905E1725103E1735101E17451F8
:1037000001E186D2330E711905E1725103E1735163
:1037100001E1745101E173D2310E711905E1725169
:1037200003E1735101E1745101E163D2300E71196B
:1037300005E1725103E1735101E1745101E157D286
:103740002F0E711905E1725103E1735101E17451BA
:1037500001E14AD22E0E711905E1725103E1735154
:1037600001E1745101E13ED22D0E711905E1725152
:1037700003E1735101E1745101E132D22C0E711950
:1037800005E1725103E1735101E1745101E126D267
:103790002B0E711905E1725103E1735101E174516E
:1037A00001E11AD22A0E711905E1725103E1735138
:1037B00001E1745101E10ED2290E711905E1725136
:1037C00003E1735101E1745101E102D2280E711934
:1037D00005E1725103E1735101E1745101E1F6D148
:1037E000270E711905E1725103E1735101E1745122
:1037F00001E1EAD1260E711905E1725103E173511D
:1038000001E1745101E1DED1250E711905E172511A
:1038100003E1735101E1745101E1D2D1240E711918
:1038200005E1725103E1735101E1745101E1C6D127
:10383000230E711905E1725103E1735101E17451D5
:1038400001E1BAD1220E711905E1725103E1735100
:1038500001E1745101E1AED1210E711905E17251FE
:1038600003E1735101E1745101E1A2D1200E7119FC
:1038700005E1725103E1735101E1745101E196D107
:103880001F0E711905E1725103E1735101E1745189
:1038900001E18AD11E0E711905E1725103E17351E4
:1038A00001E1745101E17ED11D0E711905E17251E2
:1038B00003E1735101E1745101E172D11C0E7119E0
:1038C00005E1725103E1735101E1745101E166D1E7
:1038D0001B0E711905E1725103E1735101E174513D
:1038E00001E156D11A0E711905E1725103E17351CC
:1038F00001E1745101E14AD1190E711905E17251CA
:1039000003E1735101E1745101E13ED1180E7119C7
:1039100005E1725103E1735101E1745101E131D1CB
:10392000170E711905E1725103E1735101E17451F0
:1039300001E122D1160E711905E1725103E17351B3
:1039400001E1745101E116D1150E711905E17251B1
:1039500003E1735101E1745101E103D1140E7119B6
:1039600005E1725103E1735101E1745101E1F4D0B9
:10397000130E711905E1725103E1735101E17451A4
:1039800001E1E5D0120E711905E1725103E17351A5
:1039900001E1745101E1D7D0110E711905E17251A5
:1039A00003E1735101E1745101E1C8D0100E7119A6
:1039B00005E1725103E1735101E1745101E1BAD0A3
:1039C0000F0E711905E1725103E1735101E1745158
:1039D00001E1ABD00E0E711905E1725103E1735193
:1039E00001E1745101E19DD00D0E711905E1725193
:1039F00003E1735101E1745101E191D00C0E711991
:103A000005E1725103E1735101E1745101E183D089
:103A10000B0E711905E1725103E1735101E174510B
:103A200001E177D00A0E711905E1725103E173517A
:103A300001E174516CE0090E711905E1725103E165
:103A4000735101E1745161E0080E711905E1725181
:103A500003E1735101E1745156E0070E711905E15C
:103A6000725103E1735101E174514BE0060E71197B
:103A700005E1725103E1735101E1745140E0050E1B
:103A8000711905E1725103E1735101E1745135E09F
:103A9000040E711905E1725103E1735101E1745192
:103AA0002AE0030E711905E1725103E1735101E13E
:103AB00074511FE0020E711905E1725103E1735157
:103AC00001E174510FE0010E711901E0BBD0725198
:103AD00001E0B8D0735101E0B5D0745101E0B2D02B
:103AE000ADEF2FF00701050E8F6F6D0E906F000E7A
:103AF0008CD0C2EF2FF034EF1EF067EF2EF0070EE0
:103B00000BD0060E09D0050E07D0040E05D0030E0B
:103B100003D0020E01D0010E0401E56F2FD09CEFFF
:103B20002FF0010E0401E96F02D00401E96BEA6B8A
:103B3000040E1BD0010E0401E96F02D00401E96BF1
:103B4000EA6B030E12D0010E0401E96F02D00401EA
:103B5000E96BEA6B020E09D0010E0401E96FEA6B12
:103B600004D00401E96BEA6B010E0401E76FE86B16
:103B700025EF2FF096EF2EF00401E56BE66BD2EF08
:103B80002EF00401E36B07D0010E03D0020E01D02A
:103B9000030E0401E36FE46B9EEF2EF085EF2FF030
:103BA000D8EF2FF0C4EF30F0A1EF30F0A9EF30F0F4
:103BB0009DEF30F09EEF30F09FEF30F0CEEF30F021
:103BC00075EF30F033EF30F038EF30F043EF30F096
:103BD0004DEF30F057EF30F061EF30F06BEF30F039
:103BE00096EF30F098EF30F00401F36B05D0010E42
:103BF00001D0020E0401F36FF46BA0EF30F0070167
:103C0000FA0E8F6F6C0E906F000E916FABEF27F076
:103C10000401EF6B05D0010E01D0020E0401EF6F1D
:103C2000F06B94EF30F00401F16B05D0010E01D080
:103C3000020E0401F16FF26B95EF30F0BEEF30F041
:103C4000C1EF30F0040E01016C6F6D6B0101F50ED8
:103C5000696F6C0E6A6F000E6B6FCEEC29F0EE523E
:103C6000EFCF68F1E0EF03F001017E0E626FE5EF48
:103C70002AF00401836B020E835D30E22FEC28F002
:103C8000EF6A0101080E4D6F500E01014B6F4C6B36
:103C900001014A6B0101466B476B486B496BBDECF8
:103CA00001F0E66ECEEC29F0EE52E552E750EF6EF1
:103CB00014691569835196EC28F090EC29F0F3CF44
:103CC0000EFCF4CF0FFCEBEC28F00ECC96F60FCCEC
:103CD00097F66FEC3CF00401832BCDD7836B120079
:103CE0000C013E6B020E3E5D36E2A0EC28F0EE5277
:103CF000EF50FE082DE0A0EC28F0EE52EFCF4EF191
:103D000055EC02F0000914E03ECC75F725D8CEEC56
:103D100029F0EF6AFF0E145D02E01EEC29F0FF0EA1
:103D2000155D02E025EC29F00101040E63EC2AF098
:103D30000C01A0EC28F0EF5007E1A0EC28F091EC8A
:103D400028F0B3EC28F004E03ECC75F705D83ED857
:103D50000C013E2BC7D71200040183510701755D8A
:103D600001E112000401835196EC28F090EC29F057
:103D7000F3CF00FCF4CF01FCEBEC28F000CC96F67E
:103D800001CC97F66FEC3CF00701755196EC28F0EA
:103D900000C098F601C099F67DEC3CF0F3CF00FC32
:103DA000F4CF01FC7F0E0601A66FA76B0601000E83
:103DB000A46F040EA56F4DEC3EF000CC98F601CC3C
:103DC00099F67DEC3CF075C783F412000D01010EED
:103DD000D36FCEEC29F0EF500B0A02E151EF23F044
:103DE000010A02E12EEF23F0030A02E117EF23F0AC
:103DF000010A01E1B9D30F0A01E11FD3010A01E170
:103E000002D3030A01E17AD2010A01E16ED2070A64
:103E100001E147D2010A01E1A4D1030A27E0010A26
:103E200002E05EEF23F08BEC2AF0F3CFCDFDF4CF70
:103E3000CEFDF350F41002E15EEF23F004011A0E00
:103E4000106F040E116F2FEC28F0010EEF6E176942
:103E5000166B57EC28F00C690D690E690F69ABEC15
:103E600029F07E6B0101050E63EC2AF054EC28F07A
:103E70000A0EB6EC2AF0DDEC29F00001F31C14E187
:103E8000011C12E1CEEC29F0E7EC29F004E1EEECA4
:103E900029F00D01D36B7EEC28F002E6C5EC28F08A
:103EA00002E35EEF23F042D257EC28F0DDEC2AF07B
:103EB0000D01050ED880F354000EF45403E2050EF4
:103EC000CD6FCE6B010E31EC29F01A0E7C6F040E13
:103ED0007D6F60EC2AF0030EE66EE66A230EE66E56
:103EE000660EE66E000E32EC2AF003E10401186B58
:103EF00012D0040EE66EE66A1E0EE66E660EE66EE2
:103F0000000E32EC2AF004E10401010E186F03D018
:103F10000401070ECAD1DDEC2AF00101A66BF3CF34
:103F2000A4F1F4CFA5F10101A26BA36B01013F0E37
:103F3000A16FCEEC29F03BEC29F00D01F350CD5DE3
:103F4000F450CE5904E3CFCDCDFDD0CDCEFD590EEA
:103F5000D880CD55000ECE5501E2ECD0D2EC2AF03F
:103F600049EC2AF01A0EF324E96E040EF420EA6EEE
:103F700065EC29F01A0EE66E040EE66E1BEC2AF0D4
:103F800049EC2AF00B0EE66EE66A130EE66E660E3C
:103F9000E66E000EE66E1B0EE66E040EB7EC28F021
:103FA0000CE13EEC29F0185102E1080E01D0090E97
:103FB000186F2FEC28F0020E2ED2E3EC28F002E06E
:103FC00048EC29F0FF0E0401145D31E1E3EC28F028
:103FD0000EE00D01CFCDE9FFD0CDEAFFCF2B000ED3
:103FE000D0231A0EE926040EEA222F0EEF6E96EC6D
:103FF00029F01A0E0D01CF25006E040ED021016E9E
:1040000000C0E6FFE66EA1EC81F0026E050EE15EF7
:10401000025096EC29F0C8EC81F0E552E552E552E9
:104020001F500D01CF272050D02348EC29F01A0E45
:104030000D01CF25D46F040ED021D56F010ED45FB2
:10404000000ED55B1A0ED41902E1040ED51909E051
:10405000D4CDE9FFD5CDEAFFEF502E0802E0D4071A
:10406000EFD7D42B000ED5230401196B0B0EE76E8E
:104070001919E8AE02D0E73402D0E750195D23E207
:104080007F0E006E1D0E016E010E026E19C403F04C
:10409000046A056A03AE02D004680568FFEC29F0E3
:1040A000F5CF1FFF0900F5CF20FF0800F5CF21FF56
:1040B000D4CD1DFFD5CD1EFF67EC4FF0000903E006
:1040C0000401192BD3D73EEC29F0FF0E145D18E044
:1040D00014C4F2F0CFEC43F0F350020B11E014C41F
:1040E000FDF0C9EC44F0F3CFD4F0F4CFD5F0010EDD
:1040F0000001D427000ED52321EC41F00401156FF7
:10410000DDEC2AF0F350F4101CE00401010E166FF0
:104110000101D10E796F0D0E7A6FCEEC29F07BEC98
:1041200029F00D01CD07000ECE5B620ECD5D000EB5
:10413000CE5903E30401050EB8D0D2EC2AF0CFEC3F
:1041400028F0E1EC2AF0010EF32401017E6F000E4D
:10415000F4207F6F0101CEEC2AF0CEEC29F0020EA4
:10416000EF6EE1EC2AF00D01F31C13E1CE1D11E11D
:10417000CEEC29F0E7EC29F004E1EEEC29F00D019A
:10418000D36B7EEC28F002E6C5EC28F001E396D272
:10419000CDD057EC28F00D01010ECD190BE1CE5119
:1041A00009E1020EB0EC29F0CEEC2AF0CEEC29F0B9
:1041B000030E31D10101A66BCDCDA4F1CECDA5F179
:1041C0000101A26BA36B01013A0EA16FCEEC29F0A5
:1041D0003BEC29F0020E0D01CF27000ED023D36B4C
:1041E000100ED880CF55000ED05502E2010E54D0EB
:1041F000CFCD7EF1D0CD7FF10101D60E7C6F0D0EBB
:104200007D6F60EC2AF023EC2AF0D60EE9260D0E25
:10421000EA22EF6A0D01CF51CD5FD051CE5BD26B58
:10422000D251006E016A030E005C000E01582EE2AE
:10423000F10E006E1D0E016E010E026ED2CD03F066
:10424000046A056A86EC29F0D2CD1FF034EC28F020
:10425000F5CFE6FF0900F5CFE6FF0800F5CFE6FF52
:10426000D60EE66E0D0EE66E8BEC81F0066E050E38
:10427000E15E0650000907E1D2CD76F7E8DA0D01DC
:10428000010ED36F03D00D01D22BCAD7D35102E058
:10429000E1EC2AF0010E0D0131EC29F0CEEC2AF010
:1042A00060D7800E175D03E2030E186FB1D010C403
:1042B000E9FF11C4EAFF65EC29F0F3CF10F4F4CF65
:1042C00011F4080E0401185D01E1A2D02FEC28F0D2
:1042D000040EEF6E165104E12FEC28F0050EEF6E80
:1042E0000D01D36B0401166BE9D127EC2BF002080A
:1042F00001E1E4D1CEEC29F0050EEF6E8BEC2AF053
:10430000BAEC2AF0F35004010C1914E101500D1914
:1043100011E102500E190EE103500F190BE10AE1F1
:104320007EEC28F002E6C5EC28F004E291EC2AF0DD
:104330000B0E71D0180515E0090EE76E1819E8AEDE
:1043400002D0E73402D0E750185D59E30B0EE76E58
:104350001819E8AE02D0183503D0E750D8801855A8
:104360004EE3090EE76E1819E8AE02D0E73402D02A
:10437000E750185D13E30B0EE76E1819E8AE02D094
:10438000183503D0E750D880185508E3CCEC26F058
:104390000D01D16FE85006E104013AD0D0EC2BF0CA
:1043A0000D01D16F020ED15D0CE18EEC2AF0B5EC5F
:1043B00029F00401010E0C5F000E0D5B0E6B0F6BFC
:1043C0007DD1D1051CE18EEC2AF0B5EC29F0040179
:1043D0000E6B0F6B57EC28F009EC29F00C5DEE50DA
:1043E0000D59EE500E59EE500F5906E22FEC28F001
:1043F000E7EC29F001E062D10401060E08D0CEEC12
:1044000029F0060EEF6EFF0E145D07E1040E186F23
:104410002FEC28F0070EEF6EA4D0ABEC29F0FF0EC6
:10442000155D05E1046905690669076902D052EC6A
:1044300029F0CEEC29F0070EEF6E0101020E63ECBD
:104440002AF0C70E006E1D0E016E010E026E18C41A
:1044500003F0046A056A03AE02D0046805687FECC5
:104460002AF00C0E0401185D0DE199EC2AF0F60E0D
:10447000726F650E736F000ECAEC2AF099EC2AF089
:104480004EEC2AF00401185106E0180504E02FEC68
:1044900028F00B0E04D10B0E195D1BE00101E70E95
:1044A000726F650E736F000ECAEC2AF0A30E006ED9
:1044B0001D0E016E010E026E19C403F0046A056A36
:1044C00003AE02D0046805687FEC2AF001014EECCF
:1044D0002AF014C4F2F0CFEC43F0F350010B08E0E3
:1044E0000101CE0E726F650E736F000ECAEC2AF0DA
:1044F0000101BE0E726F650E736F000ECAEC2AF0DA
:10450000040118050CE0E868041908E1E8680519D9
:1045100005E1E868061902E1E868071907E001010A
:10452000B50E726F650E736F000E0DD00101AC0EEB
:10453000726F650E736F000EC7EC2AF0A80E726FD3
:10454000650E736F000EC7EC2AF04EEC2AF00401E2
:10455000165104E02FEC28F0080E02D0E8EC2AF007
:10456000EF6E0D01D36BAAD01A0E126F040E136FEB
:1045700016515AE001019B0E726F650E736F000EAB
:10458000CAEC2AF0F6EC28F022E0200E0D01D15DF5
:1045900003E101012B0E14D0300ED15D0FE3D15198
:1045A000390803E2410ED15D09E3D1515A0803E213
:1045B000610ED15D03E3D1517A0804E26EEC2AF07A
:1045C000626F02D0D1CD62F1E5EC2AF0DBD70101B8
:1045D0003D0E626FE5EC2AF0F6EC28F01FE0200EAD
:1045E0000D01D15D03E101012B0EF3D7300ED15D3A
:1045F0000FE3D151390803E2410ED15D09E3D151F6
:104600005A0803E2610ED15D03E3D1517A0803E257
:104610006EEC2AF0DED7D1CD62F1DCD701014EEC91
:104620002AF004011607A4D7E8EC2AF0EF6E0D017A
:10463000D36B4AD8000909E01EEC29F02FEC28F0D2
:104640000B0EEF6E0D01010ED36FBEEC2AF0B3EC32
:1046500028F034E10D01010ED36F30D00D01010EB1
:10466000D36FBEEC2AF0DDEC29F0100EF35C000EE7
:10467000F45824E308C471F709C472F70AC473F745
:104680000BC474F731EC1BF004010C510D110E1129
:104690000F1114E10D01D36BCEEC29F0090EEF6E72
:1046A0000DD0FF0E145D02E01EEC29F0FF0E155D2B
:1046B00002E025EC29F091EC2AF0EF6A0D01D351CC
:1046C00002E1E6EF1EF01200BEEC2AF0F3CF02FD8D
:1046D000F4CF03FDF3CF04F0F4CF05F0066A076AC8
:1046E00009EC29F00401045D086EEE500559096ECD
:1046F000EE5006590A6EEE5007590B6E0850F35CE7
:104700000950F4580A5006580B50075807E202CDDA
:1047100000F003CD01F0026A036A0DD009EC29F024
:10472000045D006EEE500559016EEE500659026EA2
:10473000EE500759036E00C000FD01C001FD0D01E0
:104740000050040100270D01015004010123000E57
:10475000022303230D01000ED8800055000E0155E1
:1047600030E2400E005D000E015905E200CDDDF0A3
:1047700001CDDEF004D00001400EDD6FDE6B0001E4
:10478000050EDB6F0D0EDC6F14C4DAF0D1EC41F0D6
:10479000F3CF02FDF4CF03FD0D01F350F41001E15E
:1047A000010C02CD66F103CD67F10101050E646FC6
:1047B0000D0EA8EC2AF00D010251005F0351015BC0
:1047C000C9D709EC29F00401041940E1EE5005199C
:1047D0003DE1EE5006193AE1EE50071937E136E1B6
:1047E0002FEC28F00A0EEF6E0C6B0D6B0E6B0F6B3F
:1047F0000001D86BD96B14C4D7F06DEC41F0000107
:10480000040ED86F0D0ED96F14C4D7F06DEC41F0C3
:10481000000906E0A4EC29F07E0E0D01045DEFE135
:10482000A4EC29F00001080EE06F040EE16F15C43E
:10483000DFF025EC42F052EC29F0000907E1040119
:10484000046905690669076925EC29F0000C070170
:10485000765102E1AEEF24F0760502E135EF24F067
:10486000020E765D01E1C9D81200040117BF1200E3
:10487000060EB0EC29F0CEEC2AF055EC2AF0DEEC76
:1048800028F0F3CF31FD030E0D013127FC0E311757
:10489000326B240E315D000E325903E3240E316F6A
:1048A000326B330E5B6F0D0E5C6F000ED88031558E
:1048B000000E325526E2040E01017E6F7F6B5BCD48
:1048C0007CF15CCD7DF160EC2AF0030E0F01136FDB
:1048D000146B5BCD11FF5CCD12FF040E0F010F6F47
:1048E000106B5BCD0DFF5CCD0EFF5DEC4EF0040E4A
:1048F0000D01315F000E325B030E5B27000E5C235F
:10490000D4D7BAEC29F0EF6A316B326B330E5B6FA0
:104910000D0E5C6F280E315D000E32590BE2BAECC1
:1049200029F0EF503A0806E0312B000E32235B2BC2
:104930005C23F0D7BAEC29F05B2B000E5C23EF6A06
:104940005BCD88F45CCD89F40401330E866F0D0EC7
:10495000876F06EC2BF00401176F120055EC2AF05C
:1049600038EC2AF010C400F011C401F07E0ED8809B
:104970000056040E0156020E005E000E015A0C0194
:104980000050F35C0150F45802E3EEEF29F00C0103
:104990000251031131E088DB3B0EB6EC2AF0F3CF75
:1049A00000FCF4CF01FC0C010251F35C0351F458FC
:1049B00005E200CC7EF101CC7FF104D002CC7EF187
:1049C00003CC7FF110C47CF111C47DF160EC2AF0BE
:1049D000E6DB0C010251005D0351015908E2C1EC14
:1049E0002AF062DB200EB6EC2AF0BDDBF8E055ECD5
:1049F0002AF038EC2AF0CBD7120055EC2AF0DEDB97
:104A0000F3CF00FCF4CF01FC0C010A0EF35C000EA6
:104A1000F45805E30401020E186FABEF29F000CC47
:104A20007EF101CC7FF10101020E7C6F0C0E7D6FD7
:104A300060EC2AF0F3CF00FCF4CF01FC020E0C0175
:104A4000F324E96E0C0EF420EA6EEF6A020EE66EB5
:104A50000C0EE66E9FEC7AF0E552E5521EC000F4B3
:104A60001FC001F420C002F421C003F4120077C774
:104A7000E6FF78C7E6FF1BEC2AF0F3CF18FCF4CF73
:104A800019FC77C716FC78C717FC77C714FC78C7E2
:104A900015FC0C011851191142E080EC29F0000EB0
:104AA0001523EFCF1AFC1807195B3D0E1A5D03E0C2
:104AB000260E1A5D03E14FDBEF6AEBD72B0E1A5D72
:104AC00003E149DB200E25D0250E1A5D24E1020EFC
:104AD000185D000E195903E2186B196BDAD780ECD8
:104AE00029F0000E1523EFCF1CFC80EC29F01523D4
:104AF000EFCF1BFC1807195B1807195B1BCC19FFBC
:104B00001CCC1AFF2FEC4FF0E66E0C0124DBE552B3
:104B1000E750EF6EBED71FDB1ACCEFFFBAD71BDB17
:104B2000EF6A16CCE9FF17CCEAFFEF6A16CCF3FF69
:104B300017CCF4FF120079C7E9FF7AC7EAFFEF50FC
:104B400020E0BFEC29F07BC7E6FF7CC7E6FF6BECFB
:104B500081F0E552E552E552E55200090DE17BC7CF
:104B6000E6FF7CC7E6FF1BEC2AF007017951F3242E
:104B7000006E7A51F42058D304EC2AF004EC2AF0A9
:104B8000DAD7F36AF46A12007DC7E9FF7EC7EAFF4D
:104B9000EF5027E037DB1FC000F020C001F021C03C
:104BA00002F0002A000E0122022200C0E6FF01C02E
:104BB000E6FF3EEC2AF0E8DBE4EC80F0036E070E43
:104BC000E15E0350000908E11DDB07017D511F2450
:104BD000006E7E51202028D30BEC2AF00BEC2AF03B
:104BE000D3D7F36AF46A120084C78DF785C78EF7AE
:104BF00082C78BF783C78CF707013D0E8A6F46D8B3
:104C00000C01356F0701825183110BE082C7E9FF68
:104C100083C7EAFFEF5005E082C777F783C778F7CD
:104C200026DF0C013551120046DB260E8A6F2ED886
:104C30000C01356F020E355D17E18EEC2AF0BAECEF
:104C40002AF004010051F3180FE1015101180CE1A1
:104C50000251021809E10351031806E105E12BDBBB
:104C60008A6B14D80C01356F0701865187110BE050
:104C700086C7E9FF87C7EAFFEF5005E086C777F7E9
:104C800087C778F7F4DE0C013551120007018A510D
:104C900006E0C8DB8AC7A1F181DB94DB02D08EEC91
:104CA0002AF0F3CF19FCF4CF1AFC0C01F31C03E13A
:104CB0001A1D01E1020C0701020E8D5D000E8E59D6
:104CC00006E28B518C1103E0A1EC2AF038D08B5115
:104CD0008C1104E1A1EC2AF00C0143D0FEDA0C01A6
:104CE0001951005C1A5101582EE28DC77EF18EC712
:104CF0007FF10101020E7E5F000E7F5BAFEC2AF0B8
:104D00008DC704F08EC705F0020E045E000E055A32
:104D100004500C01195D01017E6F05500C011A59F8
:104D200001017F6F0101CEEC2AF03BDBD6DA0701EF
:104D30008B510024E96E8C510120EA6EEF6A0C0160
:104D4000010E186F0FD025DBAFEC2AF007018B5155
:104D50000C011925E96E07018C510C011A21EA6E2C
:104D6000EF6A186B07018A5114E0C1EC2AF0006E5B
:104D7000016A026A036A00AE03D001680268036830
:104D800000500401005F0150015B0250025B0350C0
:104D9000035B0C0118511200040118510A0A01E1C9
:104DA00085D0010A66E0020A01E0D4D0CBD9040E16
:104DB00053DA960E966F650E976F000E986FEEDAC7
:104DC000FDD9A9DA0D01F31C01E1421D44E041CDFA
:104DD0007EF142CD7FF101017C6B7D6BDFDA55DB2B
:104DE0009ADBEBDA0A0EF35C000EF45805E20D01D3
:104DF000412B000E4223010C0A0EB2DA310E7C6FF9
:104E00000D0E7D6FCBDA41DB0A0EE66EE66A8B0E85
:104E1000E66E650EE66E000EE66E310EE66E0D0E67
:104E2000A6D915E104010A0E186FC8EC42F004017E
:104E3000146F060E0001EB6FEC6B0001350EE96F8D
:104E40000D0EEA6F14C4E8F00CEC43F0020C040100
:104E50000B0E186F020C62DBF3CF7EF1F4CF7FF103
:104E60000101040E7E5F000E7F5B010197DB99DA82
:104E7000010C51DBF6D8F3D8EE52EFCF76F1C3EC4C
:104E800004F0640E0401005D000E0159000E025989
:104E9000000E03595BE3D880000E0055000E01554B
:104EA000000E0255800E035555E250D034DB33DA44
:104EB00061DBF3500401005DF450015902500259C6
:104EC0000350035904E200C441FD01C442FD0D0139
:104ED000000ED8804155000E42552CE2100E415D67
:104EE000000E425905E241CD7EF142CD7FF104D062
:104EF0000101100E7E6F7F6B0101310E7C6F0D0E74
:104F00007D6FDEDAF3CF43FDF4CF44FDAAD80D0167
:104F1000F350415FF450425BF3CFEBF0F4CFECF091
:104F20000001310EE96F0D0EEA6F14C4E8F00CECCD
:104F300043F0CDD7040100510111021103110AE120
:104F40000001010EED6F52EC43F0040188D8070E0A
:104F5000EF6E000C010C04010C510D110E110F111C
:104F600014E18FC7D1F090C7D2F091C7D3F06FECA6
:104F700040F00D01446FFF0E445D01E1120044CD8D
:104F8000FDF0C9EC44F0F1D91AD00CC4D4F00DC432
:104F9000D5F021EC41F00D01446FFF0E445D01E1BD
:104FA00012000001020EE76F0EC4E3F00FC4E4F03C
:104FB0000001E56BE66B44CDE2F039EC42F0DEDA5D
:104FC000F3CF00FDF4CF01FD0D01000ED880005598
:104FD000000E015538E2400E005D000E015905E259
:104FE00000CDDDF001CDDEF004D00001400EDD6F1C
:104FF000DE6B0001040EDB6F0D0EDC6F44CDDAF0CA
:10500000D1EC41F0F3CF02FDF4CF03FD0D01F350DD
:10501000F4100AE144CDD6F062EC41F004010C6BCF
:105020000D6B0E6B0F6B120002CD66F103CD67F1B5
:105030000101040E646F0D0E8BDA0D010251005F49
:105040000351015BC1D744CDFCF098EC44F01EC085
:105050000EF41FC00FF444CDD6F062EF41F083513F
:10506000C4D1ABD9D1EF29F004C020F005C021F0A4
:105070000EEC89F01CC003F01DC004F01EC005F04A
:1050800000501C24F36E01501D20F46E02501E20AF
:10509000F86EF4CFF7FFF3CFF6FF09001200EE52DF
:1050A000EFCF7BF131EF05F0BDD90101120057ECD4
:1050B0008DF01EC008F41FC009F420C00AF421C0FE
:1050C0000BF48B0E04010827D20E09231A0E0A23B3
:1050D000000E0B231200EE52EFCF71F179EF04F0C6
:1050E00071D9F3CFCDFDF4CFCEFD1200A4D965D98F
:1050F000010E0026000E01220050120057EC8DF028
:10510000040108511E5C006E09511F58016E0A51BE
:105110002058026E0B512158036EE834000E03181C
:105120001200EE52EFCF77F1D2EF04F07F0D22DACA
:10513000580E0026360E0122000E02220322120013
:105140003E5153D101019F6B01019D6B9E6B01018B
:105150009B6B9C6B120016CCE9FF17CCEAFF162B59
:10516000000E1723120029D9F350F4101200E66E36
:10517000E4EC80F0006E070EE15E005000091200C2
:10518000EE52EFCF61F118EF03F0D880000E00541B
:10519000000E0154000E0254000E03541200F3508E
:1051A00004011027F450112310C4E9FF11C4EAFFD1
:1051B000102B000E1123260EEF6E1200EE52EFCFD1
:1051C00095F194EF07F03FD91A0EE926040EEA2272
:1051D000EF502F0812007F0E0601AB6FAC6B06017B
:1051E000000EA96F040EAA6F99EF3EF0040112C4DD
:1051F000E9FF13C4EAFF122B000E1323EFCFD1FDFA
:10520000EF5012003BD9C8EC81F0E552E552E5526F
:105210001200000EE96E040EEA6EEE501200EE521D
:10522000EFCF60F1DFEF02F0016E010E0026000EFD
:10523000012200C0F3FF01C0F4FF120014C4D6F035
:1052400062EC41F004011469120015C4D6F062EC5E
:1052500041F00401156912000101996F9A6B010177
:105260001200CD2501017E6F000E0D01CE2101013E
:105270007F6F01011200A6D849EF2AF004011B0E2E
:10528000846F040E856FEDEC2AF00401176F120095
:1052900000011B0ECF6F040ED06FBCEC3FF0040179
:1052A000146F12000001040EE06F040EE16F15C4CC
:1052B000DFF025EF42F088C78DF789C78EF786C7E4
:1052C0008BF787C78CF707011200EF6A07011A0EE8
:1052D000776F040E786F37EF25F08DC700F08EC71B
:1052E00001F0020E005E000E015A1200EE52EFCFE6
:1052F000B9F110EF15F0EE52EFCF78F1F4EF04F0C2
:1053000014CCE9FF15CCEAFF142B1200030E246E17
:10531000256A266A1200F3CF41FDF4CF42FD120048
:1053200000C096F601C097F66FEF3CF0090EE66EEE
:10533000660EE66E000EE66E1200EE52EFCF6EF1D4
:105340005EEC04F0010112000401002B000E0123A9
:10535000022303231200006B016B026B036B12002C
:1053600001017E6F7F6B01011200F3CF0CF4F4CFCB
:105370000DF412005BCDE9FF5CCDEAFF120079C7A6
:10538000E6FF7AC7E6FF12007DC7E6FF7EC7E6FFAD
:10539000120019CC7EF11ACC7FF1120004012FEF1C
:1053A00028F0026A036AF3500401005FF450015BC5
:1053B0000250025B0350035B1200F3CF00F0F4CF06
:1053C00001F01200EE52EFCFA0F1BFEF08F0EE5265
:1053D000EFCF80F1B3EC05F0B3EF28F00401050E38
:1053E000186F3DDE070EEF6E1200E96EEA6AD89084
:1053F000E936EA367F0EE926040EEA22120086DF3D
:1054000003C01FF034EF28F0BADF70DE0701792700
:1054100001507A231200B8DF69DE07017D270150B1
:105420007E2312000101A66B0101A46BA56B010193
:10543000A26BA36B1200BAEC81F0E552E5521200A8
:105440002EDE31EF28F0CFCDE9FFD0CDEAFFE9061F
:10545000000EEA5A120094DED1CD1CFF5AEC4FF038
:1054600001011200E66E1A0EE66E040EB7EF28F088
:10547000A5DEF3CF02FCF4CF03FC12007FC7E6FFEA
:1054800080C7E6FF81C7E6FF120009DE44DF31EF87
:1054900028F0F3CFCFFDF4CFD0FD12007C0E726F59
:1054A0001D0E736F010ECAEF2AF04CDE020ED4DE21
:1054B0007C0E966F1D0E976F010E986FCEEF29F040
:1054C0006DDF4FEF28F0BE6F0101BC6BBD6B010EAD
:1054D0000101BA6FBB6B62DF76EF29F00101250E87
:1054E000626F73D8D1CD1BFF4CEC4FF00101626F9E
:1054F00055DF2BEF2AF0A16F51DF70EF28F07FDF2F
:10550000F5CF72F10900F5CF73F10800F5CF74F112
:1055100045DF6BEF28F0A3DD91EF28F03FDF91EF3F
:1055200028F09DDDEE52EFCF50F167EC02F0CEEFA8
:1055300029F001011A0E6F6F040E706F2FDF9DEFBF
:1055400029F027DF01017C6B7D6B28DF20EF2AF03B
:10555000656F24DFEE52EFCF63F165EF03F08BC789
:105560007CF18CC77DF11ADF20EF2AF0A16F16DFE6
:10557000E2EF29F022DF026A036A12000FDF0FEF69
:1055800029F00101796B7A6B09DF7BEF29F002D8F2
:1055900001011200746F02DF6BEF28F07C6B7D6BF2
:1055A00060EF2AF0CDCD7EF1CECD7FF101011A0E54
:1055B0007C6F040E7D6F60EF2AF076DD200E7BEFAE
:1055C0002AF072DD0A0E7BEF2AF0E8DEC0EF28F049
:0A55D000010164DFE3DE090E1200A2
:0655DA00070EE66EE66A12
:1055E000830EE66E650EE66E000EBAEC31F001E158
:1055F000000C040EE66EE66A7E0EE66E650EE66E42
:10560000000EBAEC31F001E1000C800C780EE66E71
:10561000650EE66E000EE66E86C4E6FF87C4E6FF02
:10562000C1EC31F013E16E0EE66E650EE66E000E13
:10563000E66E88C4E6FF89C4E6FF8BEC81F0016E5C
:10564000050EE15E0150000901E1800C000C140E12
:105650000001FA6FFB6B0001020EF86F0D0EF96F7F
:1056600014C4F7F06EEC44F0090EE66EE66A640EC0
:10567000E66E650EE66E000E95EC31F04EE1070128
:105680005F0E7F6F650E806F000EA4EC31F00AE0B4
:1056900031EC31F002E0000E01D0010EE8B08C8850
:1056A000E8A08C9807015A0E7F6F650E806F000E80
:1056B000A4EC31F00AE031EC31F002E0000E01D050
:1056C000010EE8B08C86E8A08C960701550E7F6F1E
:1056D000650E806F000EA4EC31F00AE031EC31F081
:1056E00002E0000E01D0010EE8B08C84E8A08C949A
:1056F0000701500E7F6F650E806F000EA4EC31F035
:105700004EE031EC31F002E0000E01D0010EE8B0C5
:105710008C82E8B044D08C92000C0B0EE66EE66AE8
:10572000440EE66E650EE66E000E95EC31F004E177
:105730000401010E166F000C080EE66EE66A3B0EC1
:10574000E66E650EE66E000E95EC31F028E107017D
:10575000370E7F6F650E806F000EECEC30F0F3CFEC
:10576000E9FFF4CFEAFFEF50370A18E0010A14E02E
:10577000030A10E0010A0CE0070A08E0010A04E04D
:10578000030A0DE18C72000C8C74000C8C76000CFA
:105790008C78000C8C7A000C8C7C000C8C7E000CBD
:1057A000140E0001FA6FFB6B0001000EF86F0C0E77
:1057B000F96F14C4F7F06EEC44F00A0EE66EE66A78
:1057C0002C0EE66E650EE66E000EC9EC31F002E1BD
:1057D000A7EF2DF0120EE66EE66A190EE66E650E64
:1057E000E66E000EC9EC31F002E1F8EF2BF0000C90
:1057F000B7EC31F0F3CF04F0F4CF05F0F3CFE6FFD0
:10580000F4CFE6FFD8EC30F0EFCF80F1B3EC05F049
:10581000E552E7CF05F0E552E7CF04F00450F3245A
:10582000006E0550F420016E026A036A0401005103
:10583000005C01510158025102580351035801E222
:1058400079D1B7EC31F09CEC31F0026A036A0401C3
:105850000051F35C0151F4580251025803510358AE
:1058600001E2010C970E0601E16FE26B0601000EEA
:10587000DF6F0D0EE06F0601060EDB6FDC6BDD6B7C
:10588000DE6B7CEC83F00D012C9D040100510111B5
:105890000211031101E124D1060E0701846F856B0B
:1058A00007011A0E826F040E836FF4EC25F00009D5
:1058B00001E040D15C0E0701886F896B0701200E63
:1058C000866F040E876F14EC26F0000901E032D1D8
:1058D000160EE66E650EE66E000EE5EC30F011E198
:1058E0000F01000E066F0D0EFEEC30F001E122D12B
:1058F00000CD14FD01CD15FD02CD16FD03CD17FD24
:10590000C4D7130EE66E650EE66E000EE5EC30F0C1
:1059100008E10F01080E066F0D0EFEEC30F0B5E148
:1059200009D10F0EE66E650EE66E000EE5EC30F066
:1059300011E10F01040E066F0D0EFEEC30F001E1D7
:10594000F9D004CD18FD05CD19FD06CD1AFD07CD02
:105950001BFD9BD70A0EE66E650EE66E000EE5ECAB
:1059600030F009E10F010C0E066F0D0EFEEC30F069
:1059700001E08BD7DFD0050EE66E650EE66E000EF9
:10598000E5EC30F009E10F01100E066F0D0EFEEC94
:1059900030F001E07AD7CED0010EE66E650EE66EED
:1059A000000EE5EC30F071E10D01200E976F040E52
:1059B000986F9C6B0C0E9C5D44E2D5EC31F025E0B9
:1059C00020EC31F0EFCF00F0300E005C04E3D5ECBA
:1059D00031F039081AE220EC31F0EFCF01F0410E3E
:1059E000015C04E3D5EC31F046080FE220EC31F025
:1059F000EFCF02F0610E025C04E3D5EC31F06608F3
:105A000004E2972B000E9823D8D7D5EC31F00AE1A9
:105A10000C0E9C5D16E29C5114EC31F0300EEF6ED2
:105A20009C2BF6D720EC31F0972B000E9823EF50EB
:105A3000E66E9C5114EC31F0E552E750EF6E9C2B72
:105A4000B9D70D019C6B060E9C5D01E31ED79C51DE
:105A5000E824EADBEFCF9BFD9C51E824010FE4DB57
:105A6000EFCF9AFD9ACD19FF9BCD1AFF2FEC4FF087
:105A7000E66E0D019C51EA6A2D0FE96E0D0EEA22C9
:105A8000E552E750EF6E9C2BDED7FC0EE66E640EFF
:105A9000E66E000E9ADB14E10F01200E376F040E44
:105AA000386FBEEC50F0100EE66EE66A200EE66E21
