:020000040000fa
:080000000002040000000000f2
:020000040000fa
:10040000efda2000007f24000001880000000000d7
:100410000c000700a0e529000100200011000700e2
:10042000000020000000e000020032000000020096
:100430000000000058720200000000000040da00d6
:100440000000fe004440a900800021000000e00000
:100450000300320000002000a00188004440a800f2
:100460000000060091018800800078000000eb0089
:1004700015003700e280400032a0b4009101ba00bc
:10048000e280400032a0b4009102ba00e280400055
:1004900032a0b4000002eb00472bde00f507b200eb
:1004a000602ce10004003a000059eb008301e900f0
:1004b000fdff3e00040037006128e100010032002a
:1004c0000082eb00040007001101ba000200e00006
:1004d000e8ff3a00000006003159ba008301e90044
:1004e0000c0032002159ba008301e90008003200f3
:1004f0000400e00003003a00e280400032a0b400b3
:10050000f5ff370011d9ba008301e900faff3a007c
:100510008100e800e180400032a0b4000000060045
:100520004204040000000000020ab900001bb900e8
:100530000200b80081004200810043000000060074
:100540008001eb0008003700e342780063c27800c6
:100550008301e80084cf5200030032000080eb00ea
:100560000400390010000500828f5100f6ff3a00a8
:100570000000eb0000000600040037000204e00069
:100580000a0032000000e8008100e8001041780015
:10059000914f5100f9ff32000081eb0010407800cc
:1005a000914f500004003900020037000001eb00b9
:1005b0000100370012002000020078000000060051
:1005c00080007800010037000000e8001004e0001f
:1005d000fdff3a0001005000000006008001eb0022
:1005e00002003700817178008301e800828f51009a
:1005f000fcff3a000000060080017800000178004e
:1006000031407800005978000004e000fcff3a0017
:100610000300780000000600ec874700889fbe00ba
:100620008a9fbe008c9fbe008e1f7800f0b79f008f
:1006300081bf9f0082047800000478000100370029
:100640000804e800184778000e00fb00a40007002b
:100650000000e000faff3a00d0c2b300804f57001c
:100660000500320000c0e900804f57000200320050
:1006700000477800010037000804e8000900e000a6
:1006800045003500e18f5400430032004002200055
:10069000808f540040003c000900e0000e00340050
:1006a000f08f54001a003a0000c3b300984f1000b6
:1006b00016003a009840900080c7b30080cf5000e9
:1006c0000300320080c5b30080cf50000f003a0015
:1006d0000884e8000e003700a900200000c3b30022
:1006e000984f10000a003a009840900080c7b3006d
:1006f00080cf5000040032008900200080c5b30084
:1007000080cf500002003a000884e8000901200070
:100710000805780000c3b300010037000a05e800af
:100720009a4f1000fdff32008a0578006066b8001d
:100730000e00370090d4200000425200c4ef9f000a
:100740006149b9000c00be0077ff07004fea97002f
:100750000401fb00cf91de008b05e800ccb79f00c1
:10076000ddb79f0000064100818649001b00fb00a9
:1007700063000700800078000901780090d4200011
:1007800066000700000278000000e000e9ff3a0080
:100790008b0f540006003a000fb897000000e000ed
:1007a00029003200ffb097000108780026003700ca
:1007b0008a80550040d2200060c07c000000fb0011
:1007c00000805000160033004240a9000f003c009a
:1007d0004fe997000200fb00cf80de0000005600ca
:1007e00081805e00800f5600818f5e000700390017
:1007f0006149b900f20507004fb19700dfb19700da
:10080000820f5000838f5800050032002002200024
:10081000606d88000086eb008086eb0005003700e5
:10082000d0c2b300804f570002003a0060061600a5
:10083000e0861e008fb997000300e000030032003d
:100840008b097800010037006066b8000c00be001c
:100850004f0778004f06be004f05be004f04be0094
:10086000cf00b100000006008001eb00020037005d
:1008700061f079008301e800828f5100fcff3a00ab
:1008800000000600881f780002047800f6ff0700c9
:10089000080040004f047800000006000000fa0045
:1008a000881f7800000478003fb99700ea8157005c
:1008b0008000780020442000280007008000780095
:1008c0000000e000020035000040eb0000f478007a
:1008d000010078004f0478000080fa000000060054
:1008e0006900e100040035006d00e1000300340000
:1008f0000002b100010032000000050010000500f8
:10090000800078001104b100030035009101b100ae
:1009100001003c000050a000000006008001eb0038
:10092000040037008301e80090cf1000040032007b
:100930000000e800828f5100faff3a000000eb004f
:1009400000000600506d80000000e0000100320051
:1009500000000100c0da2000000006006200fa007a
:10096000889fbe008a9fbe000004be00020578007a
:100970008300780060f92f000f004000b0000700ee
:1009800088979f0099979f000000eb00a09f9f0011
:100990009a4578000b80fb000000ea00cf04de00df
:1009a00050c2b30080cf5500020032000904780025
:1009b000010037000904e9000800e0000b003400e2
:1009c0001f909700080178008a0078008f919700a7
:1009d0000300010090979f000000e00093003200a8
:1009e0002f98970000004400a09f9f000905450034
:1009f00050c2b30080cf5500040032000b04e00069
:100a0000e3ff3a002f989700890037000000eb00c1
:100a1000809f9f00f0979f00e0979f00d0979f00d6
:100a2000c0979f00b0979f00c09f9f0009003700ac
:100a3000c0d92000008050000000400001d92000f3
:100a4000e10078004f98970001007000c09f9f0060
:100a50000a05e8001a4478008800fb00c0d920008d
:100a60007c000700800078000000e000f0ff3a0002
:100a7000a0c2b300804f54000e003a00bf88970018
:100a80000180e900b08f9f0010007800b09f9f00a8
:100a90000000e00005003d000000ea00b09f9f005c
:100aa0004f9897000020a000c09f9f000a05e80013
:100ab00010003700b19f9f0003fd2f00f4ff2700b7
:100ac000080037003f989700840f50000400320060
:100ad0006a00b9000000410003004000b09f9f0081
:100ae0000a05e8001a01fb0003004100e90f50006d
:100af000f4ff3600e0c2b3009a4f10000400320049
:100b00000080eb00909f9f008a0478001c00370053
:100b10008a04e800a0c2b300994f100007003a0011
:100b2000bf8897000180e900b08f9f001000780017
:100b3000909f9f008a84e800110037000000eb00be
:100b4000909f9f0003fd2f00f4ff2700080037004f
:100b50001f989700840f5000040032006a00b9000b
:100b60000000410003004000909f9f008904e800be
:100b70001901fb0003004100e90f5000f4ff3600ab
:100b8000194478008800fb0020da200031000700bb
:100b90000000e00002003a00004478000100370045
:100ba0008904e800a87f9f0080c6b300804f5400ee
:100bb00004003a00994f14000a003a0066405000c1
:100bc00006003700c0c6b300804f540005003a004d
:100bd000994f140003003a0065404000a07f9f0039
:100be0008904e8000905e800cbfb2f008f8545004c
:100bf0001901fb0060f92f000f0040000084e8009d
:100c00008b01780080007800080078001a00070047
:100c10000000e00005003a008b0078000800780032
:100c2000580107000000e00059ff3d000080eb0084
:100c30004f05be004f04be000080fa000000060011
:100c40000200fa00f1bf9f00010878000080fa005e
:100c500000000600040037000204e00001003a0032
:100c6000000005000000e80010417800814f5100ad
:100c7000f9ff3a0000000600889fbe008a1f780036
:100c800000047800010278008244780003057800af
:100c9000e0c6b300804f5100d200320015003c0086
:100ca0006b405000804f5100240032000a003c008d
:100cb00070405000804f51000f01320065404000ed
:100cc000804f51007400320050c2b300804f510079
:100cd00020013a001c01370040c6b300804f51008c
:100ce0001b00320065404000804f510019013a005e
:100cf0001700370030c7b300804f5100fe003200ac
:100d000007003c0064405000804f510062003200f8
:100d10000040e800804f51000e013a00e700370024
:100d200050c7b300804f51005b0032006340400069
:100d3000804f510007013a00570037009180e900c9
:100d4000010a78007800900091717800070137005f
:100d5000a8609000c0c6b30080cf50000a003a00df
:100d60009400780064805000000a78001000be00f3
:100d70004f89de00cf91de000002be000203780042
:100d8000820378001300370010c7b30080cf5000f3
:100d900003003200a0c6b30080cf500006003a0026
:100da0009400780068805000000a78003002be008d
:100db0002003be00070037001480e900000a780015
:100dc0001000780000027800cfa2de000503780052
:100dd00086037800049cbe000694be00a8609000c4
:100de00080c6b30080cf50000e00320020c6b30092
:100df00080cf500005003a000400fb00cf80de00e9
:100e000001017800820178000a00370040c7b30072
:100e100080cf5000030032006640400080cf500079
:100e200006003a0004007800cf80de00010178005f
:100e300082017800009cbe000294be003800be0013
:100e40002801be00e00f5000e08f5800e00f59006d
:100e5000e08f590003003d0078009000d1c2b3003c
:100e60000a003700081090000018a30003003200a9
:100e700078009000b1c2b300040037000008a3005e
:100e8000530032007800900001c2b3000175780071
:100e90000000e8004d003700a8609000c0c6b30015
:100ea00080cf500006003a00940078006480500023
:100eb000000a78001002be006033b800130037004b
:100ec00010c7b30080cf500003003200a0c6b300ab
:100ed00080cf500006003a009400780068805000ef
:100ee000000a78003002be002003be000700370071
:100ef0001480e900000a78001000780000027800f1
:100f0000050020000600200007002000049cbe0011
:100f10000694be00a860900080c6b30080cf500049
:100f20000e00320020c6b30080cf500005003a000a
:100f30000480fb00010020000200200003002000cc
:100f40000a00370040c7b30080cf500003003200d2
:100f50006640400080cf500006003a000400780050
:100f6000010020000200200003002000009cbe00c1
:100f70000294be00081090000038a3001400320054
:100f80003800be002801be00e00f5000e08f58007e
:100f9000e00f5900e08f59000d00320080c7b30008
:100fa00080cf54000300320080c5b30080cf5400ce
:100fb00007003a007800900001c3b3000175780083
:100fc0008000e80009f578000080e80070049800cf
:100fd0007800900000004500600498008940780087
:100fe00042003700a8609000c0c6b30080cf500018
:100ff000250032000a003c006440500080cf5000c1
:101000002800320000c0e80080cf500014003200f9
:101010006840500080cf500022003a000a0037009c
:1010200040c7b30080cf50001e0032006640400031
:1010300080cf50001b0032006940500080cf50002c
:1010400018003a00060037001480e900000a780012
:1010500010007800485c9000084878004500370090
:101060001480e900000a78001002780068089000f7
:10107000cf80de000101780082017800009abe0076
:101080000292be003b0037001480e900000a78009d
:101090001001780068089000cf80de000089be0053
:1010a000340037001480e900000a7800100078004e
:1010b000680c9000080878002e0037001180e900c5
:1010c0008008780010007800cf80de0001017800f1
:1010d00082017800009cbe000294be00780090005f
:1010e000000045006004980081c7b3000800780044
:1010f000ee0007001f0037001480e900000a7800a6
:101100001000780060049800580990000200e00088
:1011100002003d002afd0700090037008000eb00b7
:10112000fefd0700800078000000e00003003200b0
:1011300068009000008050000100370058089000bf
:10114000100c98000b0037007800900002757800b2
:101150000600370078009000800045000904e00098
:1011600001003a0059c2b300894878000000e80045
:10117000700498000000eb004f0578004f04be009b
:10118000000006000400fa00889fbe008a9fbe008f
:101190008c1f780000047800010678007008900029
:1011a000f8009000010050008808900001005000f5
:1011b0009808900001005000a8089000010050001d
:1011c000b808900001005000c80890008105500048
:1011d0000002220090bf9f0000032300a0bf9f00d9
:1011e000081090000028a30018003a000b00e0004f
:1011f000160034008b04780009057800e28f540053
:10120000020036002a002000020037000900e0003a
:101210000b00340058009000c80190000a017800cb
:10122000ee80570003000100500498000000e00029
:10123000960032006808900000004500600c98009d
:101240008a8454004240a900ebff3c0078019000e2
:101250000200e0000b00340058009000c80190002c
:101260008c00780003000100500498000000e000aa
:101270008600320068089000f800900001004000ed
:10128000600c9800880c90000900e0001500340004
:1012900009057800e28f5400020036002a00200081
:1012a000020037000900e0000b00340058009000f5
:1012b000c80190000a017800ec805700030001008b
:1012c000500498000000e0007000320068089000b0
:1012d00000004500600c98008a8454004240a90038
:1012e000ebff3c00180990000200e0000b00340006
:1012f000e800900058009000c80190000300010031
:10130000500498000000e00060003200680890007f
:101310009808900001004000600c9800a80c900014
:101320000900e0001500340009057800e28f540040
:10133000020036002a002000020037000900e00009
:101340000b00340058009000c80190000a0178009a
:10135000ec80570003000100500498000000e000fa
:101360004a0032006808900000004500600c9800b8
:101370008a8454004240a900ebff3c0038099000e9
:101380000200e0000d003400e80090001808900012
:101390008080400058009000c801900003000100c8
:1013a000500498000000e000380032006808900007
:1013b000b808900001004000600c9800c80c900034
:1013c0000900e0001500340009057800e28f5400a0
:1013d000020036002a002000020037000900e00069
:1013e0000b00340058009000c80190000a017800fa
:1013f000ec80570003000100500498000000e0005a
:10140000220032006808900000004500600c98003f
:101410008a8454004240a900ebff3c000810900071
:101420000028a3001b0032000b00e000190034006c
:101430008b04780009057800e28f54000200360022
:101440002a002000020037000900e0000b003400f1
:1014500058009000c80190000a017800ee80570003
:1014600003000100500498000000e0000700320073
:101470006808900000004500600c98008a845400c1
:101480004240a90003003400eaff37000080eb006f
:10149000010037000000eb004f0678004f05be004a
:1014a0004f04be000080fa00000006002f03b000c9
:1014b000889fbe008a9fbe008c9fbe008e1f780052
:1014c00000077800f0d72000c0b79f0080c5b300a8
:1014d00080cf500008003200e2d62000c2b79f0043
:1014e0007740400080cf500003003a008300200086
:1014f000b3b79f000a00370080c7b30080cf500009
:1015000005003200a4002000b4b79f0080c5b300de
:1015100080cf500002003a0005012000b5b79f00bf
:101520003e04be002e05be0040c6b30080cf500072
:10153000030032006540400080cf50000b003a00ad
:10154000e00f5400e08f5c00e00f5d00e08f5d0075
:1015500006003d006000b8006011b80008045000ab
:10156000898458000a0559008b855900bfb397003c
:10157000e88f530003003200f08f530045003a001b
:10158000020037003600200001003700460020002e
:10159000e00f5400e08f5c00e00f5d00e08f5d0025
:1015a00005003a005e08900081012000a1b79f006d
:1015b0000000e000080032003fb197000200e9009f
:1015c00008006000cfb197006340780090df9f0073
:1015d00074012000a4b79f00860278008502e9000c
:1015e000050033008b05d1000a85d3008984d30020
:1015f0000884d300f9ff3700089fbe000a97be0099
:10160000afb397000700e90021fc2f008f80400056
:10161000008240003fb197008202e90012003700cb
:10162000afb397008703e900a7b79f00008062006f
:10163000cfb09700615278003e00be002e01be0080
:10164000860378008703e900050033008381d10019
:101650000281d3008180d3000080d300f9ff3700de
:10166000009fbe000297be003e00be002e01be00dd
:10167000e00f5000e08f5800e00f5900e08f590054
:10168000d6003400afb397000700e000e4ff3c0051
:10169000d2003700ae60900080c6b30080cf50000b
:1016a0000b00320006003c000104e000080032009c
:1016b0006640500080cf500073003a0004003700ad
:1016c000c0c6b30080cf50006f003a003100370031
:1016d000080178000800e00005003a005e0890006c
:1016e00081012000a1b79f000000e0000900320046
:1016f000bfb19700110009000381d8008000fd00f0
:101700004fb297006440780090df9f007501200081
:10171000a5b79f00bfb39700110009000781d8004b
:1017200080017800afb097000100e90022fc2f0093
:101730000f014100000241000c003700bfb29700ca
:10174000110009008501d80000017800afb39700af
:101750008703e900a7b79f000590b90000805100fa
:10176000cfb0970061527800820178000300e0005a
:10177000030034002fb197000200e000efff3c00af
:1017800003007800cf80de0001017800820178003c
:101790003a0037000806be00e00f5400e08f5c00fe
:1017a00005003a005e08900083012000a3b79f0067
:1017b0000000e000090032003fb297006121b9004b
:1017c0000c00be00c2000700cfb297006540780051
:1017d00090df9f0077012000a7b79f003fb29700de
:1017e0006121b9000c00be00f50107000006be0033
:1017f000afb297000500e90027fc2f008f8343005c
:101800008083430097b79f00110037003fb19700d6
:101810006114b9000801be000c00be001a020700e6
:101820000005be00afb197008301e900a3b79f0098
:101830000801be003cfb0700000056001fb29700e5
:10184000cfb297006552780094b79f000a06be0099
:10185000e00f5600e08f5e0003003400afb3970046
:101860000700e000e9ff3c004feade00cfa2de0007
:101870000c00be000401780084017800009fbe00c7
:101880000297be0055003700e00f5400e08f5c0067
:10189000e00f5d00e08f5d0005003a005e089000fb
:1018a00081012000a1b79f000000e0000d00320080
:1018b0003fb1970002027800cfa2de000503780056
:1018c000860378000800be000a01be00320107004e
:1018d0004fb297006440780090df9f0075012000b0
:1018e000a5b79f003fb1970002027800cfa2de00ab
:1018f00005037800860378000800be000a01be00d8
:101900001e010700009fbe000297be00afb1970006
:101910000300e90024fc2f000f02420000064200f1
:1019200020003700bfb2970005047800cfc4de0066
:10193000090578008a0578000802be000a03be0087
:101940005fa89700efa897007fa997008fb1970035
:1019500015010700d0b79f00e1b79f00f2b79f00c5
:1019600083bf9f00afb397008703e900a7b79f002d
:101970000802be000a03be00580007005faa9700d5
:1019800000005200cfb29700655678005fb0970014
:10199000efb097007fb197008fb99700009fbe000e
:1019a0000297be003e00be002e01be00d0af9f00d9
:1019b000e1af9f00f2af9f0083b79f00e00f5000a0
:1019c000e08f5800e00f5900e08f59000300340009
:1019d000afb097000100e000d2ff3c003fb197009c
:1019e000e80f510013003a000e1090000038a300d9
:1019f00010003200afb19700f78f510006003e0093
:101a000024fc2f000f0242008300420000c3b300f9
:101a1000914f100007003200afb297008502e90035
:101a2000a5b79f0000c3b30027fc2f008f8343009e
:101a300080f37a00afb1970078811100120f9800ff
:101a40006e00900024fc2f000f0242008300420031
:101a500085fb07001e0990005e089000800f510072
:101a600006003d0002005000000f98000e1090008c
:101a70000040a100001798000f0037000000e000b0
:101a80000d003d000e10900074006000f00f50003b
:101a900009003a007e089000fe009000010050000e
:101aa0008e08900001005000020050004240a90042
:101ab00001003400000f98004f0778004f06be0069
:101ac0004f05be004f04be002f03b100000006000a
:101ad0003b0107000400be0000000600889fbe0016
:101ae0008a9fbe008c1f78000205be000004be0065
:101af0000006eb00e00f5000e08f5800e00f5900a7
:101b0000e08f590007003d006000b8006011b80088
:101b100008045000898458000a0559008b85590033
:101b20001c002000e00f5200e08f5a00e00f5b0025
:101b3000e08f5b0002003d000f0007000c00a200d8
:101b40000800be000a01be002d0107000203be000e
:101b50000002be000c00e000010032000600070099
:101b60000400be000601be004f0678004f05be000f
:101b70004f04be00000006006000b8006011b8000d
:101b800004025000858258000603590087835900db
:101b900000000600881f7800000478005001be0095
:101ba0004000be0004004000858048000601490056
:101bb00087814900009cbe000294be000400e10041
:101bc0000588e1000690e1000798e100020031007d
:101bd000680044001008e8004f0478000000060088
:101be000f4874700889fbe008a9fbe008c9fbe007e
:101bf0008e1f78000205be000004be00d4b79f000f
:101c0000e5b79f00f6b79f0087bf9f000000eb007d
:101c1000c0b79f00b0b79f00a0b79f0090b79f00cc
:101c200080b79f000d042000bfb097004fb0970011
:101c3000000140000000e0000f003d004f08de0002
:101c400000007100c0b79f009e00070001003d002a
:101c500012002000a100070001003d00120020003a
:101c6000a6000700b1000700b60007000f00400003
:101c7000c8ff0700220037004f08de000006710091
:101c8000ccb79f008f00070001003d00120020002c
:101c90009200070001003d0012002000970007009d
:101ca000a20007000fb297009fb297002fb39700d2
:101cb000bfb39700a90007000000520081805a00be
:101cc00002015b0083815b0080b79f0091b79f009a
:101cd000a2b79f00b3b79f000007eb009f0007006b
:101ce0000020e10001a8e10002b0e10003b8e1003a
:101cf000010031001e0020000e005600c0b79f00fa
:101d00004fb297000400e0000700350010002000eb
:101d1000010020006011b800080470008984700080
:101d20000a0571008b8571008d06e900beff3a003f
:101d30000400e00003003d00820007000f004000a7
:101d400094ff07004fa897000000e00004003a004d
:101d50000fb497009fb497002fb59700bfb59700b9
:101d6000940007004f0778004f06be004f05be00e5
:101d70004f04be004f01b10000000600881f78002c
:101d800018002000881f780095ff07008f87e90062
:101d90004f04780000000600801feb0090ff070052
:101da0008f87e90000000600889fbe008a9fbe0062
:101db0008c1f78006e00070007003d0073000700cd
:101dc000e00f5b00e08f5b0007003d003200070082
:101dd0000006eb00040037003400070002003d005d
:101de0002a0007001c00200072000700e3ff070024
:101df0000203be000002be000c00e0000100320041
:101e0000220007000400be000601be004f06780055
:101e10004f05be004f04be0000000600889fbe00b4
:101e20008a9fbe008c1f78005100070005003d000e
:101e300056000700e00f5b00e08f5b0006003d00ee
:101e4000040037001900070003003d006000b800df
:101e50006011b8001000070056000700ceff070011
:101e60000203be000002be000c00e00001003200d0
:101e7000060007000400be000601be004f06780001
:101e80004f05be004f04be00000006006000b80011
:101e90006011b8000000370004025000858258002d
:101ea0000603590087835900000006000006eb0076
:101eb000e00f5200e08f5a00e00f5b00e08f5b0004
:101ec000000006000180400090b79f000001eb0079
:101ed0008fb097000100e0000000060002007000d3
:101ee00090b79f000180400080b79f000001eb0089
:101ef000ffa897000100e00000000600020070004b
:101f000080b79f00018040006faa9700cf20de00bd
:101f100001007000f0af9f0004024200250007009e
:101f20004f18de000002720000000600e4af9f00c0
:101f30000804440089844c000a054d008b854d003f
:101f4000000006003fb29700cfb297005fb3970042
:101f5000efb3970000fe2f00000006003fb097008f
:101f6000cfb097005fb19700efb197000000060077
:101f70000205be000004be00e00f5000e08f5800d4
:101f8000e00f5900e08f5900000006006000b80023
:101f90006011b80008045000898458000a055900ef
:101fa0008b8559001c002000e00f5200e08f5a0082
:101fb000000006000800be000a01be000000060086
:101fc0006022b800060220000000d0008180d2000c
:101fd0000482d2008582d2000000a00002025200da
:101fe00083825a00030031000202420083824a00c9
:101ff0000000a1000603e900f3ff3a00000006001c
:10200000889fbe008a9fbe008c9fbe000404b8005b
:102010000506b8008904460060854e000606b80033
:102020000a054600e0854e000706b8008b0546000d
:10203000040eb800890446000a854e00e0854d0074
:10204000050eb8000a0546008b854e00060eb80046
:102050008b0546000416b8000a0546008b854e0025
:102060000516b8008b054600041eb8008b05460017
:102070000800be000a01be004f06be004f05be00ac
:102080004f04be0000000600839f68000100e000ce
:1020900002003d0060001000e08018000300e00036
:1020a00002003d0060011100e0811900c4ff07003b
:1020b0004f00e00002003b0060001000e0801800cc
:0420c0000000060016
:020000040000fa
:020000040005f5
:0457f800ed9300002d
:020000040000fa
:020000040005f5
:0457fc007f3e0000ec
:020000040000fa
:100008002eac00002eac00009a710000a071000018
:100018002eac00002eac00002eac00002eac000070
:100028002eac00002eac00002eac00004ca8000046
:100038002eac00002eac00002eac00002eac000050
:100048002eac00002eac00002eac00002eac000040
:100058002eac00002eac00002eac00002eac000030
:100068002eac00002eac00002eac00002eac000020
:10007800d4aa00002eac00002eac00002eac00006c
:100088002eac00002eac00002eac00002eac000000
:100098002eac00002eac00002eac00002eac0000f0
:1000a8002eac00002eac00002eac00002eac0000e0
:1000b8002eac00002eac00002eac00002eac0000d0
:1000c8002eac00002eac00002eac00002eac0000c0
:1000d8002eac00002eac00002eac00002eac0000b0
:1000e8002eac00002eac00002eac00002eac0000a0
:1000f8002eac00002eac00002eac00002eac000090
:100108002eac00002eac00002eac00002eac00007f
:100118002eac00002eac00002eac00002eac00006f
:100128002eac00002eac00002eac00002eac00005f
:100138002eac00002eac00002eac00002eac00004f
:100148002eac00002eac00002eac00002eac00003f
:100158002eac00002eac00002eac00002eac00002f
:100168002eac00002eac00002eac00002eac00001f
:100178002eac00002eac00002eac00002eac00000f
:100188002eac00002eac00002eac00002eac0000ff
:100198002eac00002eac00002eac00002eac0000ef
:1001a8002eac00002eac00002eac00002eac0000df
:1001b8002eac00002eac00002eac00002eac0000cf
:1001c8002eac00002eac00002eac00002eac0000bf
:1001d8002eac00002eac00002eac00002eac0000af
:1001e8002eac00002eac00002eac00002eac00009f
:0801f8002eac00002eac00004b
:020000040000fa
:100208002eac00002eac00009a710000a071000016
:100218002eac00002eac00002eac00002eac00006e
:100228002eac00002eac00002eac00004ca8000044
:100238002eac00002eac00002eac00002eac00004e
:100248002eac00002eac00002eac00002eac00003e
:100258002eac00002eac00002eac00002eac00002e
:100268002eac00002eac00002eac00002eac00001e
:10027800d4aa00002eac00002eac00002eac00006a
:100288002eac00002eac00002eac00002eac0000fe
:100298002eac00002eac00002eac00002eac0000ee
:1002a8002eac00002eac00002eac00002eac0000de
:1002b8002eac00002eac00002eac00002eac0000ce
:1002c8002eac00002eac00002eac00002eac0000be
:1002d8002eac00002eac00002eac00002eac0000ae
:1002e8002eac00002eac00002eac00002eac00009e
:1002f8002eac00002eac00002eac00002eac00008e
:100308002eac00002eac00002eac00002eac00007d
:100318002eac00002eac00002eac00002eac00006d
:100328002eac00002eac00002eac00002eac00005d
:100338002eac00002eac00002eac00002eac00004d
:100348002eac00002eac00002eac00002eac00003d
:100358002eac00002eac00002eac00002eac00002d
:100368002eac00002eac00002eac00002eac00001d
:100378002eac00002eac00002eac00002eac00000d
:100388002eac00002eac00002eac00002eac0000fd
:100398002eac00002eac00002eac00002eac0000ed
:1003a8002eac00002eac00002eac00002eac0000dd
:1003b8002eac00002eac00002eac00002eac0000cd
:1003c8002eac00002eac00002eac00002eac0000bd
:1003d8002eac00002eac00002eac00002eac0000ad
:1003e8002eac00002eac00002eac00002eac00009d
:0803f8002eac00002eac000049
:020000040000fa
:1020c40074650000787400002f7000006c610000db
:1020d400696e00000074000065780000742f000031
:1020e400687400006d6c00000074000065780000e6
:1020f400742f0000786d00006c000000746500000f
:10210400787400002f6300007373000000690000fe
:102114006d610000676500002f67000069660000bc
:10212400006900006d610000676500002f70000009
:102134006e670000006900006d61000067650000c3
:102144002f6a0000706500006700000061700000e5
:10215400706c00006963000061740000696f000026
:102164006e2f00006a610000766100002d76000089
:102174006d00000061750000646900006f2f0000ad
:10218400782d0000776100007665000000000000f3
:10219400629000006d9000006d9000006d90000052
:1021a40077900000809000008990000093900000d8
:1021b4009d900000a8900000bc900000c990000011
:1021c4000d0a00000048000054540000502f000085
:1021d400312e000031200000323000003020000099
:1021e4004f4b00000d0a0000436f00006e6e0000ac
:1021f40065630000746900006f6e00003a200000ff
:10220400636c00006f730000650d00000a0000009d
:1022140048540000545000002f3100002e310000bb
:1022240020340000303000002042000061640000cf
:102234002052000065710000756500007374000091
:102244000d0a0000436f00006e6e0000656300001d
:10225400746900006f6e00003a200000636c000097
:102264006f730000650d00000a0d00000a340000c1
:102274003030000020420000616400002052000061
:102284006571000075650000737400003a20000059
:10229400636100006e270000742000006861000084
:1022a4006e6400006c650000204300006f6e000047
:1022b400746500006e7400002d4c0000656e000013
:1022c40067740000680d00000a0000004854000014
:1022d400545000002f3100002e3100002034000043
:1022e40030310000205500006e610000757400005c
:1022f400686f0000726900007a650000640d0000d8
:102304000a570000575700002d4100007574000063
:10231400686500006e740000696300006174000069
:10232400653a000020420000617300006963000008
:1023340020720000656100006c6d00003d22000009
:10234400507200006f740000656300007465000043
:10235400642200000d0a0000436f00006e6e00004e
:1023640065630000746900006f6e00003a2000008d
:10237400636c00006f730000650d00000a0d00001f
:102384000a34000030310000205500006e61000066
:1023940075740000686f0000726900007a650000bf
:1023a400643a00002050000061730000737700005d
:1023b4006f720000642000007265000071750000f7
:1023c40069720000656400000d0a00000048000006
:1023d40054540000502f0000312e00003120000022
:1023e40034300000342000004e6f000074200000e0
:1023f400666f0000756e0000640d00000a43000063
:102404006f6e00006e65000063740000696f000069
:102414006e3a0000206300006c6f000073650000da
:102424000d0a0000436f00006e740000656e00002a
:10243400742d000054790000706500003a200000fb
:1024440074650000787400002f680000746d00004b
:102454006c0d00000a0d00000a3400003034000046
:102464003a200000466900006c650000206e000000
:102474006f740000206600006f7500006e64000039
:102484003c620000723e00005573000065200000ad
:102494003c6100002068000072650000663d000099
:1024a400222f00006d70000066730000757000003c
:1024b4006c6f000061640000223e00004d5000007b
:1024c4004653000020550000706c00006f6100004e
:1024d400643c00002f6100003e200000746f000087
:1024e40020700000726f000067720000616d0000d0
:1024f4002077000065620000207000006167000022
:10250400657300000d0a00000048000054540000e8
:10251400502f0000312e0000312000003431000023
:1025240034200000526500007175000065730000de
:10253400742d00005552000049200000546f000023
:102544006f2000004c6f00006e6700000d0a000051
:10255400436f00006e6e0000656300007469000044
:102564006f6e00003a200000636c00006f7300007f
:10257400650d00000a0d00000a340000313400002b
:10258400205200006571000075650000737400003e
:102594002d55000052490000205400006f6f0000c8
:1025a400204c00006f6e0000673a000020420000db
:1025b4007566000066650000722000006f760000fa
:1025c40065720000666c00006f77000020640000f4
:1025d400657400006563000074650000640d00000c
:1025e4000a00000048540000545000002f3100003d
:1025f4002e3100002035000030300000204900005a
:102604006e740000657200006e6100006c200000b2
:1026140053650000727600006572000020450000da
:10262400727200006f7200000d0a0000436f000018
:102634006e6e000065630000746900006f6e000038
:102644003a200000636c00006f730000650d000009
:102654000a0d00000a350000303000002049000057
:102664006e740000657200006e6100006c20000052
:10267400536500007276000065720000204500007a
:10268400727200006f7200003a200000457800006a
:10269400706500006374000065640000206400003d
:1026a40061740000612000006e6f0000742000005f
:1026b4007072000065730000656e0000740d000008
:1026c4000a00000048540000545000002f3100005c
:1026d4002e3100002035000030310000204e000073
:1026e4006f740000204900006d7000006c650000ec
:1026f4006d6500006e740000656400000d0a000042
:10270400436f00006e6e0000656300007469000092
:102714006f6e00003a200000636c00006f730000cd
:10272400650d00000a0d00000a350000303100007c
:10273400204e00006f740000204900006d700000fe
:102744006c6500006d6500006e7400006564000037
:102754003a2000004f6e00006c7900002047000012
:1027640045540000206100006e6400002050000009
:102774004f53000054200000737500007070000077
:102784006f72000074650000640d00000a00000010
:1027940048540000545000002f3100002e31000036
:1027a4002032000030300000204f00004b0d0000ac
:1027b4000a4300006f6e00006e6500006374000041
:1027c400696f00006e3a0000206300006c6f000027
:1027d400736500000d0a0000436f00006e74000072
:1027e400656e0000742d00005479000070650000cf
:1027f4003a20000074650000787400002f6800001f
:10280400746d00006c0d00000a0d00000a3c00000d
:10281400687400006d6c00003e3c0000626f0000b4
:102824006479000020730000747900006c65000076
:102834003d2200006d61000072670000696e0000b7
:102844003a3100003030000070780000223e000071
:102854003c6600006f7200006d2000006d65000092
:10286400746800006f6400003d7000006f73000026
:102874007420000061630000746900006f6e000042
:102884003d2200002f6d000070660000737500008b
:10289400706c00006f61000064220000206500007d
:1028a4006e63000074790000706500003d22000032
:1028b4006d7500006c7400006970000061720000a6
:1028c400742f0000666f0000726d00002d6400001c
:1028d40061740000612200003e3c0000623e000082
:1028e4004d50000046530000204900006d61000077
:1028f4006765000020550000706c00006f610000e7
:10290400643c00002f6200003e3c0000703e00006a
:102914003c6900006e7000007574000020740000b3
:1029240079700000653d0000666900006c65000078
:10293400206e0000616d0000653d0000692000000c
:10294400736900007a6500003d340000303e0000e9
:10295400202600006e620000737000003b2000001f
:102964003c6900006e700000757400002074000063
:1029740079700000653d000073750000626d000011
:102984006974000020760000616c00007565000029
:102994003d220000557000006c6f0000616400006f
:1029a400223e00003c2f0000666f0000726d0000a4
:1029b4003e3c00002f6200006f640000793e00007e
:1029c4003c2f0000687400006d6c00003e000000a5
:1029d40048540000545000002f3100002e310000f4
:1029e4002032000030300000204f00004b0d00006a
:1029f4000a4300006f6e00006e65000063740000ff
:102a0400696f00006e3a0000206300006c6f0000e4
:102a1400736500000d0a0000436f00006e7400002f
:102a2400656e0000742d000054790000706500008c
:102a34003a20000074650000787400002f680000dc
:102a4400746d00006c0d00000a0d00000a3c0000cb
:102a5400687400006d6c00003e3c0000626f000072
:102a64006479000020730000747900006c65000034
:102a74003d2200006d61000072670000696e000075
:102a84003a3100003030000070780000223e00002f
:102a94003c6200003e4d0000504600005320000000
:102aa400557000006461000074650000205300004c
:102ab40075630000636500007373000066750000b1
:102ac4006c3c00002f6200003e3c0000703e0000a1
:102ad4003c6100002068000072650000663d000053
:102ae400222f0000223e000053690000746500009c
:102af400206d0000616900006e200000706100001c
:102b0400676500003c2f0000613e00003c2f000080
:102b1400626f0000647900003e3c00002f680000f2
:102b2400746d00006c3e0000004800005454000026
:102b3400502f0000312e00003120000035300000fd
:102b440030200000496e000074650000726e0000c1
:102b5400616c00002053000065720000766500007f
:102b64007220000045720000726f0000720d0000b8
:102b74000a4300006f6e00006e650000637400007d
:102b8400696f00006e3a0000206300006c6f000063
:102b9400736500000d0a0000436f00006e740000ae
:102ba400656e0000742d000054790000706500000b
:102bb4003a20000074650000787400002f6800005b
:102bc400746d00006c0d00000a0d00000a3c00004a
:102bd400687400006d6c00003e3c0000626f0000f1
:102be4006479000020730000747900006c650000b3
:102bf4003d2200006d61000072670000696e0000f4
:102c04003a3100003030000070780000223e0000ad
:102c14003c6200003e4d000050460000532000007e
:102c2400496d00006167000065200000436f0000eb
:102c34007272000075700000742000006f72000052
:102c440020570000726f00006e67000020560000dd
:102c540065720000736900006f6e00003c2f000075
:102c6400623e00003c7000003e3c00006120000019
:102c740068720000656600003d2200002f6d0000b0
:102c84007066000073750000706c00006f610000d6
:102c9400642200003e5400007279000020610000ac
:102ca40067610000696e00003f3c00002f61000076
:102cb4003e3c00002f6200006f640000793e00007b
:102cc4003c2f0000687400006d6c00003e000000a2
:102cd40048540000545000002f3100002e310000f1
:102ce4002033000030320000204600006f750000e1
:102cf4006e6400000d0a0000436f00006e6e000059
:102d040065630000746900006f6e00003a200000e3
:102d1400636c00006f730000650d00000a4c000036
:102d24006f63000061740000696f00006e3a000078
:102d34002000000048540000545000002f310000cf
:102d44002e31000020340000303300002046000003
:102d54006f7200006269000064640000656e000028
:102d64000d0a0000436f00006e6e000065630000f2
:102d7400746900006f6e00003a200000636c00006c
:102d84006f730000650d00000a0d00000a34000096
:102d940030330000204600006f72000062690000ba
:102da40064640000656e00003a2000005353000084
:102db4004c2000005265000071750000697200002b
:102dc40065640000202d000020750000736500007c
:102dd4002048000054540000505300000d0a000025
:102de40000000000e5900000e59000000a9100005a
:102df40068910000e991000087920000f4920000bd
:102e040064930000ca930000c9900000ea94000093
:102e1400979500006a9600009c960000436f00009e
:102e24006f6b0000696500003a0000004175000006
:102e3400746800006f720000697a00006174000019
:102e4400696f00006e3a0000004300006f6e0000de
:102e5400746500006e7400002d4c0000656e000067
:102e640067740000683a000000000000109700003a
:102e74001897000027970000747800007400000081
:102e8400687400006d000000687400006d6c000040
:102e94000063000067690000007800006d6c0000aa
:102ea400006300007373000000670000696600009f
:102eb400007000006e670000006a00007067000088
:102ec400006300006c610000007700006176000080
:102ed4000000000000000000000000003e97000019
:102ee40042970000469700004b9700004f97000060
:102ef40053970000579700005b9700005f9700000e
:102f040063970000679700006b970000666f0000ee
:102f14006f740000657200002e6900006e6300008b
:102f2400006800006561000064650000722e000006
:102f3400696e000063000000214400004546000063
:102f44000047000045540000005000004f530000ab
:102f5400540000006d70000066730000757000007e
:102f64006c6f000061640000006900006e64000082
:102f7400657800002e680000746d0000000d0000ec
:102f84000a0d00000a0000000d0a00000d0a0000ee
:102f94004d5000004653000002010000000d0000e7
:102fa4000a0d00000a3300003034000020520000f3
:102fb400656400006972000065630000743a0000f3
:102fc40020000000436f00006e740000656e000076
:102fd400742d000054790000706500003a20000050
:102fe400004300006f6e0000746500006e74000002
:102ff4002d4500006e6300006f640000696e0000e0
:10300400673a0000206700007a690000700d000034
:103014000a0000004361000063680000652d0000a1
:10302400436f00006e740000726f00006c3a000081
:10303400200000006e6f00002d630000616300003b
:1030440068650000006d0000617800002d610000db
:10305400676500003d0000003630000030000000cd
:1030640053650000742d0000436f00006f6b000077
:10307400696500003a200000000000000d0a00000d
:103084000d0a00000d4d000069630000726f00001e
:103094006368000069700000205400004350000081
:1030a4002f49000050200000436f00006e660000ae
:1030b4006967000020410000707000006c69000026
:1030c40063610000746900006f6e00002028000036
:1030d400763500002e330000312c0000204e000015
:1030e4006f76000020200000342000003230000001
:1030f40031300000290d00000a0d00000a00000014
:10310400093100003a20000043680000616e0000ad
:1031140067650000207300006572000069610000ab
:103124006c2000006e7500006d6200006572000086
:103134003a090000090000000d0a000009320000ed
:103144003a20000043680000616e000067650000db
:10315400206800006f730000742000006e6100009e
:103164006d6500003a09000009090000000d000027
:103174000a090000333a000020430000686100009f
:103184006e67000065200000737400006174000025
:1031940069630000204900005020000061640000c1
:1031a4006472000065730000733a000009090000ae
:1031b400000d00000a090000343a0000204300001a
:1031c400686100006e6700006520000073740000f1
:1031d40061740000696300002067000061740000ee
:1031e40065770000617900002061000064640000dc
:1031f40072650000737300003a090000000d0000be
:103204000a090000353a000020430000686100000c
:103214006e67000065200000737400006174000094
:103224006963000020730000756200006e65000091
:10323400742000006d610000736b00003a09000007
:10324400090000000d0a0000093600003a200000c1
:1032540043680000616e0000676500002073000091
:103264007461000074690000632000007072000043
:10327400696d00006172000079200000444e000076
:103284005320000073650000727600006572000030
:103294003a090000000d00000a090000373a000056
:1032a40020430000686100006e6700006520000094
:1032b40073740000617400006963000020730000ef
:1032c400656300006f6e00006461000072790000a5
:1032d400204400004e53000020730000657200007b
:1032e40076650000723a0000090000000d0a000033
:1032f400093800003a20000000440000697300000f
:10330400004500006e000000616200006c65000072
:103314002044000048430000502000002620000004
:1033240049500000204700006c650000616e0000f9
:10333400696e0000673a0000090900004448000073
:1033440043500000206900007320000063750000f2
:1033540072720000656e0000746c00007920000039
:10336400006500006e610000626c0000656400008e
:103374000064000069730000616200006c65000075
:10338400640000000d0a0000093900003a20000022
:10339400446f0000776e00006c6f000061640000f1
:1033a400204d00005046000053200000696d0000cd
:1033b40061670000652e0000000d00000a0900008e
:1033c400303a0000205300006176000065200000c0
:1033d4002620000051750000697400002e000000d2
:1033e4000d0a0000456e00007465000072200000a4
:1033f400612000006d6500006e7500002063000010
:10340400686f000069630000653a00002000000056
:103414000d0a0000004e00006577000020730000d4
:1034240065740000746900006e6700003a200000b3
:10343400004900006e760000616c000069640000c1
:10344400206900006e700000757400002e0d0000ed
:103454000a0000005365000074740000696e0000e7
:10346400677300002073000061760000656400004b
:103474002e0d00000a000000646e000000750000bc
:1034840070000000707200006f740000656300003b
:1034940074000000736e00006d7000000061000095
:1034a400646d0000696e0000006d00006963000037
:1034b400726f00006368000069700000006600001d
:1034c4006f7200006d7300002e680000746d0000c0
:1034d400006c000065640000340000006c650000ae
:1034e40064330000006c00006564000032000000da
:1034f4006c65000064310000006300006f6f000021
:103504006b690000657300002e680000746d000094
:10351400006c000065640000732e00006367000007
:10352400690000006c650000640000006c6300002a
:10353400640000002f6600006f7200006d730000cd
:103544002e680000746d000000750000706c0000af
:103554006f610000642e0000687400006d000000bc
:103564000d0a0000000d00000a0d00000a00000012
:10357400707200006f74000065630000742f000017
:10358400636f00006e660000696700002e6800002b
:10359400746d00000069000070000000677700008f
:1035a4000073000075620000006400006e73000088
:1035b40031000000646e000073320000006d0000f2
:1035c40061630000006800006f7300007400000075
:1035d4006468000063700000002f00007072000037
:1035e4006f74000065630000742f000072650000b2
:1035f400626f00006f7400002e680000746d00009c
:103604003f0000002f700000726f0000746500001e
:10361400637400002f6300006f6e00006669000091
:10362400672e0000687400006d0000004e6f0000fb
:1036340076200000203400002032000030310000e9
:1036440030200000313200003a350000353a0000e5
:103654003132000000760000352e000033310000c6
:1036640000530000454c0000454300005445000051
:10367400440000003c620000722000002f3e000065
:10368400002600006e620000737000003b00000022
:103694006e6100006d65000000480000656c00006c
:1036a4006c6f00002c200000006e00006f7400009e
:1036b4002073000065740000003c0000623e0000be
:1036c400557000006c6f0000616400002061000010
:1036d40020460000696c0000653c00002f62000079
:1036e4003e0000003c6200003e550000706c00008b
:1036f4006f610000646500006420000046690000fa
:103704006c65000027730000204d00004435000064
:1037140020770000617300003a3c00002f62000033
:103724003e3c000062720000202f00003e000000ba
:1037340063680000656300006b65000064000000be
:1037440066610000696c00000054000068650000b8
:1037540020440000796e0000616d00006963000080
:10376400204400004e530000204300006c69000018
:10377400656e00007420000069730000206e000074
:103784006f740000206500006e610000626c000030
:10379400656400002e0000006e6f00006e6500007e
:1037a400006200006c6f0000636b0000000000000a
:1037b40000040000a30000000000000054430000c7
:1037c4005053000074610000636b00002076000019
:1037d400352e00003331000020200000202000009e
:1037e40020200000202000002020000020200000d5
:1037f400202000002020000020200000004d0000b8
:1038040043480000504200004f4100005244000071
:10381400004d000069630000726f000063680000df
:1038240069700000446500006d6f000041500000a5
:10383400000d00000a0d00000a420000555400006b
:10384400544f00004e30000020680000656c0000fa
:1038540064200000666f0000722000006d6f00009d
:103864007265000020740000686100006e20000092
:103874003420000073650000636f00006e64000074
:10388400732e0000202000004465000066610000e3
:10389400756c0000742000007365000074740000ef
:1038a400696e0000677300002072000065730000f9
:1038b400746f000072650000642e00000d0a0000a1
:1038c4000d0a00000053000065740000205300003e
:1038d400534900004420000028000000290d000086
:1038e4000a00000053650000742000004e650000cb
:1038f400747700006f7200006b20000054790000a0
:10390400706500000d0a000000530000657400009b
:1039140020530000636100006e2000005479000011
:10392400706500000d0a000000530000657400007b
:1039340020430000686100006e6e0000656c0000aa
:10394400204c000069730000740d00000a000000a0
:1039540053650000742000006c690000737400005b
:10396400207200006574000072790000206300007a
:103974006f7500006e7400000d0a00000053000013
:103984006574000020450000766500006e74000038
:10399400204e00006f74000069660000790d00007d
:1039a4000a0000004469000073610000626c0000ba
:1039b40065200000505300002d5000006f6c000083
:1039c4006c0d00000a000000536500007420000024
:1039d40042650000616300006f6e00002054000027
:1039e400696d0000656f0000757400000d0a000029
:1039f400005300006574000020530000656300005c
:103a0400757200006974000079200000284f0000de
:103a1400706500006e2900000d0a000000530000cc
:103a240074610000727400002057000069460000b1
:103a340069200000436f00006e6e000065630000a3
:103a4400740d00000a0000000d0a00004e6500001d
:103a54007720000049500000204100006464000009
:103a640072650000737300003a200000000d00002e
:103a74000a00000057460000204100005353000094
:103a840045520000544900004f4e00003a20000007
:103a94004d6f0000647500006c650000204e00004e
:103aa400756d000062650000722000003d2000007a
:103ab4000025000064200000200000004c69000084
:103ac4006e650000204e0000756d00006265000008
:103ad400722000003d20000000250000640000006a
:103ae400576900004669000020410000737300001c
:103af40065720000742000002020000020200000d7
:103b04004d3a000000450000766500006e74000028
:103b14003a200000436f00006e6e000065630000f1
:103b2400746900006f6e000020530000756300008c
:103b34006365000073730000667500006c0d00007f
:103b44000a00000045760000656e0000743a00002b
:103b5400204300006f6e00006e6500006374000077
:103b6400696f00006e20000046610000696c00006f
:103b740065640000202000002d2d00002065000059
:103b8400766500006e740000496e0000666f0000e8
:103b9400203d000020000000256400000d0a000004
:103ba40000450000766500006e7400003a200000b5
:103bb400436f00006e6e00006563000074690000ce
:103bc4006f6e000020540000656d0000706f0000ef
:103bd40072610000726900006c790000204c0000e2
:103be4006f730000742000002d2d0000206500007c
:103bf400766500006e740000496e0000666f000078
:103c0400203d00002000000045760000656e0000a5
:103c1400743a0000204300006f6e00006e650000df
:103c240063740000696f00006e200000506500009e
:103c3400726d0000616e0000656e0000746c00001f
:103c4400792000004c6f000073740000202d0000e8
:103c54002d20000065760000656e000074490000a8
:103c64006e6600006f2000003d200000004500004b
:103c7400766500006e7400003a200000436f000077
:103c84006e6e000065630000746900006f6e0000d2
:103c9400205200006565000073740000616200003a
:103ca4006c69000073680000656400000d0a000080
:103cb40000450000766500006e7400003a200000a4
:103cc40053630000616e0000205200006573000021
:103cd400756c0000747300002052000065610000e0
:103ce400647900002c000000726500007375000008
:103cf4006c740000730d00000a000000070c000043
:103d040011160000070c000011160000070c00003b
:103d140011160000070c0000111600000509000030
:103d24000e140000050900000e140000050900002f
:103d34000e140000050900000e140000040b00001e
:103d440010170000040b000010170000040b000003
:103d540010170000040b000010170000060a0000f2
:103d64000f150000060a00000f150000060a0000e7
:103d74000f150000060a00000f15000078a40000cb
:103d84006ad7000056b70000c7e80000db700000e7
:103d940020240000eece0000bdc10000af0f0000e3
:103da4007cf500002ac60000874700001346000087
:103db40030a800000195000046fd0000d8980000de
:103dc40080690000aff70000448b0000b15b000085
:103dd400ffff0000bed700005c8900002211000034
:103de400906b00009371000098fd00008e4300006a
:103df40079a6000021080000b449000062250000f3
:103e04001ef6000040b3000040c00000515a0000fc
:103e14005e260000aac70000b6e900005d1000009d
:103e24002fd60000531400004402000081e6000075
:103e3400a1d80000c8fb0000d3e70000e6cd0000d5
:103e4400e1210000d607000037c30000870d000001
:103e5400d5f40000ed1400005a45000005e9000007
:103e6400e3a90000f8a30000effc0000d902000061
:103e74006f6700008a4c00002a8d00004239000060
:103e8400faff000081f60000718700002261000043
:103e94009d6d00000c380000e5fd000044ea0000c0
:103ea400bea40000a9cf0000de4b0000604b000060
:103eb400bbf6000070bc0000bfbe0000c67e000060
:103ec4009b280000fa270000a1ea000085300000ca
:103ed400efd40000051d00008804000039d0000064
:103ee400d4d90000e5990000dbe60000f87c00006e
:103ef400a21f000065560000acc40000442200006c
:103f040029f4000097ff00002a430000a7230000c3
:103f140094ab000039a0000093fc0000c3590000da
:103f24005b65000092cc00000c8f00007df4000063
:103f3400efff0000d15d0000848500004f7e00008b
:103f4400a86f0000e0e600002cfe0000144300000f
:103f540001a30000a1110000084e0000827e0000b1
:103f640053f7000035f200003abd0000bbd2000058
:103f7400d72a000091d3000086eb00003a2000000d
:103f84005765000020610000726500002063000096
:103f940075720000726500006e7400006c79000098
:103fa4002061000063680000696500007669000014
:103fb4006e67000020000000202000002020000088
:103fc40020200000200000003030000020620000ab
:103fd40079740000657300002f73000065630000ae
:103fe4006f6e00006420000054580000207400002c
:103ff400687200006f75000067680000707500004b
:10400400742e00000d0a00000020000062790000f8
:1040140074650000732f000073650000636f000077
:104024006e6400000d0a0000000000000d0a00008c
:1040340044480000435000002f5000006f770000f8
:104044006572000020650000766500006e74000053
:10405400206f000063630000757200007265000049
:1040640064000000426f00006f7400006c6f000079
:104074006164000065720000205200006573000056
:10408400657400000000000005000000c800000086
:104094000100000008000000e8030000e80300003d
:1040a40008000000e8030000e80300004d50000091
:1040b400465300000201000000000000000400005c
:1040c400a300000000000000010100000100000046
:020000040000fa
:1040d400804078000ccdbf00814f500017003200a3
:1040e400e24f400008003200e2c1b3000440bc00cb
:1040f400e088200000014100c08020000e0009007b
:1041040030197800e201b100010078000cedb7002d
:10411400e2cf40000900320001407800e2c1b30060
:104124000440bc00e088200000014100c080200061
:104134000e00090032187800e201b1000000060008
:10414400e3ff07002141800000002100008060009f
:10415400020032002588a90010002000000006009b
:10416400dbff07008000eb0010418000e70f5000e8
:1041740001003a0011002000010078000000060050
:10418400d3ff07002182200091407800e7cf500040
:10419400030032000000eb00ebcf50000b003a00ac
:1041a40091408000a040800001015000808f5000a9
:1041b40005003900604080000e08b5000200400090
:1041c4000000e900000006000200e900000006000b
:1041d400889fbe0000447800bdff07006040800057
:1041e4000e08b5008004e90008407800e4ff0700e9
:1041f400008054004f04be0000000600b4ff070016
:10420400b2408000c1408000810f5100020039009b
:104214000100510000000600804080008100500031
:104224007040800000005100808040000100e800e0
:1042340000000600889fbe0000447800a4ff070029
:104244007940800080408000890450000840780054
:10425400eaff070080845400090078004f04be0080
:1042640000000600881f7800000478001000780021
:104274006c70020000000000000c78001800900030
:104284006c700200000000001004980028009000e8
:10429400b80090007e700200000000002004980026
:1042a4003104980048009000d80090007e7002000d
:1042b4000000000040049800510498007800900029
:1042c4006c70020000000000700498000808900060
:1042d4006c70020000000000000c980018089000a8
:1042e4006c70020000000000100c98004f0478006d
:1042f400000006000200fa00889fbe00c0002000f3
:10430400da9f020000000000aa5902000000000029
:10431400000fb2004280de00f4445000330032004b
:10432400710020000000eb00ce59020000000000e4
:104334002b003700aa590200000000000004e0002e
:104344002a003200e14f500025003200e24f5000b5
:1043540017003a00e2cf5400240036000000eb00be
:10436400d0bf9f00aa59020000000000e44f500093
:1043740006003a00aa59020000000000b0ff9f00a6
:10438400aa59020000000000a0ff9f00dfb89700b8
:1043940070212000808f500014003600d039b00006
:1043a400808f500012003e0001007800100037009a
:1043b400e1cf54000d003600aa59020000000000ad
:1043c4000044780080cf5400080039008080fb004e
:1043d4000000eb00ce5902000000000088c4540025
:1043e4008944e900e1cf4400d2ff3a008021200053
:1043f4004f04be000080fa0000000600889fbe0043
:104404008a1f78000005780002047800840478008c
:104414000304e00015003200e1cf51002a003a0005
:104424000104e00008003200e1cf500026003a0009
:1044340004017800880078000a007800340402003f
:104444000000000020003700e10f450003003200a7
:104454000a007800a8570200000000000800be000f
:104464000e5a020000000000170037000104e000ab
:104474000c003200e1cf500013003a00e10f41007c
:104484000300320002007800b85702000000000068
:10449400890078000a007800ce590200000000006c
:1044a4000900370004017800880078000a007800c9
:1044b400ea57020000000000a859020000000000b2
:1044c4000000e000fcff32004f0578004f04be00fe
:1044d400000006000dcdbf00c1d02000914078003f
:1044e4000104e10018003200e24f40000b003200ea
:1044f400e2c1b3000440bc007c034100e588200015
:1045040062807a008002b1008402200013c0b300ec
:1045140062862000e6c07a00b8ff07000ccdbf0019
:104524000dedb70082fd2f006140800001014100c4
:1045340084022000838220009341780011c0b300dc
:1045440060862000adff070000000600e1ff0700c1
:10455400b043800030418800604080009040880073
:10456400a040880070408000b0408800c0408800af
:10457400400020002468ab0001003a00d000200075
:10458400104188002408a9002428a9002448a9006f
:104594002488a90024a8a90024c8a90024e8a90003
:1045a4002508a9002528a9002548a9002568a900ef
:1045b4002588a8008808a9008828a9008868a90077
:1045c4008888a9006040800090438800aa6c02009b
:1045d4000000000050438800aa6c020000000000a4
:1045e4006043880086a8ef0010002000c0438800c4
:1045f40000000600b6fe0700b6ff0700008020009a
:10460400c18720000900090031587800a0438000c8
:10461400504088000080200000000600889fbe00f3
:104624008a9fbe000e0de20007003a00086d0200ea
:1046340000000000f27f2000020060000240200021
:104644000200400070688800c20320008000eb0074
:10465400a0822000ee020200000000002965210073
:104664000005eb0078042a000a40780098fe070051
:104674000800e8009000780063004400100178000e
:104684001804e00008003a00028040000080440062
:10469400ab0220008085450020652300808f5500f3
:1046a40002003600fdff3700ffff37002868ef00e7
:1046b40080022000090040006040880001004000a2
:1046c4000000e8007040880002004000804088003c
:1046d400d0002000104188002468a9007dff070055
:1046e40078f897008de8b70098ff07000a05e800fe
:1046f40066044400e30f5500020032008b04780086
:10470400d9ff37004f05be004f04be00000006006d
:104714002600fa00889fbe008a9fbe008c1f780086
:1047240000447800014578006aff07000808a300e8
:10473400020032002568a8000804a10024a8a900ea
:1047440024c8a90024e8a9002528a9002548a9000f
:104754002508a9000c5b0200000000000000e00036
:10476400fcff3200e60064008004eb0056003a00cf
:104774009040800092438000820f500002003a0073
:104784008104780045003700c3438000820f500045
:104794001300360002005000830f50000100360061
:1047a4000300780059448000890f500002003e0045
:1047b40080047800010037002548a8000902780029
:1047c40083822000934178008040eb00c0aa20003f
:1047d4000aff0700090078007228b4002f00370090
:1047e400714080000282500084b79f008000420024
:1047f4006040800000805000830f500001003600ac
:104804000300780059448000890f500002003e00e4
:1048140080047800010037002548a800890f520061
:104824000100360089b79f000fb2970083822000f1
:10483400934178008040eb00c0aa2000effe0700ff
:104844000fb097000082540084b79f000900320023
:1048540062408000904380000e08b500c1aa200089
:104864000100400083822000934178008040eb00e7
:10487400e2fe07009043800080804400914388005a
:1048840072408000828f5000040039006040800034
:104894000000510000805000904388002568ab0060
:1048a40007003200c0438000808f540004003200af
:1048b40050448000808f5400010032000804a0009e
:1048c4000900e00002003a006300640015003200b1
:1048d400090078007828b5000900e00001003200e2
:1048e4000834a0000a08a300040032008c68ef001a
:1048f40041422f00314388006828ef00f8a70200e6
:104904000000000032438000434380000001410066
:1049140081814900d2408800e34088002488a800af
:104924002b003700224180008a80fb000118a3007d
:104934000e0032008240e800e780600080ff2f0014
:104944000000610001007000204188005043800095
:104954006143800061005000e080580050438800ab
:1049640061438800190020001900370070006100bd
:1049740002003a0080047800150037000108a30003
:104984000a003a008cc8bf00080032000040e90069
:104994008ce8b70030438000414380008100d1009f
:1049a4000080d3003043880041438800f8a7020008
:1049b40000000000324380004343800000014100b6
:1049c40081814900d2408800e34088008004eb00e4
:1049d400b143800091b79f00a2438000a2b79f001b
:1049e4005243800063438000b2b79f00c3b79f0067
:1049f4007043800081438000d0b79f00e1b79f00df
:104a04007fb09700f1ff23000100600001ff2f0039
:104a140001006000f0b79f00f8ef9f000000eb007a
:104a2400a0bf9f0009014100e08149005243880072
:104a3400634388008880fb000100d10061006000ae
:104a4400804578000004e000130032000148a30010
:104a540003003a006000b800d0b79f00e1b79f00a0
:104a64008828ab00070032003fb09700cfb0970012
:104a740061005000e0805800b0b79f00c1b79f00ac
:104a84000500370061014100e0814900524388007c
:104a9400634388008828a8000808a3001000320097
:104aa4008808ab00070032003fb09700cfb09700f2
:104ab40061005000e0805800b0b79f00c1b79f006c
:104ac40007003700504380006143800061004000cc
:104ad400e080480050438800614388008808a800ab
:104ae400b2408000c1408000810f510005003900b0
:104af400704080001008b500810051000100500092
:104b040002003700028050000000e90080bf9f00cf
:104b140050560200000000000004b10080af9f0066
:104b240002003b008000eb0081af9f008fa897003c
:104b34007e8657000fb89700810f500001003600a1
:104b440081bf9f000c007800c6fd070074854400f7
:104b5400f2f02f007fb09700820060000105b300df
:104b6400f1b79f000b04e0000a003200788544008e
:104b740020c0b300a0d79f0040c0b300b0d79f00af
:104b840020802100a0af9f00028060000006b300d7
:104b9400f0b79f00818f2000914078008180fb0056
:104ba400f9c8bf004800dd0001017000a18f20009a
:104bb400914078008180fb00fbc8bf004800dd0005
:104bc4008101700060fd2f000f044000028cbe00c4
:104bd400e0438000f1438000d0af9f00e1af9f002d
:104be4000040eb00e0df9f0069c0b300f9df9f00e5
:104bf4008ab79f000a0078006c7002000000000071
:104c040080b79f00c100200008007800ac7002004b
:104c1400000000000080ea0090bf9f0040a8200030
:104c2400a8570200000000000a01780089407800bb
:104c3400c087200006a002000000000041012000ff
:104c44000c0078000e5a0200000000000b04e00083
:104c5400050032004100200022fd2f000f0041001a
:104c64000e5a02000000000080a92000b85702007c
:104c7400000000000a007800d67002000000000066
:104c840080af9f0080aa2000a85702000000000007
:104c94002100200000fd2f000f0040000e5a0200ea
:104ca400000000004e570200000000004f0678008c
:104cb4004f05be004f04be000080fa00000006004d
:104cc400889fbe008a9fbe00010478000205780018
:104cd40083447800fefc07000800e00001003a006d
:104ce40018002000604080001008b5008005e9002d
:104cf4000a0444008b0f54004a003e00f5fd0700ef
:104d04006380640001003a003940b3000880550014
:104d14008981fb000318a30002003a000a0178000d
:104d2400040037000308a300010032000000d10092
:104d34000001450060408000000041000004e800dc
:104d4400b140800032448000e10f4100090032008c
:104d5400d0438000000041008080400080408000fb
:104d6400808f5000030036000e08b500008040001c
:104d74008000e900c0408000810f5000020039002b
:104d84000500360070408000800f54000400360097
:104d94000328a30023003a00c8408800b8408800d4
:104da400c0408000808f5000110031000328a30010
:104db4000f00320072408000028250008382200083
:104dc4009341780083407800080078008bfd070049
:104dd400b1408000c0408000808f5000040031004a
:104de400080078000e08b50000805000b04088002c
:104df400784088006040800090438800a04088008c
:104e0400904088001100200010418000e70f5000fe
:104e140005003a0000c1b3003dfe07001100200068
:104e2400010037008000eb00010078004f05be0050
:104e34004f04be0000000600881f7800004478007c
:104e4400eefc07000000e000070032000840780094
:104e54009ffc0700b0408000c040880011c0b30030
:104e640000c1b3002afe07004f04780000000600ca
:104e740097fc070097fd0700914080009043800055
:104e8400808f50000300320011c0b30000c1b30092
:104e94001ffe0700000006008dfc0700b0408000e4
:104ea400c040880010418000e50f50002f00320000
:104eb40006003e00e10f50000d0032002b003900c7
:104ec400e30f500026003e0028003700eb0f50008f
:104ed4001500320003003e00e70f500020003e00a2
:104ee40006003700ee0f50001d003a00190037008d
:104ef40098670200000000001c00370011c0b300d6
:104f040010c1b30002fe07007808e200040032007a
:104f14009140800090438000808f5000f7ff3a005a
:104f2400800020000c00370011c0b30010c1b30092
:104f3400f7fd07007808e200040032009140800089
:104f440090438000808f5000f7ff3a00c00020009b
:104f540001003700d0002000104188000000060046
:104f64008040eb0040c1b300e9fd070077fd370046
:104f7400881f78000044780055fc07002468a900c5
:104f840008407800c4ff07004f04780000000600c2
:104f94000400fa00889fbe008a9fbe008c1f780020
:104fa40090bf9f00a1bf9f000244780003057800d2
:104fb400844578008004eb000946780009407800b5
:104fc40043fc070010418000ed0f500063003a00dd
:104fd40040fd07000b4078008d48e3005f003a0075
:104fe40080212000504488000804e00006003a00b4
:104ff400ba4388002468a8004000200010418800bb
:105004003a4188005300370000c02f000e0db40051
:1050140081f82000810f500002003600004020007b
:105024007068880070688000b04388000000e80061
:1050340070688800aa438800f8a7020000000000f6
:10504400d0408800e14088002488a800e34f540041
:105054001600320003003e00e14f54003d003900c9
:1050640003003700e44f54003a003a0021003700af
:105074001fb89700afb89700e0438800f143880059
:105084000814a2000880fb000000e9004f00de00c5
:105094004200dd00414480000120a10080807000b6
:1050a400414488002228ef002a0037002fb89700d7
:1050b4009fb89700010040000a004000b1438000ff
:1050c40001006800304188001fb89700afb897000e
:1050d400e0438800f14388008c68ef00d10320008e
:1050e400314388006828ef00200020001041880028
:1050f400180037001fb99700224090000080fb0081
:10510400b2409000c808dd00808070009281fb00ee
:10511400124090004800dd000300700080804000d1
:105124008a804000b043800080806800314188005c
:10513400c08720000900090032587800a200b1009d
:10514400500020001041880011c0b30020c0b300fb
:105154006ffd07000c80fb00040037008904e800a1
:10516400e38f540094ff3a00e00f20004f067800cc
:105174004f05be004f04be000080fa000000060088
:105184000f03b000889fbe008a9fbe008c9fbe00a4
:105194008e1f780080057800820478001082fb005e
:1051a400104090004800dd00040170002b42900084
:1051b4000482fb003b4090004800dd008401700045
:1051c400a2a79f00b3a79f001101be00c2a79f0022
:1051d400d3a79f000040eb00c0cf9f0060c0b30086
:1051e400d0cf9f00f9a79f00090078006c700200df
:1051f40000000000f0a79f00c100200040fc2f0029
:105204000f004000ac7002000000000000047800b1
:1052140009007800d6700200000000008880ea00cf
:10522400808f50002a033a000000eb00da9f02004e
:105234000000000003fd2f000f8441004101200005
:1052440008007800ce590200000000000800780031
:1052540004fc07006fa897004400de006f40600064
:105264004200dd00744050000080fb008084540044
:1052740089bf9f00748754009fa997000300e00032
:10528400130332002b4090000080fb00bb409000d1
:10529400c808dd00808070001b81fb001b4090006b
:1052a4004800dd00020070008080400098804000cb
:1052b40003856800e9cfb3000004eb0008407800e0
:1052c40083fb070010418000ed0f500022003200e4
:1052d40031418000e40f500005003a001fa89700f8
:1052e400808f50001c003a00884478001a00370070
:1052f4008a8f500018003a0076fc07009fa8970098
:10530400b0438000808f500013003a0004fd2f004a
:105314008f004200a0438000910f10000e003a005d
:105324009b80fb001b4090004800dd0001017000e1
:10533400ab4090008180fb003b4090004800dd00c2
:1053440081017000e0438000f1438000800f510030
:10535400818f5900d10232000804e800e30f5400a1
:10536400d6ff3a0005fd2f000f844200e2cf44002f
:105374000f0032000940780055fb070055fc070078
:105384003a418800c6872000090009003b5b780089
:10539400ab00b10018047800a84388001fac970044
:1053a400b84388006940800099438800bb023700f5
:1053b4006fa897000098a300c50232006208e200bb
:1053c400c3023a001fab9700980278008004eb00f8
:1053d400a4832000140078000000e00017003200cd
:1053e400860f500011003a0054b89700850f500002
:1053f4000e003a009b80fb001b4090004800dd003b
:1054040001017000ab4090008180fb003b409000a4
:105414004800dd008101700004b8970094b897003b
:10542400820f5000838f58007b0232008904e80009
:1054340074024200e38f5400e6ff3a000004eb00dc
:105444000840780022fb07002468ab000500320006
:1054540020fc0700b14380001fa89700808f5000f4
:10546400740232000804e800e30f5400980232008a
:10547400f3ff3700f8a7020000000000829628001e
:10548400930020000001410081814900d24088003e
:10549400e340880014418000e40f5200030032000e
:1054a400e50f520047003a00160037000880fb0061
:1054b400e400600006003a000048a3000600320041
:1054c4005c4388006d4388000440780090fc07002a
:1054d4001efc07007e0237000018a300fcff320008
:1054e4003fb09700cfb0970061004000e0804800d3
:1054f40070438800814388007efb07005044880085
:105504002a0037008880fb000128a30070023a00bb
:105514004408de0061006000004578000004e000fb
:10552400050032005843800069438000880f56000c
:10553400898f5e008d003a000118a30064023200d6
:105544003fb19700cfb1970061014100e08149006c
:105554007243880083438800ffa99700c3438800ef
:1055640064fb0700504488000a04e0000f00320086
:1055740011c0b30000c1b30065fc07007000200037
:1055840010418800f8a7020000000000829628005d
:10559400930020000001410081814900d24088002d
:1055a400e34088002488a9004902370011c0b300f1
:1055b40020c1b30056fc07006000200010418800a1
:1055c400430237000883fb00e1026300e5b79f0054
:1055d400a5ef9f004fe897000004e00002003a00a6
:1055e400aeb79f00030037000fb997007301510055
:1055f400a2b79f000884fb00f8b79f000818a30017
:1056040003003200afb197008301e800a3b79f0005
:10561400b2408000c1408000810f51000500390074
:10562400704080001008b500810051000105500051
:1056340002003700028050000005e900704380003a
:10564400814380003fb49700cfb497000001540019
:1056540081815c0082057800afb497000900e00006
:105664001f0032000a00e00028003200e00f510061
:10567400e08f5900040035006150b800820f5000db
:10568400838f58000a003e00afb297000500410026
:10569400e08049004240a90007003400050055009d
:1056a400cf80de00800f5100818f590002003c0042
:1056b40015002000010037008002eb006150b800a3
:1056c400800f5100818f59000e003d002fb49700c8
:1056d400088045004240a90010003c000900370042
:1056e400e00f5100e08f59000c0032000700350034
:1056f4006150b800820f5000838f580007003e00ad
:10570400020037000500e00004003a00ffb49700ef
:105714000928a300ee013a00dc01370066006300ab
:105724006bff3a007fb097000048a300e801320005
:10573400eb0f520005003e00e70f52001500310048
:10574400e60f5200c5003a0003003700ec0f520088
:10575400c2003a00bb003700584380006943800010
:10576400880f5600898f5e00080032005c43880071
:105774006d43880011c0b30040c0b300e4fb0700d0
:105784005843880069438800d10137007000200025
:1057940010418800974380009240800087005100a8
:1057a40003003b00604080000e08b500808040008c
:1057b400524380006343800001004100e0804900bf
:1057c4000c0050008d80580002003b008040eb002c
:1057d400af013700a640800006805300cf80de0072
:1057e4000002510081825900868f53000200390063
:1057f4000400be0004003700604080000e08b500bd
:1058040000005200e0805a000001560081815e00d1
:105814004240a9002f00340061408000794080009c
:10582400018454006140b800800f5100818f5900f9
:1058340028003e008868a9008888a9002508a900d6
:10584400a040800002024000a440880091438000f0
:10585400808f500004003900848f50000d00310007
:10586400010052000400370008804000840f5000fb
:10587400080031000000520052438000634380005e
:1058840000004100e08049005043880061438800e3
:105894009443880071408000810f52000400390055
:1058a400604080000080500000005200a04088004a
:1058b4009243800071408000810f51001c00390028
:1058c4006040800000805000000051009043880038
:1058d40017003700870f5300150032004044800042
:1058e4000038a300110032000048a3000e0032006b
:1058f400544388006543880090438000860f50001d
:1059040007003100604080000e08b500cf80de0043
:105914000000520081805a0050438800614388008f
:10592400964388002548a8008888a8008868a800ad
:10593400a140800090408000808f500015003a0004
:105944002568ab000a003a00f8a702000000000036
:1059540082962800930020000001410081814900c3
:10596400d2408800e34088002488a9000900370059
:1059740050438000614380008c0f50008d8f58008d
:1059840004003a008808ab00020032002488a90011
:105994002568a900504380008c0050007fa8970020
:1059a400010050007808e20003003a000000e00023
:1059b400010032002528a800c0438800104180005f
:1059c400e80f500013003a00504380006143800008
:1059d4008c0f50008d8f580020003a008808ab00cf
:1059e4001e003200f8a7020000000000424b2c0009
:1059f400430020000001410081814900d240880019
:105a0400e34088002488a80090002000104188000a
:105a140012003700e90f500008003a00efb0970079
:105a24000100e0000d003a005c4388006d438800eb
:105a3400cfe8970040c1b300a4fe3700ea0f50003e
:105a440006003a0050438000614380008c0f5000f0
:105a54008d8f58001e013a009dfe3700ffb4970059
:105a64000902b2001a013a0010418000eb0f500005
:105a740017013200ea0f500015013200ec0f5000fc
:105a8400130132000e00e000980032000b044700be
